{
  "_format": "hh-sol-artifact-1",
  "contractName": "NoToken",
  "sourceName": "contracts/NoToken.sol",
  "abi": [
    {
      "inputs": [
        {
          "internalType": "address",
          "name": "initialOwner",
          "type": "address"
        }
      ],
      "stateMutability": "nonpayable",
      "type": "constructor"
    },
    {
      "inputs": [
        {
          "internalType": "address",
          "name": "sender",
          "type": "address"
        },
        {
          "internalType": "uint256",
          "name": "balance",
          "type": "uint256"
        },
        {
          "internalType": "uint256",
          "name": "needed",
          "type": "uint256"
        },
        {
          "internalType": "uint256",
          "name": "tokenId",
          "type": "uint256"
        }
      ],
      "name": "ERC1155InsufficientBalance",
      "type": "error"
    },
    {
      "inputs": [
        {
          "internalType": "address",
          "name": "approver",
          "type": "address"
        }
      ],
      "name": "ERC1155InvalidApprover",
      "type": "error"
    },
    {
      "inputs": [
        {
          "internalType": "uint256",
          "name": "idsLength",
          "type": "uint256"
        },
        {
          "internalType": "uint256",
          "name": "valuesLength",
          "type": "uint256"
        }
      ],
      "name": "ERC1155InvalidArrayLength",
      "type": "error"
    },
    {
      "inputs": [
        {
          "internalType": "address",
          "name": "operator",
          "type": "address"
        }
      ],
      "name": "ERC1155InvalidOperator",
      "type": "error"
    },
    {
      "inputs": [
        {
          "internalType": "address",
          "name": "receiver",
          "type": "address"
        }
      ],
      "name": "ERC1155InvalidReceiver",
      "type": "error"
    },
    {
      "inputs": [
        {
          "internalType": "address",
          "name": "sender",
          "type": "address"
        }
      ],
      "name": "ERC1155InvalidSender",
      "type": "error"
    },
    {
      "inputs": [
        {
          "internalType": "address",
          "name": "operator",
          "type": "address"
        },
        {
          "internalType": "address",
          "name": "owner",
          "type": "address"
        }
      ],
      "name": "ERC1155MissingApprovalForAll",
      "type": "error"
    },
    {
      "inputs": [
        {
          "internalType": "address",
          "name": "owner",
          "type": "address"
        }
      ],
      "name": "OwnableInvalidOwner",
      "type": "error"
    },
    {
      "inputs": [
        {
          "internalType": "address",
          "name": "account",
          "type": "address"
        }
      ],
      "name": "OwnableUnauthorizedAccount",
      "type": "error"
    },
    {
      "anonymous": false,
      "inputs": [
        {
          "indexed": true,
          "internalType": "address",
          "name": "account",
          "type": "address"
        },
        {
          "indexed": true,
          "internalType": "address",
          "name": "operator",
          "type": "address"
        },
        {
          "indexed": false,
          "internalType": "bool",
          "name": "approved",
          "type": "bool"
        }
      ],
      "name": "ApprovalForAll",
      "type": "event"
    },
    {
      "anonymous": false,
      "inputs": [
        {
          "indexed": true,
          "internalType": "address",
          "name": "previousOwner",
          "type": "address"
        },
        {
          "indexed": true,
          "internalType": "address",
          "name": "newOwner",
          "type": "address"
        }
      ],
      "name": "OwnershipTransferred",
      "type": "event"
    },
    {
      "anonymous": false,
      "inputs": [
        {
          "indexed": true,
          "internalType": "address",
          "name": "operator",
          "type": "address"
        },
        {
          "indexed": true,
          "internalType": "address",
          "name": "from",
          "type": "address"
        },
        {
          "indexed": true,
          "internalType": "address",
          "name": "to",
          "type": "address"
        },
        {
          "indexed": false,
          "internalType": "uint256[]",
          "name": "ids",
          "type": "uint256[]"
        },
        {
          "indexed": false,
          "internalType": "uint256[]",
          "name": "values",
          "type": "uint256[]"
        }
      ],
      "name": "TransferBatch",
      "type": "event"
    },
    {
      "anonymous": false,
      "inputs": [
        {
          "indexed": true,
          "internalType": "address",
          "name": "operator",
          "type": "address"
        },
        {
          "indexed": true,
          "internalType": "address",
          "name": "from",
          "type": "address"
        },
        {
          "indexed": true,
          "internalType": "address",
          "name": "to",
          "type": "address"
        },
        {
          "indexed": false,
          "internalType": "uint256",
          "name": "id",
          "type": "uint256"
        },
        {
          "indexed": false,
          "internalType": "uint256",
          "name": "value",
          "type": "uint256"
        }
      ],
      "name": "TransferSingle",
      "type": "event"
    },
    {
      "anonymous": false,
      "inputs": [
        {
          "indexed": false,
          "internalType": "string",
          "name": "value",
          "type": "string"
        },
        {
          "indexed": true,
          "internalType": "uint256",
          "name": "id",
          "type": "uint256"
        }
      ],
      "name": "URI",
      "type": "event"
    },
    {
      "inputs": [
        {
          "internalType": "address",
          "name": "account",
          "type": "address"
        },
        {
          "internalType": "uint256",
          "name": "id",
          "type": "uint256"
        }
      ],
      "name": "balanceOf",
      "outputs": [
        {
          "internalType": "uint256",
          "name": "",
          "type": "uint256"
        }
      ],
      "stateMutability": "view",
      "type": "function"
    },
    {
      "inputs": [
        {
          "internalType": "address[]",
          "name": "accounts",
          "type": "address[]"
        },
        {
          "internalType": "uint256[]",
          "name": "ids",
          "type": "uint256[]"
        }
      ],
      "name": "balanceOfBatch",
      "outputs": [
        {
          "internalType": "uint256[]",
          "name": "",
          "type": "uint256[]"
        }
      ],
      "stateMutability": "view",
      "type": "function"
    },
    {
      "inputs": [
        {
          "internalType": "address",
          "name": "account",
          "type": "address"
        },
        {
          "internalType": "uint256",
          "name": "id",
          "type": "uint256"
        },
        {
          "internalType": "uint256",
          "name": "amount",
          "type": "uint256"
        }
      ],
      "name": "burn",
      "outputs": [],
      "stateMutability": "nonpayable",
      "type": "function"
    },
    {
      "inputs": [
        {
          "internalType": "address",
          "name": "account",
          "type": "address"
        },
        {
          "internalType": "uint256[]",
          "name": "ids",
          "type": "uint256[]"
        },
        {
          "internalType": "uint256[]",
          "name": "values",
          "type": "uint256[]"
        }
      ],
      "name": "burnBatch",
      "outputs": [],
      "stateMutability": "nonpayable",
      "type": "function"
    },
    {
      "inputs": [
        {
          "internalType": "address",
          "name": "account",
          "type": "address"
        },
        {
          "internalType": "address",
          "name": "operator",
          "type": "address"
        }
      ],
      "name": "isApprovedForAll",
      "outputs": [
        {
          "internalType": "bool",
          "name": "",
          "type": "bool"
        }
      ],
      "stateMutability": "view",
      "type": "function"
    },
    {
      "inputs": [
        {
          "internalType": "address",
          "name": "account",
          "type": "address"
        },
        {
          "internalType": "uint256",
          "name": "id",
          "type": "uint256"
        },
        {
          "internalType": "uint256",
          "name": "amount",
          "type": "uint256"
        },
        {
          "internalType": "bytes",
          "name": "data",
          "type": "bytes"
        }
      ],
      "name": "mint",
      "outputs": [],
      "stateMutability": "nonpayable",
      "type": "function"
    },
    {
      "inputs": [
        {
          "internalType": "address",
          "name": "to",
          "type": "address"
        },
        {
          "internalType": "uint256[]",
          "name": "ids",
          "type": "uint256[]"
        },
        {
          "internalType": "uint256[]",
          "name": "amounts",
          "type": "uint256[]"
        },
        {
          "internalType": "bytes",
          "name": "data",
          "type": "bytes"
        }
      ],
      "name": "mintBatch",
      "outputs": [],
      "stateMutability": "nonpayable",
      "type": "function"
    },
    {
      "inputs": [],
      "name": "owner",
      "outputs": [
        {
          "internalType": "address",
          "name": "",
          "type": "address"
        }
      ],
      "stateMutability": "view",
      "type": "function"
    },
    {
      "inputs": [],
      "name": "renounceOwnership",
      "outputs": [],
      "stateMutability": "nonpayable",
      "type": "function"
    },
    {
      "inputs": [
        {
          "internalType": "address",
          "name": "from",
          "type": "address"
        },
        {
          "internalType": "address",
          "name": "to",
          "type": "address"
        },
        {
          "internalType": "uint256[]",
          "name": "ids",
          "type": "uint256[]"
        },
        {
          "internalType": "uint256[]",
          "name": "values",
          "type": "uint256[]"
        },
        {
          "internalType": "bytes",
          "name": "data",
          "type": "bytes"
        }
      ],
      "name": "safeBatchTransferFrom",
      "outputs": [],
      "stateMutability": "nonpayable",
      "type": "function"
    },
    {
      "inputs": [
        {
          "internalType": "address",
          "name": "from",
          "type": "address"
        },
        {
          "internalType": "address",
          "name": "to",
          "type": "address"
        },
        {
          "internalType": "uint256",
          "name": "id",
          "type": "uint256"
        },
        {
          "internalType": "uint256",
          "name": "value",
          "type": "uint256"
        },
        {
          "internalType": "bytes",
          "name": "data",
          "type": "bytes"
        }
      ],
      "name": "safeTransferFrom",
      "outputs": [],
      "stateMutability": "nonpayable",
      "type": "function"
    },
    {
      "inputs": [
        {
          "internalType": "address",
          "name": "operator",
          "type": "address"
        },
        {
          "internalType": "bool",
          "name": "approved",
          "type": "bool"
        }
      ],
      "name": "setApprovalForAll",
      "outputs": [],
      "stateMutability": "nonpayable",
      "type": "function"
    },
    {
      "inputs": [
        {
          "internalType": "string",
          "name": "newuri",
          "type": "string"
        }
      ],
      "name": "setURI",
      "outputs": [],
      "stateMutability": "nonpayable",
      "type": "function"
    },
    {
      "inputs": [
        {
          "internalType": "bytes4",
          "name": "interfaceId",
          "type": "bytes4"
        }
      ],
      "name": "supportsInterface",
      "outputs": [
        {
          "internalType": "bool",
          "name": "",
          "type": "bool"
        }
      ],
      "stateMutability": "view",
      "type": "function"
    },
    {
      "inputs": [
        {
          "internalType": "address",
          "name": "to",
          "type": "address"
        },
        {
          "internalType": "uint256",
          "name": "id",
          "type": "uint256"
        },
        {
          "internalType": "uint256",
          "name": "amount",
          "type": "uint256"
        }
      ],
      "name": "transfer",
      "outputs": [],
      "stateMutability": "nonpayable",
      "type": "function"
    },
    {
      "inputs": [
        {
          "internalType": "address",
          "name": "newOwner",
          "type": "address"
        }
      ],
      "name": "transferOwnership",
      "outputs": [],
      "stateMutability": "nonpayable",
      "type": "function"
    },
    {
      "inputs": [
        {
          "internalType": "uint256",
          "name": "",
          "type": "uint256"
        }
      ],
      "name": "uri",
      "outputs": [
        {
          "internalType": "string",
          "name": "",
          "type": "string"
        }
      ],
      "stateMutability": "view",
      "type": "function"
    }
  ],
  "bytecode": "0x60806040523480156200001157600080fd5b5060405162001ab538038062001ab58339810160408190526200003491620000f7565b6040805160208101909152600081528190620000508162000093565b506001600160a01b0381166200008057604051631e4fbdf760e01b81526000600482015260240160405180910390fd5b6200008b81620000a5565b50506200029c565b6002620000a18282620001d0565b5050565b600380546001600160a01b038381166001600160a01b0319831681179093556040519116919082907f8be0079c531659141344cd1fd0a4f28419497f9722a3daafe3b4186f6b6457e090600090a35050565b6000602082840312156200010a57600080fd5b81516001600160a01b03811681146200012257600080fd5b9392505050565b634e487b7160e01b600052604160045260246000fd5b600181811c908216806200015457607f821691505b6020821081036200017557634e487b7160e01b600052602260045260246000fd5b50919050565b601f821115620001cb576000816000526020600020601f850160051c81016020861015620001a65750805b601f850160051c820191505b81811015620001c757828155600101620001b2565b5050505b505050565b81516001600160401b03811115620001ec57620001ec62000129565b6200020481620001fd84546200013f565b846200017b565b602080601f8311600181146200023c5760008415620002235750858301515b600019600386901b1c1916600185901b178555620001c7565b600085815260208120601f198616915b828110156200026d578886015182559484019460019091019084016200024c565b50858210156200028c5787850151600019600388901b60f8161c191681555b5050505050600190811b01905550565b61180980620002ac6000396000f3fe608060405234801561001057600080fd5b506004361061010a5760003560e01c80636b20c454116100a2578063a22cb46511610071578063a22cb4651461022f578063e985e9c514610242578063f242432a14610255578063f2fde38b14610268578063f5298aca1461027b57600080fd5b80636b20c454146101e6578063715018a6146101f9578063731133e9146102015780638da5cb5b1461021457600080fd5b80630e89341c116100de5780630e89341c146101805780631f7fdffa146101a05780632eb2c2d6146101b35780634e1273f4146101c657600080fd5b8062fdd58e1461010f57806301ffc9a71461013557806302fe530514610158578063095bcdb61461016d575b600080fd5b61012261011d366004610eb6565b61028e565b6040519081526020015b60405180910390f35b610148610143366004610ef6565b6102b9565b604051901515815260200161012c565b61016b610166366004610fb9565b610309565b005b61016b61017b36600461100a565b61031d565b61019361018e36600461103d565b610393565b60405161012c919061109c565b61016b6101ae366004611162565b610427565b61016b6101c13660046111fb565b610441565b6101d96101d43660046112a5565b6104a8565b60405161012c91906113a1565b61016b6101f43660046113b4565b610575565b61016b6105cf565b61016b61020f366004611428565b6105e3565b6003546040516001600160a01b03909116815260200161012c565b61016b61023d36600461147d565b6105ef565b6101486102503660046114b9565b6105fe565b61016b6102633660046114ec565b61062c565b61016b610276366004611551565b61068b565b61016b61028936600461100a565b6106c6565b6000818152602081815260408083206001600160a01b03861684529091528120545b90505b92915050565b60006001600160e01b03198216636cdb3d1360e11b14806102ea57506001600160e01b031982166303a24d0760e21b145b806102b357506301ffc9a760e01b6001600160e01b03198316146102b3565b6103116106d1565b61031a816106fe565b50565b80610328338461028e565b10156103725760405162461bcd60e51b8152602060048201526014602482015273496e73756666696369656e742062616c616e636560601b60448201526064015b60405180910390fd5b61038e338484846040518060200160405280600081525061062c565b505050565b6060600280546103a29061156c565b80601f01602080910402602001604051908101604052809291908181526020018280546103ce9061156c565b801561041b5780601f106103f05761010080835404028352916020019161041b565b820191906000526020600020905b8154815290600101906020018083116103fe57829003601f168201915b50505050509050919050565b61042f6106d1565b61043b8484848461070a565b50505050565b336001600160a01b0386168114801590610462575061046086826105fe565b155b156104935760405163711bec9160e11b81526001600160a01b03808316600483015287166024820152604401610369565b6104a08686868686610742565b505050505050565b606081518351146104d95781518351604051635b05999160e01b815260048101929092526024820152604401610369565b6000835167ffffffffffffffff8111156104f5576104f5610f1a565b60405190808252806020026020018201604052801561051e578160200160208202803683370190505b50905060005b845181101561056d576020808202860101516105489060208084028701015161028e565b82828151811061055a5761055a6115a6565b6020908102919091010152600101610524565b509392505050565b6001600160a01b0383163314801590610595575061059383336105fe565b155b156105c45760405163711bec9160e11b81523360048201526001600160a01b0384166024820152604401610369565b61038e8383836107a9565b6105d76106d1565b6105e160006107ef565b565b61043b84848484610841565b6105fa33838361089e565b5050565b6001600160a01b03918216600090815260016020908152604080832093909416825291909152205460ff1690565b336001600160a01b038616811480159061064d575061064b86826105fe565b155b1561067e5760405163711bec9160e11b81526001600160a01b03808316600483015287166024820152604401610369565b6104a08686868686610934565b6106936106d1565b6001600160a01b0381166106bd57604051631e4fbdf760e01b815260006004820152602401610369565b61031a816107ef565b61038e8383836109c2565b6003546001600160a01b031633146105e15760405163118cdaa760e01b8152336004820152602401610369565b60026105fa8282611604565b6001600160a01b03841661073457604051632bfa23e760e11b815260006004820152602401610369565b61043b600085858585610a26565b6001600160a01b03841661076c57604051632bfa23e760e11b815260006004820152602401610369565b6001600160a01b03851661079557604051626a0d4560e21b815260006004820152602401610369565b6107a28585858585610a26565b5050505050565b6001600160a01b0383166107d257604051626a0d4560e21b815260006004820152602401610369565b61038e836000848460405180602001604052806000815250610a26565b600380546001600160a01b038381166001600160a01b0319831681179093556040519116919082907f8be0079c531659141344cd1fd0a4f28419497f9722a3daafe3b4186f6b6457e090600090a35050565b6001600160a01b03841661086b57604051632bfa23e760e11b815260006004820152602401610369565b604080516001808252602082018690528183019081526060820185905260808201909252906104a0600087848487610a26565b6001600160a01b0382166108c75760405162ced3e160e81b815260006004820152602401610369565b6001600160a01b03838116600081815260016020908152604080832094871680845294825291829020805460ff191686151590811790915591519182527f17307eab39ab6107e8899845ad3d59bd9653f200f220920489ca2b5937696c31910160405180910390a3505050565b6001600160a01b03841661095e57604051632bfa23e760e11b815260006004820152602401610369565b6001600160a01b03851661098757604051626a0d4560e21b815260006004820152602401610369565b604080516001808252602082018690528183019081526060820185905260808201909252906109b98787848487610a26565b50505050505050565b6001600160a01b0383166109eb57604051626a0d4560e21b815260006004820152602401610369565b604080516001808252602082018590528183019081526060820184905260a082019092526000608082018181529192916107a2918791859085905b610a3285858585610a79565b6001600160a01b038416156107a25782513390600103610a6b5760208481015190840151610a64838989858589610c8d565b50506104a0565b6104a0818787878787610db1565b8051825114610aa85781518151604051635b05999160e01b815260048101929092526024820152604401610369565b3360005b8351811015610bae576020818102858101820151908501909101516001600160a01b03881615610b5f576000828152602081815260408083206001600160a01b038c16845290915290205481811015610b38576040516303dee4c560e01b81526001600160a01b038a166004820152602481018290526044810183905260648101849052608401610369565b6000838152602081815260408083206001600160a01b038d16845290915290209082900390555b6001600160a01b03871615610ba4576000828152602081815260408083206001600160a01b038b16845290915281208054839290610b9e9084906116c4565b90915550505b5050600101610aac565b508251600103610c2f5760208301516000906020840151909150856001600160a01b0316876001600160a01b0316846001600160a01b03167fc3d58168c5ae7397731d063d5bbf3d657854427343f4c083240f7aacaa2d0f628585604051610c20929190918252602082015260400190565b60405180910390a450506107a2565b836001600160a01b0316856001600160a01b0316826001600160a01b03167f4a39dc06d4c0dbc64b70af90fd698a233a518aa5d07e595d983b8c0526c8f7fb8686604051610c7e9291906116e5565b60405180910390a45050505050565b6001600160a01b0384163b156104a05760405163f23a6e6160e01b81526001600160a01b0385169063f23a6e6190610cd19089908990889088908890600401611713565b6020604051808303816000875af1925050508015610d0c575060408051601f3d908101601f19168201909252610d0991810190611758565b60015b610d75573d808015610d3a576040519150601f19603f3d011682016040523d82523d6000602084013e610d3f565b606091505b508051600003610d6d57604051632bfa23e760e11b81526001600160a01b0386166004820152602401610369565b805181602001fd5b6001600160e01b0319811663f23a6e6160e01b146109b957604051632bfa23e760e11b81526001600160a01b0386166004820152602401610369565b6001600160a01b0384163b156104a05760405163bc197c8160e01b81526001600160a01b0385169063bc197c8190610df59089908990889088908890600401611775565b6020604051808303816000875af1925050508015610e30575060408051601f3d908101601f19168201909252610e2d91810190611758565b60015b610e5e573d808015610d3a576040519150601f19603f3d011682016040523d82523d6000602084013e610d3f565b6001600160e01b0319811663bc197c8160e01b146109b957604051632bfa23e760e11b81526001600160a01b0386166004820152602401610369565b80356001600160a01b0381168114610eb157600080fd5b919050565b60008060408385031215610ec957600080fd5b610ed283610e9a565b946020939093013593505050565b6001600160e01b03198116811461031a57600080fd5b600060208284031215610f0857600080fd5b8135610f1381610ee0565b9392505050565b634e487b7160e01b600052604160045260246000fd5b604051601f8201601f1916810167ffffffffffffffff81118282101715610f5957610f59610f1a565b604052919050565b600067ffffffffffffffff831115610f7b57610f7b610f1a565b610f8e601f8401601f1916602001610f30565b9050828152838383011115610fa257600080fd5b828260208301376000602084830101529392505050565b600060208284031215610fcb57600080fd5b813567ffffffffffffffff811115610fe257600080fd5b8201601f81018413610ff357600080fd5b61100284823560208401610f61565b949350505050565b60008060006060848603121561101f57600080fd5b61102884610e9a565b95602085013595506040909401359392505050565b60006020828403121561104f57600080fd5b5035919050565b6000815180845260005b8181101561107c57602081850181015186830182015201611060565b506000602082860101526020601f19601f83011685010191505092915050565b6020815260006102b06020830184611056565b600067ffffffffffffffff8211156110c9576110c9610f1a565b5060051b60200190565b600082601f8301126110e457600080fd5b813560206110f96110f4836110af565b610f30565b8083825260208201915060208460051b87010193508684111561111b57600080fd5b602086015b848110156111375780358352918301918301611120565b509695505050505050565b600082601f83011261115357600080fd5b6102b083833560208501610f61565b6000806000806080858703121561117857600080fd5b61118185610e9a565b9350602085013567ffffffffffffffff8082111561119e57600080fd5b6111aa888389016110d3565b945060408701359150808211156111c057600080fd5b6111cc888389016110d3565b935060608701359150808211156111e257600080fd5b506111ef87828801611142565b91505092959194509250565b600080600080600060a0868803121561121357600080fd5b61121c86610e9a565b945061122a60208701610e9a565b9350604086013567ffffffffffffffff8082111561124757600080fd5b61125389838a016110d3565b9450606088013591508082111561126957600080fd5b61127589838a016110d3565b9350608088013591508082111561128b57600080fd5b5061129888828901611142565b9150509295509295909350565b600080604083850312156112b857600080fd5b823567ffffffffffffffff808211156112d057600080fd5b818501915085601f8301126112e457600080fd5b813560206112f46110f4836110af565b82815260059290921b8401810191818101908984111561131357600080fd5b948201945b838610156113385761132986610e9a565b82529482019490820190611318565b9650508601359250508082111561134e57600080fd5b5061135b858286016110d3565b9150509250929050565b60008151808452602080850194506020840160005b838110156113965781518752958201959082019060010161137a565b509495945050505050565b6020815260006102b06020830184611365565b6000806000606084860312156113c957600080fd5b6113d284610e9a565b9250602084013567ffffffffffffffff808211156113ef57600080fd5b6113fb878388016110d3565b9350604086013591508082111561141157600080fd5b5061141e868287016110d3565b9150509250925092565b6000806000806080858703121561143e57600080fd5b61144785610e9a565b93506020850135925060408501359150606085013567ffffffffffffffff81111561147157600080fd5b6111ef87828801611142565b6000806040838503121561149057600080fd5b61149983610e9a565b9150602083013580151581146114ae57600080fd5b809150509250929050565b600080604083850312156114cc57600080fd5b6114d583610e9a565b91506114e360208401610e9a565b90509250929050565b600080600080600060a0868803121561150457600080fd5b61150d86610e9a565b945061151b60208701610e9a565b93506040860135925060608601359150608086013567ffffffffffffffff81111561154557600080fd5b61129888828901611142565b60006020828403121561156357600080fd5b6102b082610e9a565b600181811c9082168061158057607f821691505b6020821081036115a057634e487b7160e01b600052602260045260246000fd5b50919050565b634e487b7160e01b600052603260045260246000fd5b601f82111561038e576000816000526020600020601f850160051c810160208610156115e55750805b601f850160051c820191505b818110156104a0578281556001016115f1565b815167ffffffffffffffff81111561161e5761161e610f1a565b6116328161162c845461156c565b846115bc565b602080601f831160018114611667576000841561164f5750858301515b600019600386901b1c1916600185901b1785556104a0565b600085815260208120601f198616915b8281101561169657888601518255948401946001909101908401611677565b50858210156116b45787850151600019600388901b60f8161c191681555b5050505050600190811b01905550565b808201808211156102b357634e487b7160e01b600052601160045260246000fd5b6040815260006116f86040830185611365565b828103602084015261170a8185611365565b95945050505050565b6001600160a01b03868116825285166020820152604081018490526060810183905260a06080820181905260009061174d90830184611056565b979650505050505050565b60006020828403121561176a57600080fd5b8151610f1381610ee0565b6001600160a01b0386811682528516602082015260a0604082018190526000906117a190830186611365565b82810360608401526117b38186611365565b905082810360808401526117c78185611056565b9897505050505050505056fea26469706673582212201b05f4b6545a3cd1d0b31840b7a0e323c73ee8eae05a96a0a9b48b36d187031364736f6c63430008180033",
  "linkReferences": {},
  "deployedLinkReferences": {}
}