{
  "_format": "hh-sol-artifact-1",
  "contractName": "NoToken",
  "sourceName": "contracts/NoToken.sol",
  "abi": [
    {
      "inputs": [
        {
          "internalType": "address",
          "name": "initialOwner",
          "type": "address"
        }
      ],
      "stateMutability": "nonpayable",
      "type": "constructor"
    },
    {
      "inputs": [
        {
          "internalType": "address",
          "name": "sender",
          "type": "address"
        },
        {
          "internalType": "uint256",
          "name": "balance",
          "type": "uint256"
        },
        {
          "internalType": "uint256",
          "name": "needed",
          "type": "uint256"
        },
        {
          "internalType": "uint256",
          "name": "tokenId",
          "type": "uint256"
        }
      ],
      "name": "ERC1155InsufficientBalance",
      "type": "error"
    },
    {
      "inputs": [
        {
          "internalType": "address",
          "name": "approver",
          "type": "address"
        }
      ],
      "name": "ERC1155InvalidApprover",
      "type": "error"
    },
    {
      "inputs": [
        {
          "internalType": "uint256",
          "name": "idsLength",
          "type": "uint256"
        },
        {
          "internalType": "uint256",
          "name": "valuesLength",
          "type": "uint256"
        }
      ],
      "name": "ERC1155InvalidArrayLength",
      "type": "error"
    },
    {
      "inputs": [
        {
          "internalType": "address",
          "name": "operator",
          "type": "address"
        }
      ],
      "name": "ERC1155InvalidOperator",
      "type": "error"
    },
    {
      "inputs": [
        {
          "internalType": "address",
          "name": "receiver",
          "type": "address"
        }
      ],
      "name": "ERC1155InvalidReceiver",
      "type": "error"
    },
    {
      "inputs": [
        {
          "internalType": "address",
          "name": "sender",
          "type": "address"
        }
      ],
      "name": "ERC1155InvalidSender",
      "type": "error"
    },
    {
      "inputs": [
        {
          "internalType": "address",
          "name": "operator",
          "type": "address"
        },
        {
          "internalType": "address",
          "name": "owner",
          "type": "address"
        }
      ],
      "name": "ERC1155MissingApprovalForAll",
      "type": "error"
    },
    {
      "inputs": [
        {
          "internalType": "address",
          "name": "owner",
          "type": "address"
        }
      ],
      "name": "OwnableInvalidOwner",
      "type": "error"
    },
    {
      "inputs": [
        {
          "internalType": "address",
          "name": "account",
          "type": "address"
        }
      ],
      "name": "OwnableUnauthorizedAccount",
      "type": "error"
    },
    {
      "anonymous": false,
      "inputs": [
        {
          "indexed": true,
          "internalType": "address",
          "name": "account",
          "type": "address"
        },
        {
          "indexed": true,
          "internalType": "address",
          "name": "operator",
          "type": "address"
        },
        {
          "indexed": false,
          "internalType": "bool",
          "name": "approved",
          "type": "bool"
        }
      ],
      "name": "ApprovalForAll",
      "type": "event"
    },
    {
      "anonymous": false,
      "inputs": [
        {
          "indexed": true,
          "internalType": "address",
          "name": "previousOwner",
          "type": "address"
        },
        {
          "indexed": true,
          "internalType": "address",
          "name": "newOwner",
          "type": "address"
        }
      ],
      "name": "OwnershipTransferred",
      "type": "event"
    },
    {
      "anonymous": false,
      "inputs": [
        {
          "indexed": true,
          "internalType": "address",
          "name": "operator",
          "type": "address"
        },
        {
          "indexed": true,
          "internalType": "address",
          "name": "from",
          "type": "address"
        },
        {
          "indexed": true,
          "internalType": "address",
          "name": "to",
          "type": "address"
        },
        {
          "indexed": false,
          "internalType": "uint256[]",
          "name": "ids",
          "type": "uint256[]"
        },
        {
          "indexed": false,
          "internalType": "uint256[]",
          "name": "values",
          "type": "uint256[]"
        }
      ],
      "name": "TransferBatch",
      "type": "event"
    },
    {
      "anonymous": false,
      "inputs": [
        {
          "indexed": true,
          "internalType": "address",
          "name": "operator",
          "type": "address"
        },
        {
          "indexed": true,
          "internalType": "address",
          "name": "from",
          "type": "address"
        },
        {
          "indexed": true,
          "internalType": "address",
          "name": "to",
          "type": "address"
        },
        {
          "indexed": false,
          "internalType": "uint256",
          "name": "id",
          "type": "uint256"
        },
        {
          "indexed": false,
          "internalType": "uint256",
          "name": "value",
          "type": "uint256"
        }
      ],
      "name": "TransferSingle",
      "type": "event"
    },
    {
      "anonymous": false,
      "inputs": [
        {
          "indexed": false,
          "internalType": "string",
          "name": "value",
          "type": "string"
        },
        {
          "indexed": true,
          "internalType": "uint256",
          "name": "id",
          "type": "uint256"
        }
      ],
      "name": "URI",
      "type": "event"
    },
    {
      "inputs": [
        {
          "internalType": "uint256",
          "name": "",
          "type": "uint256"
        }
      ],
      "name": "PredictionMarketContracts",
      "outputs": [
        {
          "internalType": "address",
          "name": "",
          "type": "address"
        }
      ],
      "stateMutability": "view",
      "type": "function"
    },
    {
      "inputs": [
        {
          "internalType": "uint256",
          "name": "id",
          "type": "uint256"
        },
        {
          "internalType": "address",
          "name": "marketContract",
          "type": "address"
        }
      ],
      "name": "addPredictionMarket",
      "outputs": [],
      "stateMutability": "nonpayable",
      "type": "function"
    },
    {
      "inputs": [
        {
          "internalType": "address",
          "name": "account",
          "type": "address"
        },
        {
          "internalType": "uint256",
          "name": "id",
          "type": "uint256"
        }
      ],
      "name": "balanceOf",
      "outputs": [
        {
          "internalType": "uint256",
          "name": "",
          "type": "uint256"
        }
      ],
      "stateMutability": "view",
      "type": "function"
    },
    {
      "inputs": [
        {
          "internalType": "address[]",
          "name": "accounts",
          "type": "address[]"
        },
        {
          "internalType": "uint256[]",
          "name": "ids",
          "type": "uint256[]"
        }
      ],
      "name": "balanceOfBatch",
      "outputs": [
        {
          "internalType": "uint256[]",
          "name": "",
          "type": "uint256[]"
        }
      ],
      "stateMutability": "view",
      "type": "function"
    },
    {
      "inputs": [
        {
          "internalType": "address",
          "name": "account",
          "type": "address"
        },
        {
          "internalType": "uint256",
          "name": "id",
          "type": "uint256"
        },
        {
          "internalType": "uint256",
          "name": "amount",
          "type": "uint256"
        }
      ],
      "name": "burn",
      "outputs": [],
      "stateMutability": "nonpayable",
      "type": "function"
    },
    {
      "inputs": [
        {
          "internalType": "address",
          "name": "account",
          "type": "address"
        },
        {
          "internalType": "uint256[]",
          "name": "ids",
          "type": "uint256[]"
        },
        {
          "internalType": "uint256[]",
          "name": "values",
          "type": "uint256[]"
        }
      ],
      "name": "burnBatch",
      "outputs": [],
      "stateMutability": "nonpayable",
      "type": "function"
    },
    {
      "inputs": [
        {
          "internalType": "address",
          "name": "account",
          "type": "address"
        },
        {
          "internalType": "address",
          "name": "operator",
          "type": "address"
        }
      ],
      "name": "isApprovedForAll",
      "outputs": [
        {
          "internalType": "bool",
          "name": "",
          "type": "bool"
        }
      ],
      "stateMutability": "view",
      "type": "function"
    },
    {
      "inputs": [
        {
          "internalType": "address",
          "name": "account",
          "type": "address"
        },
        {
          "internalType": "uint256",
          "name": "id",
          "type": "uint256"
        },
        {
          "internalType": "uint256",
          "name": "amount",
          "type": "uint256"
        },
        {
          "internalType": "bytes",
          "name": "data",
          "type": "bytes"
        }
      ],
      "name": "mint",
      "outputs": [],
      "stateMutability": "nonpayable",
      "type": "function"
    },
    {
      "inputs": [
        {
          "internalType": "address",
          "name": "to",
          "type": "address"
        },
        {
          "internalType": "uint256[]",
          "name": "ids",
          "type": "uint256[]"
        },
        {
          "internalType": "uint256[]",
          "name": "amounts",
          "type": "uint256[]"
        },
        {
          "internalType": "bytes",
          "name": "data",
          "type": "bytes"
        }
      ],
      "name": "mintBatch",
      "outputs": [],
      "stateMutability": "nonpayable",
      "type": "function"
    },
    {
      "inputs": [],
      "name": "owner",
      "outputs": [
        {
          "internalType": "address",
          "name": "",
          "type": "address"
        }
      ],
      "stateMutability": "view",
      "type": "function"
    },
    {
      "inputs": [
        {
          "internalType": "uint256",
          "name": "id",
          "type": "uint256"
        }
      ],
      "name": "removePredictionMarket",
      "outputs": [],
      "stateMutability": "nonpayable",
      "type": "function"
    },
    {
      "inputs": [],
      "name": "renounceOwnership",
      "outputs": [],
      "stateMutability": "nonpayable",
      "type": "function"
    },
    {
      "inputs": [
        {
          "internalType": "address",
          "name": "from",
          "type": "address"
        },
        {
          "internalType": "address",
          "name": "to",
          "type": "address"
        },
        {
          "internalType": "uint256[]",
          "name": "ids",
          "type": "uint256[]"
        },
        {
          "internalType": "uint256[]",
          "name": "values",
          "type": "uint256[]"
        },
        {
          "internalType": "bytes",
          "name": "data",
          "type": "bytes"
        }
      ],
      "name": "safeBatchTransferFrom",
      "outputs": [],
      "stateMutability": "nonpayable",
      "type": "function"
    },
    {
      "inputs": [
        {
          "internalType": "address",
          "name": "from",
          "type": "address"
        },
        {
          "internalType": "address",
          "name": "to",
          "type": "address"
        },
        {
          "internalType": "uint256",
          "name": "id",
          "type": "uint256"
        },
        {
          "internalType": "uint256",
          "name": "value",
          "type": "uint256"
        },
        {
          "internalType": "bytes",
          "name": "data",
          "type": "bytes"
        }
      ],
      "name": "safeTransferFrom",
      "outputs": [],
      "stateMutability": "nonpayable",
      "type": "function"
    },
    {
      "inputs": [
        {
          "internalType": "address",
          "name": "operator",
          "type": "address"
        },
        {
          "internalType": "bool",
          "name": "approved",
          "type": "bool"
        }
      ],
      "name": "setApprovalForAll",
      "outputs": [],
      "stateMutability": "nonpayable",
      "type": "function"
    },
    {
      "inputs": [
        {
          "internalType": "string",
          "name": "newuri",
          "type": "string"
        }
      ],
      "name": "setURI",
      "outputs": [],
      "stateMutability": "nonpayable",
      "type": "function"
    },
    {
      "inputs": [
        {
          "internalType": "bytes4",
          "name": "interfaceId",
          "type": "bytes4"
        }
      ],
      "name": "supportsInterface",
      "outputs": [
        {
          "internalType": "bool",
          "name": "",
          "type": "bool"
        }
      ],
      "stateMutability": "view",
      "type": "function"
    },
    {
      "inputs": [
        {
          "internalType": "address",
          "name": "to",
          "type": "address"
        },
        {
          "internalType": "uint256",
          "name": "id",
          "type": "uint256"
        },
        {
          "internalType": "uint256",
          "name": "amount",
          "type": "uint256"
        }
      ],
      "name": "transfer",
      "outputs": [],
      "stateMutability": "nonpayable",
      "type": "function"
    },
    {
      "inputs": [
        {
          "internalType": "address",
          "name": "newOwner",
          "type": "address"
        }
      ],
      "name": "transferOwnership",
      "outputs": [],
      "stateMutability": "nonpayable",
      "type": "function"
    },
    {
      "inputs": [
        {
          "internalType": "uint256",
          "name": "id",
          "type": "uint256"
        },
        {
          "internalType": "address",
          "name": "marketContract",
          "type": "address"
        }
      ],
      "name": "updatePredictionMarket",
      "outputs": [],
      "stateMutability": "nonpayable",
      "type": "function"
    },
    {
      "inputs": [
        {
          "internalType": "uint256",
          "name": "",
          "type": "uint256"
        }
      ],
      "name": "uri",
      "outputs": [
        {
          "internalType": "string",
          "name": "",
          "type": "string"
        }
      ],
      "stateMutability": "view",
      "type": "function"
    }
  ],
  "bytecode": "0x60806040523480156200001157600080fd5b5060405162003a8838038062003a8883398181016040528101906200003791906200022d565b80604051806020016040528060008152506200005981620000e860201b60201c565b50600073ffffffffffffffffffffffffffffffffffffffff168173ffffffffffffffffffffffffffffffffffffffff1603620000cf5760006040517f1e4fbdf7000000000000000000000000000000000000000000000000000000008152600401620000c6919062000270565b60405180910390fd5b620000e081620000fd60201b60201c565b5050620005ee565b8060029081620000f9919062000507565b5050565b6000600360009054906101000a900473ffffffffffffffffffffffffffffffffffffffff16905081600360006101000a81548173ffffffffffffffffffffffffffffffffffffffff021916908373ffffffffffffffffffffffffffffffffffffffff1602179055508173ffffffffffffffffffffffffffffffffffffffff168173ffffffffffffffffffffffffffffffffffffffff167f8be0079c531659141344cd1fd0a4f28419497f9722a3daafe3b4186f6b6457e060405160405180910390a35050565b600080fd5b600073ffffffffffffffffffffffffffffffffffffffff82169050919050565b6000620001f582620001c8565b9050919050565b6200020781620001e8565b81146200021357600080fd5b50565b6000815190506200022781620001fc565b92915050565b600060208284031215620002465762000245620001c3565b5b6000620002568482850162000216565b91505092915050565b6200026a81620001e8565b82525050565b60006020820190506200028760008301846200025f565b92915050565b600081519050919050565b7f4e487b7100000000000000000000000000000000000000000000000000000000600052604160045260246000fd5b7f4e487b7100000000000000000000000000000000000000000000000000000000600052602260045260246000fd5b600060028204905060018216806200030f57607f821691505b602082108103620003255762000324620002c7565b5b50919050565b60008190508160005260206000209050919050565b60006020601f8301049050919050565b600082821b905092915050565b6000600883026200038f7fffffffffffffffffffffffffffffffffffffffffffffffffffffffffffffffff8262000350565b6200039b868362000350565b95508019841693508086168417925050509392505050565b6000819050919050565b6000819050919050565b6000620003e8620003e2620003dc84620003b3565b620003bd565b620003b3565b9050919050565b6000819050919050565b6200040483620003c7565b6200041c6200041382620003ef565b8484546200035d565b825550505050565b600090565b6200043362000424565b62000440818484620003f9565b505050565b5b8181101562000468576200045c60008262000429565b60018101905062000446565b5050565b601f821115620004b75762000481816200032b565b6200048c8462000340565b810160208510156200049c578190505b620004b4620004ab8562000340565b83018262000445565b50505b505050565b600082821c905092915050565b6000620004dc60001984600802620004bc565b1980831691505092915050565b6000620004f78383620004c9565b9150826002028217905092915050565b62000512826200028d565b67ffffffffffffffff8111156200052e576200052d62000298565b5b6200053a8254620002f6565b620005478282856200046c565b600060209050601f8311600181146200057f57600084156200056a578287015190505b620005768582620004e9565b865550620005e6565b601f1984166200058f866200032b565b60005b82811015620005b95784890151825560018201915060208501945060208101905062000592565b86831015620005d95784890151620005d5601f891682620004c9565b8355505b6001600288020188555050505b505050505050565b61348a80620005fe6000396000f3fe608060405234801561001057600080fd5b50600436106101365760003560e01c8063715018a6116100b85780639366d8e91161007c5780639366d8e91461031f578063a22cb4651461034f578063e985e9c51461036b578063f242432a1461039b578063f2fde38b146103b7578063f5298aca146103d357610136565b8063715018a6146102a3578063731133e9146102ad5780638a3cf7aa146102c95780638da5cb5b146102e5578063909cd6a11461030357610136565b80631f7fdffa116100ff5780631f7fdffa146102035780632eb2c2d61461021f5780634e1273f41461023b5780635da163461461026b5780636b20c4541461028757610136565b8062fdd58e1461013b57806301ffc9a71461016b57806302fe53051461019b578063095bcdb6146101b75780630e89341c146101d3575b600080fd5b61015560048036038101906101509190611ff8565b6103ef565b6040516101629190612047565b60405180910390f35b610185600480360381019061018091906120ba565b610403565b6040516101929190612102565b60405180910390f35b6101b560048036038101906101b09190612263565b6104e5565b005b6101d160048036038101906101cc91906122ac565b6104f9565b005b6101ed60048036038101906101e891906122ff565b610566565b6040516101fa91906123ab565b60405180910390f35b61021d60048036038101906102189190612536565b6105fa565b005b610239600480360381019061023491906125f1565b610614565b005b61025560048036038101906102509190612783565b6106bc565b60405161026291906128b9565b60405180910390f35b610285600480360381019061028091906128db565b6107c5565b005b6102a1600480360381019061029c919061291b565b610934565b005b6102ab6109e0565b005b6102c760048036038101906102c291906129a6565b6109f4565b005b6102e360048036038101906102de91906128db565b610aa7565b005b6102ed610b74565b6040516102fa9190612a38565b60405180910390f35b61031d600480360381019061031891906122ff565b610b9e565b005b610339600480360381019061033491906122ff565b610c81565b6040516103469190612a38565b60405180910390f35b61036960048036038101906103649190612a7f565b610cb4565b005b61038560048036038101906103809190612abf565b610cca565b6040516103929190612102565b60405180910390f35b6103b560048036038101906103b09190612aff565b610d5e565b005b6103d160048036038101906103cc9190612b96565b610e06565b005b6103ed60048036038101906103e891906122ac565b610e8c565b005b60006103fb8383610f3d565b905092915050565b60007fd9b67a26000000000000000000000000000000000000000000000000000000007bffffffffffffffffffffffffffffffffffffffffffffffffffffffff1916827bffffffffffffffffffffffffffffffffffffffffffffffffffffffff191614806104ce57507f0e89341c000000000000000000000000000000000000000000000000000000007bffffffffffffffffffffffffffffffffffffffffffffffffffffffff1916827bffffffffffffffffffffffffffffffffffffffffffffffffffffffff1916145b806104de57506104dd82610f97565b5b9050919050565b6104ed611001565b6104f681611088565b50565b8061050433846103ef565b1015610545576040517f08c379a000000000000000000000000000000000000000000000000000000000815260040161053c90612c0f565b60405180910390fd5b6105613384848460405180602001604052806000815250610d5e565b505050565b60606002805461057590612c5e565b80601f01602080910402602001604051908101604052809291908181526020018280546105a190612c5e565b80156105ee5780601f106105c3576101008083540402835291602001916105ee565b820191906000526020600020905b8154815290600101906020018083116105d157829003601f168201915b50505050509050919050565b610602611001565b61060e8484848461109b565b50505050565b600061061e611121565b90508073ffffffffffffffffffffffffffffffffffffffff168673ffffffffffffffffffffffffffffffffffffffff161415801561066357506106618682610cca565b155b156106a75780866040517fe237d92200000000000000000000000000000000000000000000000000000000815260040161069e929190612c8f565b60405180910390fd5b6106b48686868686611129565b505050505050565b6060815183511461070857815183516040517f5b0599910000000000000000000000000000000000000000000000000000000081526004016106ff929190612cb8565b60405180910390fd5b6000835167ffffffffffffffff81111561072557610724612138565b5b6040519080825280602002602001820160405280156107535781602001602082028036833780820191505090505b50905060005b84518110156107ba57610790610778828761122190919063ffffffff16565b61078b838761123590919063ffffffff16565b6103ef565b8282815181106107a3576107a2612ce1565b5b602002602001018181525050806001019050610759565b508091505092915050565b6107cd611001565b600073ffffffffffffffffffffffffffffffffffffffff168173ffffffffffffffffffffffffffffffffffffffff160361083c576040517f08c379a000000000000000000000000000000000000000000000000000000000815260040161083390612d5c565b60405180910390fd5b600073ffffffffffffffffffffffffffffffffffffffff166004600084815260200190815260200160002060009054906101000a900473ffffffffffffffffffffffffffffffffffffffff1673ffffffffffffffffffffffffffffffffffffffff16146108de576040517f08c379a00000000000000000000000000000000000000000000000000000000081526004016108d590612dee565b60405180910390fd5b806004600084815260200190815260200160002060006101000a81548173ffffffffffffffffffffffffffffffffffffffff021916908373ffffffffffffffffffffffffffffffffffffffff1602179055505050565b61093c611121565b73ffffffffffffffffffffffffffffffffffffffff168373ffffffffffffffffffffffffffffffffffffffff161415801561098557506109838361097e611121565b610cca565b155b156109d057610992611121565b836040517fe237d9220000000000000000000000000000000000000000000000000000000081526004016109c7929190612c8f565b60405180910390fd5b6109db838383611249565b505050565b6109e8611001565b6109f260006112dd565b565b6004600084815260200190815260200160002060009054906101000a900473ffffffffffffffffffffffffffffffffffffffff1673ffffffffffffffffffffffffffffffffffffffff163373ffffffffffffffffffffffffffffffffffffffff1614610a95576040517f08c379a0000000000000000000000000000000000000000000000000000000008152600401610a8c90612e80565b60405180910390fd5b610aa1848484846113a3565b50505050565b610aaf611001565b600073ffffffffffffffffffffffffffffffffffffffff168173ffffffffffffffffffffffffffffffffffffffff1603610b1e576040517f08c379a0000000000000000000000000000000000000000000000000000000008152600401610b1590612d5c565b60405180910390fd5b806004600084815260200190815260200160002060006101000a81548173ffffffffffffffffffffffffffffffffffffffff021916908373ffffffffffffffffffffffffffffffffffffffff1602179055505050565b6000600360009054906101000a900473ffffffffffffffffffffffffffffffffffffffff16905090565b610ba6611001565b600073ffffffffffffffffffffffffffffffffffffffff166004600083815260200190815260200160002060009054906101000a900473ffffffffffffffffffffffffffffffffffffffff1673ffffffffffffffffffffffffffffffffffffffff1603610c48576040517f08c379a0000000000000000000000000000000000000000000000000000000008152600401610c3f90612eec565b60405180910390fd5b6004600082815260200190815260200160002060006101000a81549073ffffffffffffffffffffffffffffffffffffffff021916905550565b60046020528060005260406000206000915054906101000a900473ffffffffffffffffffffffffffffffffffffffff1681565b610cc6610cbf611121565b838361143c565b5050565b6000600160008473ffffffffffffffffffffffffffffffffffffffff1673ffffffffffffffffffffffffffffffffffffffff16815260200190815260200160002060008373ffffffffffffffffffffffffffffffffffffffff1673ffffffffffffffffffffffffffffffffffffffff16815260200190815260200160002060009054906101000a900460ff16905092915050565b6000610d68611121565b90508073ffffffffffffffffffffffffffffffffffffffff168673ffffffffffffffffffffffffffffffffffffffff1614158015610dad5750610dab8682610cca565b155b15610df15780866040517fe237d922000000000000000000000000000000000000000000000000000000008152600401610de8929190612c8f565b60405180910390fd5b610dfe86868686866115ac565b505050505050565b610e0e611001565b600073ffffffffffffffffffffffffffffffffffffffff168173ffffffffffffffffffffffffffffffffffffffff1603610e805760006040517f1e4fbdf7000000000000000000000000000000000000000000000000000000008152600401610e779190612a38565b60405180910390fd5b610e89816112dd565b50565b6004600083815260200190815260200160002060009054906101000a900473ffffffffffffffffffffffffffffffffffffffff1673ffffffffffffffffffffffffffffffffffffffff163373ffffffffffffffffffffffffffffffffffffffff1614610f2d576040517f08c379a0000000000000000000000000000000000000000000000000000000008152600401610f2490612f7e565b60405180910390fd5b610f388383836116b7565b505050565b600080600083815260200190815260200160002060008473ffffffffffffffffffffffffffffffffffffffff1673ffffffffffffffffffffffffffffffffffffffff16815260200190815260200160002054905092915050565b60007f01ffc9a7000000000000000000000000000000000000000000000000000000007bffffffffffffffffffffffffffffffffffffffffffffffffffffffff1916827bffffffffffffffffffffffffffffffffffffffffffffffffffffffff1916149050919050565b611009611121565b73ffffffffffffffffffffffffffffffffffffffff16611027610b74565b73ffffffffffffffffffffffffffffffffffffffff16146110865761104a611121565b6040517f118cdaa700000000000000000000000000000000000000000000000000000000815260040161107d9190612a38565b60405180910390fd5b565b8060029081611097919061314a565b5050565b600073ffffffffffffffffffffffffffffffffffffffff168473ffffffffffffffffffffffffffffffffffffffff160361110d5760006040517f57f447ce0000000000000000000000000000000000000000000000000000000081526004016111049190612a38565b60405180910390fd5b61111b60008585858561175e565b50505050565b600033905090565b600073ffffffffffffffffffffffffffffffffffffffff168473ffffffffffffffffffffffffffffffffffffffff160361119b5760006040517f57f447ce0000000000000000000000000000000000000000000000000000000081526004016111929190612a38565b60405180910390fd5b600073ffffffffffffffffffffffffffffffffffffffff168573ffffffffffffffffffffffffffffffffffffffff160361120d5760006040517f01a835140000000000000000000000000000000000000000000000000000000081526004016112049190612a38565b60405180910390fd5b61121a858585858561175e565b5050505050565b600060208202602084010151905092915050565b600060208202602084010151905092915050565b600073ffffffffffffffffffffffffffffffffffffffff168373ffffffffffffffffffffffffffffffffffffffff16036112bb5760006040517f01a835140000000000000000000000000000000000000000000000000000000081526004016112b29190612a38565b60405180910390fd5b6112d883600084846040518060200160405280600081525061175e565b505050565b6000600360009054906101000a900473ffffffffffffffffffffffffffffffffffffffff16905081600360006101000a81548173ffffffffffffffffffffffffffffffffffffffff021916908373ffffffffffffffffffffffffffffffffffffffff1602179055508173ffffffffffffffffffffffffffffffffffffffff168173ffffffffffffffffffffffffffffffffffffffff167f8be0079c531659141344cd1fd0a4f28419497f9722a3daafe3b4186f6b6457e060405160405180910390a35050565b600073ffffffffffffffffffffffffffffffffffffffff168473ffffffffffffffffffffffffffffffffffffffff16036114155760006040517f57f447ce00000000000000000000000000000000000000000000000000000000815260040161140c9190612a38565b60405180910390fd5b6000806114228585611810565b9150915061143460008784848761175e565b505050505050565b600073ffffffffffffffffffffffffffffffffffffffff168273ffffffffffffffffffffffffffffffffffffffff16036114ae5760006040517fced3e1000000000000000000000000000000000000000000000000000000000081526004016114a59190612a38565b60405180910390fd5b80600160008573ffffffffffffffffffffffffffffffffffffffff1673ffffffffffffffffffffffffffffffffffffffff16815260200190815260200160002060008473ffffffffffffffffffffffffffffffffffffffff1673ffffffffffffffffffffffffffffffffffffffff16815260200190815260200160002060006101000a81548160ff0219169083151502179055508173ffffffffffffffffffffffffffffffffffffffff168373ffffffffffffffffffffffffffffffffffffffff167f17307eab39ab6107e8899845ad3d59bd9653f200f220920489ca2b5937696c318360405161159f9190612102565b60405180910390a3505050565b600073ffffffffffffffffffffffffffffffffffffffff168473ffffffffffffffffffffffffffffffffffffffff160361161e5760006040517f57f447ce0000000000000000000000000000000000000000000000000000000081526004016116159190612a38565b60405180910390fd5b600073ffffffffffffffffffffffffffffffffffffffff168573ffffffffffffffffffffffffffffffffffffffff16036116905760006040517f01a835140000000000000000000000000000000000000000000000000000000081526004016116879190612a38565b60405180910390fd5b60008061169d8585611810565b915091506116ae878784848761175e565b50505050505050565b600073ffffffffffffffffffffffffffffffffffffffff168373ffffffffffffffffffffffffffffffffffffffff16036117295760006040517f01a835140000000000000000000000000000000000000000000000000000000081526004016117209190612a38565b60405180910390fd5b6000806117368484611810565b9150915061175785600084846040518060200160405280600081525061175e565b5050505050565b61176a85858585611840565b600073ffffffffffffffffffffffffffffffffffffffff168473ffffffffffffffffffffffffffffffffffffffff16146118095760006117a8611121565b905060018451036117f85760006117c960008661123590919063ffffffff16565b905060006117e160008661123590919063ffffffff16565b90506117f1838989858589611be8565b5050611807565b611806818787878787611d9c565b5b505b5050505050565b60608060405191506001825283602083015260408201905060018152826020820152604081016040529250929050565b805182511461188a57815181516040517f5b059991000000000000000000000000000000000000000000000000000000008152600401611881929190612cb8565b60405180910390fd5b6000611894611121565b905060005b8351811015611aa35760006118b7828661123590919063ffffffff16565b905060006118ce838661123590919063ffffffff16565b9050600073ffffffffffffffffffffffffffffffffffffffff168873ffffffffffffffffffffffffffffffffffffffff16146119fb57600080600084815260200190815260200160002060008a73ffffffffffffffffffffffffffffffffffffffff1673ffffffffffffffffffffffffffffffffffffffff168152602001908152602001600020549050818110156119a357888183856040517f03dee4c500000000000000000000000000000000000000000000000000000000815260040161199a949392919061321c565b60405180910390fd5b81810360008085815260200190815260200160002060008b73ffffffffffffffffffffffffffffffffffffffff1673ffffffffffffffffffffffffffffffffffffffff16815260200190815260200160002081905550505b600073ffffffffffffffffffffffffffffffffffffffff168773ffffffffffffffffffffffffffffffffffffffff1614611a96578060008084815260200190815260200160002060008973ffffffffffffffffffffffffffffffffffffffff1673ffffffffffffffffffffffffffffffffffffffff1681526020019081526020016000206000828254611a8e9190613290565b925050819055505b5050806001019050611899565b506001835103611b62576000611ac360008561123590919063ffffffff16565b90506000611adb60008561123590919063ffffffff16565b90508573ffffffffffffffffffffffffffffffffffffffff168773ffffffffffffffffffffffffffffffffffffffff168473ffffffffffffffffffffffffffffffffffffffff167fc3d58168c5ae7397731d063d5bbf3d657854427343f4c083240f7aacaa2d0f628585604051611b53929190612cb8565b60405180910390a45050611be1565b8373ffffffffffffffffffffffffffffffffffffffff168573ffffffffffffffffffffffffffffffffffffffff168273ffffffffffffffffffffffffffffffffffffffff167f4a39dc06d4c0dbc64b70af90fd698a233a518aa5d07e595d983b8c0526c8f7fb8686604051611bd89291906132c4565b60405180910390a45b5050505050565b60008473ffffffffffffffffffffffffffffffffffffffff163b1115611d94578373ffffffffffffffffffffffffffffffffffffffff1663f23a6e6187878686866040518663ffffffff1660e01b8152600401611c49959493929190613350565b6020604051808303816000875af1925050508015611c8557506040513d601f19601f82011682018060405250810190611c8291906133bf565b60015b611d09573d8060008114611cb5576040519150601f19603f3d011682016040523d82523d6000602084013e611cba565b606091505b506000815103611d0157846040517f57f447ce000000000000000000000000000000000000000000000000000000008152600401611cf89190612a38565b60405180910390fd5b805181602001fd5b63f23a6e6160e01b7bffffffffffffffffffffffffffffffffffffffffffffffffffffffff1916817bffffffffffffffffffffffffffffffffffffffffffffffffffffffff191614611d9257846040517f57f447ce000000000000000000000000000000000000000000000000000000008152600401611d899190612a38565b60405180910390fd5b505b505050505050565b60008473ffffffffffffffffffffffffffffffffffffffff163b1115611f48578373ffffffffffffffffffffffffffffffffffffffff1663bc197c8187878686866040518663ffffffff1660e01b8152600401611dfd9594939291906133ec565b6020604051808303816000875af1925050508015611e3957506040513d601f19601f82011682018060405250810190611e3691906133bf565b60015b611ebd573d8060008114611e69576040519150601f19603f3d011682016040523d82523d6000602084013e611e6e565b606091505b506000815103611eb557846040517f57f447ce000000000000000000000000000000000000000000000000000000008152600401611eac9190612a38565b60405180910390fd5b805181602001fd5b63bc197c8160e01b7bffffffffffffffffffffffffffffffffffffffffffffffffffffffff1916817bffffffffffffffffffffffffffffffffffffffffffffffffffffffff191614611f4657846040517f57f447ce000000000000000000000000000000000000000000000000000000008152600401611f3d9190612a38565b60405180910390fd5b505b505050505050565b6000604051905090565b600080fd5b600080fd5b600073ffffffffffffffffffffffffffffffffffffffff82169050919050565b6000611f8f82611f64565b9050919050565b611f9f81611f84565b8114611faa57600080fd5b50565b600081359050611fbc81611f96565b92915050565b6000819050919050565b611fd581611fc2565b8114611fe057600080fd5b50565b600081359050611ff281611fcc565b92915050565b6000806040838503121561200f5761200e611f5a565b5b600061201d85828601611fad565b925050602061202e85828601611fe3565b9150509250929050565b61204181611fc2565b82525050565b600060208201905061205c6000830184612038565b92915050565b60007fffffffff0000000000000000000000000000000000000000000000000000000082169050919050565b61209781612062565b81146120a257600080fd5b50565b6000813590506120b48161208e565b92915050565b6000602082840312156120d0576120cf611f5a565b5b60006120de848285016120a5565b91505092915050565b60008115159050919050565b6120fc816120e7565b82525050565b600060208201905061211760008301846120f3565b92915050565b600080fd5b600080fd5b6000601f19601f8301169050919050565b7f4e487b7100000000000000000000000000000000000000000000000000000000600052604160045260246000fd5b61217082612127565b810181811067ffffffffffffffff8211171561218f5761218e612138565b5b80604052505050565b60006121a2611f50565b90506121ae8282612167565b919050565b600067ffffffffffffffff8211156121ce576121cd612138565b5b6121d782612127565b9050602081019050919050565b82818337600083830152505050565b6000612206612201846121b3565b612198565b90508281526020810184848401111561222257612221612122565b5b61222d8482856121e4565b509392505050565b600082601f83011261224a5761224961211d565b5b813561225a8482602086016121f3565b91505092915050565b60006020828403121561227957612278611f5a565b5b600082013567ffffffffffffffff81111561229757612296611f5f565b5b6122a384828501612235565b91505092915050565b6000806000606084860312156122c5576122c4611f5a565b5b60006122d386828701611fad565b93505060206122e486828701611fe3565b92505060406122f586828701611fe3565b9150509250925092565b60006020828403121561231557612314611f5a565b5b600061232384828501611fe3565b91505092915050565b600081519050919050565b600082825260208201905092915050565b60005b8381101561236657808201518184015260208101905061234b565b60008484015250505050565b600061237d8261232c565b6123878185612337565b9350612397818560208601612348565b6123a081612127565b840191505092915050565b600060208201905081810360008301526123c58184612372565b905092915050565b600067ffffffffffffffff8211156123e8576123e7612138565b5b602082029050602081019050919050565b600080fd5b600061241161240c846123cd565b612198565b90508083825260208201905060208402830185811115612434576124336123f9565b5b835b8181101561245d57806124498882611fe3565b845260208401935050602081019050612436565b5050509392505050565b600082601f83011261247c5761247b61211d565b5b813561248c8482602086016123fe565b91505092915050565b600067ffffffffffffffff8211156124b0576124af612138565b5b6124b982612127565b9050602081019050919050565b60006124d96124d484612495565b612198565b9050828152602081018484840111156124f5576124f4612122565b5b6125008482856121e4565b509392505050565b600082601f83011261251d5761251c61211d565b5b813561252d8482602086016124c6565b91505092915050565b600080600080608085870312156125505761254f611f5a565b5b600061255e87828801611fad565b945050602085013567ffffffffffffffff81111561257f5761257e611f5f565b5b61258b87828801612467565b935050604085013567ffffffffffffffff8111156125ac576125ab611f5f565b5b6125b887828801612467565b925050606085013567ffffffffffffffff8111156125d9576125d8611f5f565b5b6125e587828801612508565b91505092959194509250565b600080600080600060a0868803121561260d5761260c611f5a565b5b600061261b88828901611fad565b955050602061262c88828901611fad565b945050604086013567ffffffffffffffff81111561264d5761264c611f5f565b5b61265988828901612467565b935050606086013567ffffffffffffffff81111561267a57612679611f5f565b5b61268688828901612467565b925050608086013567ffffffffffffffff8111156126a7576126a6611f5f565b5b6126b388828901612508565b9150509295509295909350565b600067ffffffffffffffff8211156126db576126da612138565b5b602082029050602081019050919050565b60006126ff6126fa846126c0565b612198565b90508083825260208201905060208402830185811115612722576127216123f9565b5b835b8181101561274b57806127378882611fad565b845260208401935050602081019050612724565b5050509392505050565b600082601f83011261276a5761276961211d565b5b813561277a8482602086016126ec565b91505092915050565b6000806040838503121561279a57612799611f5a565b5b600083013567ffffffffffffffff8111156127b8576127b7611f5f565b5b6127c485828601612755565b925050602083013567ffffffffffffffff8111156127e5576127e4611f5f565b5b6127f185828601612467565b9150509250929050565b600081519050919050565b600082825260208201905092915050565b6000819050602082019050919050565b61283081611fc2565b82525050565b60006128428383612827565b60208301905092915050565b6000602082019050919050565b6000612866826127fb565b6128708185612806565b935061287b83612817565b8060005b838110156128ac5781516128938882612836565b975061289e8361284e565b92505060018101905061287f565b5085935050505092915050565b600060208201905081810360008301526128d3818461285b565b905092915050565b600080604083850312156128f2576128f1611f5a565b5b600061290085828601611fe3565b925050602061291185828601611fad565b9150509250929050565b60008060006060848603121561293457612933611f5a565b5b600061294286828701611fad565b935050602084013567ffffffffffffffff81111561296357612962611f5f565b5b61296f86828701612467565b925050604084013567ffffffffffffffff8111156129905761298f611f5f565b5b61299c86828701612467565b9150509250925092565b600080600080608085870312156129c0576129bf611f5a565b5b60006129ce87828801611fad565b94505060206129df87828801611fe3565b93505060406129f087828801611fe3565b925050606085013567ffffffffffffffff811115612a1157612a10611f5f565b5b612a1d87828801612508565b91505092959194509250565b612a3281611f84565b82525050565b6000602082019050612a4d6000830184612a29565b92915050565b612a5c816120e7565b8114612a6757600080fd5b50565b600081359050612a7981612a53565b92915050565b60008060408385031215612a9657612a95611f5a565b5b6000612aa485828601611fad565b9250506020612ab585828601612a6a565b9150509250929050565b60008060408385031215612ad657612ad5611f5a565b5b6000612ae485828601611fad565b9250506020612af585828601611fad565b9150509250929050565b600080600080600060a08688031215612b1b57612b1a611f5a565b5b6000612b2988828901611fad565b9550506020612b3a88828901611fad565b9450506040612b4b88828901611fe3565b9350506060612b5c88828901611fe3565b925050608086013567ffffffffffffffff811115612b7d57612b7c611f5f565b5b612b8988828901612508565b9150509295509295909350565b600060208284031215612bac57612bab611f5a565b5b6000612bba84828501611fad565b91505092915050565b7f496e73756666696369656e742062616c616e6365000000000000000000000000600082015250565b6000612bf9601483612337565b9150612c0482612bc3565b602082019050919050565b60006020820190508181036000830152612c2881612bec565b9050919050565b7f4e487b7100000000000000000000000000000000000000000000000000000000600052602260045260246000fd5b60006002820490506001821680612c7657607f821691505b602082108103612c8957612c88612c2f565b5b50919050565b6000604082019050612ca46000830185612a29565b612cb16020830184612a29565b9392505050565b6000604082019050612ccd6000830185612038565b612cda6020830184612038565b9392505050565b7f4e487b7100000000000000000000000000000000000000000000000000000000600052603260045260246000fd5b7f496e76616c696420616464726573730000000000000000000000000000000000600082015250565b6000612d46600f83612337565b9150612d5182612d10565b602082019050919050565b60006020820190508181036000830152612d7581612d39565b9050919050565b7f4d61726b657420616c72656164792065786973747320666f722074686973204960008201527f4400000000000000000000000000000000000000000000000000000000000000602082015250565b6000612dd8602183612337565b9150612de382612d7c565b604082019050919050565b60006020820190508181036000830152612e0781612dcb565b9050919050565b7f4f6e6c79207468652050726564696374696f6e204d61726b657420636f6e747260008201527f6163742063616e206d696e74207468697320746f6b656e000000000000000000602082015250565b6000612e6a603783612337565b9150612e7582612e0e565b604082019050919050565b60006020820190508181036000830152612e9981612e5d565b9050919050565b7f4d61726b657420646f6573206e6f742065786973740000000000000000000000600082015250565b6000612ed6601583612337565b9150612ee182612ea0565b602082019050919050565b60006020820190508181036000830152612f0581612ec9565b9050919050565b7f4f6e6c79207468652050726564696374696f6e204d61726b657420636f6e747260008201527f6163742063616e206275726e207468697320746f6b656e000000000000000000602082015250565b6000612f68603783612337565b9150612f7382612f0c565b604082019050919050565b60006020820190508181036000830152612f9781612f5b565b9050919050565b60008190508160005260206000209050919050565b60006020601f8301049050919050565b600082821b905092915050565b6000600883026130007fffffffffffffffffffffffffffffffffffffffffffffffffffffffffffffffff82612fc3565b61300a8683612fc3565b95508019841693508086168417925050509392505050565b6000819050919050565b600061304761304261303d84611fc2565b613022565b611fc2565b9050919050565b6000819050919050565b6130618361302c565b61307561306d8261304e565b848454612fd0565b825550505050565b600090565b61308a61307d565b613095818484613058565b505050565b5b818110156130b9576130ae600082613082565b60018101905061309b565b5050565b601f8211156130fe576130cf81612f9e565b6130d884612fb3565b810160208510156130e7578190505b6130fb6130f385612fb3565b83018261309a565b50505b505050565b600082821c905092915050565b600061312160001984600802613103565b1980831691505092915050565b600061313a8383613110565b9150826002028217905092915050565b6131538261232c565b67ffffffffffffffff81111561316c5761316b612138565b5b6131768254612c5e565b6131818282856130bd565b600060209050601f8311600181146131b457600084156131a2578287015190505b6131ac858261312e565b865550613214565b601f1984166131c286612f9e565b60005b828110156131ea578489015182556001820191506020850194506020810190506131c5565b868310156132075784890151613203601f891682613110565b8355505b6001600288020188555050505b505050505050565b60006080820190506132316000830187612a29565b61323e6020830186612038565b61324b6040830185612038565b6132586060830184612038565b95945050505050565b7f4e487b7100000000000000000000000000000000000000000000000000000000600052601160045260246000fd5b600061329b82611fc2565b91506132a683611fc2565b92508282019050808211156132be576132bd613261565b5b92915050565b600060408201905081810360008301526132de818561285b565b905081810360208301526132f2818461285b565b90509392505050565b600081519050919050565b600082825260208201905092915050565b6000613322826132fb565b61332c8185613306565b935061333c818560208601612348565b61334581612127565b840191505092915050565b600060a0820190506133656000830188612a29565b6133726020830187612a29565b61337f6040830186612038565b61338c6060830185612038565b818103608083015261339e8184613317565b90509695505050505050565b6000815190506133b98161208e565b92915050565b6000602082840312156133d5576133d4611f5a565b5b60006133e3848285016133aa565b91505092915050565b600060a0820190506134016000830188612a29565b61340e6020830187612a29565b8181036040830152613420818661285b565b90508181036060830152613434818561285b565b905081810360808301526134488184613317565b9050969550505050505056fea26469706673582212203d8e3c696a761946cba214ecf184d34fce144e3d4b9759494097f49e9c16d63d64736f6c63430008180033",
  "linkReferences": {},
  "deployedLinkReferences": {}
}