{
  "_format": "hh-sol-artifact-1",
  "contractName": "PredictionMarket",
  "sourceName": "contracts/MyContract.sol",
  "abi": [
    {
      "inputs": [
        {
          "internalType": "address",
          "name": "_priceToken",
          "type": "address"
        }
      ],
      "stateMutability": "nonpayable",
      "type": "constructor"
    },
    {
      "inputs": [
        {
          "internalType": "address",
          "name": "sender",
          "type": "address"
        },
        {
          "internalType": "uint256",
          "name": "balance",
          "type": "uint256"
        },
        {
          "internalType": "uint256",
          "name": "needed",
          "type": "uint256"
        },
        {
          "internalType": "uint256",
          "name": "tokenId",
          "type": "uint256"
        }
      ],
      "name": "ERC1155InsufficientBalance",
      "type": "error"
    },
    {
      "inputs": [
        {
          "internalType": "address",
          "name": "approver",
          "type": "address"
        }
      ],
      "name": "ERC1155InvalidApprover",
      "type": "error"
    },
    {
      "inputs": [
        {
          "internalType": "uint256",
          "name": "idsLength",
          "type": "uint256"
        },
        {
          "internalType": "uint256",
          "name": "valuesLength",
          "type": "uint256"
        }
      ],
      "name": "ERC1155InvalidArrayLength",
      "type": "error"
    },
    {
      "inputs": [
        {
          "internalType": "address",
          "name": "operator",
          "type": "address"
        }
      ],
      "name": "ERC1155InvalidOperator",
      "type": "error"
    },
    {
      "inputs": [
        {
          "internalType": "address",
          "name": "receiver",
          "type": "address"
        }
      ],
      "name": "ERC1155InvalidReceiver",
      "type": "error"
    },
    {
      "inputs": [
        {
          "internalType": "address",
          "name": "sender",
          "type": "address"
        }
      ],
      "name": "ERC1155InvalidSender",
      "type": "error"
    },
    {
      "inputs": [
        {
          "internalType": "address",
          "name": "operator",
          "type": "address"
        },
        {
          "internalType": "address",
          "name": "owner",
          "type": "address"
        }
      ],
      "name": "ERC1155MissingApprovalForAll",
      "type": "error"
    },
    {
      "inputs": [
        {
          "internalType": "address",
          "name": "owner",
          "type": "address"
        }
      ],
      "name": "OwnableInvalidOwner",
      "type": "error"
    },
    {
      "inputs": [
        {
          "internalType": "address",
          "name": "account",
          "type": "address"
        }
      ],
      "name": "OwnableUnauthorizedAccount",
      "type": "error"
    },
    {
      "inputs": [
        {
          "internalType": "uint256",
          "name": "x",
          "type": "uint256"
        },
        {
          "internalType": "uint256",
          "name": "y",
          "type": "uint256"
        }
      ],
      "name": "PRBMath_MulDiv18_Overflow",
      "type": "error"
    },
    {
      "inputs": [
        {
          "internalType": "uint256",
          "name": "x",
          "type": "uint256"
        },
        {
          "internalType": "uint256",
          "name": "y",
          "type": "uint256"
        },
        {
          "internalType": "uint256",
          "name": "denominator",
          "type": "uint256"
        }
      ],
      "name": "PRBMath_MulDiv_Overflow",
      "type": "error"
    },
    {
      "inputs": [
        {
          "internalType": "UD60x18",
          "name": "x",
          "type": "uint256"
        }
      ],
      "name": "PRBMath_UD60x18_Exp2_InputTooBig",
      "type": "error"
    },
    {
      "inputs": [
        {
          "internalType": "UD60x18",
          "name": "x",
          "type": "uint256"
        }
      ],
      "name": "PRBMath_UD60x18_Exp_InputTooBig",
      "type": "error"
    },
    {
      "inputs": [
        {
          "internalType": "UD60x18",
          "name": "x",
          "type": "uint256"
        }
      ],
      "name": "PRBMath_UD60x18_Log_InputTooSmall",
      "type": "error"
    },
    {
      "anonymous": false,
      "inputs": [
        {
          "indexed": true,
          "internalType": "address",
          "name": "account",
          "type": "address"
        },
        {
          "indexed": true,
          "internalType": "address",
          "name": "operator",
          "type": "address"
        },
        {
          "indexed": false,
          "internalType": "bool",
          "name": "approved",
          "type": "bool"
        }
      ],
      "name": "ApprovalForAll",
      "type": "event"
    },
    {
      "anonymous": false,
      "inputs": [
        {
          "indexed": true,
          "internalType": "address",
          "name": "provider",
          "type": "address"
        },
        {
          "indexed": false,
          "internalType": "uint256",
          "name": "amount",
          "type": "uint256"
        }
      ],
      "name": "LiquidityAdded",
      "type": "event"
    },
    {
      "anonymous": false,
      "inputs": [
        {
          "indexed": true,
          "internalType": "address",
          "name": "previousOwner",
          "type": "address"
        },
        {
          "indexed": true,
          "internalType": "address",
          "name": "newOwner",
          "type": "address"
        }
      ],
      "name": "OwnershipTransferred",
      "type": "event"
    },
    {
      "anonymous": false,
      "inputs": [
        {
          "indexed": true,
          "internalType": "address",
          "name": "buyer",
          "type": "address"
        },
        {
          "indexed": false,
          "internalType": "uint256",
          "name": "tokenType",
          "type": "uint256"
        },
        {
          "indexed": false,
          "internalType": "uint256",
          "name": "amount",
          "type": "uint256"
        }
      ],
      "name": "TokensPurchased",
      "type": "event"
    },
    {
      "anonymous": false,
      "inputs": [
        {
          "indexed": true,
          "internalType": "address",
          "name": "operator",
          "type": "address"
        },
        {
          "indexed": true,
          "internalType": "address",
          "name": "from",
          "type": "address"
        },
        {
          "indexed": true,
          "internalType": "address",
          "name": "to",
          "type": "address"
        },
        {
          "indexed": false,
          "internalType": "uint256[]",
          "name": "ids",
          "type": "uint256[]"
        },
        {
          "indexed": false,
          "internalType": "uint256[]",
          "name": "values",
          "type": "uint256[]"
        }
      ],
      "name": "TransferBatch",
      "type": "event"
    },
    {
      "anonymous": false,
      "inputs": [
        {
          "indexed": true,
          "internalType": "address",
          "name": "operator",
          "type": "address"
        },
        {
          "indexed": true,
          "internalType": "address",
          "name": "from",
          "type": "address"
        },
        {
          "indexed": true,
          "internalType": "address",
          "name": "to",
          "type": "address"
        },
        {
          "indexed": false,
          "internalType": "uint256",
          "name": "id",
          "type": "uint256"
        },
        {
          "indexed": false,
          "internalType": "uint256",
          "name": "value",
          "type": "uint256"
        }
      ],
      "name": "TransferSingle",
      "type": "event"
    },
    {
      "anonymous": false,
      "inputs": [
        {
          "indexed": false,
          "internalType": "string",
          "name": "value",
          "type": "string"
        },
        {
          "indexed": true,
          "internalType": "uint256",
          "name": "id",
          "type": "uint256"
        }
      ],
      "name": "URI",
      "type": "event"
    },
    {
      "inputs": [],
      "name": "DECIMALS",
      "outputs": [
        {
          "internalType": "UD60x18",
          "name": "",
          "type": "uint256"
        }
      ],
      "stateMutability": "view",
      "type": "function"
    },
    {
      "inputs": [],
      "name": "LIQUIDITY_PARAMETER",
      "outputs": [
        {
          "internalType": "UD60x18",
          "name": "",
          "type": "uint256"
        }
      ],
      "stateMutability": "view",
      "type": "function"
    },
    {
      "inputs": [],
      "name": "NO_TOKEN",
      "outputs": [
        {
          "internalType": "uint256",
          "name": "",
          "type": "uint256"
        }
      ],
      "stateMutability": "view",
      "type": "function"
    },
    {
      "inputs": [],
      "name": "YES_TOKEN",
      "outputs": [
        {
          "internalType": "uint256",
          "name": "",
          "type": "uint256"
        }
      ],
      "stateMutability": "view",
      "type": "function"
    },
    {
      "inputs": [
        {
          "internalType": "address",
          "name": "account",
          "type": "address"
        },
        {
          "internalType": "uint256",
          "name": "id",
          "type": "uint256"
        }
      ],
      "name": "balanceOf",
      "outputs": [
        {
          "internalType": "uint256",
          "name": "",
          "type": "uint256"
        }
      ],
      "stateMutability": "view",
      "type": "function"
    },
    {
      "inputs": [
        {
          "internalType": "address[]",
          "name": "accounts",
          "type": "address[]"
        },
        {
          "internalType": "uint256[]",
          "name": "ids",
          "type": "uint256[]"
        }
      ],
      "name": "balanceOfBatch",
      "outputs": [
        {
          "internalType": "uint256[]",
          "name": "",
          "type": "uint256[]"
        }
      ],
      "stateMutability": "view",
      "type": "function"
    },
    {
      "inputs": [
        {
          "internalType": "bool",
          "name": "isYesToken",
          "type": "bool"
        },
        {
          "internalType": "UD60x18",
          "name": "amount",
          "type": "uint256"
        }
      ],
      "name": "buy",
      "outputs": [],
      "stateMutability": "nonpayable",
      "type": "function"
    },
    {
      "inputs": [
        {
          "internalType": "bool",
          "name": "isYesToken",
          "type": "bool"
        },
        {
          "internalType": "UD60x18",
          "name": "amount",
          "type": "uint256"
        }
      ],
      "name": "getCost",
      "outputs": [
        {
          "internalType": "UD60x18",
          "name": "price",
          "type": "uint256"
        }
      ],
      "stateMutability": "view",
      "type": "function"
    },
    {
      "inputs": [
        {
          "internalType": "uint256",
          "name": "tokenType",
          "type": "uint256"
        }
      ],
      "name": "getTokenPrice",
      "outputs": [
        {
          "internalType": "UD60x18",
          "name": "price",
          "type": "uint256"
        }
      ],
      "stateMutability": "view",
      "type": "function"
    },
    {
      "inputs": [
        {
          "internalType": "address",
          "name": "account",
          "type": "address"
        },
        {
          "internalType": "address",
          "name": "operator",
          "type": "address"
        }
      ],
      "name": "isApprovedForAll",
      "outputs": [
        {
          "internalType": "bool",
          "name": "",
          "type": "bool"
        }
      ],
      "stateMutability": "view",
      "type": "function"
    },
    {
      "inputs": [],
      "name": "owner",
      "outputs": [
        {
          "internalType": "address",
          "name": "",
          "type": "address"
        }
      ],
      "stateMutability": "view",
      "type": "function"
    },
    {
      "inputs": [],
      "name": "priceToken",
      "outputs": [
        {
          "internalType": "contract IERC20",
          "name": "",
          "type": "address"
        }
      ],
      "stateMutability": "view",
      "type": "function"
    },
    {
      "inputs": [],
      "name": "qNo",
      "outputs": [
        {
          "internalType": "UD60x18",
          "name": "",
          "type": "uint256"
        }
      ],
      "stateMutability": "view",
      "type": "function"
    },
    {
      "inputs": [],
      "name": "qYes",
      "outputs": [
        {
          "internalType": "UD60x18",
          "name": "",
          "type": "uint256"
        }
      ],
      "stateMutability": "view",
      "type": "function"
    },
    {
      "inputs": [],
      "name": "renounceOwnership",
      "outputs": [],
      "stateMutability": "nonpayable",
      "type": "function"
    },
    {
      "inputs": [
        {
          "internalType": "address",
          "name": "from",
          "type": "address"
        },
        {
          "internalType": "address",
          "name": "to",
          "type": "address"
        },
        {
          "internalType": "uint256[]",
          "name": "ids",
          "type": "uint256[]"
        },
        {
          "internalType": "uint256[]",
          "name": "values",
          "type": "uint256[]"
        },
        {
          "internalType": "bytes",
          "name": "data",
          "type": "bytes"
        }
      ],
      "name": "safeBatchTransferFrom",
      "outputs": [],
      "stateMutability": "nonpayable",
      "type": "function"
    },
    {
      "inputs": [
        {
          "internalType": "address",
          "name": "from",
          "type": "address"
        },
        {
          "internalType": "address",
          "name": "to",
          "type": "address"
        },
        {
          "internalType": "uint256",
          "name": "id",
          "type": "uint256"
        },
        {
          "internalType": "uint256",
          "name": "value",
          "type": "uint256"
        },
        {
          "internalType": "bytes",
          "name": "data",
          "type": "bytes"
        }
      ],
      "name": "safeTransferFrom",
      "outputs": [],
      "stateMutability": "nonpayable",
      "type": "function"
    },
    {
      "inputs": [
        {
          "internalType": "address",
          "name": "operator",
          "type": "address"
        },
        {
          "internalType": "bool",
          "name": "approved",
          "type": "bool"
        }
      ],
      "name": "setApprovalForAll",
      "outputs": [],
      "stateMutability": "nonpayable",
      "type": "function"
    },
    {
      "inputs": [
        {
          "internalType": "bytes4",
          "name": "interfaceId",
          "type": "bytes4"
        }
      ],
      "name": "supportsInterface",
      "outputs": [
        {
          "internalType": "bool",
          "name": "",
          "type": "bool"
        }
      ],
      "stateMutability": "view",
      "type": "function"
    },
    {
      "inputs": [
        {
          "internalType": "address",
          "name": "newOwner",
          "type": "address"
        }
      ],
      "name": "transferOwnership",
      "outputs": [],
      "stateMutability": "nonpayable",
      "type": "function"
    },
    {
      "inputs": [
        {
          "internalType": "uint256",
          "name": "",
          "type": "uint256"
        }
      ],
      "name": "uri",
      "outputs": [
        {
          "internalType": "string",
          "name": "",
          "type": "string"
        }
      ],
      "stateMutability": "view",
      "type": "function"
    }
  ],
  "bytecode": "0x60806040526200001d670de0b6b3a76400006200019f60201b60201c565b60055562000039678ac7230489e800006200019f60201b60201c565b6006556200004e60006200019f60201b60201c565b6007556200006360006200019f60201b60201c565b6008553480156200007357600080fd5b506040516200432d3803806200432d8339818101604052810190620000999190620002ee565b73e5caa785fee2154e5cddc15ac37eedf0274ad5a260405180602001604052806000815250620000cf81620001a960201b60201c565b50600073ffffffffffffffffffffffffffffffffffffffff168173ffffffffffffffffffffffffffffffffffffffff1603620001455760006040517f1e4fbdf70000000000000000000000000000000000000000000000000000000081526004016200013c919062000331565b60405180910390fd5b6200015681620001be60201b60201c565b5080600460006101000a81548173ffffffffffffffffffffffffffffffffffffffff021916908373ffffffffffffffffffffffffffffffffffffffff16021790555050620006af565b6000819050919050565b8060029081620001ba9190620005c8565b5050565b6000600360009054906101000a900473ffffffffffffffffffffffffffffffffffffffff16905081600360006101000a81548173ffffffffffffffffffffffffffffffffffffffff021916908373ffffffffffffffffffffffffffffffffffffffff1602179055508173ffffffffffffffffffffffffffffffffffffffff168173ffffffffffffffffffffffffffffffffffffffff167f8be0079c531659141344cd1fd0a4f28419497f9722a3daafe3b4186f6b6457e060405160405180910390a35050565b600080fd5b600073ffffffffffffffffffffffffffffffffffffffff82169050919050565b6000620002b68262000289565b9050919050565b620002c881620002a9565b8114620002d457600080fd5b50565b600081519050620002e881620002bd565b92915050565b60006020828403121562000307576200030662000284565b5b60006200031784828501620002d7565b91505092915050565b6200032b81620002a9565b82525050565b600060208201905062000348600083018462000320565b92915050565b600081519050919050565b7f4e487b7100000000000000000000000000000000000000000000000000000000600052604160045260246000fd5b7f4e487b7100000000000000000000000000000000000000000000000000000000600052602260045260246000fd5b60006002820490506001821680620003d057607f821691505b602082108103620003e657620003e562000388565b5b50919050565b60008190508160005260206000209050919050565b60006020601f8301049050919050565b600082821b905092915050565b600060088302620004507fffffffffffffffffffffffffffffffffffffffffffffffffffffffffffffffff8262000411565b6200045c868362000411565b95508019841693508086168417925050509392505050565b6000819050919050565b6000819050919050565b6000620004a9620004a36200049d8462000474565b6200047e565b62000474565b9050919050565b6000819050919050565b620004c58362000488565b620004dd620004d482620004b0565b8484546200041e565b825550505050565b600090565b620004f4620004e5565b62000501818484620004ba565b505050565b5b8181101562000529576200051d600082620004ea565b60018101905062000507565b5050565b601f82111562000578576200054281620003ec565b6200054d8462000401565b810160208510156200055d578190505b620005756200056c8562000401565b83018262000506565b50505b505050565b600082821c905092915050565b60006200059d600019846008026200057d565b1980831691505092915050565b6000620005b883836200058a565b9150826002028217905092915050565b620005d3826200034e565b67ffffffffffffffff811115620005ef57620005ee62000359565b5b620005fb8254620003b7565b620006088282856200052d565b600060209050601f8311600181146200064057600084156200062b578287015190505b620006378582620005aa565b865550620006a7565b601f1984166200065086620003ec565b60005b828110156200067a5784890151825560018201915060208501945060208101905062000653565b868310156200069a578489015162000696601f8916826200058a565b8355505b6001600288020188555050505b505050505050565b613c6e80620006bf6000396000f3fe608060405234801561001057600080fd5b50600436106101365760003560e01c80634e1273f4116100b8578063bfc596011161007c578063bfc596011461033f578063c457fb371461035d578063e24c469b1461038d578063e985e9c5146103a9578063f242432a146103d9578063f2fde38b146103f557610136565b80634e1273f41461029b578063715018a6146102cb5780638da5cb5b146102d5578063a22cb465146102f3578063a4d750651461030f57610136565b80632acf1cd2116100ff5780632acf1cd2146102075780632e0f2625146102255780632eb2c2d6146102435780632fd2adfe1461025f5780632ff6fe761461027d57610136565b8062fdd58e1461013b57806301ffc9a71461016b5780630e89341c1461019b5780631b142f62146101cb5780631c426fc8146101e9575b600080fd5b61015560048036038101906101509190612ce0565b610411565b6040516101629190612d2f565b60405180910390f35b61018560048036038101906101809190612da2565b61046b565b6040516101929190612dea565b60405180910390f35b6101b560048036038101906101b09190612e05565b61054d565b6040516101c29190612ec2565b60405180910390f35b6101d36105e1565b6040516101e09190612d2f565b60405180910390f35b6101f16105e6565b6040516101fe9190612f1f565b60405180910390f35b61020f6105ec565b60405161021c9190612f1f565b60405180910390f35b61022d6105f2565b60405161023a9190612f1f565b60405180910390f35b61025d60048036038101906102589190613137565b6105f8565b005b6102676106a0565b6040516102749190612d2f565b60405180910390f35b6102856106a5565b604051610292919061325b565b60405180910390f35b6102b560048036038101906102b09190613339565b6106cb565b6040516102c2919061346f565b60405180910390f35b6102d36107d4565b005b6102dd6107e8565b6040516102ea91906134a0565b60405180910390f35b61030d600480360381019061030891906134e7565b610812565b005b61032960048036038101906103249190613553565b610828565b6040516103369190612f1f565b60405180910390f35b610347610a0c565b6040516103549190612f1f565b60405180910390f35b61037760048036038101906103729190612e05565b610a12565b6040516103849190612f1f565b60405180910390f35b6103a760048036038101906103a29190613553565b610b22565b005b6103c360048036038101906103be9190613593565b610d0e565b6040516103d09190612dea565b60405180910390f35b6103f360048036038101906103ee91906135d3565b610da2565b005b61040f600480360381019061040a919061366a565b610e4a565b005b600080600083815260200190815260200160002060008473ffffffffffffffffffffffffffffffffffffffff1673ffffffffffffffffffffffffffffffffffffffff16815260200190815260200160002054905092915050565b60007fd9b67a26000000000000000000000000000000000000000000000000000000007bffffffffffffffffffffffffffffffffffffffffffffffffffffffff1916827bffffffffffffffffffffffffffffffffffffffffffffffffffffffff1916148061053657507f0e89341c000000000000000000000000000000000000000000000000000000007bffffffffffffffffffffffffffffffffffffffffffffffffffffffff1916827bffffffffffffffffffffffffffffffffffffffffffffffffffffffff1916145b80610546575061054582610ed0565b5b9050919050565b60606002805461055c906136c6565b80601f0160208091040260200160405190810160405280929190818152602001828054610588906136c6565b80156105d55780601f106105aa576101008083540402835291602001916105d5565b820191906000526020600020905b8154815290600101906020018083116105b857829003601f168201915b50505050509050919050565b600181565b60065481565b60085481565b60055481565b6000610602610f3a565b90508073ffffffffffffffffffffffffffffffffffffffff168673ffffffffffffffffffffffffffffffffffffffff161415801561064757506106458682610d0e565b155b1561068b5780866040517fe237d9220000000000000000000000000000000000000000000000000000000081526004016106829291906136f7565b60405180910390fd5b6106988686868686610f42565b505050505050565b600281565b600460009054906101000a900473ffffffffffffffffffffffffffffffffffffffff1681565b6060815183511461071757815183516040517f5b05999100000000000000000000000000000000000000000000000000000000815260040161070e929190613720565b60405180910390fd5b6000835167ffffffffffffffff81111561073457610733612f3f565b5b6040519080825280602002602001820160405280156107625781602001602082028036833780820191505090505b50905060005b84518110156107c95761079f610787828761103a90919063ffffffff16565b61079a838761104e90919063ffffffff16565b610411565b8282815181106107b2576107b1613749565b5b602002602001018181525050806001019050610768565b508091505092915050565b6107dc611062565b6107e660006110e9565b565b6000600360009054906101000a900473ffffffffffffffffffffffffffffffffffffffff16905090565b61082461081d610f3a565b83836111af565b5050565b6000806108348361131f565b11610874576040517f08c379a000000000000000000000000000000000000000000000000000000000815260040161086b906137c4565b60405180910390fd5b60006108e16108d06108cb61089e61089960065460085461132990919063ffffffff16565b61135e565b6108bd6108b860065460075461132990919063ffffffff16565b61135e565b6113fb90919063ffffffff16565b611429565b60065461146d90919063ffffffff16565b90506000841561096f5761096861095761095261091361090e60065460085461132990919063ffffffff16565b61135e565b61094461093f6006546109318b6007546113fb90919063ffffffff16565b61132990919063ffffffff16565b61135e565b6113fb90919063ffffffff16565b611429565b60065461146d90919063ffffffff16565b90506109ef565b6109ec6109db6109d66109a96109a46006546109968a6008546113fb90919063ffffffff16565b61132990919063ffffffff16565b61135e565b6109c86109c360065460075461132990919063ffffffff16565b61135e565b6113fb90919063ffffffff16565b611429565b60065461146d90919063ffffffff16565b90505b610a02828261149990919063ffffffff16565b9250505092915050565b60075481565b60006001821480610a235750600282145b610a62576040517f08c379a0000000000000000000000000000000000000000000000000000000008152600401610a5990613830565b60405180910390fd5b600080610ab4610a87610a8260065460085461132990919063ffffffff16565b61135e565b610aa6610aa160065460075461132990919063ffffffff16565b61135e565b6113fb90919063ffffffff16565b905060018403610ae457610add610ad860065460075461132990919063ffffffff16565b61135e565b9150610b06565b610b03610afe60065460085461132990919063ffffffff16565b61135e565b91505b610b19818361132990919063ffffffff16565b92505050919050565b6000610b2e8383610828565b9050600460009054906101000a900473ffffffffffffffffffffffffffffffffffffffff1673ffffffffffffffffffffffffffffffffffffffff166323b872dd3330610b798561131f565b6040518463ffffffff1660e01b8152600401610b9793929190613850565b6020604051808303816000875af1158015610bb6573d6000803e3d6000fd5b505050506040513d601f19601f82011682018060405250810190610bda919061389c565b610c19576040517f08c379a0000000000000000000000000000000000000000000000000000000008152600401610c1090613915565b60405180910390fd5b8215610c6357610c43336001610c2e8561131f565b604051806020016040528060008152506114c7565b610c58826007546113fb90919063ffffffff16565b600781905550610ca3565b610c87336002610c728561131f565b604051806020016040528060008152506114c7565b610c9c826008546113fb90919063ffffffff16565b6008819055505b3373ffffffffffffffffffffffffffffffffffffffff167f8fafebcaf9d154343dad25669bfa277f4fbacd7ac6b0c4fed522580e040a0f3384610ce7576002610cea565b60015b610cf38561131f565b604051610d01929190613720565b60405180910390a2505050565b6000600160008473ffffffffffffffffffffffffffffffffffffffff1673ffffffffffffffffffffffffffffffffffffffff16815260200190815260200160002060008373ffffffffffffffffffffffffffffffffffffffff1673ffffffffffffffffffffffffffffffffffffffff16815260200190815260200160002060009054906101000a900460ff16905092915050565b6000610dac610f3a565b90508073ffffffffffffffffffffffffffffffffffffffff168673ffffffffffffffffffffffffffffffffffffffff1614158015610df15750610def8682610d0e565b155b15610e355780866040517fe237d922000000000000000000000000000000000000000000000000000000008152600401610e2c9291906136f7565b60405180910390fd5b610e428686868686611560565b505050505050565b610e52611062565b600073ffffffffffffffffffffffffffffffffffffffff168173ffffffffffffffffffffffffffffffffffffffff1603610ec45760006040517f1e4fbdf7000000000000000000000000000000000000000000000000000000008152600401610ebb91906134a0565b60405180910390fd5b610ecd816110e9565b50565b60007f01ffc9a7000000000000000000000000000000000000000000000000000000007bffffffffffffffffffffffffffffffffffffffffffffffffffffffff1916827bffffffffffffffffffffffffffffffffffffffffffffffffffffffff1916149050919050565b600033905090565b600073ffffffffffffffffffffffffffffffffffffffff168473ffffffffffffffffffffffffffffffffffffffff1603610fb45760006040517f57f447ce000000000000000000000000000000000000000000000000000000008152600401610fab91906134a0565b60405180910390fd5b600073ffffffffffffffffffffffffffffffffffffffff168573ffffffffffffffffffffffffffffffffffffffff16036110265760006040517f01a8351400000000000000000000000000000000000000000000000000000000815260040161101d91906134a0565b60405180910390fd5b611033858585858561166b565b5050505050565b600060208202602084010151905092915050565b600060208202602084010151905092915050565b61106a610f3a565b73ffffffffffffffffffffffffffffffffffffffff166110886107e8565b73ffffffffffffffffffffffffffffffffffffffff16146110e7576110ab610f3a565b6040517f118cdaa70000000000000000000000000000000000000000000000000000000081526004016110de91906134a0565b60405180910390fd5b565b6000600360009054906101000a900473ffffffffffffffffffffffffffffffffffffffff16905081600360006101000a81548173ffffffffffffffffffffffffffffffffffffffff021916908373ffffffffffffffffffffffffffffffffffffffff1602179055508173ffffffffffffffffffffffffffffffffffffffff168173ffffffffffffffffffffffffffffffffffffffff167f8be0079c531659141344cd1fd0a4f28419497f9722a3daafe3b4186f6b6457e060405160405180910390a35050565b600073ffffffffffffffffffffffffffffffffffffffff168273ffffffffffffffffffffffffffffffffffffffff16036112215760006040517fced3e10000000000000000000000000000000000000000000000000000000000815260040161121891906134a0565b60405180910390fd5b80600160008573ffffffffffffffffffffffffffffffffffffffff1673ffffffffffffffffffffffffffffffffffffffff16815260200190815260200160002060008473ffffffffffffffffffffffffffffffffffffffff1673ffffffffffffffffffffffffffffffffffffffff16815260200190815260200160002060006101000a81548160ff0219169083151502179055508173ffffffffffffffffffffffffffffffffffffffff168373ffffffffffffffffffffffffffffffffffffffff167f17307eab39ab6107e8899845ad3d59bd9653f200f220920489ca2b5937696c31836040516113129190612dea565b60405180910390a3505050565b6000819050919050565b600061135661135161133a8561131f565b670de0b6b3a764000061134c8661131f565b61171d565b611837565b905092915050565b60008061136a8361131f565b9050680736ea4425c11ac6308111156113ba57826040517f1af63aca0000000000000000000000000000000000000000000000000000000081526004016113b19190612f1f565b60405180910390fd5b60006714057b7ef767814f820290506113f26113ed670de0b6b3a764000083816113e7576113e6613935565b5b04611837565b611841565b92505050919050565b60006114216114098361131f565b6114128561131f565b61141c9190613993565b611837565b905092915050565b60006114666714057b7ef767814f670de0b6b3a764000061145161144c866118d3565b61131f565b02816114605761145f613935565b5b04611837565b9050919050565b600061149161148c61147e8561131f565b6114878561131f565b611a05565b611837565b905092915050565b60006114bf6114a78361131f565b6114b08561131f565b6114ba91906139c7565b611837565b905092915050565b600073ffffffffffffffffffffffffffffffffffffffff168473ffffffffffffffffffffffffffffffffffffffff16036115395760006040517f57f447ce00000000000000000000000000000000000000000000000000000000815260040161153091906134a0565b60405180910390fd5b6000806115468585611aef565b9150915061155860008784848761166b565b505050505050565b600073ffffffffffffffffffffffffffffffffffffffff168473ffffffffffffffffffffffffffffffffffffffff16036115d25760006040517f57f447ce0000000000000000000000000000000000000000000000000000000081526004016115c991906134a0565b60405180910390fd5b600073ffffffffffffffffffffffffffffffffffffffff168573ffffffffffffffffffffffffffffffffffffffff16036116445760006040517f01a8351400000000000000000000000000000000000000000000000000000000815260040161163b91906134a0565b60405180910390fd5b6000806116518585611aef565b91509150611662878784848761166b565b50505050505050565b61167785858585611b1f565b600073ffffffffffffffffffffffffffffffffffffffff168473ffffffffffffffffffffffffffffffffffffffff16146117165760006116b5610f3a565b905060018451036117055760006116d660008661104e90919063ffffffff16565b905060006116ee60008661104e90919063ffffffff16565b90506116fe838989858589611ec7565b5050611714565b61171381878787878761207b565b5b505b5050505050565b60008060008019858709858702925082811083820303915050600081036117585783828161174e5761174d613935565b5b0492505050611830565b8381106117a0578585856040517f63a05778000000000000000000000000000000000000000000000000000000008152600401611797939291906139fb565b60405180910390fd5b60008486880990508281118203915080830392506000600186190186169050600081870496508185049450600182836000030401905080840285179450600060028860030218905080880260020381029050808802600203810290508088026002038102905080880260020381029050808802600203810290508088026002038102905080860296505050505050505b9392505050565b6000819050919050565b60008061184d8361131f565b9050680a688906bd8affffff81111561189d57826040517fb3b6ba1f0000000000000000000000000000000000000000000000000000000081526004016118949190612f1f565b60405180910390fd5b6000670de0b6b3a7640000604083901b6118b79190613a32565b90506118ca6118c58261222f565b611837565b92505050919050565b6000806118df8361131f565b9050670de0b6b3a764000081101561192e57826040517f36d32ef00000000000000000000000000000000000000000000000000000000081526004016119259190612f1f565b60405180910390fd5b6000611951670de0b6b3a7640000838161194b5761194a613935565b5b04612b8f565b90506000670de0b6b3a76400008202905060008284901c9050670de0b6b3a7640000810361198d5761198282611837565b945050505050611a00565b6000671bc16d674ec80000905060006706f05b59d3b2000090505b60008111156119ee57670de0b6b3a7640000838402816119cb576119ca613935565b5b0492508183106119e2578084019350600183901c92505b600181901c90506119a8565b506119f883611837565b955050505050505b919050565b6000806000801984860984860292508281108382030391505060008103611a4857670de0b6b3a76400008281611a3e57611a3d613935565b5b0492505050611ae9565b670de0b6b3a76400008110611a965784846040517f5173648d000000000000000000000000000000000000000000000000000000008152600401611a8d929190613720565b60405180910390fd5b6000670de0b6b3a764000085870990507faccb18165bd6fe31ae1cf318dc5b51eee0e1ba569b88cd74c1773b91fac106696001620400008060000304018483118403026204000083860304170293505050505b92915050565b60608060405191506001825283602083015260408201905060018152826020820152604081016040529250929050565b8051825114611b6957815181516040517f5b059991000000000000000000000000000000000000000000000000000000008152600401611b60929190613720565b60405180910390fd5b6000611b73610f3a565b905060005b8351811015611d82576000611b96828661104e90919063ffffffff16565b90506000611bad838661104e90919063ffffffff16565b9050600073ffffffffffffffffffffffffffffffffffffffff168873ffffffffffffffffffffffffffffffffffffffff1614611cda57600080600084815260200190815260200160002060008a73ffffffffffffffffffffffffffffffffffffffff1673ffffffffffffffffffffffffffffffffffffffff16815260200190815260200160002054905081811015611c8257888183856040517f03dee4c5000000000000000000000000000000000000000000000000000000008152600401611c799493929190613a63565b60405180910390fd5b81810360008085815260200190815260200160002060008b73ffffffffffffffffffffffffffffffffffffffff1673ffffffffffffffffffffffffffffffffffffffff16815260200190815260200160002081905550505b600073ffffffffffffffffffffffffffffffffffffffff168773ffffffffffffffffffffffffffffffffffffffff1614611d75578060008084815260200190815260200160002060008973ffffffffffffffffffffffffffffffffffffffff1673ffffffffffffffffffffffffffffffffffffffff1681526020019081526020016000206000828254611d6d9190613993565b925050819055505b5050806001019050611b78565b506001835103611e41576000611da260008561104e90919063ffffffff16565b90506000611dba60008561104e90919063ffffffff16565b90508573ffffffffffffffffffffffffffffffffffffffff168773ffffffffffffffffffffffffffffffffffffffff168473ffffffffffffffffffffffffffffffffffffffff167fc3d58168c5ae7397731d063d5bbf3d657854427343f4c083240f7aacaa2d0f628585604051611e32929190613720565b60405180910390a45050611ec0565b8373ffffffffffffffffffffffffffffffffffffffff168573ffffffffffffffffffffffffffffffffffffffff168273ffffffffffffffffffffffffffffffffffffffff167f4a39dc06d4c0dbc64b70af90fd698a233a518aa5d07e595d983b8c0526c8f7fb8686604051611eb7929190613aa8565b60405180910390a45b5050505050565b60008473ffffffffffffffffffffffffffffffffffffffff163b1115612073578373ffffffffffffffffffffffffffffffffffffffff1663f23a6e6187878686866040518663ffffffff1660e01b8152600401611f28959493929190613b34565b6020604051808303816000875af1925050508015611f6457506040513d601f19601f82011682018060405250810190611f619190613ba3565b60015b611fe8573d8060008114611f94576040519150601f19603f3d011682016040523d82523d6000602084013e611f99565b606091505b506000815103611fe057846040517f57f447ce000000000000000000000000000000000000000000000000000000008152600401611fd791906134a0565b60405180910390fd5b805181602001fd5b63f23a6e6160e01b7bffffffffffffffffffffffffffffffffffffffffffffffffffffffff1916817bffffffffffffffffffffffffffffffffffffffffffffffffffffffff19161461207157846040517f57f447ce00000000000000000000000000000000000000000000000000000000815260040161206891906134a0565b60405180910390fd5b505b505050505050565b60008473ffffffffffffffffffffffffffffffffffffffff163b1115612227578373ffffffffffffffffffffffffffffffffffffffff1663bc197c8187878686866040518663ffffffff1660e01b81526004016120dc959493929190613bd0565b6020604051808303816000875af192505050801561211857506040513d601f19601f820116820180604052508101906121159190613ba3565b60015b61219c573d8060008114612148576040519150601f19603f3d011682016040523d82523d6000602084013e61214d565b606091505b50600081510361219457846040517f57f447ce00000000000000000000000000000000000000000000000000000000815260040161218b91906134a0565b60405180910390fd5b805181602001fd5b63bc197c8160e01b7bffffffffffffffffffffffffffffffffffffffffffffffffffffffff1916817bffffffffffffffffffffffffffffffffffffffffffffffffffffffff19161461222557846040517f57f447ce00000000000000000000000000000000000000000000000000000000815260040161221c91906134a0565b60405180910390fd5b505b505050505050565b6000778000000000000000000000000000000000000000000000009050600067ff00000000000000831611156123905760006780000000000000008316111561228557604068016a09e667f3bcc9098202901c90505b6000674000000000000000831611156122ab5760406801306fe0a31b7152df8202901c90505b6000672000000000000000831611156122d15760406801172b83c7d517adce8202901c90505b6000671000000000000000831611156122f757604068010b5586cf9890f62a8202901c90505b60006708000000000000008316111561231d5760406801059b0d31585743ae8202901c90505b600067040000000000000083161115612343576040680102c9a3e778060ee78202901c90505b60006702000000000000008316111561236957604068010163da9fb33356d88202901c90505b60006701000000000000008316111561238f576040680100b1afa5abcbed618202901c90505b5b600066ff000000000000831611156124cb5760006680000000000000831611156123c757604068010058c86da1c09ea28202901c90505b60006640000000000000831611156123ec5760406801002c605e2e8cec508202901c90505b6000662000000000000083161115612411576040680100162f3904051fa18202901c90505b60006610000000000000831611156124365760406801000b175effdc76ba8202901c90505b600066080000000000008316111561245b576040680100058ba01fb9f96d8202901c90505b600066040000000000008316111561248057604068010002c5cc37da94928202901c90505b60006602000000000000831611156124a55760406801000162e525ee05478202901c90505b60006601000000000000831611156124ca57604068010000b17255775c048202901c90505b5b600065ff0000000000831611156125fd57600065800000000000831611156125005760406801000058b91b5bc9ae8202901c90505b60006540000000000083161115612524576040680100002c5c89d5ec6d8202901c90505b6000652000000000008316111561254857604068010000162e43f4f8318202901c90505b6000651000000000008316111561256c576040680100000b1721bcfc9a8202901c90505b6000650800000000008316111561259057604068010000058b90cf1e6e8202901c90505b600065040000000000831611156125b45760406801000002c5c863b73f8202901c90505b600065020000000000831611156125d8576040680100000162e430e5a28202901c90505b600065010000000000831611156125fc5760406801000000b1721835518202901c90505b5b600064ff000000008316111561272657600064800000000083161115612630576040680100000058b90c0b498202901c90505b60006440000000008316111561265357604068010000002c5c8601cc8202901c90505b6000642000000000831611156126765760406801000000162e42fff08202901c90505b60006410000000008316111561269957604068010000000b17217fbb8202901c90505b6000640800000000831611156126bc5760406801000000058b90bfce8202901c90505b6000640400000000831611156126df576040680100000002c5c85fe38202901c90505b60006402000000008316111561270257604068010000000162e42ff18202901c90505b600064010000000083161115612725576040680100000000b17217f88202901c90505b5b600063ff0000008316111561284657600063800000008316111561275757604068010000000058b90bfc8202901c90505b60006340000000831611156127795760406801000000002c5c85fe8202901c90505b600063200000008316111561279b576040680100000000162e42ff8202901c90505b60006310000000831611156127bd5760406801000000000b17217f8202901c90505b60006308000000831611156127df576040680100000000058b90c08202901c90505b600063040000008316111561280157604068010000000002c5c8608202901c90505b60006302000000831611156128235760406801000000000162e4308202901c90505b600063010000008316111561284557604068010000000000b172188202901c90505b5b600062ff00008316111561295d57600062800000831611156128755760406801000000000058b90c8202901c90505b60006240000083161115612896576040680100000000002c5c868202901c90505b600062200000831611156128b757604068010000000000162e438202901c90505b600062100000831611156128d8576040680100000000000b17218202901c90505b600062080000831611156128f957604068010000000000058b918202901c90505b6000620400008316111561291a5760406801000000000002c5c88202901c90505b6000620200008316111561293b576040680100000000000162e48202901c90505b6000620100008316111561295c5760406801000000000000b1728202901c90505b5b600061ff0083161115612a6b5760006180008316111561298a576040680100000000000058b98202901c90505b6000614000831611156129aa57604068010000000000002c5d8202901c90505b6000612000831611156129ca5760406801000000000000162e8202901c90505b6000611000831611156129ea57604068010000000000000b178202901c90505b600061080083161115612a0a5760406801000000000000058c8202901c90505b600061040083161115612a2a576040680100000000000002c68202901c90505b600061020083161115612a4a576040680100000000000001638202901c90505b600061010083161115612a6a576040680100000000000000b18202901c90505b5b600060ff83161115612b70576000608083161115612a96576040680100000000000000598202901c90505b6000604083161115612ab55760406801000000000000002c8202901c90505b6000602083161115612ad4576040680100000000000000168202901c90505b6000601083161115612af35760406801000000000000000b8202901c90505b6000600883161115612b12576040680100000000000000068202901c90505b6000600483161115612b31576040680100000000000000038202901c90505b6000600283161115612b50576040680100000000000000018202901c90505b6000600183161115612b6f576040680100000000000000018202901c90505b5b670de0b6b3a764000081029050604082901c60bf0381901c9050919050565b60006fffffffffffffffffffffffffffffffff821160071b82811c925080821791505067ffffffffffffffff821160061b82811c925080821791505063ffffffff821160051b82811c925080821791505061ffff821160041b82811c925080821791505060ff821160031b82811c9250808217915050600f821160021b82811c92508082179150506003821160011b82811c925080821791505060018211808217915050919050565b6000604051905090565b600080fd5b600080fd5b600073ffffffffffffffffffffffffffffffffffffffff82169050919050565b6000612c7782612c4c565b9050919050565b612c8781612c6c565b8114612c9257600080fd5b50565b600081359050612ca481612c7e565b92915050565b6000819050919050565b612cbd81612caa565b8114612cc857600080fd5b50565b600081359050612cda81612cb4565b92915050565b60008060408385031215612cf757612cf6612c42565b5b6000612d0585828601612c95565b9250506020612d1685828601612ccb565b9150509250929050565b612d2981612caa565b82525050565b6000602082019050612d446000830184612d20565b92915050565b60007fffffffff0000000000000000000000000000000000000000000000000000000082169050919050565b612d7f81612d4a565b8114612d8a57600080fd5b50565b600081359050612d9c81612d76565b92915050565b600060208284031215612db857612db7612c42565b5b6000612dc684828501612d8d565b91505092915050565b60008115159050919050565b612de481612dcf565b82525050565b6000602082019050612dff6000830184612ddb565b92915050565b600060208284031215612e1b57612e1a612c42565b5b6000612e2984828501612ccb565b91505092915050565b600081519050919050565b600082825260208201905092915050565b60005b83811015612e6c578082015181840152602081019050612e51565b60008484015250505050565b6000601f19601f8301169050919050565b6000612e9482612e32565b612e9e8185612e3d565b9350612eae818560208601612e4e565b612eb781612e78565b840191505092915050565b60006020820190508181036000830152612edc8184612e89565b905092915050565b6000819050919050565b6000612f09612f04612eff84612caa565b612ee4565b612caa565b9050919050565b612f1981612eee565b82525050565b6000602082019050612f346000830184612f10565b92915050565b600080fd5b7f4e487b7100000000000000000000000000000000000000000000000000000000600052604160045260246000fd5b612f7782612e78565b810181811067ffffffffffffffff82111715612f9657612f95612f3f565b5b80604052505050565b6000612fa9612c38565b9050612fb58282612f6e565b919050565b600067ffffffffffffffff821115612fd557612fd4612f3f565b5b602082029050602081019050919050565b600080fd5b6000612ffe612ff984612fba565b612f9f565b9050808382526020820190506020840283018581111561302157613020612fe6565b5b835b8181101561304a57806130368882612ccb565b845260208401935050602081019050613023565b5050509392505050565b600082601f83011261306957613068612f3a565b5b8135613079848260208601612feb565b91505092915050565b600080fd5b600067ffffffffffffffff8211156130a2576130a1612f3f565b5b6130ab82612e78565b9050602081019050919050565b82818337600083830152505050565b60006130da6130d584613087565b612f9f565b9050828152602081018484840111156130f6576130f5613082565b5b6131018482856130b8565b509392505050565b600082601f83011261311e5761311d612f3a565b5b813561312e8482602086016130c7565b91505092915050565b600080600080600060a0868803121561315357613152612c42565b5b600061316188828901612c95565b955050602061317288828901612c95565b945050604086013567ffffffffffffffff81111561319357613192612c47565b5b61319f88828901613054565b935050606086013567ffffffffffffffff8111156131c0576131bf612c47565b5b6131cc88828901613054565b925050608086013567ffffffffffffffff8111156131ed576131ec612c47565b5b6131f988828901613109565b9150509295509295909350565b600061322161321c61321784612c4c565b612ee4565b612c4c565b9050919050565b600061323382613206565b9050919050565b600061324582613228565b9050919050565b6132558161323a565b82525050565b6000602082019050613270600083018461324c565b92915050565b600067ffffffffffffffff82111561329157613290612f3f565b5b602082029050602081019050919050565b60006132b56132b084613276565b612f9f565b905080838252602082019050602084028301858111156132d8576132d7612fe6565b5b835b8181101561330157806132ed8882612c95565b8452602084019350506020810190506132da565b5050509392505050565b600082601f8301126133205761331f612f3a565b5b81356133308482602086016132a2565b91505092915050565b600080604083850312156133505761334f612c42565b5b600083013567ffffffffffffffff81111561336e5761336d612c47565b5b61337a8582860161330b565b925050602083013567ffffffffffffffff81111561339b5761339a612c47565b5b6133a785828601613054565b9150509250929050565b600081519050919050565b600082825260208201905092915050565b6000819050602082019050919050565b6133e681612caa565b82525050565b60006133f883836133dd565b60208301905092915050565b6000602082019050919050565b600061341c826133b1565b61342681856133bc565b9350613431836133cd565b8060005b8381101561346257815161344988826133ec565b975061345483613404565b925050600181019050613435565b5085935050505092915050565b600060208201905081810360008301526134898184613411565b905092915050565b61349a81612c6c565b82525050565b60006020820190506134b56000830184613491565b92915050565b6134c481612dcf565b81146134cf57600080fd5b50565b6000813590506134e1816134bb565b92915050565b600080604083850312156134fe576134fd612c42565b5b600061350c85828601612c95565b925050602061351d858286016134d2565b9150509250929050565b61353081612caa565b811461353b57600080fd5b50565b60008135905061354d81613527565b92915050565b6000806040838503121561356a57613569612c42565b5b6000613578858286016134d2565b92505060206135898582860161353e565b9150509250929050565b600080604083850312156135aa576135a9612c42565b5b60006135b885828601612c95565b92505060206135c985828601612c95565b9150509250929050565b600080600080600060a086880312156135ef576135ee612c42565b5b60006135fd88828901612c95565b955050602061360e88828901612c95565b945050604061361f88828901612ccb565b935050606061363088828901612ccb565b925050608086013567ffffffffffffffff81111561365157613650612c47565b5b61365d88828901613109565b9150509295509295909350565b6000602082840312156136805761367f612c42565b5b600061368e84828501612c95565b91505092915050565b7f4e487b7100000000000000000000000000000000000000000000000000000000600052602260045260246000fd5b600060028204905060018216806136de57607f821691505b6020821081036136f1576136f0613697565b5b50919050565b600060408201905061370c6000830185613491565b6137196020830184613491565b9392505050565b60006040820190506137356000830185612d20565b6137426020830184612d20565b9392505050565b7f4e487b7100000000000000000000000000000000000000000000000000000000600052603260045260246000fd5b7f416d6f756e74206d7573742062652067726561746572207468616e207a65726f600082015250565b60006137ae602083612e3d565b91506137b982613778565b602082019050919050565b600060208201905081810360008301526137dd816137a1565b9050919050565b7f496e76616c696420746f6b656e20747970650000000000000000000000000000600082015250565b600061381a601283612e3d565b9150613825826137e4565b602082019050919050565b600060208201905081810360008301526138498161380d565b9050919050565b60006060820190506138656000830186613491565b6138726020830185613491565b61387f6040830184612d20565b949350505050565b600081519050613896816134bb565b92915050565b6000602082840312156138b2576138b1612c42565b5b60006138c084828501613887565b91505092915050565b7f5061796d656e74206661696c6564000000000000000000000000000000000000600082015250565b60006138ff600e83612e3d565b915061390a826138c9565b602082019050919050565b6000602082019050818103600083015261392e816138f2565b9050919050565b7f4e487b7100000000000000000000000000000000000000000000000000000000600052601260045260246000fd5b7f4e487b7100000000000000000000000000000000000000000000000000000000600052601160045260246000fd5b600061399e82612caa565b91506139a983612caa565b92508282019050808211156139c1576139c0613964565b5b92915050565b60006139d282612caa565b91506139dd83612caa565b92508282039050818111156139f5576139f4613964565b5b92915050565b6000606082019050613a106000830186612d20565b613a1d6020830185612d20565b613a2a6040830184612d20565b949350505050565b6000613a3d82612caa565b9150613a4883612caa565b925082613a5857613a57613935565b5b828204905092915050565b6000608082019050613a786000830187613491565b613a856020830186612d20565b613a926040830185612d20565b613a9f6060830184612d20565b95945050505050565b60006040820190508181036000830152613ac28185613411565b90508181036020830152613ad68184613411565b90509392505050565b600081519050919050565b600082825260208201905092915050565b6000613b0682613adf565b613b108185613aea565b9350613b20818560208601612e4e565b613b2981612e78565b840191505092915050565b600060a082019050613b496000830188613491565b613b566020830187613491565b613b636040830186612d20565b613b706060830185612d20565b8181036080830152613b828184613afb565b90509695505050505050565b600081519050613b9d81612d76565b92915050565b600060208284031215613bb957613bb8612c42565b5b6000613bc784828501613b8e565b91505092915050565b600060a082019050613be56000830188613491565b613bf26020830187613491565b8181036040830152613c048186613411565b90508181036060830152613c188185613411565b90508181036080830152613c2c8184613afb565b9050969550505050505056fea26469706673582212201e4389686074eb6dc78cb8921146083349086277f6c1efedb026dd12dc7b714564736f6c63430008180033",
  "linkReferences": {},
  "deployedLinkReferences": {}
}