{
  "_format": "hh-sol-artifact-1",
  "contractName": "MarketFactory",
  "sourceName": "contracts/MarketFactory.sol",
  "abi": [
    {
      "inputs": [
        {
          "internalType": "address",
          "name": "_priceToken",
          "type": "address"
        },
        {
          "internalType": "address",
          "name": "_yesToken",
          "type": "address"
        },
        {
          "internalType": "address",
          "name": "_noToken",
          "type": "address"
        }
      ],
      "stateMutability": "nonpayable",
      "type": "constructor"
    },
    {
      "inputs": [
        {
          "internalType": "address",
          "name": "owner",
          "type": "address"
        }
      ],
      "name": "OwnableInvalidOwner",
      "type": "error"
    },
    {
      "inputs": [
        {
          "internalType": "address",
          "name": "account",
          "type": "address"
        }
      ],
      "name": "OwnableUnauthorizedAccount",
      "type": "error"
    },
    {
      "anonymous": false,
      "inputs": [
        {
          "indexed": false,
          "internalType": "uint256",
          "name": "id",
          "type": "uint256"
        },
        {
          "indexed": false,
          "internalType": "string",
          "name": "question",
          "type": "string"
        },
        {
          "indexed": false,
          "internalType": "uint256",
          "name": "endTime",
          "type": "uint256"
        },
        {
          "indexed": false,
          "internalType": "address",
          "name": "marketContract",
          "type": "address"
        }
      ],
      "name": "MarketCreated",
      "type": "event"
    },
    {
      "anonymous": false,
      "inputs": [
        {
          "indexed": true,
          "internalType": "address",
          "name": "previousOwner",
          "type": "address"
        },
        {
          "indexed": true,
          "internalType": "address",
          "name": "newOwner",
          "type": "address"
        }
      ],
      "name": "OwnershipTransferred",
      "type": "event"
    },
    {
      "inputs": [
        {
          "internalType": "string",
          "name": "_question",
          "type": "string"
        },
        {
          "internalType": "uint256",
          "name": "_endtime",
          "type": "uint256"
        }
      ],
      "name": "createMarket",
      "outputs": [],
      "stateMutability": "nonpayable",
      "type": "function"
    },
    {
      "inputs": [],
      "name": "getNoToken",
      "outputs": [
        {
          "internalType": "address",
          "name": "",
          "type": "address"
        }
      ],
      "stateMutability": "view",
      "type": "function"
    },
    {
      "inputs": [],
      "name": "getPriceToken",
      "outputs": [
        {
          "internalType": "address",
          "name": "",
          "type": "address"
        }
      ],
      "stateMutability": "view",
      "type": "function"
    },
    {
      "inputs": [],
      "name": "getYesToken",
      "outputs": [
        {
          "internalType": "address",
          "name": "",
          "type": "address"
        }
      ],
      "stateMutability": "view",
      "type": "function"
    },
    {
      "inputs": [],
      "name": "marketCount",
      "outputs": [
        {
          "internalType": "uint256",
          "name": "",
          "type": "uint256"
        }
      ],
      "stateMutability": "view",
      "type": "function"
    },
    {
      "inputs": [],
      "name": "noToken",
      "outputs": [
        {
          "internalType": "address",
          "name": "",
          "type": "address"
        }
      ],
      "stateMutability": "view",
      "type": "function"
    },
    {
      "inputs": [],
      "name": "owner",
      "outputs": [
        {
          "internalType": "address",
          "name": "",
          "type": "address"
        }
      ],
      "stateMutability": "view",
      "type": "function"
    },
    {
      "inputs": [],
      "name": "priceToken",
      "outputs": [
        {
          "internalType": "address",
          "name": "",
          "type": "address"
        }
      ],
      "stateMutability": "view",
      "type": "function"
    },
    {
      "inputs": [],
      "name": "renounceOwnership",
      "outputs": [],
      "stateMutability": "nonpayable",
      "type": "function"
    },
    {
      "inputs": [
        {
          "internalType": "address",
          "name": "_noToken",
          "type": "address"
        }
      ],
      "name": "setNoToken",
      "outputs": [],
      "stateMutability": "nonpayable",
      "type": "function"
    },
    {
      "inputs": [
        {
          "internalType": "address",
          "name": "_priceToken",
          "type": "address"
        }
      ],
      "name": "setPriceToken",
      "outputs": [],
      "stateMutability": "nonpayable",
      "type": "function"
    },
    {
      "inputs": [
        {
          "internalType": "address",
          "name": "_yesToken",
          "type": "address"
        }
      ],
      "name": "setYesToken",
      "outputs": [],
      "stateMutability": "nonpayable",
      "type": "function"
    },
    {
      "inputs": [
        {
          "internalType": "address",
          "name": "newOwner",
          "type": "address"
        }
      ],
      "name": "transferOwnership",
      "outputs": [],
      "stateMutability": "nonpayable",
      "type": "function"
    },
    {
      "inputs": [],
      "name": "yesToken",
      "outputs": [
        {
          "internalType": "address",
          "name": "",
          "type": "address"
        }
      ],
      "stateMutability": "view",
      "type": "function"
    }
  ],
  "bytecode": "0x608060405234801561001057600080fd5b50604051612b22380380612b2283398101604081905261002f91610112565b338061005557604051631e4fbdf760e01b81526000600482015260240160405180910390fd5b61005e816100a6565b506000600155600280546001600160a01b039485166001600160a01b031991821617909155600380549385169382169390931790925560048054919093169116179055610155565b600080546001600160a01b038381166001600160a01b0319831681178455604051919092169283917f8be0079c531659141344cd1fd0a4f28419497f9722a3daafe3b4186f6b6457e09190a35050565b80516001600160a01b038116811461010d57600080fd5b919050565b60008060006060848603121561012757600080fd5b610130846100f6565b925061013e602085016100f6565b915061014c604085016100f6565b90509250925092565b6129be806101646000396000f3fe60806040523480156200001157600080fd5b5060043610620000fd5760003560e01c8063715018a611620000975780638da5cb5b116200006e5780638da5cb5b14620001e5578063ec97908214620001f7578063f0d9bb201462000210578063f2fde38b146200022457600080fd5b8063715018a614620001b257806372f0424f14620001bc578063883c84c114620001ce57600080fd5b806344e6a6a011620000d857806344e6a6a01462000160578063570a5a6a14620001775780635b65cbdb14620001895780637117f008146200019b57600080fd5b806311a9f10a14620001025780632ff6fe761462000133578063411092e31462000147575b600080fd5b60045462000116906001600160a01b031681565b6040516001600160a01b0390911681526020015b60405180910390f35b60025462000116906001600160a01b031681565b6200015e620001583660046200046d565b6200023b565b005b6200015e620001713660046200046d565b62000267565b6004546001600160a01b031662000116565b6003546001600160a01b031662000116565b6200015e620001ac3660046200046d565b62000293565b6200015e620002bf565b6002546001600160a01b031662000116565b6200015e620001df366004620004b5565b620002d7565b6000546001600160a01b031662000116565b6200020160015481565b6040519081526020016200012a565b60035462000116906001600160a01b031681565b6200015e620002353660046200046d565b62000398565b62000245620003e0565b600280546001600160a01b0319166001600160a01b0392909216919091179055565b62000271620003e0565b600480546001600160a01b0319166001600160a01b0392909216919091179055565b6200029d620003e0565b600380546001600160a01b0319166001600160a01b0392909216919091179055565b620002c9620003e0565b620002d560006200040f565b565b6002546003546004546001546040516000946001600160a01b0390811694811693169190879087906200030a906200045f565b6200031b96959493929190620005bc565b604051809103906000f08015801562000338573d6000803e3d6000fd5b506001805491925060006200034d836200060c565b91905055507f57d0d124b72f81ed1da0dc728fc33db342705974792928796f6577b8db5c3d536001548484846040516200038b949392919062000634565b60405180910390a1505050565b620003a2620003e0565b6001600160a01b038116620003d257604051631e4fbdf760e01b8152600060048201526024015b60405180910390fd5b620003dd816200040f565b50565b6000546001600160a01b03163314620002d55760405163118cdaa760e01b8152336004820152602401620003c9565b600080546001600160a01b038381166001600160a01b0319831681178455604051919092169283917f8be0079c531659141344cd1fd0a4f28419497f9722a3daafe3b4186f6b6457e09190a35050565b612318806200067183390190565b6000602082840312156200048057600080fd5b81356001600160a01b03811681146200049857600080fd5b9392505050565b634e487b7160e01b600052604160045260246000fd5b60008060408385031215620004c957600080fd5b823567ffffffffffffffff80821115620004e257600080fd5b818501915085601f830112620004f757600080fd5b8135818111156200050c576200050c6200049f565b604051601f8201601f19908116603f011681019083821181831017156200053757620005376200049f565b816040528281528860208487010111156200055157600080fd5b826020860160208301376000602093820184015298969091013596505050505050565b6000815180845260005b818110156200059c576020818501810151868301820152016200057e565b506000602082860101526020601f19601f83011685010191505092915050565b6001600160a01b0387811682528681166020830152851660408201526060810184905260c060808201819052600090620005f99083018562000574565b90508260a0830152979650505050505050565b6000600182016200062d57634e487b7160e01b600052601160045260246000fd5b5060010190565b8481526080602082015260006200064f608083018662000574565b6040830194909452506001600160a01b03919091166060909101529291505056fe6080604052670de0b6b3a7640000600b55678ac7230489e80000600c556000600d556000600e553480156200003357600080fd5b5060405162002318380380620023188339810160408190526200005691620001ef565b73e5caa785fee2154e5cddc15ac37eedf0274ad5a262000076816200016c565b50600180546001600160a01b038089166001600160a01b0319928316179092556002805488841690831617905560038054928716929091169190911790556040805161010081018252848152602081018490529081018290526000606082018190526080820181905260a0820181905260c0820181905260e0820152600484815560056200010585826200039f565b5060408201516002820155606082015160038201556080820151600482015560a0820151600582015560c08201516006909101805460e09093015115156101000261ff00199215159290921661ffff1990931692909217179055506200046b945050505050565b600080546001600160a01b038381166001600160a01b0319831681178455604051919092169283917f8be0079c531659141344cd1fd0a4f28419497f9722a3daafe3b4186f6b6457e09190a35050565b80516001600160a01b0381168114620001d457600080fd5b919050565b634e487b7160e01b600052604160045260246000fd5b60008060008060008060c087890312156200020957600080fd5b6200021487620001bc565b9550602062000225818901620001bc565b95506200023560408901620001bc565b606089015160808a015191965094506001600160401b03808211156200025a57600080fd5b818a0191508a601f8301126200026f57600080fd5b815181811115620002845762000284620001d9565b604051601f8201601f19908116603f01168101908382118183101715620002af57620002af620001d9565b816040528281528d86848701011115620002c857600080fd5b600093505b82841015620002ec5784840186015181850187015292850192620002cd565b600086848301015280975050505050505060a087015190509295509295509295565b600181811c908216806200032357607f821691505b6020821081036200034457634e487b7160e01b600052602260045260246000fd5b50919050565b601f8211156200039a576000816000526020600020601f850160051c81016020861015620003755750805b601f850160051c820191505b81811015620003965782815560010162000381565b5050505b505050565b81516001600160401b03811115620003bb57620003bb620001d9565b620003d381620003cc84546200030e565b846200034a565b602080601f8311600181146200040b5760008415620003f25750858301515b600019600386901b1c1916600185901b17855562000396565b600085815260208120601f198616915b828110156200043c578886015182559484019460019091019084016200041b565b50858210156200045b5787850151600019600388901b60f8161c191681555b5050505050600190811b01905550565b611e9d806200047b6000396000f3fe608060405234801561001057600080fd5b50600436106101375760003560e01c8063715018a6116100b8578063bfc596011161007c578063bfc596011461024b578063c84aae1714610254578063d816574314610282578063e24c469b14610297578063f0d9bb20146102aa578063f2fde38b146102bd57600080fd5b8063715018a6146101f057806380f55605146101f85780638b74b9ab146102145780638da5cb5b14610227578063a4d750651461023857600080fd5b80632acf1cd2116100ff5780632acf1cd2146101a85780632e0f2625146101b15780632fd2adfe146101ba5780632ff6fe76146101c25780635bea2410146101d557600080fd5b806310e6e06c1461013c57806311a9f10a146101515780631b142f62146101815780631c426fc8146101975780632810e1d6146101a0575b600080fd5b61014f61014a366004611bd7565b6102d0565b005b600354610164906001600160a01b031681565b6040516001600160a01b0390911681526020015b60405180910390f35b610189600181565b604051908152602001610178565b610189600c5481565b61014f61065a565b610189600e5481565b610189600b5481565b610189600281565b600154610164906001600160a01b031681565b600d54600e5460408051928352602083019190915201610178565b61014f6106cb565b6102006106df565b604051610178989796959493929190611c49565b610189610222366004611c9a565b6107a1565b6000546001600160a01b0316610164565b610189610246366004611bd7565b610840565b610189600d5481565b610267610262366004611cb7565b610959565b60408051938452602084019290925290820152606001610178565b61028a610acc565b6040516101789190611ce0565b61014f6102a5366004611bd7565b610c0c565b600254610164906001600160a01b031681565b61014f6102cb366004611cb7565b610fc1565b600081116103255760405162461bcd60e51b815260206004820181905260248201527f416d6f756e74206d7573742062652067726561746572207468616e207a65726f60448201526064015b60405180910390fd5b811561050d5760025460048054604051627eeac760e11b8152339281019290925260248201527fe7a8e522baa2b87f9dc4d1c2ae6b149dce35c187e79e13e5b5e100cd91b555b7916001600160a01b03169062fdd58e90604401602060405180830381865afa15801561039c573d6000803e3d6000fd5b505050506040513d601f19601f820116820180604052508101906103c09190611d55565b60405190815260200160405180910390a18060025460048054604051627eeac760e11b8152339281019290925260248201526001600160a01b039091169062fdd58e90604401602060405180830381865afa158015610423573d6000803e3d6000fd5b505050506040513d601f19601f820116820180604052508101906104479190611d55565b10156104655760405162461bcd60e51b815260040161031c90611d6e565b6002546004546001600160a01b039091169063f5298aca903390846040516001600160e01b031960e086901b1681526001600160a01b03909316600484015260248301919091526044820152606401600060405180830381600087803b1580156104ce57600080fd5b505af11580156104e2573d6000803e3d6000fd5b5050600d546104f49250905082610fff565b600d55806008546105059190611db2565b600855610645565b8060035460048054604051627eeac760e11b8152339281019290925260248201526001600160a01b039091169062fdd58e90604401602060405180830381865afa15801561055f573d6000803e3d6000fd5b505050506040513d601f19601f820116820180604052508101906105839190611d55565b10156105a15760405162461bcd60e51b815260040161031c90611d6e565b6003546004546001600160a01b039091169063f5298aca903390846040516001600160e01b031960e086901b1681526001600160a01b03909316600484015260248301919091526044820152606401600060405180830381600087803b15801561060a57600080fd5b505af115801561061e573d6000803e3d6000fd5b5050600e546106309250905082610fff565b600e55806009546106419190611db2565b6009555b806007546106539190611db2565b6007555050565b600a5460ff16156106ad5760405162461bcd60e51b815260206004820152601760248201527f4d61726b657420616c7265616479207265736f6c766564000000000000000000604482015260640161031c565b600a8054600954600854116101000261ffff19909116176001179055565b6106d3611018565b6106dd6000611045565b565b60048054600580549192916106f390611dc5565b80601f016020809104026020016040519081016040528092919081815260200182805461071f90611dc5565b801561076c5780601f106107415761010080835404028352916020019161076c565b820191906000526020600020905b81548152906001019060200180831161074f57829003601f168201915b505050600284015460038501546004860154600587015460069097015495969295919450925060ff8082169161010090041688565b60008060006107e86107c86107c3600c54600e5461109590919063ffffffff16565b6110ad565b6107e26107c3600c54600d5461109590919063ffffffff16565b90610fff565b905083156108115761080a6107c3600c54600d5461109590919063ffffffff16565b915061082e565b61082b6107c3600c54600e5461109590919063ffffffff16565b91505b6108388282611095565b949350505050565b60008082116108915760405162461bcd60e51b815260206004820181905260248201527f416d6f756e74206d7573742062652067726561746572207468616e207a65726f604482015260640161031c565b60006108c46108bb6108b66107c86107c3600c54600e5461109590919063ffffffff16565b611102565b600c5490611139565b90506000841561091c576109156108bb6108b66108f16107c3600c54600e5461109590919063ffffffff16565b6107e26107c3600c5461090f8b600d54610fff90919063ffffffff16565b90611095565b9050610946565b6109436108bb6108b66107c86107c3600c5461090f8a600e54610fff90919063ffffffff16565b90505b6109508183611148565b95945050505050565b6001546040516370a0823160e01b81526001600160a01b03838116600483015260009283928392909116906370a0823190602401602060405180830381865afa1580156109aa573d6000803e3d6000fd5b505050506040513d601f19601f820116820180604052508101906109ce9190611d55565b60025460048054604051627eeac760e11b81526001600160a01b03898116938201939093526024810191909152929550169062fdd58e90604401602060405180830381865afa158015610a25573d6000803e3d6000fd5b505050506040513d601f19601f82011682018060405250810190610a499190611d55565b60035460048054604051627eeac760e11b81526001600160a01b03898116938201939093526024810191909152929450169062fdd58e90604401602060405180830381865afa158015610aa0573d6000803e3d6000fd5b505050506040513d601f19601f82011682018060405250810190610ac49190611d55565b929491935050565b610b186040518061010001604052806000815260200160608152602001600081526020016000815260200160008152602001600081526020016000151581526020016000151581525090565b60408051610100810190915260048054825260058054602084019190610b3d90611dc5565b80601f0160208091040260200160405190810160405280929190818152602001828054610b6990611dc5565b8015610bb65780601f10610b8b57610100808354040283529160200191610bb6565b820191906000526020600020905b815481529060010190602001808311610b9957829003601f168201915b50505091835250506002820154602082015260038201546040820152600482015460608201526005820154608082015260069091015460ff808216151560a084015261010090910416151560c090910152919050565b6000610c188383610840565b9050806001546040516370a0823160e01b81523360048201526001600160a01b03909116906370a0823190602401602060405180830381865afa158015610c63573d6000803e3d6000fd5b505050506040513d601f19601f82011682018060405250810190610c879190611d55565b1015610ca55760405162461bcd60e51b815260040161031c90611d6e565b80600154604051636eb1769f60e11b81523360048201523060248201526001600160a01b039091169063dd62ed3e90604401602060405180830381865afa158015610cf4573d6000803e3d6000fd5b505050506040513d601f19601f82011682018060405250810190610d189190611d55565b1015610d5f5760405162461bcd60e51b8152602060048201526016602482015275496e73756666696369656e7420616c6c6f77616e636560501b604482015260640161031c565b6001546001600160a01b03166323b872dd3330846040516001600160e01b031960e086901b1681526001600160a01b03938416600482015292909116602483015260448201526064016020604051808303816000875af1158015610dc7573d6000803e3d6000fd5b505050506040513d601f19601f82011682018060405250810190610deb9190611dff565b610e285760405162461bcd60e51b815260206004820152600e60248201526d14185e5b595b9d0819985a5b195960921b604482015260640161031c565b8215610ed3576002546004546001600160a01b039091169063731133e9903390856040516001600160e01b031960e086901b1681526001600160a01b03909316600484015260248301919091526044820152608060648201526000608482015260a401600060405180830381600087803b158015610ea557600080fd5b505af1158015610eb9573d6000803e3d6000fd5b5050600d54610ecb9250905083610fff565b600d55610f74565b6003546004546001600160a01b039091169063731133e9903390856040516001600160e01b031960e086901b1681526001600160a01b03909316600484015260248301919091526044820152608060648201526000608482015260a401600060405180830381600087803b158015610f4a57600080fd5b505af1158015610f5e573d6000803e3d6000fd5b5050600e54610f709250905083610fff565b600e555b337f8fafebcaf9d154343dad25669bfa277f4fbacd7ac6b0c4fed522580e040a0f3384610fa2576002610fa5565b60015b60408051918252602082018690528051918290030190a2505050565b610fc9611018565b6001600160a01b038116610ff357604051631e4fbdf760e01b81526000600482015260240161031c565b610ffc81611045565b50565b600061101161100e8385611db2565b90565b9392505050565b6000546001600160a01b031633146106dd5760405163118cdaa760e01b815233600482015260240161031c565b600080546001600160a01b038381166001600160a01b0319831681178455604051919092169283917f8be0079c531659141344cd1fd0a4f28419497f9722a3daafe3b4186f6b6457e09190a35050565b600061101161100e84670de0b6b3a764000085611157565b600081680736ea4425c11ac6308111156110dd57604051630d7b1d6560e11b81526004810184905260240161031c565b6714057b7ef767814f81026108386110fd670de0b6b3a7640000835b0490565b61122a565b60006111336714057b7ef767814f670de0b6b3a764000061112561100e86611280565b02816110f9576110f9611e1c565b92915050565b600061101161100e84846113b3565b600061101161100e8385611e32565b60008080600019858709858702925082811083820303915050806000036111915783828161118757611187611e1c565b0492505050611011565b8381106111c257604051630c740aef60e31b815260048101879052602481018690526044810185905260640161031c565b600084868809600260036001881981018916988990049182028318808302840302808302840302808302840302808302840302808302840302918202909203026000889003889004909101858311909403939093029303949094049190911702949350505050565b600081680a688906bd8affffff81111561125a5760405163b3b6ba1f60e01b81526004810184905260240161031c565b6000611272670de0b6b3a7640000604084901b611e45565b905061083861100e82611469565b600081670de0b6b3a76400008110156112af5760405163036d32ef60e41b81526004810184905260240161031c565b600061133b670de0b6b3a7640000830460016fffffffffffffffffffffffffffffffff821160071b91821c67ffffffffffffffff811160061b90811c63ffffffff811160051b90811c61ffff811160041b90811c60ff8111600390811b91821c600f811160021b90811c918211871b91821c969096119490961792909217171791909117919091171790565b9050670de0b6b3a7640000810282821c670de0b6b3a763ffff1981016113645750949350505050565b671bc16d674ec800006706f05b59d3b200005b80156113a757670de0b6b3a764000083800204925081831061139f579283019260019290921c915b60011c611377565b50919695505050505050565b60008080600019848609848602925082811083820303915050806000036113e75750670de0b6b3a764000090049050611133565b670de0b6b3a7640000811061141957604051635173648d60e01b8152600481018690526024810185905260440161031c565b6000670de0b6b3a764000085870962040000818503049310909103600160ee1b02919091177faccb18165bd6fe31ae1cf318dc5b51eee0e1ba569b88cd74c1773b91fac106690291505092915050565b600160bf1b67ff000000000000008216156115765767800000000000000082161561149d5768016a09e667f3bcc9090260401c5b6740000000000000008216156114bc576801306fe0a31b7152df0260401c5b6720000000000000008216156114db576801172b83c7d517adce0260401c5b6710000000000000008216156114fa5768010b5586cf9890f62a0260401c5b670800000000000000821615611519576801059b0d31585743ae0260401c5b67040000000000000082161561153857680102c9a3e778060ee70260401c5b6702000000000000008216156115575768010163da9fb33356d80260401c5b67010000000000000082161561157657680100b1afa5abcbed610260401c5b66ff0000000000008216156116755766800000000000008216156115a35768010058c86da1c09ea20260401c5b66400000000000008216156115c1576801002c605e2e8cec500260401c5b66200000000000008216156115df57680100162f3904051fa10260401c5b66100000000000008216156115fd576801000b175effdc76ba0260401c5b660800000000000082161561161b57680100058ba01fb9f96d0260401c5b66040000000000008216156116395768010002c5cc37da94920260401c5b6602000000000000821615611657576801000162e525ee05470260401c5b66010000000000008216156116755768010000b17255775c040260401c5b65ff000000000082161561176b57658000000000008216156116a0576801000058b91b5bc9ae0260401c5b654000000000008216156116bd57680100002c5c89d5ec6d0260401c5b652000000000008216156116da5768010000162e43f4f8310260401c5b651000000000008216156116f757680100000b1721bcfc9a0260401c5b650800000000008216156117145768010000058b90cf1e6e0260401c5b65040000000000821615611731576801000002c5c863b73f0260401c5b6502000000000082161561174e57680100000162e430e5a20260401c5b6501000000000082161561176b576801000000b1721835510260401c5b64ff000000008216156118585764800000000082161561179457680100000058b90c0b490260401c5b6440000000008216156117b05768010000002c5c8601cc0260401c5b6420000000008216156117cc576801000000162e42fff00260401c5b6410000000008216156117e85768010000000b17217fbb0260401c5b640800000000821615611804576801000000058b90bfce0260401c5b64040000000082161561182057680100000002c5c85fe30260401c5b64020000000082161561183c5768010000000162e42ff10260401c5b64010000000082161561185857680100000000b17217f80260401c5b63ff00000082161561193c57638000000082161561187f5768010000000058b90bfc0260401c5b634000000082161561189a576801000000002c5c85fe0260401c5b63200000008216156118b557680100000000162e42ff0260401c5b63100000008216156118d0576801000000000b17217f0260401c5b63080000008216156118eb57680100000000058b90c00260401c5b63040000008216156119065768010000000002c5c8600260401c5b6302000000821615611921576801000000000162e4300260401c5b630100000082161561193c5768010000000000b172180260401c5b62ff0000821615611a175762800000821615611961576801000000000058b90c0260401c5b6240000082161561197b57680100000000002c5c860260401c5b622000008216156119955768010000000000162e430260401c5b621000008216156119af57680100000000000b17210260401c5b620800008216156119c95768010000000000058b910260401c5b620400008216156119e3576801000000000002c5c80260401c5b620200008216156119fd57680100000000000162e40260401c5b62010000821615611a17576801000000000000b1720260401c5b61ff00821615611ae957618000821615611a3a57680100000000000058b90260401c5b614000821615611a535768010000000000002c5d0260401c5b612000821615611a6c576801000000000000162e0260401c5b611000821615611a855768010000000000000b170260401c5b610800821615611a9e576801000000000000058c0260401c5b610400821615611ab757680100000000000002c60260401c5b610200821615611ad057680100000000000001630260401c5b610100821615611ae957680100000000000000b10260401c5b60ff821615611bb2576080821615611b0a57680100000000000000590260401c5b6040821615611b22576801000000000000002c0260401c5b6020821615611b3a57680100000000000000160260401c5b6010821615611b52576801000000000000000b0260401c5b6008821615611b6a57680100000000000000060260401c5b6004821615611b8257680100000000000000030260401c5b6002821615611b9a57680100000000000000010260401c5b6001821615611bb257680100000000000000010260401c5b670de0b6b3a76400000260409190911c60bf031c90565b8015158114610ffc57600080fd5b60008060408385031215611bea57600080fd5b8235611bf581611bc9565b946020939093013593505050565b6000815180845260005b81811015611c2957602081850181015186830182015201611c0d565b506000602082860101526020601f19601f83011685010191505092915050565b60006101008a8352806020840152611c638184018b611c03565b604084019990995250506060810195909552608085019390935260a0840191909152151560c0830152151560e09091015292915050565b600060208284031215611cac57600080fd5b813561101181611bc9565b600060208284031215611cc957600080fd5b81356001600160a01b038116811461101157600080fd5b602081528151602082015260006020830151610100806040850152611d09610120850183611c03565b91506040850151606085015260608501516080850152608085015160a085015260a085015160c085015260c0850151151560e085015260e0850151151581850152508091505092915050565b600060208284031215611d6757600080fd5b5051919050565b602080825260149082015273496e73756666696369656e742062616c616e636560601b604082015260600190565b634e487b7160e01b600052601160045260246000fd5b8082018082111561113357611133611d9c565b600181811c90821680611dd957607f821691505b602082108103611df957634e487b7160e01b600052602260045260246000fd5b50919050565b600060208284031215611e1157600080fd5b815161101181611bc9565b634e487b7160e01b600052601260045260246000fd5b8181038181111561113357611133611d9c565b600082611e6257634e487b7160e01b600052601260045260246000fd5b50049056fea2646970667358221220b126533d36421bcca1241444fcb4b77143e1ed24cb19d6d6dcfb3302e260410564736f6c63430008180033a26469706673582212200195d23c1736aadf57fa70b4a17418dbff15a3fda67182f9ecda9d50d3cf6ece64736f6c63430008180033",
  "linkReferences": {},
  "deployedLinkReferences": {}
}