{
  "_format": "hh-sol-artifact-1",
  "contractName": "YesToken",
  "sourceName": "contracts/YesToken.sol",
  "abi": [
    {
      "inputs": [
        {
          "internalType": "address",
          "name": "initialOwner",
          "type": "address"
        }
      ],
      "stateMutability": "nonpayable",
      "type": "constructor"
    },
    {
      "inputs": [
        {
          "internalType": "address",
          "name": "sender",
          "type": "address"
        },
        {
          "internalType": "uint256",
          "name": "balance",
          "type": "uint256"
        },
        {
          "internalType": "uint256",
          "name": "needed",
          "type": "uint256"
        },
        {
          "internalType": "uint256",
          "name": "tokenId",
          "type": "uint256"
        }
      ],
      "name": "ERC1155InsufficientBalance",
      "type": "error"
    },
    {
      "inputs": [
        {
          "internalType": "address",
          "name": "approver",
          "type": "address"
        }
      ],
      "name": "ERC1155InvalidApprover",
      "type": "error"
    },
    {
      "inputs": [
        {
          "internalType": "uint256",
          "name": "idsLength",
          "type": "uint256"
        },
        {
          "internalType": "uint256",
          "name": "valuesLength",
          "type": "uint256"
        }
      ],
      "name": "ERC1155InvalidArrayLength",
      "type": "error"
    },
    {
      "inputs": [
        {
          "internalType": "address",
          "name": "operator",
          "type": "address"
        }
      ],
      "name": "ERC1155InvalidOperator",
      "type": "error"
    },
    {
      "inputs": [
        {
          "internalType": "address",
          "name": "receiver",
          "type": "address"
        }
      ],
      "name": "ERC1155InvalidReceiver",
      "type": "error"
    },
    {
      "inputs": [
        {
          "internalType": "address",
          "name": "sender",
          "type": "address"
        }
      ],
      "name": "ERC1155InvalidSender",
      "type": "error"
    },
    {
      "inputs": [
        {
          "internalType": "address",
          "name": "operator",
          "type": "address"
        },
        {
          "internalType": "address",
          "name": "owner",
          "type": "address"
        }
      ],
      "name": "ERC1155MissingApprovalForAll",
      "type": "error"
    },
    {
      "inputs": [
        {
          "internalType": "address",
          "name": "owner",
          "type": "address"
        }
      ],
      "name": "OwnableInvalidOwner",
      "type": "error"
    },
    {
      "inputs": [
        {
          "internalType": "address",
          "name": "account",
          "type": "address"
        }
      ],
      "name": "OwnableUnauthorizedAccount",
      "type": "error"
    },
    {
      "anonymous": false,
      "inputs": [
        {
          "indexed": true,
          "internalType": "address",
          "name": "account",
          "type": "address"
        },
        {
          "indexed": true,
          "internalType": "address",
          "name": "operator",
          "type": "address"
        },
        {
          "indexed": false,
          "internalType": "bool",
          "name": "approved",
          "type": "bool"
        }
      ],
      "name": "ApprovalForAll",
      "type": "event"
    },
    {
      "anonymous": false,
      "inputs": [
        {
          "indexed": true,
          "internalType": "address",
          "name": "previousOwner",
          "type": "address"
        },
        {
          "indexed": true,
          "internalType": "address",
          "name": "newOwner",
          "type": "address"
        }
      ],
      "name": "OwnershipTransferred",
      "type": "event"
    },
    {
      "anonymous": false,
      "inputs": [
        {
          "indexed": true,
          "internalType": "address",
          "name": "operator",
          "type": "address"
        },
        {
          "indexed": true,
          "internalType": "address",
          "name": "from",
          "type": "address"
        },
        {
          "indexed": true,
          "internalType": "address",
          "name": "to",
          "type": "address"
        },
        {
          "indexed": false,
          "internalType": "uint256[]",
          "name": "ids",
          "type": "uint256[]"
        },
        {
          "indexed": false,
          "internalType": "uint256[]",
          "name": "values",
          "type": "uint256[]"
        }
      ],
      "name": "TransferBatch",
      "type": "event"
    },
    {
      "anonymous": false,
      "inputs": [
        {
          "indexed": true,
          "internalType": "address",
          "name": "operator",
          "type": "address"
        },
        {
          "indexed": true,
          "internalType": "address",
          "name": "from",
          "type": "address"
        },
        {
          "indexed": true,
          "internalType": "address",
          "name": "to",
          "type": "address"
        },
        {
          "indexed": false,
          "internalType": "uint256",
          "name": "id",
          "type": "uint256"
        },
        {
          "indexed": false,
          "internalType": "uint256",
          "name": "value",
          "type": "uint256"
        }
      ],
      "name": "TransferSingle",
      "type": "event"
    },
    {
      "anonymous": false,
      "inputs": [
        {
          "indexed": false,
          "internalType": "string",
          "name": "value",
          "type": "string"
        },
        {
          "indexed": true,
          "internalType": "uint256",
          "name": "id",
          "type": "uint256"
        }
      ],
      "name": "URI",
      "type": "event"
    },
    {
      "inputs": [
        {
          "internalType": "address",
          "name": "account",
          "type": "address"
        },
        {
          "internalType": "uint256",
          "name": "id",
          "type": "uint256"
        }
      ],
      "name": "balanceOf",
      "outputs": [
        {
          "internalType": "uint256",
          "name": "",
          "type": "uint256"
        }
      ],
      "stateMutability": "view",
      "type": "function"
    },
    {
      "inputs": [
        {
          "internalType": "address[]",
          "name": "accounts",
          "type": "address[]"
        },
        {
          "internalType": "uint256[]",
          "name": "ids",
          "type": "uint256[]"
        }
      ],
      "name": "balanceOfBatch",
      "outputs": [
        {
          "internalType": "uint256[]",
          "name": "",
          "type": "uint256[]"
        }
      ],
      "stateMutability": "view",
      "type": "function"
    },
    {
      "inputs": [
        {
          "internalType": "address",
          "name": "account",
          "type": "address"
        },
        {
          "internalType": "uint256",
          "name": "id",
          "type": "uint256"
        },
        {
          "internalType": "uint256",
          "name": "value",
          "type": "uint256"
        }
      ],
      "name": "burn",
      "outputs": [],
      "stateMutability": "nonpayable",
      "type": "function"
    },
    {
      "inputs": [
        {
          "internalType": "address",
          "name": "account",
          "type": "address"
        },
        {
          "internalType": "uint256[]",
          "name": "ids",
          "type": "uint256[]"
        },
        {
          "internalType": "uint256[]",
          "name": "values",
          "type": "uint256[]"
        }
      ],
      "name": "burnBatch",
      "outputs": [],
      "stateMutability": "nonpayable",
      "type": "function"
    },
    {
      "inputs": [
        {
          "internalType": "address",
          "name": "account",
          "type": "address"
        },
        {
          "internalType": "address",
          "name": "operator",
          "type": "address"
        }
      ],
      "name": "isApprovedForAll",
      "outputs": [
        {
          "internalType": "bool",
          "name": "",
          "type": "bool"
        }
      ],
      "stateMutability": "view",
      "type": "function"
    },
    {
      "inputs": [
        {
          "internalType": "address",
          "name": "account",
          "type": "address"
        },
        {
          "internalType": "uint256",
          "name": "id",
          "type": "uint256"
        },
        {
          "internalType": "uint256",
          "name": "amount",
          "type": "uint256"
        },
        {
          "internalType": "bytes",
          "name": "data",
          "type": "bytes"
        }
      ],
      "name": "mint",
      "outputs": [],
      "stateMutability": "nonpayable",
      "type": "function"
    },
    {
      "inputs": [
        {
          "internalType": "address",
          "name": "to",
          "type": "address"
        },
        {
          "internalType": "uint256[]",
          "name": "ids",
          "type": "uint256[]"
        },
        {
          "internalType": "uint256[]",
          "name": "amounts",
          "type": "uint256[]"
        },
        {
          "internalType": "bytes",
          "name": "data",
          "type": "bytes"
        }
      ],
      "name": "mintBatch",
      "outputs": [],
      "stateMutability": "nonpayable",
      "type": "function"
    },
    {
      "inputs": [],
      "name": "owner",
      "outputs": [
        {
          "internalType": "address",
          "name": "",
          "type": "address"
        }
      ],
      "stateMutability": "view",
      "type": "function"
    },
    {
      "inputs": [],
      "name": "renounceOwnership",
      "outputs": [],
      "stateMutability": "nonpayable",
      "type": "function"
    },
    {
      "inputs": [
        {
          "internalType": "address",
          "name": "from",
          "type": "address"
        },
        {
          "internalType": "address",
          "name": "to",
          "type": "address"
        },
        {
          "internalType": "uint256[]",
          "name": "ids",
          "type": "uint256[]"
        },
        {
          "internalType": "uint256[]",
          "name": "values",
          "type": "uint256[]"
        },
        {
          "internalType": "bytes",
          "name": "data",
          "type": "bytes"
        }
      ],
      "name": "safeBatchTransferFrom",
      "outputs": [],
      "stateMutability": "nonpayable",
      "type": "function"
    },
    {
      "inputs": [
        {
          "internalType": "address",
          "name": "from",
          "type": "address"
        },
        {
          "internalType": "address",
          "name": "to",
          "type": "address"
        },
        {
          "internalType": "uint256",
          "name": "id",
          "type": "uint256"
        },
        {
          "internalType": "uint256",
          "name": "value",
          "type": "uint256"
        },
        {
          "internalType": "bytes",
          "name": "data",
          "type": "bytes"
        }
      ],
      "name": "safeTransferFrom",
      "outputs": [],
      "stateMutability": "nonpayable",
      "type": "function"
    },
    {
      "inputs": [
        {
          "internalType": "address",
          "name": "operator",
          "type": "address"
        },
        {
          "internalType": "bool",
          "name": "approved",
          "type": "bool"
        }
      ],
      "name": "setApprovalForAll",
      "outputs": [],
      "stateMutability": "nonpayable",
      "type": "function"
    },
    {
      "inputs": [
        {
          "internalType": "string",
          "name": "newuri",
          "type": "string"
        }
      ],
      "name": "setURI",
      "outputs": [],
      "stateMutability": "nonpayable",
      "type": "function"
    },
    {
      "inputs": [
        {
          "internalType": "bytes4",
          "name": "interfaceId",
          "type": "bytes4"
        }
      ],
      "name": "supportsInterface",
      "outputs": [
        {
          "internalType": "bool",
          "name": "",
          "type": "bool"
        }
      ],
      "stateMutability": "view",
      "type": "function"
    },
    {
      "inputs": [
        {
          "internalType": "address",
          "name": "newOwner",
          "type": "address"
        }
      ],
      "name": "transferOwnership",
      "outputs": [],
      "stateMutability": "nonpayable",
      "type": "function"
    },
    {
      "inputs": [
        {
          "internalType": "uint256",
          "name": "",
          "type": "uint256"
        }
      ],
      "name": "uri",
      "outputs": [
        {
          "internalType": "string",
          "name": "",
          "type": "string"
        }
      ],
      "stateMutability": "view",
      "type": "function"
    }
  ],
  "bytecode": "0x60806040523480156200001157600080fd5b50604051620031fe380380620031fe83398181016040528101906200003791906200022d565b80604051806020016040528060008152506200005981620000e860201b60201c565b50600073ffffffffffffffffffffffffffffffffffffffff168173ffffffffffffffffffffffffffffffffffffffff1603620000cf5760006040517f1e4fbdf7000000000000000000000000000000000000000000000000000000008152600401620000c6919062000270565b60405180910390fd5b620000e081620000fd60201b60201c565b5050620005ee565b8060029081620000f9919062000507565b5050565b6000600360009054906101000a900473ffffffffffffffffffffffffffffffffffffffff16905081600360006101000a81548173ffffffffffffffffffffffffffffffffffffffff021916908373ffffffffffffffffffffffffffffffffffffffff1602179055508173ffffffffffffffffffffffffffffffffffffffff168173ffffffffffffffffffffffffffffffffffffffff167f8be0079c531659141344cd1fd0a4f28419497f9722a3daafe3b4186f6b6457e060405160405180910390a35050565b600080fd5b600073ffffffffffffffffffffffffffffffffffffffff82169050919050565b6000620001f582620001c8565b9050919050565b6200020781620001e8565b81146200021357600080fd5b50565b6000815190506200022781620001fc565b92915050565b600060208284031215620002465762000245620001c3565b5b6000620002568482850162000216565b91505092915050565b6200026a81620001e8565b82525050565b60006020820190506200028760008301846200025f565b92915050565b600081519050919050565b7f4e487b7100000000000000000000000000000000000000000000000000000000600052604160045260246000fd5b7f4e487b7100000000000000000000000000000000000000000000000000000000600052602260045260246000fd5b600060028204905060018216806200030f57607f821691505b602082108103620003255762000324620002c7565b5b50919050565b60008190508160005260206000209050919050565b60006020601f8301049050919050565b600082821b905092915050565b6000600883026200038f7fffffffffffffffffffffffffffffffffffffffffffffffffffffffffffffffff8262000350565b6200039b868362000350565b95508019841693508086168417925050509392505050565b6000819050919050565b6000819050919050565b6000620003e8620003e2620003dc84620003b3565b620003bd565b620003b3565b9050919050565b6000819050919050565b6200040483620003c7565b6200041c6200041382620003ef565b8484546200035d565b825550505050565b600090565b6200043362000424565b62000440818484620003f9565b505050565b5b8181101562000468576200045c60008262000429565b60018101905062000446565b5050565b601f821115620004b75762000481816200032b565b6200048c8462000340565b810160208510156200049c578190505b620004b4620004ab8562000340565b83018262000445565b50505b505050565b600082821c905092915050565b6000620004dc60001984600802620004bc565b1980831691505092915050565b6000620004f78383620004c9565b9150826002028217905092915050565b62000512826200028d565b67ffffffffffffffff8111156200052e576200052d62000298565b5b6200053a8254620002f6565b620005478282856200046c565b600060209050601f8311600181146200057f57600084156200056a578287015190505b620005768582620004e9565b865550620005e6565b601f1984166200058f866200032b565b60005b82811015620005b95784890151825560018201915060208501945060208101905062000592565b86831015620005d95784890151620005d5601f891682620004c9565b8355505b6001600288020188555050505b505050505050565b612c0080620005fe6000396000f3fe608060405234801561001057600080fd5b50600436106100ff5760003560e01c8063715018a611610097578063e985e9c511610066578063e985e9c514610294578063f242432a146102c4578063f2fde38b146102e0578063f5298aca146102fc576100ff565b8063715018a614610234578063731133e91461023e5780638da5cb5b1461025a578063a22cb46514610278576100ff565b80631f7fdffa116100d35780631f7fdffa146101b05780632eb2c2d6146101cc5780634e1273f4146101e85780636b20c45414610218576100ff565b8062fdd58e1461010457806301ffc9a71461013457806302fe5305146101645780630e89341c14610180575b600080fd5b61011e60048036038101906101199190611aa8565b610318565b60405161012b9190611af7565b60405180910390f35b61014e60048036038101906101499190611b6a565b610372565b60405161015b9190611bb2565b60405180910390f35b61017e60048036038101906101799190611d13565b610454565b005b61019a60048036038101906101959190611d5c565b610468565b6040516101a79190611e08565b60405180910390f35b6101ca60048036038101906101c59190611f93565b6104fc565b005b6101e660048036038101906101e1919061204e565b610516565b005b61020260048036038101906101fd91906121e0565b6105be565b60405161020f9190612316565b60405180910390f35b610232600480360381019061022d9190612338565b6106c7565b005b61023c610773565b005b610258600480360381019061025391906123c3565b610787565b005b610262610799565b60405161026f9190612455565b60405180910390f35b610292600480360381019061028d919061249c565b6107c3565b005b6102ae60048036038101906102a991906124dc565b6107d9565b6040516102bb9190611bb2565b60405180910390f35b6102de60048036038101906102d9919061251c565b61086d565b005b6102fa60048036038101906102f591906125b3565b610915565b005b610316600480360381019061031191906125e0565b61099b565b005b600080600083815260200190815260200160002060008473ffffffffffffffffffffffffffffffffffffffff1673ffffffffffffffffffffffffffffffffffffffff16815260200190815260200160002054905092915050565b60007fd9b67a26000000000000000000000000000000000000000000000000000000007bffffffffffffffffffffffffffffffffffffffffffffffffffffffff1916827bffffffffffffffffffffffffffffffffffffffffffffffffffffffff1916148061043d57507f0e89341c000000000000000000000000000000000000000000000000000000007bffffffffffffffffffffffffffffffffffffffffffffffffffffffff1916827bffffffffffffffffffffffffffffffffffffffffffffffffffffffff1916145b8061044d575061044c82610a47565b5b9050919050565b61045c610ab1565b61046581610b38565b50565b60606002805461047790612662565b80601f01602080910402602001604051908101604052809291908181526020018280546104a390612662565b80156104f05780601f106104c5576101008083540402835291602001916104f0565b820191906000526020600020905b8154815290600101906020018083116104d357829003601f168201915b50505050509050919050565b610504610ab1565b61051084848484610b4b565b50505050565b6000610520610bd1565b90508073ffffffffffffffffffffffffffffffffffffffff168673ffffffffffffffffffffffffffffffffffffffff1614158015610565575061056386826107d9565b155b156105a95780866040517fe237d9220000000000000000000000000000000000000000000000000000000081526004016105a0929190612693565b60405180910390fd5b6105b68686868686610bd9565b505050505050565b6060815183511461060a57815183516040517f5b0599910000000000000000000000000000000000000000000000000000000081526004016106019291906126bc565b60405180910390fd5b6000835167ffffffffffffffff81111561062757610626611be8565b5b6040519080825280602002602001820160405280156106555781602001602082028036833780820191505090505b50905060005b84518110156106bc5761069261067a8287610cd190919063ffffffff16565b61068d8387610ce590919063ffffffff16565b610318565b8282815181106106a5576106a46126e5565b5b60200260200101818152505080600101905061065b565b508091505092915050565b6106cf610bd1565b73ffffffffffffffffffffffffffffffffffffffff168373ffffffffffffffffffffffffffffffffffffffff1614158015610718575061071683610711610bd1565b6107d9565b155b1561076357610725610bd1565b836040517fe237d92200000000000000000000000000000000000000000000000000000000815260040161075a929190612693565b60405180910390fd5b61076e838383610cf9565b505050565b61077b610ab1565b6107856000610d8d565b565b61079384848484610e53565b50505050565b6000600360009054906101000a900473ffffffffffffffffffffffffffffffffffffffff16905090565b6107d56107ce610bd1565b8383610eec565b5050565b6000600160008473ffffffffffffffffffffffffffffffffffffffff1673ffffffffffffffffffffffffffffffffffffffff16815260200190815260200160002060008373ffffffffffffffffffffffffffffffffffffffff1673ffffffffffffffffffffffffffffffffffffffff16815260200190815260200160002060009054906101000a900460ff16905092915050565b6000610877610bd1565b90508073ffffffffffffffffffffffffffffffffffffffff168673ffffffffffffffffffffffffffffffffffffffff16141580156108bc57506108ba86826107d9565b155b156109005780866040517fe237d9220000000000000000000000000000000000000000000000000000000081526004016108f7929190612693565b60405180910390fd5b61090d868686868661105c565b505050505050565b61091d610ab1565b600073ffffffffffffffffffffffffffffffffffffffff168173ffffffffffffffffffffffffffffffffffffffff160361098f5760006040517f1e4fbdf70000000000000000000000000000000000000000000000000000000081526004016109869190612455565b60405180910390fd5b61099881610d8d565b50565b6109a3610bd1565b73ffffffffffffffffffffffffffffffffffffffff168373ffffffffffffffffffffffffffffffffffffffff16141580156109ec57506109ea836109e5610bd1565b6107d9565b155b15610a37576109f9610bd1565b836040517fe237d922000000000000000000000000000000000000000000000000000000008152600401610a2e929190612693565b60405180910390fd5b610a42838383611167565b505050565b60007f01ffc9a7000000000000000000000000000000000000000000000000000000007bffffffffffffffffffffffffffffffffffffffffffffffffffffffff1916827bffffffffffffffffffffffffffffffffffffffffffffffffffffffff1916149050919050565b610ab9610bd1565b73ffffffffffffffffffffffffffffffffffffffff16610ad7610799565b73ffffffffffffffffffffffffffffffffffffffff1614610b3657610afa610bd1565b6040517f118cdaa7000000000000000000000000000000000000000000000000000000008152600401610b2d9190612455565b60405180910390fd5b565b8060029081610b4791906128c0565b5050565b600073ffffffffffffffffffffffffffffffffffffffff168473ffffffffffffffffffffffffffffffffffffffff1603610bbd5760006040517f57f447ce000000000000000000000000000000000000000000000000000000008152600401610bb49190612455565b60405180910390fd5b610bcb60008585858561120e565b50505050565b600033905090565b600073ffffffffffffffffffffffffffffffffffffffff168473ffffffffffffffffffffffffffffffffffffffff1603610c4b5760006040517f57f447ce000000000000000000000000000000000000000000000000000000008152600401610c429190612455565b60405180910390fd5b600073ffffffffffffffffffffffffffffffffffffffff168573ffffffffffffffffffffffffffffffffffffffff1603610cbd5760006040517f01a83514000000000000000000000000000000000000000000000000000000008152600401610cb49190612455565b60405180910390fd5b610cca858585858561120e565b5050505050565b600060208202602084010151905092915050565b600060208202602084010151905092915050565b600073ffffffffffffffffffffffffffffffffffffffff168373ffffffffffffffffffffffffffffffffffffffff1603610d6b5760006040517f01a83514000000000000000000000000000000000000000000000000000000008152600401610d629190612455565b60405180910390fd5b610d8883600084846040518060200160405280600081525061120e565b505050565b6000600360009054906101000a900473ffffffffffffffffffffffffffffffffffffffff16905081600360006101000a81548173ffffffffffffffffffffffffffffffffffffffff021916908373ffffffffffffffffffffffffffffffffffffffff1602179055508173ffffffffffffffffffffffffffffffffffffffff168173ffffffffffffffffffffffffffffffffffffffff167f8be0079c531659141344cd1fd0a4f28419497f9722a3daafe3b4186f6b6457e060405160405180910390a35050565b600073ffffffffffffffffffffffffffffffffffffffff168473ffffffffffffffffffffffffffffffffffffffff1603610ec55760006040517f57f447ce000000000000000000000000000000000000000000000000000000008152600401610ebc9190612455565b60405180910390fd5b600080610ed285856112c0565b91509150610ee460008784848761120e565b505050505050565b600073ffffffffffffffffffffffffffffffffffffffff168273ffffffffffffffffffffffffffffffffffffffff1603610f5e5760006040517fced3e100000000000000000000000000000000000000000000000000000000008152600401610f559190612455565b60405180910390fd5b80600160008573ffffffffffffffffffffffffffffffffffffffff1673ffffffffffffffffffffffffffffffffffffffff16815260200190815260200160002060008473ffffffffffffffffffffffffffffffffffffffff1673ffffffffffffffffffffffffffffffffffffffff16815260200190815260200160002060006101000a81548160ff0219169083151502179055508173ffffffffffffffffffffffffffffffffffffffff168373ffffffffffffffffffffffffffffffffffffffff167f17307eab39ab6107e8899845ad3d59bd9653f200f220920489ca2b5937696c318360405161104f9190611bb2565b60405180910390a3505050565b600073ffffffffffffffffffffffffffffffffffffffff168473ffffffffffffffffffffffffffffffffffffffff16036110ce5760006040517f57f447ce0000000000000000000000000000000000000000000000000000000081526004016110c59190612455565b60405180910390fd5b600073ffffffffffffffffffffffffffffffffffffffff168573ffffffffffffffffffffffffffffffffffffffff16036111405760006040517f01a835140000000000000000000000000000000000000000000000000000000081526004016111379190612455565b60405180910390fd5b60008061114d85856112c0565b9150915061115e878784848761120e565b50505050505050565b600073ffffffffffffffffffffffffffffffffffffffff168373ffffffffffffffffffffffffffffffffffffffff16036111d95760006040517f01a835140000000000000000000000000000000000000000000000000000000081526004016111d09190612455565b60405180910390fd5b6000806111e684846112c0565b9150915061120785600084846040518060200160405280600081525061120e565b5050505050565b61121a858585856112f0565b600073ffffffffffffffffffffffffffffffffffffffff168473ffffffffffffffffffffffffffffffffffffffff16146112b9576000611258610bd1565b905060018451036112a8576000611279600086610ce590919063ffffffff16565b90506000611291600086610ce590919063ffffffff16565b90506112a1838989858589611698565b50506112b7565b6112b681878787878761184c565b5b505b5050505050565b60608060405191506001825283602083015260408201905060018152826020820152604081016040529250929050565b805182511461133a57815181516040517f5b0599910000000000000000000000000000000000000000000000000000000081526004016113319291906126bc565b60405180910390fd5b6000611344610bd1565b905060005b83518110156115535760006113678286610ce590919063ffffffff16565b9050600061137e8386610ce590919063ffffffff16565b9050600073ffffffffffffffffffffffffffffffffffffffff168873ffffffffffffffffffffffffffffffffffffffff16146114ab57600080600084815260200190815260200160002060008a73ffffffffffffffffffffffffffffffffffffffff1673ffffffffffffffffffffffffffffffffffffffff1681526020019081526020016000205490508181101561145357888183856040517f03dee4c500000000000000000000000000000000000000000000000000000000815260040161144a9493929190612992565b60405180910390fd5b81810360008085815260200190815260200160002060008b73ffffffffffffffffffffffffffffffffffffffff1673ffffffffffffffffffffffffffffffffffffffff16815260200190815260200160002081905550505b600073ffffffffffffffffffffffffffffffffffffffff168773ffffffffffffffffffffffffffffffffffffffff1614611546578060008084815260200190815260200160002060008973ffffffffffffffffffffffffffffffffffffffff1673ffffffffffffffffffffffffffffffffffffffff168152602001908152602001600020600082825461153e9190612a06565b925050819055505b5050806001019050611349565b506001835103611612576000611573600085610ce590919063ffffffff16565b9050600061158b600085610ce590919063ffffffff16565b90508573ffffffffffffffffffffffffffffffffffffffff168773ffffffffffffffffffffffffffffffffffffffff168473ffffffffffffffffffffffffffffffffffffffff167fc3d58168c5ae7397731d063d5bbf3d657854427343f4c083240f7aacaa2d0f6285856040516116039291906126bc565b60405180910390a45050611691565b8373ffffffffffffffffffffffffffffffffffffffff168573ffffffffffffffffffffffffffffffffffffffff168273ffffffffffffffffffffffffffffffffffffffff167f4a39dc06d4c0dbc64b70af90fd698a233a518aa5d07e595d983b8c0526c8f7fb8686604051611688929190612a3a565b60405180910390a45b5050505050565b60008473ffffffffffffffffffffffffffffffffffffffff163b1115611844578373ffffffffffffffffffffffffffffffffffffffff1663f23a6e6187878686866040518663ffffffff1660e01b81526004016116f9959493929190612ac6565b6020604051808303816000875af192505050801561173557506040513d601f19601f820116820180604052508101906117329190612b35565b60015b6117b9573d8060008114611765576040519150601f19603f3d011682016040523d82523d6000602084013e61176a565b606091505b5060008151036117b157846040517f57f447ce0000000000000000000000000000000000000000000000000000000081526004016117a89190612455565b60405180910390fd5b805181602001fd5b63f23a6e6160e01b7bffffffffffffffffffffffffffffffffffffffffffffffffffffffff1916817bffffffffffffffffffffffffffffffffffffffffffffffffffffffff19161461184257846040517f57f447ce0000000000000000000000000000000000000000000000000000000081526004016118399190612455565b60405180910390fd5b505b505050505050565b60008473ffffffffffffffffffffffffffffffffffffffff163b11156119f8578373ffffffffffffffffffffffffffffffffffffffff1663bc197c8187878686866040518663ffffffff1660e01b81526004016118ad959493929190612b62565b6020604051808303816000875af19250505080156118e957506040513d601f19601f820116820180604052508101906118e69190612b35565b60015b61196d573d8060008114611919576040519150601f19603f3d011682016040523d82523d6000602084013e61191e565b606091505b50600081510361196557846040517f57f447ce00000000000000000000000000000000000000000000000000000000815260040161195c9190612455565b60405180910390fd5b805181602001fd5b63bc197c8160e01b7bffffffffffffffffffffffffffffffffffffffffffffffffffffffff1916817bffffffffffffffffffffffffffffffffffffffffffffffffffffffff1916146119f657846040517f57f447ce0000000000000000000000000000000000000000000000000000000081526004016119ed9190612455565b60405180910390fd5b505b505050505050565b6000604051905090565b600080fd5b600080fd5b600073ffffffffffffffffffffffffffffffffffffffff82169050919050565b6000611a3f82611a14565b9050919050565b611a4f81611a34565b8114611a5a57600080fd5b50565b600081359050611a6c81611a46565b92915050565b6000819050919050565b611a8581611a72565b8114611a9057600080fd5b50565b600081359050611aa281611a7c565b92915050565b60008060408385031215611abf57611abe611a0a565b5b6000611acd85828601611a5d565b9250506020611ade85828601611a93565b9150509250929050565b611af181611a72565b82525050565b6000602082019050611b0c6000830184611ae8565b92915050565b60007fffffffff0000000000000000000000000000000000000000000000000000000082169050919050565b611b4781611b12565b8114611b5257600080fd5b50565b600081359050611b6481611b3e565b92915050565b600060208284031215611b8057611b7f611a0a565b5b6000611b8e84828501611b55565b91505092915050565b60008115159050919050565b611bac81611b97565b82525050565b6000602082019050611bc76000830184611ba3565b92915050565b600080fd5b600080fd5b6000601f19601f8301169050919050565b7f4e487b7100000000000000000000000000000000000000000000000000000000600052604160045260246000fd5b611c2082611bd7565b810181811067ffffffffffffffff82111715611c3f57611c3e611be8565b5b80604052505050565b6000611c52611a00565b9050611c5e8282611c17565b919050565b600067ffffffffffffffff821115611c7e57611c7d611be8565b5b611c8782611bd7565b9050602081019050919050565b82818337600083830152505050565b6000611cb6611cb184611c63565b611c48565b905082815260208101848484011115611cd257611cd1611bd2565b5b611cdd848285611c94565b509392505050565b600082601f830112611cfa57611cf9611bcd565b5b8135611d0a848260208601611ca3565b91505092915050565b600060208284031215611d2957611d28611a0a565b5b600082013567ffffffffffffffff811115611d4757611d46611a0f565b5b611d5384828501611ce5565b91505092915050565b600060208284031215611d7257611d71611a0a565b5b6000611d8084828501611a93565b91505092915050565b600081519050919050565b600082825260208201905092915050565b60005b83811015611dc3578082015181840152602081019050611da8565b60008484015250505050565b6000611dda82611d89565b611de48185611d94565b9350611df4818560208601611da5565b611dfd81611bd7565b840191505092915050565b60006020820190508181036000830152611e228184611dcf565b905092915050565b600067ffffffffffffffff821115611e4557611e44611be8565b5b602082029050602081019050919050565b600080fd5b6000611e6e611e6984611e2a565b611c48565b90508083825260208201905060208402830185811115611e9157611e90611e56565b5b835b81811015611eba5780611ea68882611a93565b845260208401935050602081019050611e93565b5050509392505050565b600082601f830112611ed957611ed8611bcd565b5b8135611ee9848260208601611e5b565b91505092915050565b600067ffffffffffffffff821115611f0d57611f0c611be8565b5b611f1682611bd7565b9050602081019050919050565b6000611f36611f3184611ef2565b611c48565b905082815260208101848484011115611f5257611f51611bd2565b5b611f5d848285611c94565b509392505050565b600082601f830112611f7a57611f79611bcd565b5b8135611f8a848260208601611f23565b91505092915050565b60008060008060808587031215611fad57611fac611a0a565b5b6000611fbb87828801611a5d565b945050602085013567ffffffffffffffff811115611fdc57611fdb611a0f565b5b611fe887828801611ec4565b935050604085013567ffffffffffffffff81111561200957612008611a0f565b5b61201587828801611ec4565b925050606085013567ffffffffffffffff81111561203657612035611a0f565b5b61204287828801611f65565b91505092959194509250565b600080600080600060a0868803121561206a57612069611a0a565b5b600061207888828901611a5d565b955050602061208988828901611a5d565b945050604086013567ffffffffffffffff8111156120aa576120a9611a0f565b5b6120b688828901611ec4565b935050606086013567ffffffffffffffff8111156120d7576120d6611a0f565b5b6120e388828901611ec4565b925050608086013567ffffffffffffffff81111561210457612103611a0f565b5b61211088828901611f65565b9150509295509295909350565b600067ffffffffffffffff82111561213857612137611be8565b5b602082029050602081019050919050565b600061215c6121578461211d565b611c48565b9050808382526020820190506020840283018581111561217f5761217e611e56565b5b835b818110156121a857806121948882611a5d565b845260208401935050602081019050612181565b5050509392505050565b600082601f8301126121c7576121c6611bcd565b5b81356121d7848260208601612149565b91505092915050565b600080604083850312156121f7576121f6611a0a565b5b600083013567ffffffffffffffff81111561221557612214611a0f565b5b612221858286016121b2565b925050602083013567ffffffffffffffff81111561224257612241611a0f565b5b61224e85828601611ec4565b9150509250929050565b600081519050919050565b600082825260208201905092915050565b6000819050602082019050919050565b61228d81611a72565b82525050565b600061229f8383612284565b60208301905092915050565b6000602082019050919050565b60006122c382612258565b6122cd8185612263565b93506122d883612274565b8060005b838110156123095781516122f08882612293565b97506122fb836122ab565b9250506001810190506122dc565b5085935050505092915050565b6000602082019050818103600083015261233081846122b8565b905092915050565b60008060006060848603121561235157612350611a0a565b5b600061235f86828701611a5d565b935050602084013567ffffffffffffffff8111156123805761237f611a0f565b5b61238c86828701611ec4565b925050604084013567ffffffffffffffff8111156123ad576123ac611a0f565b5b6123b986828701611ec4565b9150509250925092565b600080600080608085870312156123dd576123dc611a0a565b5b60006123eb87828801611a5d565b94505060206123fc87828801611a93565b935050604061240d87828801611a93565b925050606085013567ffffffffffffffff81111561242e5761242d611a0f565b5b61243a87828801611f65565b91505092959194509250565b61244f81611a34565b82525050565b600060208201905061246a6000830184612446565b92915050565b61247981611b97565b811461248457600080fd5b50565b60008135905061249681612470565b92915050565b600080604083850312156124b3576124b2611a0a565b5b60006124c185828601611a5d565b92505060206124d285828601612487565b9150509250929050565b600080604083850312156124f3576124f2611a0a565b5b600061250185828601611a5d565b925050602061251285828601611a5d565b9150509250929050565b600080600080600060a0868803121561253857612537611a0a565b5b600061254688828901611a5d565b955050602061255788828901611a5d565b945050604061256888828901611a93565b935050606061257988828901611a93565b925050608086013567ffffffffffffffff81111561259a57612599611a0f565b5b6125a688828901611f65565b9150509295509295909350565b6000602082840312156125c9576125c8611a0a565b5b60006125d784828501611a5d565b91505092915050565b6000806000606084860312156125f9576125f8611a0a565b5b600061260786828701611a5d565b935050602061261886828701611a93565b925050604061262986828701611a93565b9150509250925092565b7f4e487b7100000000000000000000000000000000000000000000000000000000600052602260045260246000fd5b6000600282049050600182168061267a57607f821691505b60208210810361268d5761268c612633565b5b50919050565b60006040820190506126a86000830185612446565b6126b56020830184612446565b9392505050565b60006040820190506126d16000830185611ae8565b6126de6020830184611ae8565b9392505050565b7f4e487b7100000000000000000000000000000000000000000000000000000000600052603260045260246000fd5b60008190508160005260206000209050919050565b60006020601f8301049050919050565b600082821b905092915050565b6000600883026127767fffffffffffffffffffffffffffffffffffffffffffffffffffffffffffffffff82612739565b6127808683612739565b95508019841693508086168417925050509392505050565b6000819050919050565b60006127bd6127b86127b384611a72565b612798565b611a72565b9050919050565b6000819050919050565b6127d7836127a2565b6127eb6127e3826127c4565b848454612746565b825550505050565b600090565b6128006127f3565b61280b8184846127ce565b505050565b5b8181101561282f576128246000826127f8565b600181019050612811565b5050565b601f8211156128745761284581612714565b61284e84612729565b8101602085101561285d578190505b61287161286985612729565b830182612810565b50505b505050565b600082821c905092915050565b600061289760001984600802612879565b1980831691505092915050565b60006128b08383612886565b9150826002028217905092915050565b6128c982611d89565b67ffffffffffffffff8111156128e2576128e1611be8565b5b6128ec8254612662565b6128f7828285612833565b600060209050601f83116001811461292a5760008415612918578287015190505b61292285826128a4565b86555061298a565b601f19841661293886612714565b60005b828110156129605784890151825560018201915060208501945060208101905061293b565b8683101561297d5784890151612979601f891682612886565b8355505b6001600288020188555050505b505050505050565b60006080820190506129a76000830187612446565b6129b46020830186611ae8565b6129c16040830185611ae8565b6129ce6060830184611ae8565b95945050505050565b7f4e487b7100000000000000000000000000000000000000000000000000000000600052601160045260246000fd5b6000612a1182611a72565b9150612a1c83611a72565b9250828201905080821115612a3457612a336129d7565b5b92915050565b60006040820190508181036000830152612a5481856122b8565b90508181036020830152612a6881846122b8565b90509392505050565b600081519050919050565b600082825260208201905092915050565b6000612a9882612a71565b612aa28185612a7c565b9350612ab2818560208601611da5565b612abb81611bd7565b840191505092915050565b600060a082019050612adb6000830188612446565b612ae86020830187612446565b612af56040830186611ae8565b612b026060830185611ae8565b8181036080830152612b148184612a8d565b90509695505050505050565b600081519050612b2f81611b3e565b92915050565b600060208284031215612b4b57612b4a611a0a565b5b6000612b5984828501612b20565b91505092915050565b600060a082019050612b776000830188612446565b612b846020830187612446565b8181036040830152612b9681866122b8565b90508181036060830152612baa81856122b8565b90508181036080830152612bbe8184612a8d565b9050969550505050505056fea26469706673582212204fd352f294165d604058d0220defab08bf6565830e87c6b8ede854b48a15bad864736f6c63430008180033",
  "linkReferences": {},
  "deployedLinkReferences": {}
}