{
  "_format": "hh-sol-artifact-1",
  "contractName": "YesToken",
  "sourceName": "contracts/YesToken.sol",
  "abi": [
    {
      "inputs": [
        {
          "internalType": "address",
          "name": "initialOwner",
          "type": "address"
        }
      ],
      "stateMutability": "nonpayable",
      "type": "constructor"
    },
    {
      "inputs": [
        {
          "internalType": "address",
          "name": "sender",
          "type": "address"
        },
        {
          "internalType": "uint256",
          "name": "balance",
          "type": "uint256"
        },
        {
          "internalType": "uint256",
          "name": "needed",
          "type": "uint256"
        },
        {
          "internalType": "uint256",
          "name": "tokenId",
          "type": "uint256"
        }
      ],
      "name": "ERC1155InsufficientBalance",
      "type": "error"
    },
    {
      "inputs": [
        {
          "internalType": "address",
          "name": "approver",
          "type": "address"
        }
      ],
      "name": "ERC1155InvalidApprover",
      "type": "error"
    },
    {
      "inputs": [
        {
          "internalType": "uint256",
          "name": "idsLength",
          "type": "uint256"
        },
        {
          "internalType": "uint256",
          "name": "valuesLength",
          "type": "uint256"
        }
      ],
      "name": "ERC1155InvalidArrayLength",
      "type": "error"
    },
    {
      "inputs": [
        {
          "internalType": "address",
          "name": "operator",
          "type": "address"
        }
      ],
      "name": "ERC1155InvalidOperator",
      "type": "error"
    },
    {
      "inputs": [
        {
          "internalType": "address",
          "name": "receiver",
          "type": "address"
        }
      ],
      "name": "ERC1155InvalidReceiver",
      "type": "error"
    },
    {
      "inputs": [
        {
          "internalType": "address",
          "name": "sender",
          "type": "address"
        }
      ],
      "name": "ERC1155InvalidSender",
      "type": "error"
    },
    {
      "inputs": [
        {
          "internalType": "address",
          "name": "operator",
          "type": "address"
        },
        {
          "internalType": "address",
          "name": "owner",
          "type": "address"
        }
      ],
      "name": "ERC1155MissingApprovalForAll",
      "type": "error"
    },
    {
      "inputs": [
        {
          "internalType": "address",
          "name": "owner",
          "type": "address"
        }
      ],
      "name": "OwnableInvalidOwner",
      "type": "error"
    },
    {
      "inputs": [
        {
          "internalType": "address",
          "name": "account",
          "type": "address"
        }
      ],
      "name": "OwnableUnauthorizedAccount",
      "type": "error"
    },
    {
      "anonymous": false,
      "inputs": [
        {
          "indexed": true,
          "internalType": "address",
          "name": "account",
          "type": "address"
        },
        {
          "indexed": true,
          "internalType": "address",
          "name": "operator",
          "type": "address"
        },
        {
          "indexed": false,
          "internalType": "bool",
          "name": "approved",
          "type": "bool"
        }
      ],
      "name": "ApprovalForAll",
      "type": "event"
    },
    {
      "anonymous": false,
      "inputs": [
        {
          "indexed": true,
          "internalType": "address",
          "name": "previousOwner",
          "type": "address"
        },
        {
          "indexed": true,
          "internalType": "address",
          "name": "newOwner",
          "type": "address"
        }
      ],
      "name": "OwnershipTransferred",
      "type": "event"
    },
    {
      "anonymous": false,
      "inputs": [
        {
          "indexed": true,
          "internalType": "address",
          "name": "operator",
          "type": "address"
        },
        {
          "indexed": true,
          "internalType": "address",
          "name": "from",
          "type": "address"
        },
        {
          "indexed": true,
          "internalType": "address",
          "name": "to",
          "type": "address"
        },
        {
          "indexed": false,
          "internalType": "uint256[]",
          "name": "ids",
          "type": "uint256[]"
        },
        {
          "indexed": false,
          "internalType": "uint256[]",
          "name": "values",
          "type": "uint256[]"
        }
      ],
      "name": "TransferBatch",
      "type": "event"
    },
    {
      "anonymous": false,
      "inputs": [
        {
          "indexed": true,
          "internalType": "address",
          "name": "operator",
          "type": "address"
        },
        {
          "indexed": true,
          "internalType": "address",
          "name": "from",
          "type": "address"
        },
        {
          "indexed": true,
          "internalType": "address",
          "name": "to",
          "type": "address"
        },
        {
          "indexed": false,
          "internalType": "uint256",
          "name": "id",
          "type": "uint256"
        },
        {
          "indexed": false,
          "internalType": "uint256",
          "name": "value",
          "type": "uint256"
        }
      ],
      "name": "TransferSingle",
      "type": "event"
    },
    {
      "anonymous": false,
      "inputs": [
        {
          "indexed": false,
          "internalType": "string",
          "name": "value",
          "type": "string"
        },
        {
          "indexed": true,
          "internalType": "uint256",
          "name": "id",
          "type": "uint256"
        }
      ],
      "name": "URI",
      "type": "event"
    },
    {
      "inputs": [
        {
          "internalType": "uint256",
          "name": "",
          "type": "uint256"
        }
      ],
      "name": "PredictionMarketContracts",
      "outputs": [
        {
          "internalType": "address",
          "name": "",
          "type": "address"
        }
      ],
      "stateMutability": "view",
      "type": "function"
    },
    {
      "inputs": [
        {
          "internalType": "uint256",
          "name": "id",
          "type": "uint256"
        },
        {
          "internalType": "address",
          "name": "marketContract",
          "type": "address"
        }
      ],
      "name": "addPredictionMarket",
      "outputs": [],
      "stateMutability": "nonpayable",
      "type": "function"
    },
    {
      "inputs": [
        {
          "internalType": "address",
          "name": "account",
          "type": "address"
        },
        {
          "internalType": "uint256",
          "name": "id",
          "type": "uint256"
        }
      ],
      "name": "balanceOf",
      "outputs": [
        {
          "internalType": "uint256",
          "name": "",
          "type": "uint256"
        }
      ],
      "stateMutability": "view",
      "type": "function"
    },
    {
      "inputs": [
        {
          "internalType": "address[]",
          "name": "accounts",
          "type": "address[]"
        },
        {
          "internalType": "uint256[]",
          "name": "ids",
          "type": "uint256[]"
        }
      ],
      "name": "balanceOfBatch",
      "outputs": [
        {
          "internalType": "uint256[]",
          "name": "",
          "type": "uint256[]"
        }
      ],
      "stateMutability": "view",
      "type": "function"
    },
    {
      "inputs": [
        {
          "internalType": "address",
          "name": "account",
          "type": "address"
        },
        {
          "internalType": "uint256",
          "name": "id",
          "type": "uint256"
        },
        {
          "internalType": "uint256",
          "name": "amount",
          "type": "uint256"
        }
      ],
      "name": "burn",
      "outputs": [],
      "stateMutability": "nonpayable",
      "type": "function"
    },
    {
      "inputs": [
        {
          "internalType": "address",
          "name": "account",
          "type": "address"
        },
        {
          "internalType": "uint256[]",
          "name": "ids",
          "type": "uint256[]"
        },
        {
          "internalType": "uint256[]",
          "name": "values",
          "type": "uint256[]"
        }
      ],
      "name": "burnBatch",
      "outputs": [],
      "stateMutability": "nonpayable",
      "type": "function"
    },
    {
      "inputs": [
        {
          "internalType": "address",
          "name": "account",
          "type": "address"
        },
        {
          "internalType": "address",
          "name": "operator",
          "type": "address"
        }
      ],
      "name": "isApprovedForAll",
      "outputs": [
        {
          "internalType": "bool",
          "name": "",
          "type": "bool"
        }
      ],
      "stateMutability": "view",
      "type": "function"
    },
    {
      "inputs": [
        {
          "internalType": "address",
          "name": "account",
          "type": "address"
        },
        {
          "internalType": "uint256",
          "name": "id",
          "type": "uint256"
        },
        {
          "internalType": "uint256",
          "name": "amount",
          "type": "uint256"
        },
        {
          "internalType": "bytes",
          "name": "data",
          "type": "bytes"
        }
      ],
      "name": "mint",
      "outputs": [],
      "stateMutability": "nonpayable",
      "type": "function"
    },
    {
      "inputs": [
        {
          "internalType": "address",
          "name": "to",
          "type": "address"
        },
        {
          "internalType": "uint256[]",
          "name": "ids",
          "type": "uint256[]"
        },
        {
          "internalType": "uint256[]",
          "name": "amounts",
          "type": "uint256[]"
        },
        {
          "internalType": "bytes",
          "name": "data",
          "type": "bytes"
        }
      ],
      "name": "mintBatch",
      "outputs": [],
      "stateMutability": "nonpayable",
      "type": "function"
    },
    {
      "inputs": [],
      "name": "owner",
      "outputs": [
        {
          "internalType": "address",
          "name": "",
          "type": "address"
        }
      ],
      "stateMutability": "view",
      "type": "function"
    },
    {
      "inputs": [
        {
          "internalType": "uint256",
          "name": "id",
          "type": "uint256"
        }
      ],
      "name": "removePredictionMarket",
      "outputs": [],
      "stateMutability": "nonpayable",
      "type": "function"
    },
    {
      "inputs": [],
      "name": "renounceOwnership",
      "outputs": [],
      "stateMutability": "nonpayable",
      "type": "function"
    },
    {
      "inputs": [
        {
          "internalType": "address",
          "name": "from",
          "type": "address"
        },
        {
          "internalType": "address",
          "name": "to",
          "type": "address"
        },
        {
          "internalType": "uint256[]",
          "name": "ids",
          "type": "uint256[]"
        },
        {
          "internalType": "uint256[]",
          "name": "values",
          "type": "uint256[]"
        },
        {
          "internalType": "bytes",
          "name": "data",
          "type": "bytes"
        }
      ],
      "name": "safeBatchTransferFrom",
      "outputs": [],
      "stateMutability": "nonpayable",
      "type": "function"
    },
    {
      "inputs": [
        {
          "internalType": "address",
          "name": "from",
          "type": "address"
        },
        {
          "internalType": "address",
          "name": "to",
          "type": "address"
        },
        {
          "internalType": "uint256",
          "name": "id",
          "type": "uint256"
        },
        {
          "internalType": "uint256",
          "name": "value",
          "type": "uint256"
        },
        {
          "internalType": "bytes",
          "name": "data",
          "type": "bytes"
        }
      ],
      "name": "safeTransferFrom",
      "outputs": [],
      "stateMutability": "nonpayable",
      "type": "function"
    },
    {
      "inputs": [
        {
          "internalType": "address",
          "name": "operator",
          "type": "address"
        },
        {
          "internalType": "bool",
          "name": "approved",
          "type": "bool"
        }
      ],
      "name": "setApprovalForAll",
      "outputs": [],
      "stateMutability": "nonpayable",
      "type": "function"
    },
    {
      "inputs": [
        {
          "internalType": "string",
          "name": "newuri",
          "type": "string"
        }
      ],
      "name": "setURI",
      "outputs": [],
      "stateMutability": "nonpayable",
      "type": "function"
    },
    {
      "inputs": [
        {
          "internalType": "bytes4",
          "name": "interfaceId",
          "type": "bytes4"
        }
      ],
      "name": "supportsInterface",
      "outputs": [
        {
          "internalType": "bool",
          "name": "",
          "type": "bool"
        }
      ],
      "stateMutability": "view",
      "type": "function"
    },
    {
      "inputs": [
        {
          "internalType": "address",
          "name": "to",
          "type": "address"
        },
        {
          "internalType": "uint256",
          "name": "id",
          "type": "uint256"
        },
        {
          "internalType": "uint256",
          "name": "amount",
          "type": "uint256"
        }
      ],
      "name": "transfer",
      "outputs": [],
      "stateMutability": "nonpayable",
      "type": "function"
    },
    {
      "inputs": [
        {
          "internalType": "address",
          "name": "newOwner",
          "type": "address"
        }
      ],
      "name": "transferOwnership",
      "outputs": [],
      "stateMutability": "nonpayable",
      "type": "function"
    },
    {
      "inputs": [
        {
          "internalType": "uint256",
          "name": "id",
          "type": "uint256"
        },
        {
          "internalType": "address",
          "name": "marketContract",
          "type": "address"
        }
      ],
      "name": "updatePredictionMarket",
      "outputs": [],
      "stateMutability": "nonpayable",
      "type": "function"
    },
    {
      "inputs": [
        {
          "internalType": "uint256",
          "name": "",
          "type": "uint256"
        }
      ],
      "name": "uri",
      "outputs": [
        {
          "internalType": "string",
          "name": "",
          "type": "string"
        }
      ],
      "stateMutability": "view",
      "type": "function"
    }
  ],
  "bytecode": "0x60806040523480156200001157600080fd5b50604051620039553803806200395583398181016040528101906200003791906200022d565b80604051806020016040528060008152506200005981620000e860201b60201c565b50600073ffffffffffffffffffffffffffffffffffffffff168173ffffffffffffffffffffffffffffffffffffffff1603620000cf5760006040517f1e4fbdf7000000000000000000000000000000000000000000000000000000008152600401620000c6919062000270565b60405180910390fd5b620000e081620000fd60201b60201c565b5050620005ee565b8060029081620000f9919062000507565b5050565b6000600360009054906101000a900473ffffffffffffffffffffffffffffffffffffffff16905081600360006101000a81548173ffffffffffffffffffffffffffffffffffffffff021916908373ffffffffffffffffffffffffffffffffffffffff1602179055508173ffffffffffffffffffffffffffffffffffffffff168173ffffffffffffffffffffffffffffffffffffffff167f8be0079c531659141344cd1fd0a4f28419497f9722a3daafe3b4186f6b6457e060405160405180910390a35050565b600080fd5b600073ffffffffffffffffffffffffffffffffffffffff82169050919050565b6000620001f582620001c8565b9050919050565b6200020781620001e8565b81146200021357600080fd5b50565b6000815190506200022781620001fc565b92915050565b600060208284031215620002465762000245620001c3565b5b6000620002568482850162000216565b91505092915050565b6200026a81620001e8565b82525050565b60006020820190506200028760008301846200025f565b92915050565b600081519050919050565b7f4e487b7100000000000000000000000000000000000000000000000000000000600052604160045260246000fd5b7f4e487b7100000000000000000000000000000000000000000000000000000000600052602260045260246000fd5b600060028204905060018216806200030f57607f821691505b602082108103620003255762000324620002c7565b5b50919050565b60008190508160005260206000209050919050565b60006020601f8301049050919050565b600082821b905092915050565b6000600883026200038f7fffffffffffffffffffffffffffffffffffffffffffffffffffffffffffffffff8262000350565b6200039b868362000350565b95508019841693508086168417925050509392505050565b6000819050919050565b6000819050919050565b6000620003e8620003e2620003dc84620003b3565b620003bd565b620003b3565b9050919050565b6000819050919050565b6200040483620003c7565b6200041c6200041382620003ef565b8484546200035d565b825550505050565b600090565b6200043362000424565b62000440818484620003f9565b505050565b5b8181101562000468576200045c60008262000429565b60018101905062000446565b5050565b601f821115620004b75762000481816200032b565b6200048c8462000340565b810160208510156200049c578190505b620004b4620004ab8562000340565b83018262000445565b50505b505050565b600082821c905092915050565b6000620004dc60001984600802620004bc565b1980831691505092915050565b6000620004f78383620004c9565b9150826002028217905092915050565b62000512826200028d565b67ffffffffffffffff8111156200052e576200052d62000298565b5b6200053a8254620002f6565b620005478282856200046c565b600060209050601f8311600181146200057f57600084156200056a578287015190505b620005768582620004e9565b865550620005e6565b601f1984166200058f866200032b565b60005b82811015620005b95784890151825560018201915060208501945060208101905062000592565b86831015620005d95784890151620005d5601f891682620004c9565b8355505b6001600288020188555050505b505050505050565b61335780620005fe6000396000f3fe608060405234801561001057600080fd5b50600436106101365760003560e01c8063715018a6116100b85780639366d8e91161007c5780639366d8e91461031f578063a22cb4651461034f578063e985e9c51461036b578063f242432a1461039b578063f2fde38b146103b7578063f5298aca146103d357610136565b8063715018a6146102a3578063731133e9146102ad5780638a3cf7aa146102c95780638da5cb5b146102e5578063909cd6a11461030357610136565b80631f7fdffa116100ff5780631f7fdffa146102035780632eb2c2d61461021f5780634e1273f41461023b5780635da163461461026b5780636b20c4541461028757610136565b8062fdd58e1461013b57806301ffc9a71461016b57806302fe53051461019b578063095bcdb6146101b75780630e89341c146101d3575b600080fd5b61015560048036038101906101509190611f57565b6103ef565b6040516101629190611fa6565b60405180910390f35b61018560048036038101906101809190612019565b610403565b6040516101929190612061565b60405180910390f35b6101b560048036038101906101b091906121c2565b6104e5565b005b6101d160048036038101906101cc919061220b565b6104f9565b005b6101ed60048036038101906101e8919061225e565b610566565b6040516101fa919061230a565b60405180910390f35b61021d60048036038101906102189190612495565b6105fa565b005b61023960048036038101906102349190612550565b610614565b005b610255600480360381019061025091906126e2565b6106bc565b6040516102629190612818565b60405180910390f35b6102856004803603810190610280919061283a565b6107c5565b005b6102a1600480360381019061029c919061287a565b610934565b005b6102ab6109e0565b005b6102c760048036038101906102c29190612905565b6109f4565b005b6102e360048036038101906102de919061283a565b610aa7565b005b6102ed610b74565b6040516102fa9190612997565b60405180910390f35b61031d6004803603810190610318919061225e565b610b9e565b005b6103396004803603810190610334919061225e565b610c81565b6040516103469190612997565b60405180910390f35b610369600480360381019061036491906129de565b610cb4565b005b61038560048036038101906103809190612a1e565b610cca565b6040516103929190612061565b60405180910390f35b6103b560048036038101906103b09190612a5e565b610d5e565b005b6103d160048036038101906103cc9190612af5565b610e06565b005b6103ed60048036038101906103e8919061220b565b610e8c565b005b60006103fb8383610e9c565b905092915050565b60007fd9b67a26000000000000000000000000000000000000000000000000000000007bffffffffffffffffffffffffffffffffffffffffffffffffffffffff1916827bffffffffffffffffffffffffffffffffffffffffffffffffffffffff191614806104ce57507f0e89341c000000000000000000000000000000000000000000000000000000007bffffffffffffffffffffffffffffffffffffffffffffffffffffffff1916827bffffffffffffffffffffffffffffffffffffffffffffffffffffffff1916145b806104de57506104dd82610ef6565b5b9050919050565b6104ed610f60565b6104f681610fe7565b50565b8061050433846103ef565b1015610545576040517f08c379a000000000000000000000000000000000000000000000000000000000815260040161053c90612b6e565b60405180910390fd5b6105613384848460405180602001604052806000815250610d5e565b505050565b60606002805461057590612bbd565b80601f01602080910402602001604051908101604052809291908181526020018280546105a190612bbd565b80156105ee5780601f106105c3576101008083540402835291602001916105ee565b820191906000526020600020905b8154815290600101906020018083116105d157829003601f168201915b50505050509050919050565b610602610f60565b61060e84848484610ffa565b50505050565b600061061e611080565b90508073ffffffffffffffffffffffffffffffffffffffff168673ffffffffffffffffffffffffffffffffffffffff161415801561066357506106618682610cca565b155b156106a75780866040517fe237d92200000000000000000000000000000000000000000000000000000000815260040161069e929190612bee565b60405180910390fd5b6106b48686868686611088565b505050505050565b6060815183511461070857815183516040517f5b0599910000000000000000000000000000000000000000000000000000000081526004016106ff929190612c17565b60405180910390fd5b6000835167ffffffffffffffff81111561072557610724612097565b5b6040519080825280602002602001820160405280156107535781602001602082028036833780820191505090505b50905060005b84518110156107ba57610790610778828761118090919063ffffffff16565b61078b838761119490919063ffffffff16565b6103ef565b8282815181106107a3576107a2612c40565b5b602002602001018181525050806001019050610759565b508091505092915050565b6107cd610f60565b600073ffffffffffffffffffffffffffffffffffffffff168173ffffffffffffffffffffffffffffffffffffffff160361083c576040517f08c379a000000000000000000000000000000000000000000000000000000000815260040161083390612cbb565b60405180910390fd5b600073ffffffffffffffffffffffffffffffffffffffff166004600084815260200190815260200160002060009054906101000a900473ffffffffffffffffffffffffffffffffffffffff1673ffffffffffffffffffffffffffffffffffffffff16146108de576040517f08c379a00000000000000000000000000000000000000000000000000000000081526004016108d590612d4d565b60405180910390fd5b806004600084815260200190815260200160002060006101000a81548173ffffffffffffffffffffffffffffffffffffffff021916908373ffffffffffffffffffffffffffffffffffffffff1602179055505050565b61093c611080565b73ffffffffffffffffffffffffffffffffffffffff168373ffffffffffffffffffffffffffffffffffffffff161415801561098557506109838361097e611080565b610cca565b155b156109d057610992611080565b836040517fe237d9220000000000000000000000000000000000000000000000000000000081526004016109c7929190612bee565b60405180910390fd5b6109db8383836111a8565b505050565b6109e8610f60565b6109f2600061123c565b565b6004600084815260200190815260200160002060009054906101000a900473ffffffffffffffffffffffffffffffffffffffff1673ffffffffffffffffffffffffffffffffffffffff163373ffffffffffffffffffffffffffffffffffffffff1614610a95576040517f08c379a0000000000000000000000000000000000000000000000000000000008152600401610a8c90612ddf565b60405180910390fd5b610aa184848484611302565b50505050565b610aaf610f60565b600073ffffffffffffffffffffffffffffffffffffffff168173ffffffffffffffffffffffffffffffffffffffff1603610b1e576040517f08c379a0000000000000000000000000000000000000000000000000000000008152600401610b1590612cbb565b60405180910390fd5b806004600084815260200190815260200160002060006101000a81548173ffffffffffffffffffffffffffffffffffffffff021916908373ffffffffffffffffffffffffffffffffffffffff1602179055505050565b6000600360009054906101000a900473ffffffffffffffffffffffffffffffffffffffff16905090565b610ba6610f60565b600073ffffffffffffffffffffffffffffffffffffffff166004600083815260200190815260200160002060009054906101000a900473ffffffffffffffffffffffffffffffffffffffff1673ffffffffffffffffffffffffffffffffffffffff1603610c48576040517f08c379a0000000000000000000000000000000000000000000000000000000008152600401610c3f90612e4b565b60405180910390fd5b6004600082815260200190815260200160002060006101000a81549073ffffffffffffffffffffffffffffffffffffffff021916905550565b60046020528060005260406000206000915054906101000a900473ffffffffffffffffffffffffffffffffffffffff1681565b610cc6610cbf611080565b838361139b565b5050565b6000600160008473ffffffffffffffffffffffffffffffffffffffff1673ffffffffffffffffffffffffffffffffffffffff16815260200190815260200160002060008373ffffffffffffffffffffffffffffffffffffffff1673ffffffffffffffffffffffffffffffffffffffff16815260200190815260200160002060009054906101000a900460ff16905092915050565b6000610d68611080565b90508073ffffffffffffffffffffffffffffffffffffffff168673ffffffffffffffffffffffffffffffffffffffff1614158015610dad5750610dab8682610cca565b155b15610df15780866040517fe237d922000000000000000000000000000000000000000000000000000000008152600401610de8929190612bee565b60405180910390fd5b610dfe868686868661150b565b505050505050565b610e0e610f60565b600073ffffffffffffffffffffffffffffffffffffffff168173ffffffffffffffffffffffffffffffffffffffff1603610e805760006040517f1e4fbdf7000000000000000000000000000000000000000000000000000000008152600401610e779190612997565b60405180910390fd5b610e898161123c565b50565b610e97838383611616565b505050565b600080600083815260200190815260200160002060008473ffffffffffffffffffffffffffffffffffffffff1673ffffffffffffffffffffffffffffffffffffffff16815260200190815260200160002054905092915050565b60007f01ffc9a7000000000000000000000000000000000000000000000000000000007bffffffffffffffffffffffffffffffffffffffffffffffffffffffff1916827bffffffffffffffffffffffffffffffffffffffffffffffffffffffff1916149050919050565b610f68611080565b73ffffffffffffffffffffffffffffffffffffffff16610f86610b74565b73ffffffffffffffffffffffffffffffffffffffff1614610fe557610fa9611080565b6040517f118cdaa7000000000000000000000000000000000000000000000000000000008152600401610fdc9190612997565b60405180910390fd5b565b8060029081610ff69190613017565b5050565b600073ffffffffffffffffffffffffffffffffffffffff168473ffffffffffffffffffffffffffffffffffffffff160361106c5760006040517f57f447ce0000000000000000000000000000000000000000000000000000000081526004016110639190612997565b60405180910390fd5b61107a6000858585856116bd565b50505050565b600033905090565b600073ffffffffffffffffffffffffffffffffffffffff168473ffffffffffffffffffffffffffffffffffffffff16036110fa5760006040517f57f447ce0000000000000000000000000000000000000000000000000000000081526004016110f19190612997565b60405180910390fd5b600073ffffffffffffffffffffffffffffffffffffffff168573ffffffffffffffffffffffffffffffffffffffff160361116c5760006040517f01a835140000000000000000000000000000000000000000000000000000000081526004016111639190612997565b60405180910390fd5b61117985858585856116bd565b5050505050565b600060208202602084010151905092915050565b600060208202602084010151905092915050565b600073ffffffffffffffffffffffffffffffffffffffff168373ffffffffffffffffffffffffffffffffffffffff160361121a5760006040517f01a835140000000000000000000000000000000000000000000000000000000081526004016112119190612997565b60405180910390fd5b6112378360008484604051806020016040528060008152506116bd565b505050565b6000600360009054906101000a900473ffffffffffffffffffffffffffffffffffffffff16905081600360006101000a81548173ffffffffffffffffffffffffffffffffffffffff021916908373ffffffffffffffffffffffffffffffffffffffff1602179055508173ffffffffffffffffffffffffffffffffffffffff168173ffffffffffffffffffffffffffffffffffffffff167f8be0079c531659141344cd1fd0a4f28419497f9722a3daafe3b4186f6b6457e060405160405180910390a35050565b600073ffffffffffffffffffffffffffffffffffffffff168473ffffffffffffffffffffffffffffffffffffffff16036113745760006040517f57f447ce00000000000000000000000000000000000000000000000000000000815260040161136b9190612997565b60405180910390fd5b600080611381858561176f565b915091506113936000878484876116bd565b505050505050565b600073ffffffffffffffffffffffffffffffffffffffff168273ffffffffffffffffffffffffffffffffffffffff160361140d5760006040517fced3e1000000000000000000000000000000000000000000000000000000000081526004016114049190612997565b60405180910390fd5b80600160008573ffffffffffffffffffffffffffffffffffffffff1673ffffffffffffffffffffffffffffffffffffffff16815260200190815260200160002060008473ffffffffffffffffffffffffffffffffffffffff1673ffffffffffffffffffffffffffffffffffffffff16815260200190815260200160002060006101000a81548160ff0219169083151502179055508173ffffffffffffffffffffffffffffffffffffffff168373ffffffffffffffffffffffffffffffffffffffff167f17307eab39ab6107e8899845ad3d59bd9653f200f220920489ca2b5937696c31836040516114fe9190612061565b60405180910390a3505050565b600073ffffffffffffffffffffffffffffffffffffffff168473ffffffffffffffffffffffffffffffffffffffff160361157d5760006040517f57f447ce0000000000000000000000000000000000000000000000000000000081526004016115749190612997565b60405180910390fd5b600073ffffffffffffffffffffffffffffffffffffffff168573ffffffffffffffffffffffffffffffffffffffff16036115ef5760006040517f01a835140000000000000000000000000000000000000000000000000000000081526004016115e69190612997565b60405180910390fd5b6000806115fc858561176f565b9150915061160d87878484876116bd565b50505050505050565b600073ffffffffffffffffffffffffffffffffffffffff168373ffffffffffffffffffffffffffffffffffffffff16036116885760006040517f01a8351400000000000000000000000000000000000000000000000000000000815260040161167f9190612997565b60405180910390fd5b600080611695848461176f565b915091506116b68560008484604051806020016040528060008152506116bd565b5050505050565b6116c98585858561179f565b600073ffffffffffffffffffffffffffffffffffffffff168473ffffffffffffffffffffffffffffffffffffffff1614611768576000611707611080565b9050600184510361175757600061172860008661119490919063ffffffff16565b9050600061174060008661119490919063ffffffff16565b9050611750838989858589611b47565b5050611766565b611765818787878787611cfb565b5b505b5050505050565b60608060405191506001825283602083015260408201905060018152826020820152604081016040529250929050565b80518251146117e957815181516040517f5b0599910000000000000000000000000000000000000000000000000000000081526004016117e0929190612c17565b60405180910390fd5b60006117f3611080565b905060005b8351811015611a02576000611816828661119490919063ffffffff16565b9050600061182d838661119490919063ffffffff16565b9050600073ffffffffffffffffffffffffffffffffffffffff168873ffffffffffffffffffffffffffffffffffffffff161461195a57600080600084815260200190815260200160002060008a73ffffffffffffffffffffffffffffffffffffffff1673ffffffffffffffffffffffffffffffffffffffff1681526020019081526020016000205490508181101561190257888183856040517f03dee4c50000000000000000000000000000000000000000000000000000000081526004016118f994939291906130e9565b60405180910390fd5b81810360008085815260200190815260200160002060008b73ffffffffffffffffffffffffffffffffffffffff1673ffffffffffffffffffffffffffffffffffffffff16815260200190815260200160002081905550505b600073ffffffffffffffffffffffffffffffffffffffff168773ffffffffffffffffffffffffffffffffffffffff16146119f5578060008084815260200190815260200160002060008973ffffffffffffffffffffffffffffffffffffffff1673ffffffffffffffffffffffffffffffffffffffff16815260200190815260200160002060008282546119ed919061315d565b925050819055505b50508060010190506117f8565b506001835103611ac1576000611a2260008561119490919063ffffffff16565b90506000611a3a60008561119490919063ffffffff16565b90508573ffffffffffffffffffffffffffffffffffffffff168773ffffffffffffffffffffffffffffffffffffffff168473ffffffffffffffffffffffffffffffffffffffff167fc3d58168c5ae7397731d063d5bbf3d657854427343f4c083240f7aacaa2d0f628585604051611ab2929190612c17565b60405180910390a45050611b40565b8373ffffffffffffffffffffffffffffffffffffffff168573ffffffffffffffffffffffffffffffffffffffff168273ffffffffffffffffffffffffffffffffffffffff167f4a39dc06d4c0dbc64b70af90fd698a233a518aa5d07e595d983b8c0526c8f7fb8686604051611b37929190613191565b60405180910390a45b5050505050565b60008473ffffffffffffffffffffffffffffffffffffffff163b1115611cf3578373ffffffffffffffffffffffffffffffffffffffff1663f23a6e6187878686866040518663ffffffff1660e01b8152600401611ba895949392919061321d565b6020604051808303816000875af1925050508015611be457506040513d601f19601f82011682018060405250810190611be1919061328c565b60015b611c68573d8060008114611c14576040519150601f19603f3d011682016040523d82523d6000602084013e611c19565b606091505b506000815103611c6057846040517f57f447ce000000000000000000000000000000000000000000000000000000008152600401611c579190612997565b60405180910390fd5b805181602001fd5b63f23a6e6160e01b7bffffffffffffffffffffffffffffffffffffffffffffffffffffffff1916817bffffffffffffffffffffffffffffffffffffffffffffffffffffffff191614611cf157846040517f57f447ce000000000000000000000000000000000000000000000000000000008152600401611ce89190612997565b60405180910390fd5b505b505050505050565b60008473ffffffffffffffffffffffffffffffffffffffff163b1115611ea7578373ffffffffffffffffffffffffffffffffffffffff1663bc197c8187878686866040518663ffffffff1660e01b8152600401611d5c9594939291906132b9565b6020604051808303816000875af1925050508015611d9857506040513d601f19601f82011682018060405250810190611d95919061328c565b60015b611e1c573d8060008114611dc8576040519150601f19603f3d011682016040523d82523d6000602084013e611dcd565b606091505b506000815103611e1457846040517f57f447ce000000000000000000000000000000000000000000000000000000008152600401611e0b9190612997565b60405180910390fd5b805181602001fd5b63bc197c8160e01b7bffffffffffffffffffffffffffffffffffffffffffffffffffffffff1916817bffffffffffffffffffffffffffffffffffffffffffffffffffffffff191614611ea557846040517f57f447ce000000000000000000000000000000000000000000000000000000008152600401611e9c9190612997565b60405180910390fd5b505b505050505050565b6000604051905090565b600080fd5b600080fd5b600073ffffffffffffffffffffffffffffffffffffffff82169050919050565b6000611eee82611ec3565b9050919050565b611efe81611ee3565b8114611f0957600080fd5b50565b600081359050611f1b81611ef5565b92915050565b6000819050919050565b611f3481611f21565b8114611f3f57600080fd5b50565b600081359050611f5181611f2b565b92915050565b60008060408385031215611f6e57611f6d611eb9565b5b6000611f7c85828601611f0c565b9250506020611f8d85828601611f42565b9150509250929050565b611fa081611f21565b82525050565b6000602082019050611fbb6000830184611f97565b92915050565b60007fffffffff0000000000000000000000000000000000000000000000000000000082169050919050565b611ff681611fc1565b811461200157600080fd5b50565b60008135905061201381611fed565b92915050565b60006020828403121561202f5761202e611eb9565b5b600061203d84828501612004565b91505092915050565b60008115159050919050565b61205b81612046565b82525050565b60006020820190506120766000830184612052565b92915050565b600080fd5b600080fd5b6000601f19601f8301169050919050565b7f4e487b7100000000000000000000000000000000000000000000000000000000600052604160045260246000fd5b6120cf82612086565b810181811067ffffffffffffffff821117156120ee576120ed612097565b5b80604052505050565b6000612101611eaf565b905061210d82826120c6565b919050565b600067ffffffffffffffff82111561212d5761212c612097565b5b61213682612086565b9050602081019050919050565b82818337600083830152505050565b600061216561216084612112565b6120f7565b90508281526020810184848401111561218157612180612081565b5b61218c848285612143565b509392505050565b600082601f8301126121a9576121a861207c565b5b81356121b9848260208601612152565b91505092915050565b6000602082840312156121d8576121d7611eb9565b5b600082013567ffffffffffffffff8111156121f6576121f5611ebe565b5b61220284828501612194565b91505092915050565b60008060006060848603121561222457612223611eb9565b5b600061223286828701611f0c565b935050602061224386828701611f42565b925050604061225486828701611f42565b9150509250925092565b60006020828403121561227457612273611eb9565b5b600061228284828501611f42565b91505092915050565b600081519050919050565b600082825260208201905092915050565b60005b838110156122c55780820151818401526020810190506122aa565b60008484015250505050565b60006122dc8261228b565b6122e68185612296565b93506122f68185602086016122a7565b6122ff81612086565b840191505092915050565b6000602082019050818103600083015261232481846122d1565b905092915050565b600067ffffffffffffffff82111561234757612346612097565b5b602082029050602081019050919050565b600080fd5b600061237061236b8461232c565b6120f7565b9050808382526020820190506020840283018581111561239357612392612358565b5b835b818110156123bc57806123a88882611f42565b845260208401935050602081019050612395565b5050509392505050565b600082601f8301126123db576123da61207c565b5b81356123eb84826020860161235d565b91505092915050565b600067ffffffffffffffff82111561240f5761240e612097565b5b61241882612086565b9050602081019050919050565b6000612438612433846123f4565b6120f7565b90508281526020810184848401111561245457612453612081565b5b61245f848285612143565b509392505050565b600082601f83011261247c5761247b61207c565b5b813561248c848260208601612425565b91505092915050565b600080600080608085870312156124af576124ae611eb9565b5b60006124bd87828801611f0c565b945050602085013567ffffffffffffffff8111156124de576124dd611ebe565b5b6124ea878288016123c6565b935050604085013567ffffffffffffffff81111561250b5761250a611ebe565b5b612517878288016123c6565b925050606085013567ffffffffffffffff81111561253857612537611ebe565b5b61254487828801612467565b91505092959194509250565b600080600080600060a0868803121561256c5761256b611eb9565b5b600061257a88828901611f0c565b955050602061258b88828901611f0c565b945050604086013567ffffffffffffffff8111156125ac576125ab611ebe565b5b6125b8888289016123c6565b935050606086013567ffffffffffffffff8111156125d9576125d8611ebe565b5b6125e5888289016123c6565b925050608086013567ffffffffffffffff81111561260657612605611ebe565b5b61261288828901612467565b9150509295509295909350565b600067ffffffffffffffff82111561263a57612639612097565b5b602082029050602081019050919050565b600061265e6126598461261f565b6120f7565b9050808382526020820190506020840283018581111561268157612680612358565b5b835b818110156126aa57806126968882611f0c565b845260208401935050602081019050612683565b5050509392505050565b600082601f8301126126c9576126c861207c565b5b81356126d984826020860161264b565b91505092915050565b600080604083850312156126f9576126f8611eb9565b5b600083013567ffffffffffffffff81111561271757612716611ebe565b5b612723858286016126b4565b925050602083013567ffffffffffffffff81111561274457612743611ebe565b5b612750858286016123c6565b9150509250929050565b600081519050919050565b600082825260208201905092915050565b6000819050602082019050919050565b61278f81611f21565b82525050565b60006127a18383612786565b60208301905092915050565b6000602082019050919050565b60006127c58261275a565b6127cf8185612765565b93506127da83612776565b8060005b8381101561280b5781516127f28882612795565b97506127fd836127ad565b9250506001810190506127de565b5085935050505092915050565b6000602082019050818103600083015261283281846127ba565b905092915050565b6000806040838503121561285157612850611eb9565b5b600061285f85828601611f42565b925050602061287085828601611f0c565b9150509250929050565b60008060006060848603121561289357612892611eb9565b5b60006128a186828701611f0c565b935050602084013567ffffffffffffffff8111156128c2576128c1611ebe565b5b6128ce868287016123c6565b925050604084013567ffffffffffffffff8111156128ef576128ee611ebe565b5b6128fb868287016123c6565b9150509250925092565b6000806000806080858703121561291f5761291e611eb9565b5b600061292d87828801611f0c565b945050602061293e87828801611f42565b935050604061294f87828801611f42565b925050606085013567ffffffffffffffff8111156129705761296f611ebe565b5b61297c87828801612467565b91505092959194509250565b61299181611ee3565b82525050565b60006020820190506129ac6000830184612988565b92915050565b6129bb81612046565b81146129c657600080fd5b50565b6000813590506129d8816129b2565b92915050565b600080604083850312156129f5576129f4611eb9565b5b6000612a0385828601611f0c565b9250506020612a14858286016129c9565b9150509250929050565b60008060408385031215612a3557612a34611eb9565b5b6000612a4385828601611f0c565b9250506020612a5485828601611f0c565b9150509250929050565b600080600080600060a08688031215612a7a57612a79611eb9565b5b6000612a8888828901611f0c565b9550506020612a9988828901611f0c565b9450506040612aaa88828901611f42565b9350506060612abb88828901611f42565b925050608086013567ffffffffffffffff811115612adc57612adb611ebe565b5b612ae888828901612467565b9150509295509295909350565b600060208284031215612b0b57612b0a611eb9565b5b6000612b1984828501611f0c565b91505092915050565b7f496e73756666696369656e742062616c616e6365000000000000000000000000600082015250565b6000612b58601483612296565b9150612b6382612b22565b602082019050919050565b60006020820190508181036000830152612b8781612b4b565b9050919050565b7f4e487b7100000000000000000000000000000000000000000000000000000000600052602260045260246000fd5b60006002820490506001821680612bd557607f821691505b602082108103612be857612be7612b8e565b5b50919050565b6000604082019050612c036000830185612988565b612c106020830184612988565b9392505050565b6000604082019050612c2c6000830185611f97565b612c396020830184611f97565b9392505050565b7f4e487b7100000000000000000000000000000000000000000000000000000000600052603260045260246000fd5b7f496e76616c696420616464726573730000000000000000000000000000000000600082015250565b6000612ca5600f83612296565b9150612cb082612c6f565b602082019050919050565b60006020820190508181036000830152612cd481612c98565b9050919050565b7f4d61726b657420616c72656164792065786973747320666f722074686973204960008201527f4400000000000000000000000000000000000000000000000000000000000000602082015250565b6000612d37602183612296565b9150612d4282612cdb565b604082019050919050565b60006020820190508181036000830152612d6681612d2a565b9050919050565b7f4f6e6c79207468652050726564696374696f6e204d61726b657420636f6e747260008201527f6163742063616e206d696e74207468697320746f6b656e000000000000000000602082015250565b6000612dc9603783612296565b9150612dd482612d6d565b604082019050919050565b60006020820190508181036000830152612df881612dbc565b9050919050565b7f4d61726b657420646f6573206e6f742065786973740000000000000000000000600082015250565b6000612e35601583612296565b9150612e4082612dff565b602082019050919050565b60006020820190508181036000830152612e6481612e28565b9050919050565b60008190508160005260206000209050919050565b60006020601f8301049050919050565b600082821b905092915050565b600060088302612ecd7fffffffffffffffffffffffffffffffffffffffffffffffffffffffffffffffff82612e90565b612ed78683612e90565b95508019841693508086168417925050509392505050565b6000819050919050565b6000612f14612f0f612f0a84611f21565b612eef565b611f21565b9050919050565b6000819050919050565b612f2e83612ef9565b612f42612f3a82612f1b565b848454612e9d565b825550505050565b600090565b612f57612f4a565b612f62818484612f25565b505050565b5b81811015612f8657612f7b600082612f4f565b600181019050612f68565b5050565b601f821115612fcb57612f9c81612e6b565b612fa584612e80565b81016020851015612fb4578190505b612fc8612fc085612e80565b830182612f67565b50505b505050565b600082821c905092915050565b6000612fee60001984600802612fd0565b1980831691505092915050565b60006130078383612fdd565b9150826002028217905092915050565b6130208261228b565b67ffffffffffffffff81111561303957613038612097565b5b6130438254612bbd565b61304e828285612f8a565b600060209050601f831160018114613081576000841561306f578287015190505b6130798582612ffb565b8655506130e1565b601f19841661308f86612e6b565b60005b828110156130b757848901518255600182019150602085019450602081019050613092565b868310156130d457848901516130d0601f891682612fdd565b8355505b6001600288020188555050505b505050505050565b60006080820190506130fe6000830187612988565b61310b6020830186611f97565b6131186040830185611f97565b6131256060830184611f97565b95945050505050565b7f4e487b7100000000000000000000000000000000000000000000000000000000600052601160045260246000fd5b600061316882611f21565b915061317383611f21565b925082820190508082111561318b5761318a61312e565b5b92915050565b600060408201905081810360008301526131ab81856127ba565b905081810360208301526131bf81846127ba565b90509392505050565b600081519050919050565b600082825260208201905092915050565b60006131ef826131c8565b6131f981856131d3565b93506132098185602086016122a7565b61321281612086565b840191505092915050565b600060a0820190506132326000830188612988565b61323f6020830187612988565b61324c6040830186611f97565b6132596060830185611f97565b818103608083015261326b81846131e4565b90509695505050505050565b60008151905061328681611fed565b92915050565b6000602082840312156132a2576132a1611eb9565b5b60006132b084828501613277565b91505092915050565b600060a0820190506132ce6000830188612988565b6132db6020830187612988565b81810360408301526132ed81866127ba565b9050818103606083015261330181856127ba565b9050818103608083015261331581846131e4565b9050969550505050505056fea26469706673582212209a0aca76faf556f582c5c8779cffd13a9a5a8925af0c2cbea0da96098434e3d364736f6c63430008180033",
  "linkReferences": {},
  "deployedLinkReferences": {}
}