{
  "_format": "hh-sol-artifact-1",
  "contractName": "YesToken",
  "sourceName": "contracts/YesToken.sol",
  "abi": [
    {
      "inputs": [
        {
          "internalType": "address",
          "name": "initialOwner",
          "type": "address"
        }
      ],
      "stateMutability": "nonpayable",
      "type": "constructor"
    },
    {
      "inputs": [
        {
          "internalType": "address",
          "name": "sender",
          "type": "address"
        },
        {
          "internalType": "uint256",
          "name": "balance",
          "type": "uint256"
        },
        {
          "internalType": "uint256",
          "name": "needed",
          "type": "uint256"
        },
        {
          "internalType": "uint256",
          "name": "tokenId",
          "type": "uint256"
        }
      ],
      "name": "ERC1155InsufficientBalance",
      "type": "error"
    },
    {
      "inputs": [
        {
          "internalType": "address",
          "name": "approver",
          "type": "address"
        }
      ],
      "name": "ERC1155InvalidApprover",
      "type": "error"
    },
    {
      "inputs": [
        {
          "internalType": "uint256",
          "name": "idsLength",
          "type": "uint256"
        },
        {
          "internalType": "uint256",
          "name": "valuesLength",
          "type": "uint256"
        }
      ],
      "name": "ERC1155InvalidArrayLength",
      "type": "error"
    },
    {
      "inputs": [
        {
          "internalType": "address",
          "name": "operator",
          "type": "address"
        }
      ],
      "name": "ERC1155InvalidOperator",
      "type": "error"
    },
    {
      "inputs": [
        {
          "internalType": "address",
          "name": "receiver",
          "type": "address"
        }
      ],
      "name": "ERC1155InvalidReceiver",
      "type": "error"
    },
    {
      "inputs": [
        {
          "internalType": "address",
          "name": "sender",
          "type": "address"
        }
      ],
      "name": "ERC1155InvalidSender",
      "type": "error"
    },
    {
      "inputs": [
        {
          "internalType": "address",
          "name": "operator",
          "type": "address"
        },
        {
          "internalType": "address",
          "name": "owner",
          "type": "address"
        }
      ],
      "name": "ERC1155MissingApprovalForAll",
      "type": "error"
    },
    {
      "inputs": [
        {
          "internalType": "address",
          "name": "owner",
          "type": "address"
        }
      ],
      "name": "OwnableInvalidOwner",
      "type": "error"
    },
    {
      "inputs": [
        {
          "internalType": "address",
          "name": "account",
          "type": "address"
        }
      ],
      "name": "OwnableUnauthorizedAccount",
      "type": "error"
    },
    {
      "anonymous": false,
      "inputs": [
        {
          "indexed": true,
          "internalType": "address",
          "name": "account",
          "type": "address"
        },
        {
          "indexed": true,
          "internalType": "address",
          "name": "operator",
          "type": "address"
        },
        {
          "indexed": false,
          "internalType": "bool",
          "name": "approved",
          "type": "bool"
        }
      ],
      "name": "ApprovalForAll",
      "type": "event"
    },
    {
      "anonymous": false,
      "inputs": [
        {
          "indexed": true,
          "internalType": "address",
          "name": "previousOwner",
          "type": "address"
        },
        {
          "indexed": true,
          "internalType": "address",
          "name": "newOwner",
          "type": "address"
        }
      ],
      "name": "OwnershipTransferred",
      "type": "event"
    },
    {
      "anonymous": false,
      "inputs": [
        {
          "indexed": true,
          "internalType": "address",
          "name": "operator",
          "type": "address"
        },
        {
          "indexed": true,
          "internalType": "address",
          "name": "from",
          "type": "address"
        },
        {
          "indexed": true,
          "internalType": "address",
          "name": "to",
          "type": "address"
        },
        {
          "indexed": false,
          "internalType": "uint256[]",
          "name": "ids",
          "type": "uint256[]"
        },
        {
          "indexed": false,
          "internalType": "uint256[]",
          "name": "values",
          "type": "uint256[]"
        }
      ],
      "name": "TransferBatch",
      "type": "event"
    },
    {
      "anonymous": false,
      "inputs": [
        {
          "indexed": true,
          "internalType": "address",
          "name": "operator",
          "type": "address"
        },
        {
          "indexed": true,
          "internalType": "address",
          "name": "from",
          "type": "address"
        },
        {
          "indexed": true,
          "internalType": "address",
          "name": "to",
          "type": "address"
        },
        {
          "indexed": false,
          "internalType": "uint256",
          "name": "id",
          "type": "uint256"
        },
        {
          "indexed": false,
          "internalType": "uint256",
          "name": "value",
          "type": "uint256"
        }
      ],
      "name": "TransferSingle",
      "type": "event"
    },
    {
      "anonymous": false,
      "inputs": [
        {
          "indexed": false,
          "internalType": "string",
          "name": "value",
          "type": "string"
        },
        {
          "indexed": true,
          "internalType": "uint256",
          "name": "id",
          "type": "uint256"
        }
      ],
      "name": "URI",
      "type": "event"
    },
    {
      "inputs": [
        {
          "internalType": "address",
          "name": "account",
          "type": "address"
        },
        {
          "internalType": "uint256",
          "name": "id",
          "type": "uint256"
        }
      ],
      "name": "balanceOf",
      "outputs": [
        {
          "internalType": "uint256",
          "name": "",
          "type": "uint256"
        }
      ],
      "stateMutability": "view",
      "type": "function"
    },
    {
      "inputs": [
        {
          "internalType": "address[]",
          "name": "accounts",
          "type": "address[]"
        },
        {
          "internalType": "uint256[]",
          "name": "ids",
          "type": "uint256[]"
        }
      ],
      "name": "balanceOfBatch",
      "outputs": [
        {
          "internalType": "uint256[]",
          "name": "",
          "type": "uint256[]"
        }
      ],
      "stateMutability": "view",
      "type": "function"
    },
    {
      "inputs": [
        {
          "internalType": "address",
          "name": "account",
          "type": "address"
        },
        {
          "internalType": "uint256",
          "name": "id",
          "type": "uint256"
        },
        {
          "internalType": "uint256",
          "name": "amount",
          "type": "uint256"
        }
      ],
      "name": "burn",
      "outputs": [],
      "stateMutability": "nonpayable",
      "type": "function"
    },
    {
      "inputs": [
        {
          "internalType": "address",
          "name": "account",
          "type": "address"
        },
        {
          "internalType": "uint256[]",
          "name": "ids",
          "type": "uint256[]"
        },
        {
          "internalType": "uint256[]",
          "name": "values",
          "type": "uint256[]"
        }
      ],
      "name": "burnBatch",
      "outputs": [],
      "stateMutability": "nonpayable",
      "type": "function"
    },
    {
      "inputs": [
        {
          "internalType": "address",
          "name": "account",
          "type": "address"
        },
        {
          "internalType": "address",
          "name": "operator",
          "type": "address"
        }
      ],
      "name": "isApprovedForAll",
      "outputs": [
        {
          "internalType": "bool",
          "name": "",
          "type": "bool"
        }
      ],
      "stateMutability": "view",
      "type": "function"
    },
    {
      "inputs": [
        {
          "internalType": "address",
          "name": "account",
          "type": "address"
        },
        {
          "internalType": "uint256",
          "name": "id",
          "type": "uint256"
        },
        {
          "internalType": "uint256",
          "name": "amount",
          "type": "uint256"
        },
        {
          "internalType": "bytes",
          "name": "data",
          "type": "bytes"
        }
      ],
      "name": "mint",
      "outputs": [],
      "stateMutability": "nonpayable",
      "type": "function"
    },
    {
      "inputs": [
        {
          "internalType": "address",
          "name": "to",
          "type": "address"
        },
        {
          "internalType": "uint256[]",
          "name": "ids",
          "type": "uint256[]"
        },
        {
          "internalType": "uint256[]",
          "name": "amounts",
          "type": "uint256[]"
        },
        {
          "internalType": "bytes",
          "name": "data",
          "type": "bytes"
        }
      ],
      "name": "mintBatch",
      "outputs": [],
      "stateMutability": "nonpayable",
      "type": "function"
    },
    {
      "inputs": [],
      "name": "owner",
      "outputs": [
        {
          "internalType": "address",
          "name": "",
          "type": "address"
        }
      ],
      "stateMutability": "view",
      "type": "function"
    },
    {
      "inputs": [],
      "name": "renounceOwnership",
      "outputs": [],
      "stateMutability": "nonpayable",
      "type": "function"
    },
    {
      "inputs": [
        {
          "internalType": "address",
          "name": "from",
          "type": "address"
        },
        {
          "internalType": "address",
          "name": "to",
          "type": "address"
        },
        {
          "internalType": "uint256[]",
          "name": "ids",
          "type": "uint256[]"
        },
        {
          "internalType": "uint256[]",
          "name": "values",
          "type": "uint256[]"
        },
        {
          "internalType": "bytes",
          "name": "data",
          "type": "bytes"
        }
      ],
      "name": "safeBatchTransferFrom",
      "outputs": [],
      "stateMutability": "nonpayable",
      "type": "function"
    },
    {
      "inputs": [
        {
          "internalType": "address",
          "name": "from",
          "type": "address"
        },
        {
          "internalType": "address",
          "name": "to",
          "type": "address"
        },
        {
          "internalType": "uint256",
          "name": "id",
          "type": "uint256"
        },
        {
          "internalType": "uint256",
          "name": "value",
          "type": "uint256"
        },
        {
          "internalType": "bytes",
          "name": "data",
          "type": "bytes"
        }
      ],
      "name": "safeTransferFrom",
      "outputs": [],
      "stateMutability": "nonpayable",
      "type": "function"
    },
    {
      "inputs": [
        {
          "internalType": "address",
          "name": "operator",
          "type": "address"
        },
        {
          "internalType": "bool",
          "name": "approved",
          "type": "bool"
        }
      ],
      "name": "setApprovalForAll",
      "outputs": [],
      "stateMutability": "nonpayable",
      "type": "function"
    },
    {
      "inputs": [
        {
          "internalType": "string",
          "name": "newuri",
          "type": "string"
        }
      ],
      "name": "setURI",
      "outputs": [],
      "stateMutability": "nonpayable",
      "type": "function"
    },
    {
      "inputs": [
        {
          "internalType": "bytes4",
          "name": "interfaceId",
          "type": "bytes4"
        }
      ],
      "name": "supportsInterface",
      "outputs": [
        {
          "internalType": "bool",
          "name": "",
          "type": "bool"
        }
      ],
      "stateMutability": "view",
      "type": "function"
    },
    {
      "inputs": [
        {
          "internalType": "address",
          "name": "newOwner",
          "type": "address"
        }
      ],
      "name": "transferOwnership",
      "outputs": [],
      "stateMutability": "nonpayable",
      "type": "function"
    },
    {
      "inputs": [
        {
          "internalType": "uint256",
          "name": "",
          "type": "uint256"
        }
      ],
      "name": "uri",
      "outputs": [
        {
          "internalType": "string",
          "name": "",
          "type": "string"
        }
      ],
      "stateMutability": "view",
      "type": "function"
    }
  ],
  "bytecode": "0x60806040523480156200001157600080fd5b5060405162001a2b38038062001a2b8339810160408190526200003491620000f7565b6040805160208101909152600081528190620000508162000093565b506001600160a01b0381166200008057604051631e4fbdf760e01b81526000600482015260240160405180910390fd5b6200008b81620000a5565b50506200029c565b6002620000a18282620001d0565b5050565b600380546001600160a01b038381166001600160a01b0319831681179093556040519116919082907f8be0079c531659141344cd1fd0a4f28419497f9722a3daafe3b4186f6b6457e090600090a35050565b6000602082840312156200010a57600080fd5b81516001600160a01b03811681146200012257600080fd5b9392505050565b634e487b7160e01b600052604160045260246000fd5b600181811c908216806200015457607f821691505b6020821081036200017557634e487b7160e01b600052602260045260246000fd5b50919050565b601f821115620001cb576000816000526020600020601f850160051c81016020861015620001a65750805b601f850160051c820191505b81811015620001c757828155600101620001b2565b5050505b505050565b81516001600160401b03811115620001ec57620001ec62000129565b6200020481620001fd84546200013f565b846200017b565b602080601f8311600181146200023c5760008415620002235750858301515b600019600386901b1c1916600185901b178555620001c7565b600085815260208120601f198616915b828110156200026d578886015182559484019460019091019084016200024c565b50858210156200028c5787850151600019600388901b60f8161c191681555b5050505050600190811b01905550565b61177f80620002ac6000396000f3fe608060405234801561001057600080fd5b50600436106100ff5760003560e01c8063715018a611610097578063e985e9c511610066578063e985e9c514610224578063f242432a14610237578063f2fde38b1461024a578063f5298aca1461025d57600080fd5b8063715018a6146101db578063731133e9146101e35780638da5cb5b146101f6578063a22cb4651461021157600080fd5b80631f7fdffa116100d35780631f7fdffa146101825780632eb2c2d6146101955780634e1273f4146101a85780636b20c454146101c857600080fd5b8062fdd58e1461010457806301ffc9a71461012a57806302fe53051461014d5780630e89341c14610162575b600080fd5b610117610112366004610e2c565b610270565b6040519081526020015b60405180910390f35b61013d610138366004610e6c565b61029b565b6040519015158152602001610121565b61016061015b366004610f2f565b6102eb565b005b610175610170366004610f80565b6102ff565b6040516101219190610fdf565b6101606101903660046110a5565b610393565b6101606101a336600461113e565b6103ad565b6101bb6101b63660046111e8565b610419565b60405161012191906112e4565b6101606101d63660046112f7565b6104e6565b610160610545565b6101606101f136600461136b565b610559565b6003546040516001600160a01b039091168152602001610121565b61016061021f3660046113c0565b610565565b61013d6102323660046113fc565b610574565b61016061024536600461142f565b6105a2565b610160610258366004611494565b610601565b61016061026b3660046114af565b61063c565b6000818152602081815260408083206001600160a01b03861684529091528120545b90505b92915050565b60006001600160e01b03198216636cdb3d1360e11b14806102cc57506001600160e01b031982166303a24d0760e21b145b8061029557506301ffc9a760e01b6001600160e01b0319831614610295565b6102f3610647565b6102fc81610674565b50565b60606002805461030e906114e2565b80601f016020809104026020016040519081016040528092919081815260200182805461033a906114e2565b80156103875780601f1061035c57610100808354040283529160200191610387565b820191906000526020600020905b81548152906001019060200180831161036a57829003601f168201915b50505050509050919050565b61039b610647565b6103a784848484610680565b50505050565b336001600160a01b03861681148015906103ce57506103cc8682610574565b155b156104045760405163711bec9160e11b81526001600160a01b038083166004830152871660248201526044015b60405180910390fd5b61041186868686866106b8565b505050505050565b6060815183511461044a5781518351604051635b05999160e01b8152600481019290925260248201526044016103fb565b6000835167ffffffffffffffff81111561046657610466610e90565b60405190808252806020026020018201604052801561048f578160200160208202803683370190505b50905060005b84518110156104de576020808202860101516104b990602080840287010151610270565b8282815181106104cb576104cb61151c565b6020908102919091010152600101610495565b509392505050565b6001600160a01b038316331480159061050657506105048333610574565b155b156105355760405163711bec9160e11b81523360048201526001600160a01b03841660248201526044016103fb565b61054083838361071f565b505050565b61054d610647565b6105576000610765565b565b6103a7848484846107b7565b610570338383610814565b5050565b6001600160a01b03918216600090815260016020908152604080832093909416825291909152205460ff1690565b336001600160a01b03861681148015906105c357506105c18682610574565b155b156105f45760405163711bec9160e11b81526001600160a01b038083166004830152871660248201526044016103fb565b61041186868686866108aa565b610609610647565b6001600160a01b03811661063357604051631e4fbdf760e01b8152600060048201526024016103fb565b6102fc81610765565b610540838383610938565b6003546001600160a01b031633146105575760405163118cdaa760e01b81523360048201526024016103fb565b6002610570828261157a565b6001600160a01b0384166106aa57604051632bfa23e760e11b8152600060048201526024016103fb565b6103a760008585858561099c565b6001600160a01b0384166106e257604051632bfa23e760e11b8152600060048201526024016103fb565b6001600160a01b03851661070b57604051626a0d4560e21b8152600060048201526024016103fb565b610718858585858561099c565b5050505050565b6001600160a01b03831661074857604051626a0d4560e21b8152600060048201526024016103fb565b61054083600084846040518060200160405280600081525061099c565b600380546001600160a01b038381166001600160a01b0319831681179093556040519116919082907f8be0079c531659141344cd1fd0a4f28419497f9722a3daafe3b4186f6b6457e090600090a35050565b6001600160a01b0384166107e157604051632bfa23e760e11b8152600060048201526024016103fb565b6040805160018082526020820186905281830190815260608201859052608082019092529061041160008784848761099c565b6001600160a01b03821661083d5760405162ced3e160e81b8152600060048201526024016103fb565b6001600160a01b03838116600081815260016020908152604080832094871680845294825291829020805460ff191686151590811790915591519182527f17307eab39ab6107e8899845ad3d59bd9653f200f220920489ca2b5937696c31910160405180910390a3505050565b6001600160a01b0384166108d457604051632bfa23e760e11b8152600060048201526024016103fb565b6001600160a01b0385166108fd57604051626a0d4560e21b8152600060048201526024016103fb565b6040805160018082526020820186905281830190815260608201859052608082019092529061092f878784848761099c565b50505050505050565b6001600160a01b03831661096157604051626a0d4560e21b8152600060048201526024016103fb565b604080516001808252602082018590528183019081526060820184905260a08201909252600060808201818152919291610718918791859085905b6109a8858585856109ef565b6001600160a01b0384161561071857825133906001036109e157602084810151908401516109da838989858589610c03565b5050610411565b610411818787878787610d27565b8051825114610a1e5781518151604051635b05999160e01b8152600481019290925260248201526044016103fb565b3360005b8351811015610b24576020818102858101820151908501909101516001600160a01b03881615610ad5576000828152602081815260408083206001600160a01b038c16845290915290205481811015610aae576040516303dee4c560e01b81526001600160a01b038a1660048201526024810182905260448101839052606481018490526084016103fb565b6000838152602081815260408083206001600160a01b038d16845290915290209082900390555b6001600160a01b03871615610b1a576000828152602081815260408083206001600160a01b038b16845290915281208054839290610b1490849061163a565b90915550505b5050600101610a22565b508251600103610ba55760208301516000906020840151909150856001600160a01b0316876001600160a01b0316846001600160a01b03167fc3d58168c5ae7397731d063d5bbf3d657854427343f4c083240f7aacaa2d0f628585604051610b96929190918252602082015260400190565b60405180910390a45050610718565b836001600160a01b0316856001600160a01b0316826001600160a01b03167f4a39dc06d4c0dbc64b70af90fd698a233a518aa5d07e595d983b8c0526c8f7fb8686604051610bf492919061165b565b60405180910390a45050505050565b6001600160a01b0384163b156104115760405163f23a6e6160e01b81526001600160a01b0385169063f23a6e6190610c479089908990889088908890600401611689565b6020604051808303816000875af1925050508015610c82575060408051601f3d908101601f19168201909252610c7f918101906116ce565b60015b610ceb573d808015610cb0576040519150601f19603f3d011682016040523d82523d6000602084013e610cb5565b606091505b508051600003610ce357604051632bfa23e760e11b81526001600160a01b03861660048201526024016103fb565b805181602001fd5b6001600160e01b0319811663f23a6e6160e01b1461092f57604051632bfa23e760e11b81526001600160a01b03861660048201526024016103fb565b6001600160a01b0384163b156104115760405163bc197c8160e01b81526001600160a01b0385169063bc197c8190610d6b90899089908890889088906004016116eb565b6020604051808303816000875af1925050508015610da6575060408051601f3d908101601f19168201909252610da3918101906116ce565b60015b610dd4573d808015610cb0576040519150601f19603f3d011682016040523d82523d6000602084013e610cb5565b6001600160e01b0319811663bc197c8160e01b1461092f57604051632bfa23e760e11b81526001600160a01b03861660048201526024016103fb565b80356001600160a01b0381168114610e2757600080fd5b919050565b60008060408385031215610e3f57600080fd5b610e4883610e10565b946020939093013593505050565b6001600160e01b0319811681146102fc57600080fd5b600060208284031215610e7e57600080fd5b8135610e8981610e56565b9392505050565b634e487b7160e01b600052604160045260246000fd5b604051601f8201601f1916810167ffffffffffffffff81118282101715610ecf57610ecf610e90565b604052919050565b600067ffffffffffffffff831115610ef157610ef1610e90565b610f04601f8401601f1916602001610ea6565b9050828152838383011115610f1857600080fd5b828260208301376000602084830101529392505050565b600060208284031215610f4157600080fd5b813567ffffffffffffffff811115610f5857600080fd5b8201601f81018413610f6957600080fd5b610f7884823560208401610ed7565b949350505050565b600060208284031215610f9257600080fd5b5035919050565b6000815180845260005b81811015610fbf57602081850181015186830182015201610fa3565b506000602082860101526020601f19601f83011685010191505092915050565b6020815260006102926020830184610f99565b600067ffffffffffffffff82111561100c5761100c610e90565b5060051b60200190565b600082601f83011261102757600080fd5b8135602061103c61103783610ff2565b610ea6565b8083825260208201915060208460051b87010193508684111561105e57600080fd5b602086015b8481101561107a5780358352918301918301611063565b509695505050505050565b600082601f83011261109657600080fd5b61029283833560208501610ed7565b600080600080608085870312156110bb57600080fd5b6110c485610e10565b9350602085013567ffffffffffffffff808211156110e157600080fd5b6110ed88838901611016565b9450604087013591508082111561110357600080fd5b61110f88838901611016565b9350606087013591508082111561112557600080fd5b5061113287828801611085565b91505092959194509250565b600080600080600060a0868803121561115657600080fd5b61115f86610e10565b945061116d60208701610e10565b9350604086013567ffffffffffffffff8082111561118a57600080fd5b61119689838a01611016565b945060608801359150808211156111ac57600080fd5b6111b889838a01611016565b935060808801359150808211156111ce57600080fd5b506111db88828901611085565b9150509295509295909350565b600080604083850312156111fb57600080fd5b823567ffffffffffffffff8082111561121357600080fd5b818501915085601f83011261122757600080fd5b8135602061123761103783610ff2565b82815260059290921b8401810191818101908984111561125657600080fd5b948201945b8386101561127b5761126c86610e10565b8252948201949082019061125b565b9650508601359250508082111561129157600080fd5b5061129e85828601611016565b9150509250929050565b60008151808452602080850194506020840160005b838110156112d9578151875295820195908201906001016112bd565b509495945050505050565b60208152600061029260208301846112a8565b60008060006060848603121561130c57600080fd5b61131584610e10565b9250602084013567ffffffffffffffff8082111561133257600080fd5b61133e87838801611016565b9350604086013591508082111561135457600080fd5b5061136186828701611016565b9150509250925092565b6000806000806080858703121561138157600080fd5b61138a85610e10565b93506020850135925060408501359150606085013567ffffffffffffffff8111156113b457600080fd5b61113287828801611085565b600080604083850312156113d357600080fd5b6113dc83610e10565b9150602083013580151581146113f157600080fd5b809150509250929050565b6000806040838503121561140f57600080fd5b61141883610e10565b915061142660208401610e10565b90509250929050565b600080600080600060a0868803121561144757600080fd5b61145086610e10565b945061145e60208701610e10565b93506040860135925060608601359150608086013567ffffffffffffffff81111561148857600080fd5b6111db88828901611085565b6000602082840312156114a657600080fd5b61029282610e10565b6000806000606084860312156114c457600080fd5b6114cd84610e10565b95602085013595506040909401359392505050565b600181811c908216806114f657607f821691505b60208210810361151657634e487b7160e01b600052602260045260246000fd5b50919050565b634e487b7160e01b600052603260045260246000fd5b601f821115610540576000816000526020600020601f850160051c8101602086101561155b5750805b601f850160051c820191505b8181101561041157828155600101611567565b815167ffffffffffffffff81111561159457611594610e90565b6115a8816115a284546114e2565b84611532565b602080601f8311600181146115dd57600084156115c55750858301515b600019600386901b1c1916600185901b178555610411565b600085815260208120601f198616915b8281101561160c578886015182559484019460019091019084016115ed565b508582101561162a5787850151600019600388901b60f8161c191681555b5050505050600190811b01905550565b8082018082111561029557634e487b7160e01b600052601160045260246000fd5b60408152600061166e60408301856112a8565b828103602084015261168081856112a8565b95945050505050565b6001600160a01b03868116825285166020820152604081018490526060810183905260a0608082018190526000906116c390830184610f99565b979650505050505050565b6000602082840312156116e057600080fd5b8151610e8981610e56565b6001600160a01b0386811682528516602082015260a060408201819052600090611717908301866112a8565b828103606084015261172981866112a8565b9050828103608084015261173d8185610f99565b9897505050505050505056fea26469706673582212204bc15a00bffb08213e83f9c01c6378f598602a4887f39383d293612d32d90f0d64736f6c63430008180033",
  "linkReferences": {},
  "deployedLinkReferences": {}
}