{
  "_format": "hh-sol-artifact-1",
  "contractName": "RadishCore",
  "sourceName": "contracts/RadishCore.sol",
  "abi": [
    {
      "inputs": [
        {
          "internalType": "address",
          "name": "_priceToken",
          "type": "address"
        },
        {
          "internalType": "address",
          "name": "_yesToken",
          "type": "address"
        },
        {
          "internalType": "address",
          "name": "_noToken",
          "type": "address"
        }
      ],
      "stateMutability": "nonpayable",
      "type": "constructor"
    },
    {
      "inputs": [
        {
          "internalType": "address",
          "name": "owner",
          "type": "address"
        }
      ],
      "name": "OwnableInvalidOwner",
      "type": "error"
    },
    {
      "inputs": [
        {
          "internalType": "address",
          "name": "account",
          "type": "address"
        }
      ],
      "name": "OwnableUnauthorizedAccount",
      "type": "error"
    },
    {
      "anonymous": false,
      "inputs": [
        {
          "indexed": false,
          "internalType": "uint256",
          "name": "id",
          "type": "uint256"
        },
        {
          "indexed": false,
          "internalType": "string",
          "name": "question",
          "type": "string"
        },
        {
          "indexed": false,
          "internalType": "uint256",
          "name": "endTime",
          "type": "uint256"
        },
        {
          "indexed": false,
          "internalType": "address",
          "name": "marketContract",
          "type": "address"
        }
      ],
      "name": "MarketCreated",
      "type": "event"
    },
    {
      "anonymous": false,
      "inputs": [
        {
          "indexed": true,
          "internalType": "address",
          "name": "previousOwner",
          "type": "address"
        },
        {
          "indexed": true,
          "internalType": "address",
          "name": "newOwner",
          "type": "address"
        }
      ],
      "name": "OwnershipTransferred",
      "type": "event"
    },
    {
      "inputs": [
        {
          "internalType": "string",
          "name": "_question",
          "type": "string"
        },
        {
          "internalType": "uint256",
          "name": "_endtime",
          "type": "uint256"
        }
      ],
      "name": "createMarket",
      "outputs": [],
      "stateMutability": "nonpayable",
      "type": "function"
    },
    {
      "inputs": [],
      "name": "marketCount",
      "outputs": [
        {
          "internalType": "uint256",
          "name": "",
          "type": "uint256"
        }
      ],
      "stateMutability": "view",
      "type": "function"
    },
    {
      "inputs": [],
      "name": "noToken",
      "outputs": [
        {
          "internalType": "address",
          "name": "",
          "type": "address"
        }
      ],
      "stateMutability": "view",
      "type": "function"
    },
    {
      "inputs": [],
      "name": "noTokenContract",
      "outputs": [
        {
          "internalType": "contract NoToken",
          "name": "",
          "type": "address"
        }
      ],
      "stateMutability": "view",
      "type": "function"
    },
    {
      "inputs": [],
      "name": "owner",
      "outputs": [
        {
          "internalType": "address",
          "name": "",
          "type": "address"
        }
      ],
      "stateMutability": "view",
      "type": "function"
    },
    {
      "inputs": [],
      "name": "priceToken",
      "outputs": [
        {
          "internalType": "address",
          "name": "",
          "type": "address"
        }
      ],
      "stateMutability": "view",
      "type": "function"
    },
    {
      "inputs": [],
      "name": "renounceOwnership",
      "outputs": [],
      "stateMutability": "nonpayable",
      "type": "function"
    },
    {
      "inputs": [
        {
          "internalType": "address",
          "name": "_noToken",
          "type": "address"
        }
      ],
      "name": "setNoToken",
      "outputs": [],
      "stateMutability": "nonpayable",
      "type": "function"
    },
    {
      "inputs": [
        {
          "internalType": "address",
          "name": "_priceToken",
          "type": "address"
        }
      ],
      "name": "setPriceToken",
      "outputs": [],
      "stateMutability": "nonpayable",
      "type": "function"
    },
    {
      "inputs": [
        {
          "internalType": "address",
          "name": "_yesToken",
          "type": "address"
        }
      ],
      "name": "setYesToken",
      "outputs": [],
      "stateMutability": "nonpayable",
      "type": "function"
    },
    {
      "inputs": [
        {
          "internalType": "address",
          "name": "newOwner",
          "type": "address"
        }
      ],
      "name": "transferOwnership",
      "outputs": [],
      "stateMutability": "nonpayable",
      "type": "function"
    },
    {
      "inputs": [],
      "name": "yesToken",
      "outputs": [
        {
          "internalType": "address",
          "name": "",
          "type": "address"
        }
      ],
      "stateMutability": "view",
      "type": "function"
    },
    {
      "inputs": [],
      "name": "yesTokenContract",
      "outputs": [
        {
          "internalType": "contract YesToken",
          "name": "",
          "type": "address"
        }
      ],
      "stateMutability": "view",
      "type": "function"
    }
  ],
  "bytecode": "0x608060405234801561001057600080fd5b50604051613bec380380613bec83398101604081905261002f91610128565b338061005557604051631e4fbdf760e01b81526000600482015260240160405180910390fd5b61005e816100bc565b506000600155600280546001600160a01b039485166001600160a01b0319918216179091556003805493851693821684179055600480549290941691811682179093556005805484169092179091556006805490921617905561016b565b600080546001600160a01b038381166001600160a01b0319831681178455604051919092169283917f8be0079c531659141344cd1fd0a4f28419497f9722a3daafe3b4186f6b6457e09190a35050565b80516001600160a01b038116811461012357600080fd5b919050565b60008060006060848603121561013d57600080fd5b6101468461010c565b92506101546020850161010c565b91506101626040850161010c565b90509250925092565b613a728061017a6000396000f3fe60806040523480156200001157600080fd5b5060043610620000e05760003560e01c8063883c84c11162000097578063dea3bbba116200006e578063dea3bbba14620001b8578063ec97908214620001cc578063f0d9bb2014620001e5578063f2fde38b14620001f957600080fd5b8063883c84c1146200017b5780638da5cb5b1462000192578063c2c22e8d14620001a457600080fd5b806311a9f10a14620000e55780632ff6fe761462000116578063411092e3146200012a57806344e6a6a014620001435780637117f008146200015a578063715018a61462000171575b600080fd5b600454620000f9906001600160a01b031681565b6040516001600160a01b0390911681526020015b60405180910390f35b600254620000f9906001600160a01b031681565b620001416200013b36600462000573565b62000210565b005b620001416200015436600462000573565b6200023c565b620001416200016b36600462000573565b62000268565b6200014162000294565b620001416200018c366004620005bb565b620002ac565b6000546001600160a01b0316620000f9565b600654620000f9906001600160a01b031681565b600554620000f9906001600160a01b031681565b620001d660015481565b6040519081526020016200010d565b600354620000f9906001600160a01b031681565b620001416200020a36600462000573565b6200049e565b6200021a620004e6565b600280546001600160a01b0319166001600160a01b0392909216919091179055565b62000246620004e6565b600480546001600160a01b0319166001600160a01b0392909216919091179055565b62000272620004e6565b600380546001600160a01b0319166001600160a01b0392909216919091179055565b6200029e620004e6565b620002aa600062000515565b565b6002546003546004546001546040516000946001600160a01b0390811694811693169190879087903390620002e19062000565565b620002f39796959493929190620006c2565b604051809103906000f08015801562000310573d6000803e3d6000fd5b50600554600154604051632ed0b1a360e11b815260048101919091526001600160a01b038084166024830152929350911690635da1634690604401600060405180830381600087803b1580156200036657600080fd5b505af11580156200037b573d6000803e3d6000fd5b5050600654600154604051632ed0b1a360e11b815260048101919091526001600160a01b0385811660248301529091169250635da163469150604401600060405180830381600087803b158015620003d257600080fd5b505af1158015620003e7573d6000803e3d6000fd5b50505050806001600160a01b031663bf4bdb276040518163ffffffff1660e01b8152600401600060405180830381600087803b1580156200042757600080fd5b505af11580156200043c573d6000803e3d6000fd5b505060018054925090506000620004538362000718565b91905055507f57d0d124b72f81ed1da0dc728fc33db342705974792928796f6577b8db5c3d5360015484848460405162000491949392919062000740565b60405180910390a1505050565b620004a8620004e6565b6001600160a01b038116620004d857604051631e4fbdf760e01b8152600060048201526024015b60405180910390fd5b620004e38162000515565b50565b6000546001600160a01b03163314620002aa5760405163118cdaa760e01b8152336004820152602401620004cf565b600080546001600160a01b038381166001600160a01b0319831681178455604051919092169283917f8be0079c531659141344cd1fd0a4f28419497f9722a3daafe3b4186f6b6457e09190a35050565b6132c0806200077d83390190565b6000602082840312156200058657600080fd5b81356001600160a01b03811681146200059e57600080fd5b9392505050565b634e487b7160e01b600052604160045260246000fd5b60008060408385031215620005cf57600080fd5b823567ffffffffffffffff80821115620005e857600080fd5b818501915085601f830112620005fd57600080fd5b813581811115620006125762000612620005a5565b604051601f8201601f19908116603f011681019083821181831017156200063d576200063d620005a5565b816040528281528860208487010111156200065757600080fd5b826020860160208301376000602093820184015298969091013596505050505050565b6000815180845260005b81811015620006a25760208185018101518683018201520162000684565b506000602082860101526020601f19601f83011685010191505092915050565b600060018060a01b03808a1683528089166020840152808816604084015286606084015260e06080840152620006fc60e08401876200067a565b60a08401959095529290921660c0909101525095945050505050565b6000600182016200073957634e487b7160e01b600052601160045260246000fd5b5060010190565b8481526080602082015260006200075b60808301866200067a565b6040830194909452506001600160a01b03919091166060909101529291505056fe60c06040526000600d556000600e553480156200001b57600080fd5b50604051620032c0380380620032c08339810160408190526200003e916200022b565b806001600160a01b0381166200006e57604051631e4fbdf760e01b81526000600482015260240160405180910390fd5b6200007981620001a8565b50670de0b6b3a7640000608052678ac7230489e8000060a0908152600180546001600160a01b03808b166001600160a01b031992831617909255600280548a84169083161790556003805489841690831617905560048054928516929091169190911790556040805161012081018252868152602081018690529081018490526000606082018190526080820181905291810182905260c0810182905260e0810182905261010081019190915260058581556006620001398682620003ef565b5060408201516002820155606082015160038201556080820151600482015560a0820151600582015560c082015160068201805460e085015161ffff1990911692151561ff0019169290921761010092151583021790559091015160079091015550620004bb95505050505050565b600080546001600160a01b038381166001600160a01b0319831681178455604051919092169283917f8be0079c531659141344cd1fd0a4f28419497f9722a3daafe3b4186f6b6457e09190a35050565b80516001600160a01b03811681146200021057600080fd5b919050565b634e487b7160e01b600052604160045260246000fd5b600080600080600080600060e0888a0312156200024757600080fd5b6200025288620001f8565b9650602062000263818a01620001f8565b96506200027360408a01620001f8565b60608a015160808b015191975095506001600160401b03808211156200029857600080fd5b818b0191508b601f830112620002ad57600080fd5b815181811115620002c257620002c262000215565b604051601f8201601f19908116603f01168101908382118183101715620002ed57620002ed62000215565b816040528281528e868487010111156200030657600080fd5b600093505b828410156200032a57848401860151818501870152928501926200030b565b600086848301015280985050505050505060a088015191506200035060c08901620001f8565b905092959891949750929550565b600181811c908216806200037357607f821691505b6020821081036200039457634e487b7160e01b600052602260045260246000fd5b50919050565b601f821115620003ea576000816000526020600020601f850160051c81016020861015620003c55750805b601f850160051c820191505b81811015620003e657828155600101620003d1565b5050505b505050565b81516001600160401b038111156200040b576200040b62000215565b62000423816200041c84546200035e565b846200039a565b602080601f8311600181146200045b5760008415620004425750858301515b600019600386901b1c1916600185901b178555620003e6565b600085815260208120601f198616915b828110156200048c578886015182559484019460019091019084016200046b565b5085821015620004ab5787850151600019600388901b60f8161c191681555b5050505050600190811b01905550565b60805160a051612daa620005166000396000818161082a0152818161086c015281816108ab015281816108e30152818161095001528181610987015281816109c7015281816109ff0152610a51015260005050612daa6000f3fe608060405234801561001057600080fd5b50600436106101735760003560e01c80638da5cb5b116100de578063c84aae1711610097578063f0d9bb2011610071578063f0d9bb2014610367578063f23a6e611461037a578063f2fde38b14610399578063f571c5f3146103ac57600080fd5b8063c84aae1714610311578063d81657431461033f578063e24c469b1461035457600080fd5b80638da5cb5b1461029c578063a4d75065146102ad578063b88a802f146102c0578063bc197c81146102c8578063bf4bdb2714610300578063bfc596011461030857600080fd5b80634e543b26116101305780634e543b261461022357806351c6590a146102365780635bea241014610249578063715018a61461026457806380f556051461026c5780638b74b9ab1461028957600080fd5b806301ffc9a71461017857806304f3bcec146101b157806311a9f10a146101dc5780632810e1d6146101ef5780632acf1cd2146101f95780632ff6fe7614610210575b600080fd5b61019c610186366004612737565b6001600160e01b031916630271189760e51b1490565b60405190151581526020015b60405180910390f35b6004546101c4906001600160a01b031681565b6040516001600160a01b0390911681526020016101a8565b6003546101c4906001600160a01b031681565b6101f76103bf565b005b610202600e5481565b6040519081526020016101a8565b6001546101c4906001600160a01b031681565b6101f761023136600461277d565b61059c565b6101f7610244366004612798565b61061c565b600d54600e54604080519283526020830191909152016101a8565b6101f761073b565b61027461074f565b6040516101a8999897969594939291906127f7565b61020261029736600461285c565b61081a565b6000546001600160a01b03166101c4565b6102026102bb366004612879565b61091c565b6101f7610a9b565b6102e76102d63660046129d1565b63bc197c8160e01b95945050505050565b6040516001600160e01b031990911681526020016101a8565b6101f7610e6f565b610202600d5481565b61032461031f36600461277d565b611013565b604080519384526020840192909252908201526060016101a8565b61034761117c565b6040516101a89190612a7b565b6101f7610362366004612879565b6112cd565b6002546101c4906001600160a01b031681565b6102e7610388366004612b08565b63f23a6e6160e01b95945050505050565b6101f76103a736600461277d565b61171e565b6101f76103ba366004612879565b61175c565b6004546001600160a01b0316331461042a5760405162461bcd60e51b8152602060048201526024808201527f4f6e6c79207265736f6c7665722063616e2063616c6c20746869732066756e636044820152633a34b7b760e11b60648201526084015b60405180910390fd5b6007544210156104735760405162461bcd60e51b815260206004820152601460248201527313585c9ad95d081a185cc81b9bdd08195b99195960621b6044820152606401610421565b600b5460ff16156104c65760405162461bcd60e51b815260206004820152601760248201527f4d61726b657420616c7265616479207265736f6c7665640000000000000000006044820152606401610421565b600b8054600a54600954116101000261ffff19909116176001908117909155546040516370a0823160e01b81523060048201526001600160a01b03909116906370a0823190602401602060405180830381865afa15801561052b573d6000803e3d6000fd5b505050506040513d601f19601f8201168201806040525081019061054f9190612b6d565b600c55600554600b546040805192835261010090910460ff16151560208301527f4927fe38919783250023d27e65a3e56b6b5c3e49364e51674a41ef08d62460d9910160405180910390a1565b6105a4611b6b565b6001600160a01b0381166105fa5760405162461bcd60e51b815260206004820152601860248201527f496e76616c6964207265736f6c766572206164647265737300000000000000006044820152606401610421565b600480546001600160a01b0319166001600160a01b0392909216919091179055565b610624611b6b565b600b5460ff16156106475760405162461bcd60e51b815260040161042190612b86565b60075442106106685760405162461bcd60e51b815260040161042190612bb2565b60025460055460405163731133e960e01b81526001600160a01b039092169163731133e99161069e913091908690600401612bdc565b600060405180830381600087803b1580156106b857600080fd5b505af11580156106cc573d6000803e3d6000fd5b505060035460055460405163731133e960e01b81526001600160a01b03909216935063731133e99250610706913091908690600401612bdc565b600060405180830381600087803b15801561072057600080fd5b505af1158015610734573d6000803e3d6000fd5b5050505050565b610743611b6b565b61074d6000611b98565b565b600580546006805491929161076390612c0c565b80601f016020809104026020016040519081016040528092919081815260200182805461078f90612c0c565b80156107dc5780601f106107b1576101008083540402835291602001916107dc565b820191906000526020600020905b8154815290600101906020018083116107bf57829003601f168201915b50505060028401546003850154600486015460058701546006880154600790980154969793969295509093509160ff80821692610100909204169089565b600080600061089661085f61085a7f0000000000000000000000000000000000000000000000000000000000000000600e54611be890919063ffffffff16565b611c0a565b600d546108909061085a907f0000000000000000000000000000000000000000000000000000000000000000611be8565b90611c5f565b905083156108d657600d546108cf9061085a907f0000000000000000000000000000000000000000000000000000000000000000611be8565b915061090a565b600e546109079061085a907f0000000000000000000000000000000000000000000000000000000000000000611be8565b91505b6109148282611be8565b949350505050565b600080821161093d5760405162461bcd60e51b815260040161042190612c46565b60006109ac61098561098061085f61085a7f0000000000000000000000000000000000000000000000000000000000000000600e54611be890919063ffffffff16565b611c6e565b7f000000000000000000000000000000000000000000000000000000000000000090611ca5565b905060008415610a4057610a396109856109806109f761085a7f0000000000000000000000000000000000000000000000000000000000000000600e54611be890919063ffffffff16565b61089061085a7f0000000000000000000000000000000000000000000000000000000000000000610a338b600d54611c5f90919063ffffffff16565b90611be8565b9050610a88565b610a8561098561098061085f61085a7f0000000000000000000000000000000000000000000000000000000000000000610a338a600e54611c5f90919063ffffffff16565b90505b610a928183611cb4565b95945050505050565b600b5460ff16610ae35760405162461bcd60e51b815260206004820152601360248201527213585c9ad95d081b9bdd081c995cdbdb1d9959606a1b6044820152606401610421565b600b54600090610100900460ff1615610c4057600254600554604051627eeac760e11b81526000926001600160a01b03169162fdd58e91610b28913391600401612c7b565b602060405180830381865afa158015610b45573d6000803e3d6000fd5b505050506040513d601f19601f82011682018060405250810190610b699190612b6d565b905060008111610bb05760405162461bcd60e51b8152602060048201526012602482015271139bc8165154c81d1bdad95b9cc81a195b1960721b6044820152606401610421565b600954600c54610bc09083612caa565b610bca9190612cd7565b600254600554604051637a94c56560e11b81523360048201526024810191909152604481018490529193506001600160a01b03169063f5298aca90606401600060405180830381600087803b158015610c2257600080fd5b505af1158015610c36573d6000803e3d6000fd5b5050505050610d85565b600354600554604051627eeac760e11b81526000926001600160a01b03169162fdd58e91610c72913391600401612c7b565b602060405180830381865afa158015610c8f573d6000803e3d6000fd5b505050506040513d601f19601f82011682018060405250810190610cb39190612b6d565b905060008111610cf95760405162461bcd60e51b8152602060048201526011602482015270139bc81393c81d1bdad95b9cc81a195b19607a1b6044820152606401610421565b600a54600c54610d099083612caa565b610d139190612cd7565b600354600554604051637a94c56560e11b81523360048201526024810191909152604481018490529193506001600160a01b03169063f5298aca90606401600060405180830381600087803b158015610d6b57600080fd5b505af1158015610d7f573d6000803e3d6000fd5b50505050505b60015460405163a9059cbb60e01b81526001600160a01b039091169063a9059cbb90610db79033908590600401612c7b565b6020604051808303816000875af1158015610dd6573d6000803e3d6000fd5b505050506040513d601f19601f82011682018060405250810190610dfa9190612cf9565b610e375760405162461bcd60e51b815260206004820152600e60248201526d14185e5b595b9d0819985a5b195960921b6044820152606401610421565b60405181815233907f106f923f993c2149d49b4255ff723acafa1f2d94393f561d3eda32ae348f72419060200160405180910390a250565b600b5460ff1615610e925760405162461bcd60e51b815260040161042190612b86565b6007544210610eb35760405162461bcd60e51b815260040161042190612bb2565b600d54158015610ec35750600e54155b610f0f5760405162461bcd60e51b815260206004820152601d60248201527f4c697175696469747920616c726561647920696e697469616c697a65640000006044820152606401610421565b60025460055460405163731133e960e01b81526001600160a01b039092169163731133e991610f4e91309190683635c9adc5dea0000090600401612bdc565b600060405180830381600087803b158015610f6857600080fd5b505af1158015610f7c573d6000803e3d6000fd5b505060035460055460405163731133e960e01b81526001600160a01b03909216935063731133e99250610fbf91309190683635c9adc5dea0000090600401612bdc565b600060405180830381600087803b158015610fd957600080fd5b505af1158015610fed573d6000803e3d6000fd5b50505050611001683635c9adc5dea0000090565b600d55683635c9adc5dea00000600e55565b6001546040516370a0823160e01b81526001600160a01b03838116600483015260009283928392909116906370a0823190602401602060405180830381865afa158015611064573d6000803e3d6000fd5b505050506040513d601f19601f820116820180604052508101906110889190612b6d565b600254600554604051627eeac760e11b81529295506001600160a01b039091169162fdd58e916110bd91889190600401612c7b565b602060405180830381865afa1580156110da573d6000803e3d6000fd5b505050506040513d601f19601f820116820180604052508101906110fe9190612b6d565b600354600554604051627eeac760e11b81529294506001600160a01b039091169162fdd58e9161113391889190600401612c7b565b602060405180830381865afa158015611150573d6000803e3d6000fd5b505050506040513d601f19601f820116820180604052508101906111749190612b6d565b929491935050565b6111cf604051806101200160405280600081526020016060815260200160008152602001600081526020016000815260200160008152602001600015158152602001600015158152602001600081525090565b604080516101208101909152600580548252600680546020840191906111f490612c0c565b80601f016020809104026020016040519081016040528092919081815260200182805461122090612c0c565b801561126d5780601f106112425761010080835404028352916020019161126d565b820191906000526020600020905b81548152906001019060200180831161125057829003601f168201915b505050918352505060028201546020820152600382015460408201526004820154606082015260058201546080820152600682015460ff808216151560a084015261010090910416151560c082015260079091015460e090910152919050565b600b5460ff16156112f05760405162461bcd60e51b815260040161042190612b86565b60075442106113115760405162461bcd60e51b815260040161042190612bb2565b600081116113315760405162461bcd60e51b815260040161042190612c46565b600061133d838361091c565b9050821561140357600254600554604051627eeac760e11b815284926001600160a01b03169162fdd58e91611376913091600401612c7b565b602060405180830381865afa158015611393573d6000803e3d6000fd5b505050506040513d601f19601f820116820180604052508101906113b79190612b6d565b10156113fe5760405162461bcd60e51b8152602060048201526016602482015275496e73756666696369656e74206c697175696469747960501b6044820152606401610421565b6114bc565b600354600554604051627eeac760e11b815284926001600160a01b03169162fdd58e91611434913091600401612c7b565b602060405180830381865afa158015611451573d6000803e3d6000fd5b505050506040513d601f19601f820116820180604052508101906114759190612b6d565b10156114bc5760405162461bcd60e51b8152602060048201526016602482015275496e73756666696369656e74206c697175696469747960501b6044820152606401610421565b6001546001600160a01b03166323b872dd3330846040516001600160e01b031960e086901b1681526001600160a01b03938416600482015292909116602483015260448201526064016020604051808303816000875af1158015611524573d6000803e3d6000fd5b505050506040513d601f19601f820116820180604052508101906115489190612cf9565b6115855760405162461bcd60e51b815260206004820152600e60248201526d14185e5b595b9d0819985a5b195960921b6044820152606401610421565b82156115b157600d546115989083611c5f565b600d55816009546115a99190612d16565b6009556115d3565b600e546115be9083611c5f565b600e5581600a546115cf9190612d16565b600a555b816008546115e19190612d16565b600855821561165857600254600554604051637921219560e11b81526001600160a01b039092169163f242432a9161162191309133918890600401612d29565b600060405180830381600087803b15801561163b57600080fd5b505af115801561164f573d6000803e3d6000fd5b505050506116c2565b600354600554604051637921219560e11b81526001600160a01b039092169163f242432a9161168f91309133918890600401612d29565b600060405180830381600087803b1580156116a957600080fd5b505af11580156116bd573d6000803e3d6000fd5b505050505b337fe805dd394ca6de7643fb24d8241ca63ee56d2df6677a684406bfc2185d3dc7de6001856116f25760026116f5565b60015b856040805160ff94851681529390921660208401529082015260600160405180910390a2505050565b611726611b6b565b6001600160a01b03811661175057604051631e4fbdf760e01b815260006004820152602401610421565b61175981611b98565b50565b600b5460ff161561177f5760405162461bcd60e51b815260040161042190612b86565b60075442106117a05760405162461bcd60e51b815260040161042190612bb2565b600081116117c05760405162461bcd60e51b815260040161042190612c46565b60006117cc838361091c565b9050821561189057600254600554604051627eeac760e11b815284926001600160a01b03169162fdd58e91611805913391600401612c7b565b602060405180830381865afa158015611822573d6000803e3d6000fd5b505050506040513d601f19601f820116820180604052508101906118469190612b6d565b101561188b5760405162461bcd60e51b8152602060048201526014602482015273496e73756666696369656e742062616c616e636560601b6044820152606401610421565b611947565b600354600554604051627eeac760e11b815284926001600160a01b03169162fdd58e916118c1913391600401612c7b565b602060405180830381865afa1580156118de573d6000803e3d6000fd5b505050506040513d601f19601f820116820180604052508101906119029190612b6d565b10156119475760405162461bcd60e51b8152602060048201526014602482015273496e73756666696369656e742062616c616e636560601b6044820152606401610421565b821561197357600d5461195a9083611cb4565b600d558160095461196b9190612d61565b600955611995565b600e546119809083611cb4565b600e5581600a546119919190612d61565b600a555b816008546119a39190612d61565b6008558215611a1a57600254600554604051637921219560e11b81526001600160a01b039092169163f242432a916119e391339130918890600401612d29565b600060405180830381600087803b1580156119fd57600080fd5b505af1158015611a11573d6000803e3d6000fd5b50505050611a84565b600354600554604051637921219560e11b81526001600160a01b039092169163f242432a91611a5191339130918890600401612d29565b600060405180830381600087803b158015611a6b57600080fd5b505af1158015611a7f573d6000803e3d6000fd5b505050505b6001546001600160a01b031663a9059cbb33836040518363ffffffff1660e01b8152600401611ab4929190612c7b565b6020604051808303816000875af1158015611ad3573d6000803e3d6000fd5b505050506040513d601f19601f82011682018060405250810190611af79190612cf9565b611b3b5760405162461bcd60e51b815260206004820152601560248201527414995d1d5c9b881c185e5b595b9d0819985a5b1959605a1b6044820152606401610421565b337fe805dd394ca6de7643fb24d8241ca63ee56d2df6677a684406bfc2185d3dc7de6002856116f25760026116f5565b6000546001600160a01b0316331461074d5760405163118cdaa760e01b8152336004820152602401610421565b600080546001600160a01b038381166001600160a01b0319831681178455604051919092169283917f8be0079c531659141344cd1fd0a4f28419497f9722a3daafe3b4186f6b6457e09190a35050565b6000611c03611c0084670de0b6b3a764000085611cc3565b90565b9392505050565b600081680736ea4425c11ac630811115611c3a57604051630d7b1d6560e11b815260048101849052602401610421565b6714057b7ef767814f8102610914611c5a670de0b6b3a7640000835b0490565b611d96565b6000611c03611c008385612d16565b6000611c9f6714057b7ef767814f670de0b6b3a7640000611c91611c0086611dec565b0281611c5657611c56612cc1565b92915050565b6000611c03611c008484611f21565b6000611c03611c008385612d61565b6000808060001985870985870292508281108382030391505080600003611cfd57838281611cf357611cf3612cc1565b0492505050611c03565b838110611d2e57604051630c740aef60e31b8152600481018790526024810186905260448101859052606401610421565b600084868809600260036001881981018916988990049182028318808302840302808302840302808302840302808302840302808302840302918202909203026000889003889004909101858311909403939093029303949094049190911702949350505050565b600081680a688906bd8affffff811115611dc65760405163b3b6ba1f60e01b815260048101849052602401610421565b6000611dde670de0b6b3a7640000604084901b612cd7565b9050610914611c0082611fd7565b600081670de0b6b3a7640000811015611e1b5760405163036d32ef60e41b815260048101849052602401610421565b6000611ea7670de0b6b3a7640000830460016fffffffffffffffffffffffffffffffff821160071b91821c67ffffffffffffffff811160061b90811c63ffffffff811160051b90811c61ffff811160041b90811c60ff8111600390811b91821c600f811160021b90811c918211871b91821c969096119490961792909217171791909117919091171790565b9050670de0b6b3a7640000810282821c670de0b6b3a763ffff198101611ed05750949350505050565b671bc16d674ec800006706f05b59d3b200005b8015611f1357670de0b6b3a7640000838002049250818310611f0b579283019260019290921c915b60011c611ee3565b50825b979650505050505050565b6000808060001984860984860292508281108382030391505080600003611f555750670de0b6b3a764000090049050611c9f565b670de0b6b3a76400008110611f8757604051635173648d60e01b81526004810186905260248101859052604401610421565b6000670de0b6b3a764000085870962040000818503049310909103600160ee1b02919091177faccb18165bd6fe31ae1cf318dc5b51eee0e1ba569b88cd74c1773b91fac106690291505092915050565b600160bf1b67ff000000000000008216156120e45767800000000000000082161561200b5768016a09e667f3bcc9090260401c5b67400000000000000082161561202a576801306fe0a31b7152df0260401c5b672000000000000000821615612049576801172b83c7d517adce0260401c5b6710000000000000008216156120685768010b5586cf9890f62a0260401c5b670800000000000000821615612087576801059b0d31585743ae0260401c5b6704000000000000008216156120a657680102c9a3e778060ee70260401c5b6702000000000000008216156120c55768010163da9fb33356d80260401c5b6701000000000000008216156120e457680100b1afa5abcbed610260401c5b66ff0000000000008216156121e35766800000000000008216156121115768010058c86da1c09ea20260401c5b664000000000000082161561212f576801002c605e2e8cec500260401c5b662000000000000082161561214d57680100162f3904051fa10260401c5b661000000000000082161561216b576801000b175effdc76ba0260401c5b660800000000000082161561218957680100058ba01fb9f96d0260401c5b66040000000000008216156121a75768010002c5cc37da94920260401c5b66020000000000008216156121c5576801000162e525ee05470260401c5b66010000000000008216156121e35768010000b17255775c040260401c5b65ff00000000008216156122d9576580000000000082161561220e576801000058b91b5bc9ae0260401c5b6540000000000082161561222b57680100002c5c89d5ec6d0260401c5b652000000000008216156122485768010000162e43f4f8310260401c5b6510000000000082161561226557680100000b1721bcfc9a0260401c5b650800000000008216156122825768010000058b90cf1e6e0260401c5b6504000000000082161561229f576801000002c5c863b73f0260401c5b650200000000008216156122bc57680100000162e430e5a20260401c5b650100000000008216156122d9576801000000b1721835510260401c5b64ff000000008216156123c65764800000000082161561230257680100000058b90c0b490260401c5b64400000000082161561231e5768010000002c5c8601cc0260401c5b64200000000082161561233a576801000000162e42fff00260401c5b6410000000008216156123565768010000000b17217fbb0260401c5b640800000000821615612372576801000000058b90bfce0260401c5b64040000000082161561238e57680100000002c5c85fe30260401c5b6402000000008216156123aa5768010000000162e42ff10260401c5b6401000000008216156123c657680100000000b17217f80260401c5b63ff0000008216156124aa5763800000008216156123ed5768010000000058b90bfc0260401c5b6340000000821615612408576801000000002c5c85fe0260401c5b632000000082161561242357680100000000162e42ff0260401c5b631000000082161561243e576801000000000b17217f0260401c5b630800000082161561245957680100000000058b90c00260401c5b63040000008216156124745768010000000002c5c8600260401c5b630200000082161561248f576801000000000162e4300260401c5b63010000008216156124aa5768010000000000b172180260401c5b62ff000082161561258557628000008216156124cf576801000000000058b90c0260401c5b624000008216156124e957680100000000002c5c860260401c5b622000008216156125035768010000000000162e430260401c5b6210000082161561251d57680100000000000b17210260401c5b620800008216156125375768010000000000058b910260401c5b62040000821615612551576801000000000002c5c80260401c5b6202000082161561256b57680100000000000162e40260401c5b62010000821615612585576801000000000000b1720260401c5b61ff00821615612657576180008216156125a857680100000000000058b90260401c5b6140008216156125c15768010000000000002c5d0260401c5b6120008216156125da576801000000000000162e0260401c5b6110008216156125f35768010000000000000b170260401c5b61080082161561260c576801000000000000058c0260401c5b61040082161561262557680100000000000002c60260401c5b61020082161561263e57680100000000000001630260401c5b61010082161561265757680100000000000000b10260401c5b60ff82161561272057608082161561267857680100000000000000590260401c5b6040821615612690576801000000000000002c0260401c5b60208216156126a857680100000000000000160260401c5b60108216156126c0576801000000000000000b0260401c5b60088216156126d857680100000000000000060260401c5b60048216156126f057680100000000000000030260401c5b600282161561270857680100000000000000010260401c5b600182161561272057680100000000000000010260401c5b670de0b6b3a76400000260409190911c60bf031c90565b60006020828403121561274957600080fd5b81356001600160e01b031981168114611c0357600080fd5b80356001600160a01b038116811461277857600080fd5b919050565b60006020828403121561278f57600080fd5b611c0382612761565b6000602082840312156127aa57600080fd5b5035919050565b6000815180845260005b818110156127d7576020818501810151868301820152016127bb565b506000602082860101526020601f19601f83011685010191505092915050565b60006101208b83528060208401526128118184018c6127b1565b604084019a909a5250506060810196909652608086019490945260a0850192909252151560c0840152151560e08301526101009091015292915050565b801515811461175957600080fd5b60006020828403121561286e57600080fd5b8135611c038161284e565b6000806040838503121561288c57600080fd5b82356128978161284e565b946020939093013593505050565b634e487b7160e01b600052604160045260246000fd5b604051601f8201601f1916810167ffffffffffffffff811182821017156128e4576128e46128a5565b604052919050565b600082601f8301126128fd57600080fd5b8135602067ffffffffffffffff821115612919576129196128a5565b8160051b6129288282016128bb565b928352848101820192828101908785111561294257600080fd5b83870192505b84831015611f1657823582529183019190830190612948565b600082601f83011261297257600080fd5b813567ffffffffffffffff81111561298c5761298c6128a5565b61299f601f8201601f19166020016128bb565b8181528460208386010111156129b457600080fd5b816020850160208301376000918101602001919091529392505050565b600080600080600060a086880312156129e957600080fd5b6129f286612761565b9450612a0060208701612761565b9350604086013567ffffffffffffffff80821115612a1d57600080fd5b612a2989838a016128ec565b94506060880135915080821115612a3f57600080fd5b612a4b89838a016128ec565b93506080880135915080821115612a6157600080fd5b50612a6e88828901612961565b9150509295509295909350565b602081528151602082015260006020830151610120806040850152612aa46101408501836127b1565b91506040850151606085015260608501516080850152608085015160a085015260a085015160c085015260c0850151612ae160e086018215159052565b5060e0850151610100612af78187018315159052565b959095015193019290925250919050565b600080600080600060a08688031215612b2057600080fd5b612b2986612761565b9450612b3760208701612761565b93506040860135925060608601359150608086013567ffffffffffffffff811115612b6157600080fd5b612a6e88828901612961565b600060208284031215612b7f57600080fd5b5051919050565b60208082526012908201527113585c9ad95d081a5cc81c995cdbdb1d995960721b604082015260600190565b60208082526010908201526f13585c9ad95d081a185cc8195b99195960821b604082015260600190565b6001600160a01b039390931683526020830191909152604082015260806060820181905260009082015260a00190565b600181811c90821680612c2057607f821691505b602082108103612c4057634e487b7160e01b600052602260045260246000fd5b50919050565b6020808252818101527f416d6f756e74206d7573742062652067726561746572207468616e207a65726f604082015260600190565b6001600160a01b03929092168252602082015260400190565b634e487b7160e01b600052601160045260246000fd5b8082028115828204841417611c9f57611c9f612c94565b634e487b7160e01b600052601260045260246000fd5b600082612cf457634e487b7160e01b600052601260045260246000fd5b500490565b600060208284031215612d0b57600080fd5b8151611c038161284e565b80820180821115611c9f57611c9f612c94565b6001600160a01b0394851681529290931660208301526040820152606081019190915260a06080820181905260009082015260c00190565b81810381811115611c9f57611c9f612c9456fea264697066735822122014559b2be3ba72bad242a6b0065c658641b9bbfbcf106617f1abbfee0acf492864736f6c63430008180033a2646970667358221220dabc53a0e4519446f84da8e13541072bd1aeb7ec4a0e81329cb910d79d7e579064736f6c63430008180033",
  "linkReferences": {},
  "deployedLinkReferences": {}
}