{
  "_format": "hh-sol-artifact-1",
  "contractName": "RadishCore",
  "sourceName": "contracts/RadishCore.sol",
  "abi": [
    {
      "inputs": [
        {
          "internalType": "address",
          "name": "_priceToken",
          "type": "address"
        },
        {
          "internalType": "address",
          "name": "_yesToken",
          "type": "address"
        },
        {
          "internalType": "address",
          "name": "_noToken",
          "type": "address"
        }
      ],
      "stateMutability": "nonpayable",
      "type": "constructor"
    },
    {
      "inputs": [
        {
          "internalType": "address",
          "name": "owner",
          "type": "address"
        }
      ],
      "name": "OwnableInvalidOwner",
      "type": "error"
    },
    {
      "inputs": [
        {
          "internalType": "address",
          "name": "account",
          "type": "address"
        }
      ],
      "name": "OwnableUnauthorizedAccount",
      "type": "error"
    },
    {
      "anonymous": false,
      "inputs": [
        {
          "indexed": false,
          "internalType": "uint256",
          "name": "id",
          "type": "uint256"
        },
        {
          "indexed": false,
          "internalType": "string",
          "name": "question",
          "type": "string"
        },
        {
          "indexed": false,
          "internalType": "uint256",
          "name": "endTime",
          "type": "uint256"
        },
        {
          "indexed": false,
          "internalType": "address",
          "name": "marketContract",
          "type": "address"
        },
        {
          "indexed": false,
          "internalType": "address",
          "name": "priceToken",
          "type": "address"
        },
        {
          "indexed": false,
          "internalType": "address",
          "name": "yesToken",
          "type": "address"
        },
        {
          "indexed": false,
          "internalType": "address",
          "name": "noToken",
          "type": "address"
        }
      ],
      "name": "MarketCreated",
      "type": "event"
    },
    {
      "anonymous": false,
      "inputs": [
        {
          "indexed": true,
          "internalType": "address",
          "name": "previousOwner",
          "type": "address"
        },
        {
          "indexed": true,
          "internalType": "address",
          "name": "newOwner",
          "type": "address"
        }
      ],
      "name": "OwnershipTransferred",
      "type": "event"
    },
    {
      "inputs": [
        {
          "internalType": "string",
          "name": "_question",
          "type": "string"
        },
        {
          "internalType": "uint256",
          "name": "_endtime",
          "type": "uint256"
        }
      ],
      "name": "createMarket",
      "outputs": [],
      "stateMutability": "nonpayable",
      "type": "function"
    },
    {
      "inputs": [],
      "name": "marketCount",
      "outputs": [
        {
          "internalType": "uint256",
          "name": "",
          "type": "uint256"
        }
      ],
      "stateMutability": "view",
      "type": "function"
    },
    {
      "inputs": [],
      "name": "noToken",
      "outputs": [
        {
          "internalType": "address",
          "name": "",
          "type": "address"
        }
      ],
      "stateMutability": "view",
      "type": "function"
    },
    {
      "inputs": [],
      "name": "noTokenContract",
      "outputs": [
        {
          "internalType": "contract NoToken",
          "name": "",
          "type": "address"
        }
      ],
      "stateMutability": "view",
      "type": "function"
    },
    {
      "inputs": [],
      "name": "owner",
      "outputs": [
        {
          "internalType": "address",
          "name": "",
          "type": "address"
        }
      ],
      "stateMutability": "view",
      "type": "function"
    },
    {
      "inputs": [],
      "name": "priceToken",
      "outputs": [
        {
          "internalType": "address",
          "name": "",
          "type": "address"
        }
      ],
      "stateMutability": "view",
      "type": "function"
    },
    {
      "inputs": [],
      "name": "renounceOwnership",
      "outputs": [],
      "stateMutability": "nonpayable",
      "type": "function"
    },
    {
      "inputs": [
        {
          "internalType": "address",
          "name": "_noToken",
          "type": "address"
        }
      ],
      "name": "setNoToken",
      "outputs": [],
      "stateMutability": "nonpayable",
      "type": "function"
    },
    {
      "inputs": [
        {
          "internalType": "address",
          "name": "_priceToken",
          "type": "address"
        }
      ],
      "name": "setPriceToken",
      "outputs": [],
      "stateMutability": "nonpayable",
      "type": "function"
    },
    {
      "inputs": [
        {
          "internalType": "address",
          "name": "_yesToken",
          "type": "address"
        }
      ],
      "name": "setYesToken",
      "outputs": [],
      "stateMutability": "nonpayable",
      "type": "function"
    },
    {
      "inputs": [
        {
          "internalType": "address",
          "name": "newOwner",
          "type": "address"
        }
      ],
      "name": "transferOwnership",
      "outputs": [],
      "stateMutability": "nonpayable",
      "type": "function"
    },
    {
      "inputs": [],
      "name": "yesToken",
      "outputs": [
        {
          "internalType": "address",
          "name": "",
          "type": "address"
        }
      ],
      "stateMutability": "view",
      "type": "function"
    },
    {
      "inputs": [],
      "name": "yesTokenContract",
      "outputs": [
        {
          "internalType": "contract YesToken",
          "name": "",
          "type": "address"
        }
      ],
      "stateMutability": "view",
      "type": "function"
    }
  ],
  "bytecode": "0x608060405234801561001057600080fd5b50604051613c67380380613c6783398101604081905261002f91610128565b338061005557604051631e4fbdf760e01b81526000600482015260240160405180910390fd5b61005e816100bc565b506000600155600280546001600160a01b039485166001600160a01b0319918216179091556003805493851693821684179055600480549290941691811682179093556005805484169092179091556006805490921617905561016b565b600080546001600160a01b038381166001600160a01b0319831681178455604051919092169283917f8be0079c531659141344cd1fd0a4f28419497f9722a3daafe3b4186f6b6457e09190a35050565b80516001600160a01b038116811461012357600080fd5b919050565b60008060006060848603121561013d57600080fd5b6101468461010c565b92506101546020850161010c565b91506101626040850161010c565b90509250925092565b613aed8061017a6000396000f3fe60806040523480156200001157600080fd5b5060043610620000e05760003560e01c8063883c84c11162000097578063dea3bbba116200006e578063dea3bbba14620001b8578063ec97908214620001cc578063f0d9bb2014620001e5578063f2fde38b14620001f957600080fd5b8063883c84c1146200017b5780638da5cb5b1462000192578063c2c22e8d14620001a457600080fd5b806311a9f10a14620000e55780632ff6fe761462000116578063411092e3146200012a57806344e6a6a014620001435780637117f008146200015a578063715018a61462000171575b600080fd5b600454620000f9906001600160a01b031681565b6040516001600160a01b0390911681526020015b60405180910390f35b600254620000f9906001600160a01b031681565b620001416200013b3660046200058d565b62000210565b005b62000141620001543660046200058d565b6200023c565b620001416200016b3660046200058d565b62000268565b6200014162000294565b620001416200018c366004620005d5565b620002ac565b6000546001600160a01b0316620000f9565b600654620000f9906001600160a01b031681565b600554620000f9906001600160a01b031681565b620001d660015481565b6040519081526020016200010d565b600354620000f9906001600160a01b031681565b620001416200020a3660046200058d565b620004b8565b6200021a62000500565b600280546001600160a01b0319166001600160a01b0392909216919091179055565b6200024662000500565b600480546001600160a01b0319166001600160a01b0392909216919091179055565b6200027262000500565b600380546001600160a01b0319166001600160a01b0392909216919091179055565b6200029e62000500565b620002aa60006200052f565b565b6002546003546004546001546040516000946001600160a01b0390811694811693169190879087903390620002e1906200057f565b620002f39796959493929190620006dc565b604051809103906000f08015801562000310573d6000803e3d6000fd5b50600554600154604051632ed0b1a360e11b815260048101919091526001600160a01b038084166024830152929350911690635da1634690604401600060405180830381600087803b1580156200036657600080fd5b505af11580156200037b573d6000803e3d6000fd5b5050600654600154604051632ed0b1a360e11b815260048101919091526001600160a01b0385811660248301529091169250635da163469150604401600060405180830381600087803b158015620003d257600080fd5b505af1158015620003e7573d6000803e3d6000fd5b50505050806001600160a01b031663bf4bdb276040518163ffffffff1660e01b8152600401600060405180830381600087803b1580156200042757600080fd5b505af11580156200043c573d6000803e3d6000fd5b50506001546002546003546004546040517f122b735edcaf1efda6417f6f315f90a3333de74b5d23cc2b3706b059e65f09ae96506200049495508993899389936001600160a01b039283169391831692169062000732565b60405180910390a160018054906000620004ae8362000785565b9190505550505050565b620004c262000500565b6001600160a01b038116620004f257604051631e4fbdf760e01b8152600060048201526024015b60405180910390fd5b620004fd816200052f565b50565b6000546001600160a01b03163314620002aa5760405163118cdaa760e01b8152336004820152602401620004e9565b600080546001600160a01b038381166001600160a01b0319831681178455604051919092169283917f8be0079c531659141344cd1fd0a4f28419497f9722a3daafe3b4186f6b6457e09190a35050565b61330a80620007ae83390190565b600060208284031215620005a057600080fd5b81356001600160a01b0381168114620005b857600080fd5b9392505050565b634e487b7160e01b600052604160045260246000fd5b60008060408385031215620005e957600080fd5b823567ffffffffffffffff808211156200060257600080fd5b818501915085601f8301126200061757600080fd5b8135818111156200062c576200062c620005bf565b604051601f8201601f19908116603f01168101908382118183101715620006575762000657620005bf565b816040528281528860208487010111156200067157600080fd5b826020860160208301376000602093820184015298969091013596505050505050565b6000815180845260005b81811015620006bc576020818501810151868301820152016200069e565b506000602082860101526020601f19601f83011685010191505092915050565b600060018060a01b03808a1683528089166020840152808816604084015286606084015260e060808401526200071660e084018762000694565b60a08401959095529290921660c0909101525095945050505050565b87815260e0602082015260006200074d60e083018962000694565b6040830197909752506001600160a01b039485166060820152928416608084015290831660a083015290911660c09091015292915050565b600060018201620007a657634e487b7160e01b600052601160045260246000fd5b506001019056fe60c06040526000600d556000600e553480156200001b57600080fd5b506040516200330a3803806200330a8339810160408190526200003e916200022b565b806001600160a01b0381166200006e57604051631e4fbdf760e01b81526000600482015260240160405180910390fd5b6200007981620001a8565b50670de0b6b3a7640000608052678ac7230489e8000060a0908152600180546001600160a01b03808b166001600160a01b031992831617909255600280548a84169083161790556003805489841690831617905560048054928516929091169190911790556040805161012081018252868152602081018690529081018490526000606082018190526080820181905291810182905260c0810182905260e0810182905261010081019190915260058581556006620001398682620003ef565b5060408201516002820155606082015160038201556080820151600482015560a0820151600582015560c082015160068201805460e085015161ffff1990911692151561ff0019169290921761010092151583021790559091015160079091015550620004bb95505050505050565b600080546001600160a01b038381166001600160a01b0319831681178455604051919092169283917f8be0079c531659141344cd1fd0a4f28419497f9722a3daafe3b4186f6b6457e09190a35050565b80516001600160a01b03811681146200021057600080fd5b919050565b634e487b7160e01b600052604160045260246000fd5b600080600080600080600060e0888a0312156200024757600080fd5b6200025288620001f8565b9650602062000263818a01620001f8565b96506200027360408a01620001f8565b60608a015160808b015191975095506001600160401b03808211156200029857600080fd5b818b0191508b601f830112620002ad57600080fd5b815181811115620002c257620002c262000215565b604051601f8201601f19908116603f01168101908382118183101715620002ed57620002ed62000215565b816040528281528e868487010111156200030657600080fd5b600093505b828410156200032a57848401860151818501870152928501926200030b565b600086848301015280985050505050505060a088015191506200035060c08901620001f8565b905092959891949750929550565b600181811c908216806200037357607f821691505b6020821081036200039457634e487b7160e01b600052602260045260246000fd5b50919050565b601f821115620003ea576000816000526020600020601f850160051c81016020861015620003c55750805b601f850160051c820191505b81811015620003e657828155600101620003d1565b5050505b505050565b81516001600160401b038111156200040b576200040b62000215565b62000423816200041c84546200035e565b846200039a565b602080601f8311600181146200045b5760008415620004425750858301515b600019600386901b1c1916600185901b178555620003e6565b600085815260208120601f198616915b828110156200048c578886015182559484019460019091019084016200046b565b5085821015620004ab5787850151600019600388901b60f8161c191681555b5050505050600190811b01905550565b60805160a051612df4620005166000396000818161086b015281816108ad015281816108ec0152818161092401528181610991015281816109c801528181610a0801528181610a400152610a92015260005050612df46000f3fe608060405234801561001057600080fd5b50600436106101735760003560e01c80638da5cb5b116100de578063c84aae1711610097578063f0d9bb2011610071578063f0d9bb2014610367578063f23a6e611461037a578063f2fde38b14610399578063f571c5f3146103ac57600080fd5b8063c84aae1714610311578063d81657431461033f578063e24c469b1461035457600080fd5b80638da5cb5b1461029c578063a4d75065146102ad578063b88a802f146102c0578063bc197c81146102c8578063bf4bdb2714610300578063bfc596011461030857600080fd5b80634e543b26116101305780634e543b261461022357806351c6590a146102365780635bea241014610249578063715018a61461026457806380f556051461026c5780638b74b9ab1461028957600080fd5b806301ffc9a71461017857806304f3bcec146101b157806311a9f10a146101dc5780632810e1d6146101ef5780632acf1cd2146101f95780632ff6fe7614610210575b600080fd5b61019c610186366004612781565b6001600160e01b031916630271189760e51b1490565b60405190151581526020015b60405180910390f35b6004546101c4906001600160a01b031681565b6040516001600160a01b0390911681526020016101a8565b6003546101c4906001600160a01b031681565b6101f76103bf565b005b610202600e5481565b6040519081526020016101a8565b6001546101c4906001600160a01b031681565b6101f76102313660046127c7565b6105a2565b6101f76102443660046127e2565b610622565b600d54600e54604080519283526020830191909152016101a8565b6101f761077c565b610274610790565b6040516101a899989796959493929190612841565b6102026102973660046128a6565b61085b565b6000546001600160a01b03166101c4565b6102026102bb3660046128c3565b61095d565b6101f7610adc565b6102e76102d6366004612a1b565b63bc197c8160e01b95945050505050565b6040516001600160e01b031990911681526020016101a8565b6101f7610ead565b610202600d5481565b61032461031f3660046127c7565b611051565b604080519384526020840192909252908201526060016101a8565b6103476111ba565b6040516101a89190612ac5565b6101f76103623660046128c3565b61130b565b6002546101c4906001600160a01b031681565b6102e7610388366004612b52565b63f23a6e6160e01b95945050505050565b6101f76103a73660046127c7565b611765565b6101f76103ba3660046128c3565b6117a3565b6004546001600160a01b0316331461042a5760405162461bcd60e51b8152602060048201526024808201527f4f6e6c79207265736f6c7665722063616e2063616c6c20746869732066756e636044820152633a34b7b760e11b60648201526084015b60405180910390fd5b6007544210156104735760405162461bcd60e51b815260206004820152601460248201527313585c9ad95d081a185cc81b9bdd08195b99195960621b6044820152606401610421565b600b5460ff16156104c65760405162461bcd60e51b815260206004820152601760248201527f4d61726b657420616c7265616479207265736f6c7665640000000000000000006044820152606401610421565b600b8054600a54600954116101000261ffff19909116176001908117909155546040516370a0823160e01b81523060048201526001600160a01b03909116906370a0823190602401602060405180830381865afa15801561052b573d6000803e3d6000fd5b505050506040513d601f19601f8201168201806040525081019061054f9190612bb7565b600c819055600554600b546040805161010090920460ff1615158252602082019390935290917f6d4d544f5a6dcf38d77a232d3ef7358625c74877a1ad954fcb507872e7a05eaf910160405180910390a2565b6105aa611bb5565b6001600160a01b0381166106005760405162461bcd60e51b815260206004820152601860248201527f496e76616c6964207265736f6c766572206164647265737300000000000000006044820152606401610421565b600480546001600160a01b0319166001600160a01b0392909216919091179055565b61062a611bb5565b600b5460ff161561064d5760405162461bcd60e51b815260040161042190612bd0565b600754421061066e5760405162461bcd60e51b815260040161042190612bfc565b60025460055460405163731133e960e01b81526001600160a01b039092169163731133e9916106a4913091908690600401612c26565b600060405180830381600087803b1580156106be57600080fd5b505af11580156106d2573d6000803e3d6000fd5b505060035460055460405163731133e960e01b81526001600160a01b03909216935063731133e9925061070c913091908690600401612c26565b600060405180830381600087803b15801561072657600080fd5b505af115801561073a573d6000803e3d6000fd5b50506005546040518481529092503391507f887347ac04562534273a2a8207259a0bb181c3c071511421f05370ad9e662669906020015b60405180910390a350565b610784611bb5565b61078e6000611be2565b565b60058054600680549192916107a490612c56565b80601f01602080910402602001604051908101604052809291908181526020018280546107d090612c56565b801561081d5780601f106107f25761010080835404028352916020019161081d565b820191906000526020600020905b81548152906001019060200180831161080057829003601f168201915b50505060028401546003850154600486015460058701546006880154600790980154969793969295509093509160ff80821692610100909204169089565b60008060006108d76108a061089b7f0000000000000000000000000000000000000000000000000000000000000000600e54611c3290919063ffffffff16565b611c54565b600d546108d19061089b907f0000000000000000000000000000000000000000000000000000000000000000611c32565b90611ca9565b9050831561091757600d546109109061089b907f0000000000000000000000000000000000000000000000000000000000000000611c32565b915061094b565b600e546109489061089b907f0000000000000000000000000000000000000000000000000000000000000000611c32565b91505b6109558282611c32565b949350505050565b600080821161097e5760405162461bcd60e51b815260040161042190612c90565b60006109ed6109c66109c16108a061089b7f0000000000000000000000000000000000000000000000000000000000000000600e54611c3290919063ffffffff16565b611cb8565b7f000000000000000000000000000000000000000000000000000000000000000090611cef565b905060008415610a8157610a7a6109c66109c1610a3861089b7f0000000000000000000000000000000000000000000000000000000000000000600e54611c3290919063ffffffff16565b6108d161089b7f0000000000000000000000000000000000000000000000000000000000000000610a748b600d54611ca990919063ffffffff16565b90611c32565b9050610ac9565b610ac66109c66109c16108a061089b7f0000000000000000000000000000000000000000000000000000000000000000610a748a600e54611ca990919063ffffffff16565b90505b610ad38183611cfe565b95945050505050565b600b5460ff16610b245760405162461bcd60e51b815260206004820152601360248201527213585c9ad95d081b9bdd081c995cdbdb1d9959606a1b6044820152606401610421565b600b54600090610100900460ff1615610c8157600254600554604051627eeac760e11b81526000926001600160a01b03169162fdd58e91610b69913391600401612cc5565b602060405180830381865afa158015610b86573d6000803e3d6000fd5b505050506040513d601f19601f82011682018060405250810190610baa9190612bb7565b905060008111610bf15760405162461bcd60e51b8152602060048201526012602482015271139bc8165154c81d1bdad95b9cc81a195b1960721b6044820152606401610421565b600954600c54610c019083612cf4565b610c0b9190612d21565b600254600554604051637a94c56560e11b81523360048201526024810191909152604481018490529193506001600160a01b03169063f5298aca90606401600060405180830381600087803b158015610c6357600080fd5b505af1158015610c77573d6000803e3d6000fd5b5050505050610dc6565b600354600554604051627eeac760e11b81526000926001600160a01b03169162fdd58e91610cb3913391600401612cc5565b602060405180830381865afa158015610cd0573d6000803e3d6000fd5b505050506040513d601f19601f82011682018060405250810190610cf49190612bb7565b905060008111610d3a5760405162461bcd60e51b8152602060048201526011602482015270139bc81393c81d1bdad95b9cc81a195b19607a1b6044820152606401610421565b600a54600c54610d4a9083612cf4565b610d549190612d21565b600354600554604051637a94c56560e11b81523360048201526024810191909152604481018490529193506001600160a01b03169063f5298aca90606401600060405180830381600087803b158015610dac57600080fd5b505af1158015610dc0573d6000803e3d6000fd5b50505050505b60015460405163a9059cbb60e01b81526001600160a01b039091169063a9059cbb90610df89033908590600401612cc5565b6020604051808303816000875af1158015610e17573d6000803e3d6000fd5b505050506040513d601f19601f82011682018060405250810190610e3b9190612d43565b610e785760405162461bcd60e51b815260206004820152600e60248201526d14185e5b595b9d0819985a5b195960921b6044820152606401610421565b60055460405182815233907ff01da32686223933d8a18a391060918c7f11a3648639edd87ae013e2e273174390602001610771565b600b5460ff1615610ed05760405162461bcd60e51b815260040161042190612bd0565b6007544210610ef15760405162461bcd60e51b815260040161042190612bfc565b600d54158015610f015750600e54155b610f4d5760405162461bcd60e51b815260206004820152601d60248201527f4c697175696469747920616c726561647920696e697469616c697a65640000006044820152606401610421565b60025460055460405163731133e960e01b81526001600160a01b039092169163731133e991610f8c91309190683635c9adc5dea0000090600401612c26565b600060405180830381600087803b158015610fa657600080fd5b505af1158015610fba573d6000803e3d6000fd5b505060035460055460405163731133e960e01b81526001600160a01b03909216935063731133e99250610ffd91309190683635c9adc5dea0000090600401612c26565b600060405180830381600087803b15801561101757600080fd5b505af115801561102b573d6000803e3d6000fd5b5050505061103f683635c9adc5dea0000090565b600d55683635c9adc5dea00000600e55565b6001546040516370a0823160e01b81526001600160a01b03838116600483015260009283928392909116906370a0823190602401602060405180830381865afa1580156110a2573d6000803e3d6000fd5b505050506040513d601f19601f820116820180604052508101906110c69190612bb7565b600254600554604051627eeac760e11b81529295506001600160a01b039091169162fdd58e916110fb91889190600401612cc5565b602060405180830381865afa158015611118573d6000803e3d6000fd5b505050506040513d601f19601f8201168201806040525081019061113c9190612bb7565b600354600554604051627eeac760e11b81529294506001600160a01b039091169162fdd58e9161117191889190600401612cc5565b602060405180830381865afa15801561118e573d6000803e3d6000fd5b505050506040513d601f19601f820116820180604052508101906111b29190612bb7565b929491935050565b61120d604051806101200160405280600081526020016060815260200160008152602001600081526020016000815260200160008152602001600015158152602001600015158152602001600081525090565b6040805161012081019091526005805482526006805460208401919061123290612c56565b80601f016020809104026020016040519081016040528092919081815260200182805461125e90612c56565b80156112ab5780601f10611280576101008083540402835291602001916112ab565b820191906000526020600020905b81548152906001019060200180831161128e57829003601f168201915b505050918352505060028201546020820152600382015460408201526004820154606082015260058201546080820152600682015460ff808216151560a084015261010090910416151560c082015260079091015460e090910152919050565b600b5460ff161561132e5760405162461bcd60e51b815260040161042190612bd0565b600754421061134f5760405162461bcd60e51b815260040161042190612bfc565b6000811161136f5760405162461bcd60e51b815260040161042190612c90565b600061137b838361095d565b9050821561144157600254600554604051627eeac760e11b815284926001600160a01b03169162fdd58e916113b4913091600401612cc5565b602060405180830381865afa1580156113d1573d6000803e3d6000fd5b505050506040513d601f19601f820116820180604052508101906113f59190612bb7565b101561143c5760405162461bcd60e51b8152602060048201526016602482015275496e73756666696369656e74206c697175696469747960501b6044820152606401610421565b6114fa565b600354600554604051627eeac760e11b815284926001600160a01b03169162fdd58e91611472913091600401612cc5565b602060405180830381865afa15801561148f573d6000803e3d6000fd5b505050506040513d601f19601f820116820180604052508101906114b39190612bb7565b10156114fa5760405162461bcd60e51b8152602060048201526016602482015275496e73756666696369656e74206c697175696469747960501b6044820152606401610421565b6001546001600160a01b03166323b872dd3330846040516001600160e01b031960e086901b1681526001600160a01b03938416600482015292909116602483015260448201526064016020604051808303816000875af1158015611562573d6000803e3d6000fd5b505050506040513d601f19601f820116820180604052508101906115869190612d43565b6115c35760405162461bcd60e51b815260206004820152600e60248201526d14185e5b595b9d0819985a5b195960921b6044820152606401610421565b82156115ef57600d546115d69083611ca9565b600d55816009546115e79190612d60565b600955611611565b600e546115fc9083611ca9565b600e5581600a5461160d9190612d60565b600a555b8160085461161f9190612d60565b600855821561169657600254600554604051637921219560e11b81526001600160a01b039092169163f242432a9161165f91309133918890600401612d73565b600060405180830381600087803b15801561167957600080fd5b505af115801561168d573d6000803e3d6000fd5b50505050611700565b600354600554604051637921219560e11b81526001600160a01b039092169163f242432a916116cd91309133918890600401612d73565b600060405180830381600087803b1580156116e757600080fd5b505af11580156116fb573d6000803e3d6000fd5b505050505b600554337ff812a30160cd1fb46386678219b1c28ddc923c9b3a18805e38c090fd7b41bb71600186611733576002611736565b60015b86866040805160ff958616815294909316602085015291830152606082015260800160405180910390a3505050565b61176d611bb5565b6001600160a01b03811661179757604051631e4fbdf760e01b815260006004820152602401610421565b6117a081611be2565b50565b600b5460ff16156117c65760405162461bcd60e51b815260040161042190612bd0565b60075442106117e75760405162461bcd60e51b815260040161042190612bfc565b600081116118075760405162461bcd60e51b815260040161042190612c90565b6000611813838361095d565b905082156118d757600254600554604051627eeac760e11b815284926001600160a01b03169162fdd58e9161184c913391600401612cc5565b602060405180830381865afa158015611869573d6000803e3d6000fd5b505050506040513d601f19601f8201168201806040525081019061188d9190612bb7565b10156118d25760405162461bcd60e51b8152602060048201526014602482015273496e73756666696369656e742062616c616e636560601b6044820152606401610421565b61198e565b600354600554604051627eeac760e11b815284926001600160a01b03169162fdd58e91611908913391600401612cc5565b602060405180830381865afa158015611925573d6000803e3d6000fd5b505050506040513d601f19601f820116820180604052508101906119499190612bb7565b101561198e5760405162461bcd60e51b8152602060048201526014602482015273496e73756666696369656e742062616c616e636560601b6044820152606401610421565b82156119ba57600d546119a19083611cfe565b600d55816009546119b29190612dab565b6009556119dc565b600e546119c79083611cfe565b600e5581600a546119d89190612dab565b600a555b816008546119ea9190612dab565b6008558215611a6157600254600554604051637921219560e11b81526001600160a01b039092169163f242432a91611a2a91339130918890600401612d73565b600060405180830381600087803b158015611a4457600080fd5b505af1158015611a58573d6000803e3d6000fd5b50505050611acb565b600354600554604051637921219560e11b81526001600160a01b039092169163f242432a91611a9891339130918890600401612d73565b600060405180830381600087803b158015611ab257600080fd5b505af1158015611ac6573d6000803e3d6000fd5b505050505b6001546001600160a01b031663a9059cbb33836040518363ffffffff1660e01b8152600401611afb929190612cc5565b6020604051808303816000875af1158015611b1a573d6000803e3d6000fd5b505050506040513d601f19601f82011682018060405250810190611b3e9190612d43565b611b825760405162461bcd60e51b815260206004820152601560248201527414995d1d5c9b881c185e5b595b9d0819985a5b1959605a1b6044820152606401610421565b600554337ff812a30160cd1fb46386678219b1c28ddc923c9b3a18805e38c090fd7b41bb71600286611733576002611736565b6000546001600160a01b0316331461078e5760405163118cdaa760e01b8152336004820152602401610421565b600080546001600160a01b038381166001600160a01b0319831681178455604051919092169283917f8be0079c531659141344cd1fd0a4f28419497f9722a3daafe3b4186f6b6457e09190a35050565b6000611c4d611c4a84670de0b6b3a764000085611d0d565b90565b9392505050565b600081680736ea4425c11ac630811115611c8457604051630d7b1d6560e11b815260048101849052602401610421565b6714057b7ef767814f8102610955611ca4670de0b6b3a7640000835b0490565b611de0565b6000611c4d611c4a8385612d60565b6000611ce96714057b7ef767814f670de0b6b3a7640000611cdb611c4a86611e36565b0281611ca057611ca0612d0b565b92915050565b6000611c4d611c4a8484611f6b565b6000611c4d611c4a8385612dab565b6000808060001985870985870292508281108382030391505080600003611d4757838281611d3d57611d3d612d0b565b0492505050611c4d565b838110611d7857604051630c740aef60e31b8152600481018790526024810186905260448101859052606401610421565b600084868809600260036001881981018916988990049182028318808302840302808302840302808302840302808302840302808302840302918202909203026000889003889004909101858311909403939093029303949094049190911702949350505050565b600081680a688906bd8affffff811115611e105760405163b3b6ba1f60e01b815260048101849052602401610421565b6000611e28670de0b6b3a7640000604084901b612d21565b9050610955611c4a82612021565b600081670de0b6b3a7640000811015611e655760405163036d32ef60e41b815260048101849052602401610421565b6000611ef1670de0b6b3a7640000830460016fffffffffffffffffffffffffffffffff821160071b91821c67ffffffffffffffff811160061b90811c63ffffffff811160051b90811c61ffff811160041b90811c60ff8111600390811b91821c600f811160021b90811c918211871b91821c969096119490961792909217171791909117919091171790565b9050670de0b6b3a7640000810282821c670de0b6b3a763ffff198101611f1a5750949350505050565b671bc16d674ec800006706f05b59d3b200005b8015611f5d57670de0b6b3a7640000838002049250818310611f55579283019260019290921c915b60011c611f2d565b50825b979650505050505050565b6000808060001984860984860292508281108382030391505080600003611f9f5750670de0b6b3a764000090049050611ce9565b670de0b6b3a76400008110611fd157604051635173648d60e01b81526004810186905260248101859052604401610421565b6000670de0b6b3a764000085870962040000818503049310909103600160ee1b02919091177faccb18165bd6fe31ae1cf318dc5b51eee0e1ba569b88cd74c1773b91fac106690291505092915050565b600160bf1b67ff0000000000000082161561212e576780000000000000008216156120555768016a09e667f3bcc9090260401c5b674000000000000000821615612074576801306fe0a31b7152df0260401c5b672000000000000000821615612093576801172b83c7d517adce0260401c5b6710000000000000008216156120b25768010b5586cf9890f62a0260401c5b6708000000000000008216156120d1576801059b0d31585743ae0260401c5b6704000000000000008216156120f057680102c9a3e778060ee70260401c5b67020000000000000082161561210f5768010163da9fb33356d80260401c5b67010000000000000082161561212e57680100b1afa5abcbed610260401c5b66ff00000000000082161561222d57668000000000000082161561215b5768010058c86da1c09ea20260401c5b6640000000000000821615612179576801002c605e2e8cec500260401c5b662000000000000082161561219757680100162f3904051fa10260401c5b66100000000000008216156121b5576801000b175effdc76ba0260401c5b66080000000000008216156121d357680100058ba01fb9f96d0260401c5b66040000000000008216156121f15768010002c5cc37da94920260401c5b660200000000000082161561220f576801000162e525ee05470260401c5b660100000000000082161561222d5768010000b17255775c040260401c5b65ff00000000008216156123235765800000000000821615612258576801000058b91b5bc9ae0260401c5b6540000000000082161561227557680100002c5c89d5ec6d0260401c5b652000000000008216156122925768010000162e43f4f8310260401c5b651000000000008216156122af57680100000b1721bcfc9a0260401c5b650800000000008216156122cc5768010000058b90cf1e6e0260401c5b650400000000008216156122e9576801000002c5c863b73f0260401c5b6502000000000082161561230657680100000162e430e5a20260401c5b65010000000000821615612323576801000000b1721835510260401c5b64ff000000008216156124105764800000000082161561234c57680100000058b90c0b490260401c5b6440000000008216156123685768010000002c5c8601cc0260401c5b642000000000821615612384576801000000162e42fff00260401c5b6410000000008216156123a05768010000000b17217fbb0260401c5b6408000000008216156123bc576801000000058b90bfce0260401c5b6404000000008216156123d857680100000002c5c85fe30260401c5b6402000000008216156123f45768010000000162e42ff10260401c5b64010000000082161561241057680100000000b17217f80260401c5b63ff0000008216156124f45763800000008216156124375768010000000058b90bfc0260401c5b6340000000821615612452576801000000002c5c85fe0260401c5b632000000082161561246d57680100000000162e42ff0260401c5b6310000000821615612488576801000000000b17217f0260401c5b63080000008216156124a357680100000000058b90c00260401c5b63040000008216156124be5768010000000002c5c8600260401c5b63020000008216156124d9576801000000000162e4300260401c5b63010000008216156124f45768010000000000b172180260401c5b62ff00008216156125cf5762800000821615612519576801000000000058b90c0260401c5b6240000082161561253357680100000000002c5c860260401c5b6220000082161561254d5768010000000000162e430260401c5b6210000082161561256757680100000000000b17210260401c5b620800008216156125815768010000000000058b910260401c5b6204000082161561259b576801000000000002c5c80260401c5b620200008216156125b557680100000000000162e40260401c5b620100008216156125cf576801000000000000b1720260401c5b61ff008216156126a1576180008216156125f257680100000000000058b90260401c5b61400082161561260b5768010000000000002c5d0260401c5b612000821615612624576801000000000000162e0260401c5b61100082161561263d5768010000000000000b170260401c5b610800821615612656576801000000000000058c0260401c5b61040082161561266f57680100000000000002c60260401c5b61020082161561268857680100000000000001630260401c5b6101008216156126a157680100000000000000b10260401c5b60ff82161561276a5760808216156126c257680100000000000000590260401c5b60408216156126da576801000000000000002c0260401c5b60208216156126f257680100000000000000160260401c5b601082161561270a576801000000000000000b0260401c5b600882161561272257680100000000000000060260401c5b600482161561273a57680100000000000000030260401c5b600282161561275257680100000000000000010260401c5b600182161561276a57680100000000000000010260401c5b670de0b6b3a76400000260409190911c60bf031c90565b60006020828403121561279357600080fd5b81356001600160e01b031981168114611c4d57600080fd5b80356001600160a01b03811681146127c257600080fd5b919050565b6000602082840312156127d957600080fd5b611c4d826127ab565b6000602082840312156127f457600080fd5b5035919050565b6000815180845260005b8181101561282157602081850181015186830182015201612805565b506000602082860101526020601f19601f83011685010191505092915050565b60006101208b835280602084015261285b8184018c6127fb565b604084019a909a5250506060810196909652608086019490945260a0850192909252151560c0840152151560e08301526101009091015292915050565b80151581146117a057600080fd5b6000602082840312156128b857600080fd5b8135611c4d81612898565b600080604083850312156128d657600080fd5b82356128e181612898565b946020939093013593505050565b634e487b7160e01b600052604160045260246000fd5b604051601f8201601f1916810167ffffffffffffffff8111828210171561292e5761292e6128ef565b604052919050565b600082601f83011261294757600080fd5b8135602067ffffffffffffffff821115612963576129636128ef565b8160051b612972828201612905565b928352848101820192828101908785111561298c57600080fd5b83870192505b84831015611f6057823582529183019190830190612992565b600082601f8301126129bc57600080fd5b813567ffffffffffffffff8111156129d6576129d66128ef565b6129e9601f8201601f1916602001612905565b8181528460208386010111156129fe57600080fd5b816020850160208301376000918101602001919091529392505050565b600080600080600060a08688031215612a3357600080fd5b612a3c866127ab565b9450612a4a602087016127ab565b9350604086013567ffffffffffffffff80821115612a6757600080fd5b612a7389838a01612936565b94506060880135915080821115612a8957600080fd5b612a9589838a01612936565b93506080880135915080821115612aab57600080fd5b50612ab8888289016129ab565b9150509295509295909350565b602081528151602082015260006020830151610120806040850152612aee6101408501836127fb565b91506040850151606085015260608501516080850152608085015160a085015260a085015160c085015260c0850151612b2b60e086018215159052565b5060e0850151610100612b418187018315159052565b959095015193019290925250919050565b600080600080600060a08688031215612b6a57600080fd5b612b73866127ab565b9450612b81602087016127ab565b93506040860135925060608601359150608086013567ffffffffffffffff811115612bab57600080fd5b612ab8888289016129ab565b600060208284031215612bc957600080fd5b5051919050565b60208082526012908201527113585c9ad95d081a5cc81c995cdbdb1d995960721b604082015260600190565b60208082526010908201526f13585c9ad95d081a185cc8195b99195960821b604082015260600190565b6001600160a01b039390931683526020830191909152604082015260806060820181905260009082015260a00190565b600181811c90821680612c6a57607f821691505b602082108103612c8a57634e487b7160e01b600052602260045260246000fd5b50919050565b6020808252818101527f416d6f756e74206d7573742062652067726561746572207468616e207a65726f604082015260600190565b6001600160a01b03929092168252602082015260400190565b634e487b7160e01b600052601160045260246000fd5b8082028115828204841417611ce957611ce9612cde565b634e487b7160e01b600052601260045260246000fd5b600082612d3e57634e487b7160e01b600052601260045260246000fd5b500490565b600060208284031215612d5557600080fd5b8151611c4d81612898565b80820180821115611ce957611ce9612cde565b6001600160a01b0394851681529290931660208301526040820152606081019190915260a06080820181905260009082015260c00190565b81810381811115611ce957611ce9612cde56fea264697066735822122026fddfa19fc39278396aae27193d808cd61c5697390969a2507f18af4c829d1864736f6c63430008180033a26469706673582212207784ee176ce1f879020950c739a1d5b90b1c6b0676867c5215866318c8b6252364736f6c63430008180033",
  "linkReferences": {},
  "deployedLinkReferences": {}
}