{
  "_format": "hh-sol-artifact-1",
  "contractName": "YesToken",
  "sourceName": "contracts/YesToken.sol",
  "abi": [
    {
      "inputs": [
        {
          "internalType": "address",
          "name": "initialOwner",
          "type": "address"
        }
      ],
      "stateMutability": "nonpayable",
      "type": "constructor"
    },
    {
      "inputs": [
        {
          "internalType": "address",
          "name": "sender",
          "type": "address"
        },
        {
          "internalType": "uint256",
          "name": "balance",
          "type": "uint256"
        },
        {
          "internalType": "uint256",
          "name": "needed",
          "type": "uint256"
        },
        {
          "internalType": "uint256",
          "name": "tokenId",
          "type": "uint256"
        }
      ],
      "name": "ERC1155InsufficientBalance",
      "type": "error"
    },
    {
      "inputs": [
        {
          "internalType": "address",
          "name": "approver",
          "type": "address"
        }
      ],
      "name": "ERC1155InvalidApprover",
      "type": "error"
    },
    {
      "inputs": [
        {
          "internalType": "uint256",
          "name": "idsLength",
          "type": "uint256"
        },
        {
          "internalType": "uint256",
          "name": "valuesLength",
          "type": "uint256"
        }
      ],
      "name": "ERC1155InvalidArrayLength",
      "type": "error"
    },
    {
      "inputs": [
        {
          "internalType": "address",
          "name": "operator",
          "type": "address"
        }
      ],
      "name": "ERC1155InvalidOperator",
      "type": "error"
    },
    {
      "inputs": [
        {
          "internalType": "address",
          "name": "receiver",
          "type": "address"
        }
      ],
      "name": "ERC1155InvalidReceiver",
      "type": "error"
    },
    {
      "inputs": [
        {
          "internalType": "address",
          "name": "sender",
          "type": "address"
        }
      ],
      "name": "ERC1155InvalidSender",
      "type": "error"
    },
    {
      "inputs": [
        {
          "internalType": "address",
          "name": "operator",
          "type": "address"
        },
        {
          "internalType": "address",
          "name": "owner",
          "type": "address"
        }
      ],
      "name": "ERC1155MissingApprovalForAll",
      "type": "error"
    },
    {
      "inputs": [
        {
          "internalType": "address",
          "name": "owner",
          "type": "address"
        }
      ],
      "name": "OwnableInvalidOwner",
      "type": "error"
    },
    {
      "inputs": [
        {
          "internalType": "address",
          "name": "account",
          "type": "address"
        }
      ],
      "name": "OwnableUnauthorizedAccount",
      "type": "error"
    },
    {
      "anonymous": false,
      "inputs": [
        {
          "indexed": true,
          "internalType": "address",
          "name": "account",
          "type": "address"
        },
        {
          "indexed": true,
          "internalType": "address",
          "name": "operator",
          "type": "address"
        },
        {
          "indexed": false,
          "internalType": "bool",
          "name": "approved",
          "type": "bool"
        }
      ],
      "name": "ApprovalForAll",
      "type": "event"
    },
    {
      "anonymous": false,
      "inputs": [
        {
          "indexed": true,
          "internalType": "address",
          "name": "previousOwner",
          "type": "address"
        },
        {
          "indexed": true,
          "internalType": "address",
          "name": "newOwner",
          "type": "address"
        }
      ],
      "name": "OwnershipTransferred",
      "type": "event"
    },
    {
      "anonymous": false,
      "inputs": [
        {
          "indexed": true,
          "internalType": "address",
          "name": "operator",
          "type": "address"
        },
        {
          "indexed": true,
          "internalType": "address",
          "name": "from",
          "type": "address"
        },
        {
          "indexed": true,
          "internalType": "address",
          "name": "to",
          "type": "address"
        },
        {
          "indexed": false,
          "internalType": "uint256[]",
          "name": "ids",
          "type": "uint256[]"
        },
        {
          "indexed": false,
          "internalType": "uint256[]",
          "name": "values",
          "type": "uint256[]"
        }
      ],
      "name": "TransferBatch",
      "type": "event"
    },
    {
      "anonymous": false,
      "inputs": [
        {
          "indexed": true,
          "internalType": "address",
          "name": "operator",
          "type": "address"
        },
        {
          "indexed": true,
          "internalType": "address",
          "name": "from",
          "type": "address"
        },
        {
          "indexed": true,
          "internalType": "address",
          "name": "to",
          "type": "address"
        },
        {
          "indexed": false,
          "internalType": "uint256",
          "name": "id",
          "type": "uint256"
        },
        {
          "indexed": false,
          "internalType": "uint256",
          "name": "value",
          "type": "uint256"
        }
      ],
      "name": "TransferSingle",
      "type": "event"
    },
    {
      "anonymous": false,
      "inputs": [
        {
          "indexed": false,
          "internalType": "string",
          "name": "value",
          "type": "string"
        },
        {
          "indexed": true,
          "internalType": "uint256",
          "name": "id",
          "type": "uint256"
        }
      ],
      "name": "URI",
      "type": "event"
    },
    {
      "inputs": [
        {
          "internalType": "uint256",
          "name": "",
          "type": "uint256"
        }
      ],
      "name": "PredictionMarketContracts",
      "outputs": [
        {
          "internalType": "address",
          "name": "",
          "type": "address"
        }
      ],
      "stateMutability": "view",
      "type": "function"
    },
    {
      "inputs": [
        {
          "internalType": "uint256",
          "name": "id",
          "type": "uint256"
        },
        {
          "internalType": "address",
          "name": "marketContract",
          "type": "address"
        }
      ],
      "name": "addPredictionMarket",
      "outputs": [],
      "stateMutability": "nonpayable",
      "type": "function"
    },
    {
      "inputs": [
        {
          "internalType": "address",
          "name": "account",
          "type": "address"
        },
        {
          "internalType": "uint256",
          "name": "id",
          "type": "uint256"
        }
      ],
      "name": "balanceOf",
      "outputs": [
        {
          "internalType": "uint256",
          "name": "",
          "type": "uint256"
        }
      ],
      "stateMutability": "view",
      "type": "function"
    },
    {
      "inputs": [
        {
          "internalType": "address[]",
          "name": "accounts",
          "type": "address[]"
        },
        {
          "internalType": "uint256[]",
          "name": "ids",
          "type": "uint256[]"
        }
      ],
      "name": "balanceOfBatch",
      "outputs": [
        {
          "internalType": "uint256[]",
          "name": "",
          "type": "uint256[]"
        }
      ],
      "stateMutability": "view",
      "type": "function"
    },
    {
      "inputs": [
        {
          "internalType": "address",
          "name": "account",
          "type": "address"
        },
        {
          "internalType": "uint256",
          "name": "id",
          "type": "uint256"
        },
        {
          "internalType": "uint256",
          "name": "amount",
          "type": "uint256"
        }
      ],
      "name": "burn",
      "outputs": [],
      "stateMutability": "nonpayable",
      "type": "function"
    },
    {
      "inputs": [
        {
          "internalType": "address",
          "name": "account",
          "type": "address"
        },
        {
          "internalType": "uint256[]",
          "name": "ids",
          "type": "uint256[]"
        },
        {
          "internalType": "uint256[]",
          "name": "values",
          "type": "uint256[]"
        }
      ],
      "name": "burnBatch",
      "outputs": [],
      "stateMutability": "nonpayable",
      "type": "function"
    },
    {
      "inputs": [
        {
          "internalType": "address",
          "name": "account",
          "type": "address"
        },
        {
          "internalType": "address",
          "name": "operator",
          "type": "address"
        }
      ],
      "name": "isApprovedForAll",
      "outputs": [
        {
          "internalType": "bool",
          "name": "",
          "type": "bool"
        }
      ],
      "stateMutability": "view",
      "type": "function"
    },
    {
      "inputs": [
        {
          "internalType": "address",
          "name": "account",
          "type": "address"
        },
        {
          "internalType": "uint256",
          "name": "id",
          "type": "uint256"
        },
        {
          "internalType": "uint256",
          "name": "amount",
          "type": "uint256"
        },
        {
          "internalType": "bytes",
          "name": "data",
          "type": "bytes"
        }
      ],
      "name": "mint",
      "outputs": [],
      "stateMutability": "nonpayable",
      "type": "function"
    },
    {
      "inputs": [],
      "name": "owner",
      "outputs": [
        {
          "internalType": "address",
          "name": "",
          "type": "address"
        }
      ],
      "stateMutability": "view",
      "type": "function"
    },
    {
      "inputs": [
        {
          "internalType": "uint256",
          "name": "id",
          "type": "uint256"
        }
      ],
      "name": "removePredictionMarket",
      "outputs": [],
      "stateMutability": "nonpayable",
      "type": "function"
    },
    {
      "inputs": [],
      "name": "renounceOwnership",
      "outputs": [],
      "stateMutability": "nonpayable",
      "type": "function"
    },
    {
      "inputs": [
        {
          "internalType": "address",
          "name": "from",
          "type": "address"
        },
        {
          "internalType": "address",
          "name": "to",
          "type": "address"
        },
        {
          "internalType": "uint256[]",
          "name": "ids",
          "type": "uint256[]"
        },
        {
          "internalType": "uint256[]",
          "name": "values",
          "type": "uint256[]"
        },
        {
          "internalType": "bytes",
          "name": "data",
          "type": "bytes"
        }
      ],
      "name": "safeBatchTransferFrom",
      "outputs": [],
      "stateMutability": "nonpayable",
      "type": "function"
    },
    {
      "inputs": [
        {
          "internalType": "address",
          "name": "from",
          "type": "address"
        },
        {
          "internalType": "address",
          "name": "to",
          "type": "address"
        },
        {
          "internalType": "uint256",
          "name": "id",
          "type": "uint256"
        },
        {
          "internalType": "uint256",
          "name": "value",
          "type": "uint256"
        },
        {
          "internalType": "bytes",
          "name": "data",
          "type": "bytes"
        }
      ],
      "name": "safeTransferFrom",
      "outputs": [],
      "stateMutability": "nonpayable",
      "type": "function"
    },
    {
      "inputs": [
        {
          "internalType": "address",
          "name": "operator",
          "type": "address"
        },
        {
          "internalType": "bool",
          "name": "approved",
          "type": "bool"
        }
      ],
      "name": "setApprovalForAll",
      "outputs": [],
      "stateMutability": "nonpayable",
      "type": "function"
    },
    {
      "inputs": [
        {
          "internalType": "string",
          "name": "newuri",
          "type": "string"
        }
      ],
      "name": "setURI",
      "outputs": [],
      "stateMutability": "nonpayable",
      "type": "function"
    },
    {
      "inputs": [
        {
          "internalType": "bytes4",
          "name": "interfaceId",
          "type": "bytes4"
        }
      ],
      "name": "supportsInterface",
      "outputs": [
        {
          "internalType": "bool",
          "name": "",
          "type": "bool"
        }
      ],
      "stateMutability": "view",
      "type": "function"
    },
    {
      "inputs": [
        {
          "internalType": "address",
          "name": "to",
          "type": "address"
        },
        {
          "internalType": "uint256",
          "name": "id",
          "type": "uint256"
        },
        {
          "internalType": "uint256",
          "name": "amount",
          "type": "uint256"
        }
      ],
      "name": "transfer",
      "outputs": [],
      "stateMutability": "nonpayable",
      "type": "function"
    },
    {
      "inputs": [
        {
          "internalType": "address",
          "name": "newOwner",
          "type": "address"
        }
      ],
      "name": "transferOwnership",
      "outputs": [],
      "stateMutability": "nonpayable",
      "type": "function"
    },
    {
      "inputs": [
        {
          "internalType": "uint256",
          "name": "id",
          "type": "uint256"
        },
        {
          "internalType": "address",
          "name": "marketContract",
          "type": "address"
        }
      ],
      "name": "updatePredictionMarket",
      "outputs": [],
      "stateMutability": "nonpayable",
      "type": "function"
    },
    {
      "inputs": [
        {
          "internalType": "uint256",
          "name": "",
          "type": "uint256"
        }
      ],
      "name": "uri",
      "outputs": [
        {
          "internalType": "string",
          "name": "",
          "type": "string"
        }
      ],
      "stateMutability": "view",
      "type": "function"
    }
  ],
  "bytecode": "0x60806040523480156200001157600080fd5b5060405162001d5038038062001d508339810160408190526200003491620000f7565b6040805160208101909152600081528190620000508162000093565b506001600160a01b0381166200008057604051631e4fbdf760e01b81526000600482015260240160405180910390fd5b6200008b81620000a5565b50506200029c565b6002620000a18282620001d0565b5050565b600380546001600160a01b038381166001600160a01b0319831681179093556040519116919082907f8be0079c531659141344cd1fd0a4f28419497f9722a3daafe3b4186f6b6457e090600090a35050565b6000602082840312156200010a57600080fd5b81516001600160a01b03811681146200012257600080fd5b9392505050565b634e487b7160e01b600052604160045260246000fd5b600181811c908216806200015457607f821691505b6020821081036200017557634e487b7160e01b600052602260045260246000fd5b50919050565b601f821115620001cb576000816000526020600020601f850160051c81016020861015620001a65750805b601f850160051c820191505b81811015620001c757828155600101620001b2565b5050505b505050565b81516001600160401b03811115620001ec57620001ec62000129565b6200020481620001fd84546200013f565b846200017b565b602080601f8311600181146200023c5760008415620002235750858301515b600019600386901b1c1916600185901b178555620001c7565b600085815260208120601f198616915b828110156200026d578886015182559484019460019091019084016200024c565b50858210156200028c5787850151600019600388901b60f8161c191681555b5050505050600190811b01905550565b611aa480620002ac6000396000f3fe608060405234801561001057600080fd5b506004361061012b5760003560e01c8063731133e9116100ad578063a22cb46511610071578063a22cb465146102a9578063e985e9c5146102bc578063f242432a146102cf578063f2fde38b146102e2578063f5298aca146102f557600080fd5b8063731133e9146102225780638a3cf7aa146102355780638da5cb5b14610248578063909cd6a11461026d5780639366d8e91461028057600080fd5b80632eb2c2d6116100f45780632eb2c2d6146101c15780634e1273f4146101d45780635da16346146101f45780636b20c45414610207578063715018a61461021a57600080fd5b8062fdd58e1461013057806301ffc9a71461015657806302fe530514610179578063095bcdb61461018e5780630e89341c146101a1575b600080fd5b61014361013e3660046111bb565b610308565b6040519081526020015b60405180910390f35b6101696101643660046111fb565b610333565b604051901515815260200161014d565b61018c6101873660046112be565b610383565b005b61018c61019c36600461130f565b610397565b6101b46101af366004611342565b61040d565b60405161014d91906113a1565b61018c6101cf366004611467565b6104a1565b6101e76101e2366004611511565b610508565b60405161014d919061160d565b61018c610202366004611620565b6105d5565b61018c61021536600461164c565b6106c2565b61018c61071c565b61018c6102303660046116c0565b610730565b61018c610243366004611620565b6107ce565b6003546001600160a01b03165b6040516001600160a01b03909116815260200161014d565b61018c61027b366004611342565b61081e565b61025561028e366004611342565b6004602052600090815260409020546001600160a01b031681565b61018c6102b7366004611721565b6108a0565b6101696102ca36600461175d565b6108af565b61018c6102dd366004611787565b6108dd565b61018c6102f03660046117ec565b61093c565b61018c61030336600461130f565b610977565b6000818152602081815260408083206001600160a01b03861684529091528120545b90505b92915050565b60006001600160e01b03198216636cdb3d1360e11b148061036457506001600160e01b031982166303a24d0760e21b145b8061032d57506301ffc9a760e01b6001600160e01b031983161461032d565b61038b610a0e565b61039481610a3b565b50565b806103a23384610308565b10156103ec5760405162461bcd60e51b8152602060048201526014602482015273496e73756666696369656e742062616c616e636560601b60448201526064015b60405180910390fd5b61040833848484604051806020016040528060008152506108dd565b505050565b60606002805461041c90611807565b80601f016020809104026020016040519081016040528092919081815260200182805461044890611807565b80156104955780601f1061046a57610100808354040283529160200191610495565b820191906000526020600020905b81548152906001019060200180831161047857829003601f168201915b50505050509050919050565b336001600160a01b03861681148015906104c257506104c086826108af565b155b156104f35760405163711bec9160e11b81526001600160a01b038083166004830152871660248201526044016103e3565b6105008686868686610a47565b505050505050565b606081518351146105395781518351604051635b05999160e01b8152600481019290925260248201526044016103e3565b6000835167ffffffffffffffff8111156105555761055561121f565b60405190808252806020026020018201604052801561057e578160200160208202803683370190505b50905060005b84518110156105cd576020808202860101516105a890602080840287010151610308565b8282815181106105ba576105ba611841565b6020908102919091010152600101610584565b509392505050565b6105dd610a0e565b6001600160a01b0381166106255760405162461bcd60e51b815260206004820152600f60248201526e496e76616c6964206164647265737360881b60448201526064016103e3565b6000828152600460205260409020546001600160a01b0316156106945760405162461bcd60e51b815260206004820152602160248201527f4d61726b657420616c72656164792065786973747320666f72207468697320496044820152601160fa1b60648201526084016103e3565b60009182526004602052604090912080546001600160a01b0319166001600160a01b03909216919091179055565b6001600160a01b03831633148015906106e257506106e083336108af565b155b156107115760405163711bec9160e11b81523360048201526001600160a01b03841660248201526044016103e3565b610408838383610aae565b610724610a0e565b61072e6000610af4565b565b6000838152600460205260409020546001600160a01b031633146107bc5760405162461bcd60e51b815260206004820152603760248201527f4f6e6c79207468652050726564696374696f6e204d61726b657420636f6e747260448201527f6163742063616e206d696e74207468697320746f6b656e00000000000000000060648201526084016103e3565b6107c884848484610b46565b50505050565b6107d6610a0e565b6001600160a01b0381166106945760405162461bcd60e51b815260206004820152600f60248201526e496e76616c6964206164647265737360881b60448201526064016103e3565b610826610a0e565b6000818152600460205260409020546001600160a01b03166108825760405162461bcd60e51b815260206004820152601560248201527413585c9ad95d08191bd95cc81b9bdd08195e1a5cdd605a1b60448201526064016103e3565b600090815260046020526040902080546001600160a01b0319169055565b6108ab338383610ba3565b5050565b6001600160a01b03918216600090815260016020908152604080832093909416825291909152205460ff1690565b336001600160a01b03861681148015906108fe57506108fc86826108af565b155b1561092f5760405163711bec9160e11b81526001600160a01b038083166004830152871660248201526044016103e3565b6105008686868686610c39565b610944610a0e565b6001600160a01b03811661096e57604051631e4fbdf760e01b8152600060048201526024016103e3565b61039481610af4565b6000828152600460205260409020546001600160a01b03163314610a035760405162461bcd60e51b815260206004820152603760248201527f4f6e6c79207468652050726564696374696f6e204d61726b657420636f6e747260448201527f6163742063616e206275726e207468697320746f6b656e00000000000000000060648201526084016103e3565b610408838383610cc7565b6003546001600160a01b0316331461072e5760405163118cdaa760e01b81523360048201526024016103e3565b60026108ab828261189f565b6001600160a01b038416610a7157604051632bfa23e760e11b8152600060048201526024016103e3565b6001600160a01b038516610a9a57604051626a0d4560e21b8152600060048201526024016103e3565b610aa78585858585610d2b565b5050505050565b6001600160a01b038316610ad757604051626a0d4560e21b8152600060048201526024016103e3565b610408836000848460405180602001604052806000815250610d2b565b600380546001600160a01b038381166001600160a01b0319831681179093556040519116919082907f8be0079c531659141344cd1fd0a4f28419497f9722a3daafe3b4186f6b6457e090600090a35050565b6001600160a01b038416610b7057604051632bfa23e760e11b8152600060048201526024016103e3565b60408051600180825260208201869052818301908152606082018590526080820190925290610500600087848487610d2b565b6001600160a01b038216610bcc5760405162ced3e160e81b8152600060048201526024016103e3565b6001600160a01b03838116600081815260016020908152604080832094871680845294825291829020805460ff191686151590811790915591519182527f17307eab39ab6107e8899845ad3d59bd9653f200f220920489ca2b5937696c31910160405180910390a3505050565b6001600160a01b038416610c6357604051632bfa23e760e11b8152600060048201526024016103e3565b6001600160a01b038516610c8c57604051626a0d4560e21b8152600060048201526024016103e3565b60408051600180825260208201869052818301908152606082018590526080820190925290610cbe8787848487610d2b565b50505050505050565b6001600160a01b038316610cf057604051626a0d4560e21b8152600060048201526024016103e3565b604080516001808252602082018590528183019081526060820184905260a08201909252600060808201818152919291610aa7918791859085905b610d3785858585610d7e565b6001600160a01b03841615610aa75782513390600103610d705760208481015190840151610d69838989858589610f92565b5050610500565b6105008187878787876110b6565b8051825114610dad5781518151604051635b05999160e01b8152600481019290925260248201526044016103e3565b3360005b8351811015610eb3576020818102858101820151908501909101516001600160a01b03881615610e64576000828152602081815260408083206001600160a01b038c16845290915290205481811015610e3d576040516303dee4c560e01b81526001600160a01b038a1660048201526024810182905260448101839052606481018490526084016103e3565b6000838152602081815260408083206001600160a01b038d16845290915290209082900390555b6001600160a01b03871615610ea9576000828152602081815260408083206001600160a01b038b16845290915281208054839290610ea390849061195f565b90915550505b5050600101610db1565b508251600103610f345760208301516000906020840151909150856001600160a01b0316876001600160a01b0316846001600160a01b03167fc3d58168c5ae7397731d063d5bbf3d657854427343f4c083240f7aacaa2d0f628585604051610f25929190918252602082015260400190565b60405180910390a45050610aa7565b836001600160a01b0316856001600160a01b0316826001600160a01b03167f4a39dc06d4c0dbc64b70af90fd698a233a518aa5d07e595d983b8c0526c8f7fb8686604051610f83929190611980565b60405180910390a45050505050565b6001600160a01b0384163b156105005760405163f23a6e6160e01b81526001600160a01b0385169063f23a6e6190610fd690899089908890889088906004016119ae565b6020604051808303816000875af1925050508015611011575060408051601f3d908101601f1916820190925261100e918101906119f3565b60015b61107a573d80801561103f576040519150601f19603f3d011682016040523d82523d6000602084013e611044565b606091505b50805160000361107257604051632bfa23e760e11b81526001600160a01b03861660048201526024016103e3565b805181602001fd5b6001600160e01b0319811663f23a6e6160e01b14610cbe57604051632bfa23e760e11b81526001600160a01b03861660048201526024016103e3565b6001600160a01b0384163b156105005760405163bc197c8160e01b81526001600160a01b0385169063bc197c81906110fa9089908990889088908890600401611a10565b6020604051808303816000875af1925050508015611135575060408051601f3d908101601f19168201909252611132918101906119f3565b60015b611163573d80801561103f576040519150601f19603f3d011682016040523d82523d6000602084013e611044565b6001600160e01b0319811663bc197c8160e01b14610cbe57604051632bfa23e760e11b81526001600160a01b03861660048201526024016103e3565b80356001600160a01b03811681146111b657600080fd5b919050565b600080604083850312156111ce57600080fd5b6111d78361119f565b946020939093013593505050565b6001600160e01b03198116811461039457600080fd5b60006020828403121561120d57600080fd5b8135611218816111e5565b9392505050565b634e487b7160e01b600052604160045260246000fd5b604051601f8201601f1916810167ffffffffffffffff8111828210171561125e5761125e61121f565b604052919050565b600067ffffffffffffffff8311156112805761128061121f565b611293601f8401601f1916602001611235565b90508281528383830111156112a757600080fd5b828260208301376000602084830101529392505050565b6000602082840312156112d057600080fd5b813567ffffffffffffffff8111156112e757600080fd5b8201601f810184136112f857600080fd5b61130784823560208401611266565b949350505050565b60008060006060848603121561132457600080fd5b61132d8461119f565b95602085013595506040909401359392505050565b60006020828403121561135457600080fd5b5035919050565b6000815180845260005b8181101561138157602081850181015186830182015201611365565b506000602082860101526020601f19601f83011685010191505092915050565b60208152600061032a602083018461135b565b600067ffffffffffffffff8211156113ce576113ce61121f565b5060051b60200190565b600082601f8301126113e957600080fd5b813560206113fe6113f9836113b4565b611235565b8083825260208201915060208460051b87010193508684111561142057600080fd5b602086015b8481101561143c5780358352918301918301611425565b509695505050505050565b600082601f83011261145857600080fd5b61032a83833560208501611266565b600080600080600060a0868803121561147f57600080fd5b6114888661119f565b94506114966020870161119f565b9350604086013567ffffffffffffffff808211156114b357600080fd5b6114bf89838a016113d8565b945060608801359150808211156114d557600080fd5b6114e189838a016113d8565b935060808801359150808211156114f757600080fd5b5061150488828901611447565b9150509295509295909350565b6000806040838503121561152457600080fd5b823567ffffffffffffffff8082111561153c57600080fd5b818501915085601f83011261155057600080fd5b813560206115606113f9836113b4565b82815260059290921b8401810191818101908984111561157f57600080fd5b948201945b838610156115a4576115958661119f565b82529482019490820190611584565b965050860135925050808211156115ba57600080fd5b506115c7858286016113d8565b9150509250929050565b60008151808452602080850194506020840160005b83811015611602578151875295820195908201906001016115e6565b509495945050505050565b60208152600061032a60208301846115d1565b6000806040838503121561163357600080fd5b823591506116436020840161119f565b90509250929050565b60008060006060848603121561166157600080fd5b61166a8461119f565b9250602084013567ffffffffffffffff8082111561168757600080fd5b611693878388016113d8565b935060408601359150808211156116a957600080fd5b506116b6868287016113d8565b9150509250925092565b600080600080608085870312156116d657600080fd5b6116df8561119f565b93506020850135925060408501359150606085013567ffffffffffffffff81111561170957600080fd5b61171587828801611447565b91505092959194509250565b6000806040838503121561173457600080fd5b61173d8361119f565b91506020830135801515811461175257600080fd5b809150509250929050565b6000806040838503121561177057600080fd5b6117798361119f565b91506116436020840161119f565b600080600080600060a0868803121561179f57600080fd5b6117a88661119f565b94506117b66020870161119f565b93506040860135925060608601359150608086013567ffffffffffffffff8111156117e057600080fd5b61150488828901611447565b6000602082840312156117fe57600080fd5b61032a8261119f565b600181811c9082168061181b57607f821691505b60208210810361183b57634e487b7160e01b600052602260045260246000fd5b50919050565b634e487b7160e01b600052603260045260246000fd5b601f821115610408576000816000526020600020601f850160051c810160208610156118805750805b601f850160051c820191505b818110156105005782815560010161188c565b815167ffffffffffffffff8111156118b9576118b961121f565b6118cd816118c78454611807565b84611857565b602080601f83116001811461190257600084156118ea5750858301515b600019600386901b1c1916600185901b178555610500565b600085815260208120601f198616915b8281101561193157888601518255948401946001909101908401611912565b508582101561194f5787850151600019600388901b60f8161c191681555b5050505050600190811b01905550565b8082018082111561032d57634e487b7160e01b600052601160045260246000fd5b60408152600061199360408301856115d1565b82810360208401526119a581856115d1565b95945050505050565b6001600160a01b03868116825285166020820152604081018490526060810183905260a0608082018190526000906119e89083018461135b565b979650505050505050565b600060208284031215611a0557600080fd5b8151611218816111e5565b6001600160a01b0386811682528516602082015260a060408201819052600090611a3c908301866115d1565b8281036060840152611a4e81866115d1565b90508281036080840152611a62818561135b565b9897505050505050505056fea26469706673582212209dbb2696bed5f00572fddad1df898e612f13e4a3ebcb2357b68926068223899364736f6c63430008180033",
  "linkReferences": {},
  "deployedLinkReferences": {}
}