{
  "_format": "hh-sol-artifact-1",
  "contractName": "MarketFactory",
  "sourceName": "contracts/RadishCore.sol",
  "abi": [
    {
      "inputs": [
        {
          "internalType": "address",
          "name": "_priceToken",
          "type": "address"
        },
        {
          "internalType": "address",
          "name": "_yesToken",
          "type": "address"
        },
        {
          "internalType": "address",
          "name": "_noToken",
          "type": "address"
        }
      ],
      "stateMutability": "nonpayable",
      "type": "constructor"
    },
    {
      "inputs": [
        {
          "internalType": "address",
          "name": "owner",
          "type": "address"
        }
      ],
      "name": "OwnableInvalidOwner",
      "type": "error"
    },
    {
      "inputs": [
        {
          "internalType": "address",
          "name": "account",
          "type": "address"
        }
      ],
      "name": "OwnableUnauthorizedAccount",
      "type": "error"
    },
    {
      "anonymous": false,
      "inputs": [
        {
          "indexed": false,
          "internalType": "uint256",
          "name": "id",
          "type": "uint256"
        },
        {
          "indexed": false,
          "internalType": "string",
          "name": "question",
          "type": "string"
        },
        {
          "indexed": false,
          "internalType": "uint256",
          "name": "endTime",
          "type": "uint256"
        },
        {
          "indexed": false,
          "internalType": "address",
          "name": "marketContract",
          "type": "address"
        }
      ],
      "name": "MarketCreated",
      "type": "event"
    },
    {
      "anonymous": false,
      "inputs": [
        {
          "indexed": true,
          "internalType": "address",
          "name": "previousOwner",
          "type": "address"
        },
        {
          "indexed": true,
          "internalType": "address",
          "name": "newOwner",
          "type": "address"
        }
      ],
      "name": "OwnershipTransferred",
      "type": "event"
    },
    {
      "inputs": [
        {
          "internalType": "string",
          "name": "_question",
          "type": "string"
        },
        {
          "internalType": "uint256",
          "name": "_endtime",
          "type": "uint256"
        }
      ],
      "name": "createMarket",
      "outputs": [],
      "stateMutability": "nonpayable",
      "type": "function"
    },
    {
      "inputs": [],
      "name": "getNoToken",
      "outputs": [
        {
          "internalType": "address",
          "name": "",
          "type": "address"
        }
      ],
      "stateMutability": "view",
      "type": "function"
    },
    {
      "inputs": [],
      "name": "getPriceToken",
      "outputs": [
        {
          "internalType": "address",
          "name": "",
          "type": "address"
        }
      ],
      "stateMutability": "view",
      "type": "function"
    },
    {
      "inputs": [],
      "name": "getYesToken",
      "outputs": [
        {
          "internalType": "address",
          "name": "",
          "type": "address"
        }
      ],
      "stateMutability": "view",
      "type": "function"
    },
    {
      "inputs": [],
      "name": "marketCount",
      "outputs": [
        {
          "internalType": "uint256",
          "name": "",
          "type": "uint256"
        }
      ],
      "stateMutability": "view",
      "type": "function"
    },
    {
      "inputs": [],
      "name": "noToken",
      "outputs": [
        {
          "internalType": "address",
          "name": "",
          "type": "address"
        }
      ],
      "stateMutability": "view",
      "type": "function"
    },
    {
      "inputs": [],
      "name": "owner",
      "outputs": [
        {
          "internalType": "address",
          "name": "",
          "type": "address"
        }
      ],
      "stateMutability": "view",
      "type": "function"
    },
    {
      "inputs": [],
      "name": "priceToken",
      "outputs": [
        {
          "internalType": "address",
          "name": "",
          "type": "address"
        }
      ],
      "stateMutability": "view",
      "type": "function"
    },
    {
      "inputs": [],
      "name": "renounceOwnership",
      "outputs": [],
      "stateMutability": "nonpayable",
      "type": "function"
    },
    {
      "inputs": [
        {
          "internalType": "address",
          "name": "_noToken",
          "type": "address"
        }
      ],
      "name": "setNoToken",
      "outputs": [],
      "stateMutability": "nonpayable",
      "type": "function"
    },
    {
      "inputs": [
        {
          "internalType": "address",
          "name": "_priceToken",
          "type": "address"
        }
      ],
      "name": "setPriceToken",
      "outputs": [],
      "stateMutability": "nonpayable",
      "type": "function"
    },
    {
      "inputs": [
        {
          "internalType": "address",
          "name": "_yesToken",
          "type": "address"
        }
      ],
      "name": "setYesToken",
      "outputs": [],
      "stateMutability": "nonpayable",
      "type": "function"
    },
    {
      "inputs": [
        {
          "internalType": "address",
          "name": "newOwner",
          "type": "address"
        }
      ],
      "name": "transferOwnership",
      "outputs": [],
      "stateMutability": "nonpayable",
      "type": "function"
    },
    {
      "inputs": [],
      "name": "yesToken",
      "outputs": [
        {
          "internalType": "address",
          "name": "",
          "type": "address"
        }
      ],
      "stateMutability": "view",
      "type": "function"
    }
  ],
  "bytecode": "0x608060405234801561001057600080fd5b50604051612d6f380380612d6f83398101604081905261002f91610112565b338061005557604051631e4fbdf760e01b81526000600482015260240160405180910390fd5b61005e816100a6565b506000600155600280546001600160a01b039485166001600160a01b031991821617909155600380549385169382169390931790925560048054919093169116179055610155565b600080546001600160a01b038381166001600160a01b0319831681178455604051919092169283917f8be0079c531659141344cd1fd0a4f28419497f9722a3daafe3b4186f6b6457e09190a35050565b80516001600160a01b038116811461010d57600080fd5b919050565b60008060006060848603121561012757600080fd5b610130846100f6565b925061013e602085016100f6565b915061014c604085016100f6565b90509250925092565b612c0b806101646000396000f3fe60806040523480156200001157600080fd5b5060043610620000fd5760003560e01c8063715018a611620000975780638da5cb5b116200006e5780638da5cb5b14620001e5578063ec97908214620001f7578063f0d9bb201462000210578063f2fde38b146200022457600080fd5b8063715018a614620001b257806372f0424f14620001bc578063883c84c114620001ce57600080fd5b806344e6a6a011620000d857806344e6a6a01462000160578063570a5a6a14620001775780635b65cbdb14620001895780637117f008146200019b57600080fd5b806311a9f10a14620001025780632ff6fe761462000133578063411092e31462000147575b600080fd5b60045462000116906001600160a01b031681565b6040516001600160a01b0390911681526020015b60405180910390f35b60025462000116906001600160a01b031681565b6200015e620001583660046200046d565b6200023b565b005b6200015e620001713660046200046d565b62000267565b6004546001600160a01b031662000116565b6003546001600160a01b031662000116565b6200015e620001ac3660046200046d565b62000293565b6200015e620002bf565b6002546001600160a01b031662000116565b6200015e620001df366004620004b5565b620002d7565b6000546001600160a01b031662000116565b6200020160015481565b6040519081526020016200012a565b60035462000116906001600160a01b031681565b6200015e620002353660046200046d565b62000398565b62000245620003e0565b600280546001600160a01b0319166001600160a01b0392909216919091179055565b62000271620003e0565b600480546001600160a01b0319166001600160a01b0392909216919091179055565b6200029d620003e0565b600380546001600160a01b0319166001600160a01b0392909216919091179055565b620002c9620003e0565b620002d560006200040f565b565b6002546003546004546001546040516000946001600160a01b0390811694811693169190879087906200030a906200045f565b6200031b96959493929190620005bc565b604051809103906000f08015801562000338573d6000803e3d6000fd5b506001805491925060006200034d836200060c565b91905055507f57d0d124b72f81ed1da0dc728fc33db342705974792928796f6577b8db5c3d536001548484846040516200038b949392919062000634565b60405180910390a1505050565b620003a2620003e0565b6001600160a01b038116620003d257604051631e4fbdf760e01b8152600060048201526024015b60405180910390fd5b620003dd816200040f565b50565b6000546001600160a01b03163314620002d55760405163118cdaa760e01b8152336004820152602401620003c9565b600080546001600160a01b038381166001600160a01b0319831681178455604051919092169283917f8be0079c531659141344cd1fd0a4f28419497f9722a3daafe3b4186f6b6457e09190a35050565b612565806200067183390190565b6000602082840312156200048057600080fd5b81356001600160a01b03811681146200049857600080fd5b9392505050565b634e487b7160e01b600052604160045260246000fd5b60008060408385031215620004c957600080fd5b823567ffffffffffffffff80821115620004e257600080fd5b818501915085601f830112620004f757600080fd5b8135818111156200050c576200050c6200049f565b604051601f8201601f19908116603f011681019083821181831017156200053757620005376200049f565b816040528281528860208487010111156200055157600080fd5b826020860160208301376000602093820184015298969091013596505050505050565b6000815180845260005b818110156200059c576020818501810151868301820152016200057e565b506000602082860101526020601f19601f83011685010191505092915050565b6001600160a01b0387811682528681166020830152851660408201526060810184905260c060808201819052600090620005f99083018562000574565b90508260a0830152979650505050505050565b6000600182016200062d57634e487b7160e01b600052601160045260246000fd5b5060010190565b8481526080602082015260006200064f608083018662000574565b6040830194909452506001600160a01b03919091166060909101529291505056fe6080604052600480546001600160a01b03191673e5caa785fee2154e5cddc15ac37eedf0274ad5a21790556200003a670de0b6b3a764000090565b600d55678ac7230489e80000600e556000600f5560006010553480156200006057600080fd5b50604051620025653803806200256583398101604081905262000083916200022b565b73e5caa785fee2154e5cddc15ac37eedf0274ad5a2620000a381620001a8565b50600180546001600160a01b038089166001600160a01b0319928316179092556002805488841690831617905560038054928716929091169190911790556040805161012081018252848152602081018490529081018290526000606082018190526080820181905260a0820181905260c0820181905260e08201819052610100820152600584815560066200013a8582620003db565b5060408201516002820155606082015160038201556080820151600482015560a0820151600582015560c082015160068201805460e085015161ffff1990911692151561ff0019169290921761010092151583021790559091015160079091015550620004a7945050505050565b600080546001600160a01b038381166001600160a01b0319831681178455604051919092169283917f8be0079c531659141344cd1fd0a4f28419497f9722a3daafe3b4186f6b6457e09190a35050565b80516001600160a01b03811681146200021057600080fd5b919050565b634e487b7160e01b600052604160045260246000fd5b60008060008060008060c087890312156200024557600080fd5b6200025087620001f8565b9550602062000261818901620001f8565b95506200027160408901620001f8565b606089015160808a015191965094506001600160401b03808211156200029657600080fd5b818a0191508a601f830112620002ab57600080fd5b815181811115620002c057620002c062000215565b604051601f8201601f19908116603f01168101908382118183101715620002eb57620002eb62000215565b816040528281528d868487010111156200030457600080fd5b600093505b8284101562000328578484018601518185018701529285019262000309565b600086848301015280975050505050505060a087015190509295509295509295565b600181811c908216806200035f57607f821691505b6020821081036200038057634e487b7160e01b600052602260045260246000fd5b50919050565b601f821115620003d6576000816000526020600020601f850160051c81016020861015620003b15750805b601f850160051c820191505b81811015620003d257828155600101620003bd565b5050505b505050565b81516001600160401b03811115620003f757620003f762000215565b6200040f816200040884546200034a565b8462000386565b602080601f8311600181146200044757600084156200042e5750858301515b600019600386901b1c1916600185901b178555620003d2565b600085815260208120601f198616915b82811015620004785788860151825594840194600190910190840162000457565b5085821015620004975787850151600019600388901b60f8161c191681555b5050505050600190811b01905550565b6120ae80620004b76000396000f3fe608060405234801561001057600080fd5b506004361061012c5760003560e01c80638b74b9ab116100ad578063c84aae1711610071578063c84aae1714610242578063d816574314610270578063e24c469b14610285578063f0d9bb2014610298578063f2fde38b146102ab57600080fd5b80638b74b9ab146101fa5780638da5cb5b1461020d578063a4d750651461021e578063b88a802f14610231578063bfc596011461023957600080fd5b80632e0f2625116100f45780632e0f26251461019e5780632ff6fe76146101a75780635bea2410146101ba578063715018a6146101d557806380f55605146101dd57600080fd5b806310e6e06c1461013157806311a9f10a146101465780631c426fc8146101765780632810e1d61461018d5780632acf1cd214610195575b600080fd5b61014461013f366004611d95565b6102be565b005b600354610159906001600160a01b031681565b6040516001600160a01b0390911681526020015b60405180910390f35b61017f600e5481565b60405190815260200161016d565b6101446105ee565b61017f60105481565b61017f600d5481565b600154610159906001600160a01b031681565b600f546010546040805192835260208301919091520161016d565b61014461072f565b6101e5610743565b60405161016d99989796959493929190611e07565b61017f610208366004611e5e565b61080e565b6000546001600160a01b0316610159565b61017f61022c366004611d95565b6108ad565b610144610996565b61017f600f5481565b610255610250366004611e7b565b6109de565b6040805193845260208401929092529082015260600161016d565b610278610b4b565b60405161016d9190611ea4565b610144610293366004611d95565b610c9c565b600254610159906001600160a01b031681565b6101446102b9366004611e7b565b61117f565b600081116102e75760405162461bcd60e51b81526004016102de90611f31565b60405180910390fd5b81156104b857600254600554604051627eeac760e11b815233600482015260248101919091527fe7a8e522baa2b87f9dc4d1c2ae6b149dce35c187e79e13e5b5e100cd91b555b7916001600160a01b03169062fdd58e90604401602060405180830381865afa15801561035e573d6000803e3d6000fd5b505050506040513d601f19601f820116820180604052508101906103829190611f66565b60405190815260200160405180910390a180600254600554604051627eeac760e11b815233600482015260248101919091526001600160a01b039091169062fdd58e90604401602060405180830381865afa1580156103e5573d6000803e3d6000fd5b505050506040513d601f19601f820116820180604052508101906104099190611f66565b10156104275760405162461bcd60e51b81526004016102de90611f7f565b60025460055460408051637a94c56560e11b8152336004820152602481019290925260448201849052516001600160a01b039092169163f5298aca9160648082019260009290919082900301818387803b15801561048457600080fd5b505af1158015610498573d6000803e3d6000fd5b505050506104a38190565b6009546104b09190611fc3565b6009556105d9565b80600354600554604051627eeac760e11b815233600482015260248101919091526001600160a01b039091169062fdd58e90604401602060405180830381865afa15801561050a573d6000803e3d6000fd5b505050506040513d601f19601f8201168201806040525081019061052e9190611f66565b101561054c5760405162461bcd60e51b81526004016102de90611f7f565b60035460055460408051637a94c56560e11b8152336004820152602481019290925260448201849052516001600160a01b039092169163f5298aca9160648082019260009290919082900301818387803b1580156105a957600080fd5b505af11580156105bd573d6000803e3d6000fd5b505050506105c88190565b600a546105d59190611fc3565b600a555b806008546105e79190611fc3565b6008555050565b6004546001600160a01b031633146106545760405162461bcd60e51b8152602060048201526024808201527f4f6e6c79207265736f6c7665722063616e2063616c6c20746869732066756e636044820152633a34b7b760e11b60648201526084016102de565b600b5460ff16156106a15760405162461bcd60e51b815260206004820152601760248201527613585c9ad95d08185b1c9958591e481c995cdbdb1d9959604a1b60448201526064016102de565b600b8054600a54600954116101000261ffff19909116176001908117909155546040516370a0823160e01b81523060048201526001600160a01b03909116906370a0823190602401602060405180830381865afa158015610706573d6000803e3d6000fd5b505050506040513d601f19601f8201168201806040525081019061072a9190611f66565b600c55565b6107376111bd565b61074160006111ea565b565b600580546006805491929161075790611fd6565b80601f016020809104026020016040519081016040528092919081815260200182805461078390611fd6565b80156107d05780601f106107a5576101008083540402835291602001916107d0565b820191906000526020600020905b8154815290600101906020018083116107b357829003601f168201915b50505060028401546003850154600486015460058701546006880154600790980154969793969295509093509160ff80821692610100909204169089565b6000806000610855610835610830600e5460105461123a90919063ffffffff16565b61125c565b61084f610830600e54600f5461123a90919063ffffffff16565b906112b1565b9050831561087e57610877610830600e54600f5461123a90919063ffffffff16565b915061089b565b610898610830600e5460105461123a90919063ffffffff16565b91505b6108a5828261123a565b949350505050565b60008082116108ce5760405162461bcd60e51b81526004016102de90611f31565b60006109016108f86108f3610835610830600e5460105461123a90919063ffffffff16565b6112c0565b600e54906112f7565b905060008415610959576109526108f86108f361092e610830600e5460105461123a90919063ffffffff16565b61084f610830600e5461094c8b600f546112b190919063ffffffff16565b9061123a565b9050610983565b6109806108f86108f3610835610830600e5461094c8a6010546112b190919063ffffffff16565b90505b61098d8183611306565b95945050505050565b600b5460ff166107415760405162461bcd60e51b815260206004820152601360248201527213585c9ad95d081b9bdd081c995cdbdb1d9959606a1b60448201526064016102de565b6001546040516370a0823160e01b81526001600160a01b03838116600483015260009283928392909116906370a0823190602401602060405180830381865afa158015610a2f573d6000803e3d6000fd5b505050506040513d601f19601f82011682018060405250810190610a539190611f66565b600254600554604051627eeac760e11b81526001600160a01b0388811660048301526024820192909252929550169062fdd58e90604401602060405180830381865afa158015610aa7573d6000803e3d6000fd5b505050506040513d601f19601f82011682018060405250810190610acb9190611f66565b600354600554604051627eeac760e11b81526001600160a01b0388811660048301526024820192909252929450169062fdd58e90604401602060405180830381865afa158015610b1f573d6000803e3d6000fd5b505050506040513d601f19601f82011682018060405250810190610b439190611f66565b929491935050565b610b9e604051806101200160405280600081526020016060815260200160008152602001600081526020016000815260200160008152602001600015158152602001600015158152602001600081525090565b60408051610120810190915260058054825260068054602084019190610bc390611fd6565b80601f0160208091040260200160405190810160405280929190818152602001828054610bef90611fd6565b8015610c3c5780601f10610c1157610100808354040283529160200191610c3c565b820191906000526020600020905b815481529060010190602001808311610c1f57829003601f168201915b505050918352505060028201546020820152600382015460408201526004820154606082015260058201546080820152600682015460ff808216151560a084015261010090910416151560c082015260079091015460e090910152919050565b60008111610cbc5760405162461bcd60e51b81526004016102de90611f31565b600b5460ff1615610d095760405162461bcd60e51b815260206004820152601760248201527613585c9ad95d08185b1c9958591e481c995cdbdb1d9959604a1b60448201526064016102de565b670de0b6b3a7640000811115610d715760405162461bcd60e51b815260206004820152602760248201527f4d696e696d756d20796f752073686f756c64206275792061746c65617374203160448201526620746f6b656e7360c81b60648201526084016102de565b678ac7230489e80000811115610dde5760405162461bcd60e51b815260206004820152602c60248201527f4d6178696d756d20796f752063616e20627579206f6e6c7920313020746f6b6560448201526b6e7320617420612074696d6560a01b60648201526084016102de565b6000610dea83836108ad565b9050806001546040516370a0823160e01b81523360048201526001600160a01b03909116906370a0823190602401602060405180830381865afa158015610e35573d6000803e3d6000fd5b505050506040513d601f19601f82011682018060405250810190610e599190611f66565b1015610e775760405162461bcd60e51b81526004016102de90611f7f565b80600154604051636eb1769f60e11b81523360048201523060248201526001600160a01b039091169063dd62ed3e90604401602060405180830381865afa158015610ec6573d6000803e3d6000fd5b505050506040513d601f19601f82011682018060405250810190610eea9190611f66565b1015610f315760405162461bcd60e51b8152602060048201526016602482015275496e73756666696369656e7420616c6c6f77616e636560501b60448201526064016102de565b6001546001600160a01b03166323b872dd3330846040516001600160e01b031960e086901b1681526001600160a01b03938416600482015292909116602483015260448201526064016020604051808303816000875af1158015610f99573d6000803e3d6000fd5b505050506040513d601f19601f82011682018060405250810190610fbd9190612010565b610ffa5760405162461bcd60e51b815260206004820152600e60248201526d14185e5b595b9d0819985a5b195960921b60448201526064016102de565b8215611098576002546005546040805163731133e960e01b81523360048201526024810192909252604482018590526080606483015260006084830181905290516001600160a01b039093169263731133e99260a480820193929182900301818387803b15801561106a57600080fd5b505af115801561107e573d6000803e3d6000fd5b5050600f5461109092509050836112b1565b600f5561112c565b6003546005546040805163731133e960e01b81523360048201526024810192909252604482018590526080606483015260006084830181905290516001600160a01b039093169263731133e99260a480820193929182900301818387803b15801561110257600080fd5b505af1158015611116573d6000803e3d6000fd5b505060105461112892509050836112b1565b6010555b337f8fafebcaf9d154343dad25669bfa277f4fbacd7ac6b0c4fed522580e040a0f338461115a57600261115d565b60015b846040805160ff909316835260208301919091520160405180910390a2505050565b6111876111bd565b6001600160a01b0381166111b157604051631e4fbdf760e01b8152600060048201526024016102de565b6111ba816111ea565b50565b6000546001600160a01b031633146107415760405163118cdaa760e01b81523360048201526024016102de565b600080546001600160a01b038381166001600160a01b0319831681178455604051919092169283917f8be0079c531659141344cd1fd0a4f28419497f9722a3daafe3b4186f6b6457e09190a35050565b600061125561125284670de0b6b3a764000085611315565b90565b9392505050565b600081680736ea4425c11ac63081111561128c57604051630d7b1d6560e11b8152600481018490526024016102de565b6714057b7ef767814f81026108a56112ac670de0b6b3a7640000835b0490565b6113e8565b60006112556112528385611fc3565b60006112f16714057b7ef767814f670de0b6b3a76400006112e36112528661143e565b02816112a8576112a861202d565b92915050565b60006112556112528484611571565b60006112556112528385612043565b600080806000198587098587029250828110838203039150508060000361134f578382816113455761134561202d565b0492505050611255565b83811061138057604051630c740aef60e31b81526004810187905260248101869052604481018590526064016102de565b600084868809600260036001881981018916988990049182028318808302840302808302840302808302840302808302840302808302840302918202909203026000889003889004909101858311909403939093029303949094049190911702949350505050565b600081680a688906bd8affffff8111156114185760405163b3b6ba1f60e01b8152600481018490526024016102de565b6000611430670de0b6b3a7640000604084901b612056565b90506108a561125282611627565b600081670de0b6b3a764000081101561146d5760405163036d32ef60e41b8152600481018490526024016102de565b60006114f9670de0b6b3a7640000830460016fffffffffffffffffffffffffffffffff821160071b91821c67ffffffffffffffff811160061b90811c63ffffffff811160051b90811c61ffff811160041b90811c60ff8111600390811b91821c600f811160021b90811c918211871b91821c969096119490961792909217171791909117919091171790565b9050670de0b6b3a7640000810282821c670de0b6b3a763ffff1981016115225750949350505050565b671bc16d674ec800006706f05b59d3b200005b801561156557670de0b6b3a764000083800204925081831061155d579283019260019290921c915b60011c611535565b50919695505050505050565b60008080600019848609848602925082811083820303915050806000036115a55750670de0b6b3a7640000900490506112f1565b670de0b6b3a764000081106115d757604051635173648d60e01b815260048101869052602481018590526044016102de565b6000670de0b6b3a764000085870962040000818503049310909103600160ee1b02919091177faccb18165bd6fe31ae1cf318dc5b51eee0e1ba569b88cd74c1773b91fac106690291505092915050565b600160bf1b67ff000000000000008216156117345767800000000000000082161561165b5768016a09e667f3bcc9090260401c5b67400000000000000082161561167a576801306fe0a31b7152df0260401c5b672000000000000000821615611699576801172b83c7d517adce0260401c5b6710000000000000008216156116b85768010b5586cf9890f62a0260401c5b6708000000000000008216156116d7576801059b0d31585743ae0260401c5b6704000000000000008216156116f657680102c9a3e778060ee70260401c5b6702000000000000008216156117155768010163da9fb33356d80260401c5b67010000000000000082161561173457680100b1afa5abcbed610260401c5b66ff0000000000008216156118335766800000000000008216156117615768010058c86da1c09ea20260401c5b664000000000000082161561177f576801002c605e2e8cec500260401c5b662000000000000082161561179d57680100162f3904051fa10260401c5b66100000000000008216156117bb576801000b175effdc76ba0260401c5b66080000000000008216156117d957680100058ba01fb9f96d0260401c5b66040000000000008216156117f75768010002c5cc37da94920260401c5b6602000000000000821615611815576801000162e525ee05470260401c5b66010000000000008216156118335768010000b17255775c040260401c5b65ff0000000000821615611929576580000000000082161561185e576801000058b91b5bc9ae0260401c5b6540000000000082161561187b57680100002c5c89d5ec6d0260401c5b652000000000008216156118985768010000162e43f4f8310260401c5b651000000000008216156118b557680100000b1721bcfc9a0260401c5b650800000000008216156118d25768010000058b90cf1e6e0260401c5b650400000000008216156118ef576801000002c5c863b73f0260401c5b6502000000000082161561190c57680100000162e430e5a20260401c5b65010000000000821615611929576801000000b1721835510260401c5b64ff00000000821615611a165764800000000082161561195257680100000058b90c0b490260401c5b64400000000082161561196e5768010000002c5c8601cc0260401c5b64200000000082161561198a576801000000162e42fff00260401c5b6410000000008216156119a65768010000000b17217fbb0260401c5b6408000000008216156119c2576801000000058b90bfce0260401c5b6404000000008216156119de57680100000002c5c85fe30260401c5b6402000000008216156119fa5768010000000162e42ff10260401c5b640100000000821615611a1657680100000000b17217f80260401c5b63ff000000821615611afa576380000000821615611a3d5768010000000058b90bfc0260401c5b6340000000821615611a58576801000000002c5c85fe0260401c5b6320000000821615611a7357680100000000162e42ff0260401c5b6310000000821615611a8e576801000000000b17217f0260401c5b6308000000821615611aa957680100000000058b90c00260401c5b6304000000821615611ac45768010000000002c5c8600260401c5b6302000000821615611adf576801000000000162e4300260401c5b6301000000821615611afa5768010000000000b172180260401c5b62ff0000821615611bd55762800000821615611b1f576801000000000058b90c0260401c5b62400000821615611b3957680100000000002c5c860260401c5b62200000821615611b535768010000000000162e430260401c5b62100000821615611b6d57680100000000000b17210260401c5b62080000821615611b875768010000000000058b910260401c5b62040000821615611ba1576801000000000002c5c80260401c5b62020000821615611bbb57680100000000000162e40260401c5b62010000821615611bd5576801000000000000b1720260401c5b61ff00821615611ca757618000821615611bf857680100000000000058b90260401c5b614000821615611c115768010000000000002c5d0260401c5b612000821615611c2a576801000000000000162e0260401c5b611000821615611c435768010000000000000b170260401c5b610800821615611c5c576801000000000000058c0260401c5b610400821615611c7557680100000000000002c60260401c5b610200821615611c8e57680100000000000001630260401c5b610100821615611ca757680100000000000000b10260401c5b60ff821615611d70576080821615611cc857680100000000000000590260401c5b6040821615611ce0576801000000000000002c0260401c5b6020821615611cf857680100000000000000160260401c5b6010821615611d10576801000000000000000b0260401c5b6008821615611d2857680100000000000000060260401c5b6004821615611d4057680100000000000000030260401c5b6002821615611d5857680100000000000000010260401c5b6001821615611d7057680100000000000000010260401c5b670de0b6b3a76400000260409190911c60bf031c90565b80151581146111ba57600080fd5b60008060408385031215611da857600080fd5b8235611db381611d87565b946020939093013593505050565b6000815180845260005b81811015611de757602081850181015186830182015201611dcb565b506000602082860101526020601f19601f83011685010191505092915050565b60006101208b8352806020840152611e218184018c611dc1565b604084019a909a5250506060810196909652608086019490945260a0850192909252151560c0840152151560e08301526101009091015292915050565b600060208284031215611e7057600080fd5b813561125581611d87565b600060208284031215611e8d57600080fd5b81356001600160a01b038116811461125557600080fd5b602081528151602082015260006020830151610120806040850152611ecd610140850183611dc1565b91506040850151606085015260608501516080850152608085015160a085015260a085015160c085015260c0850151611f0a60e086018215159052565b5060e0850151610100611f208187018315159052565b959095015193019290925250919050565b6020808252818101527f416d6f756e74206d7573742062652067726561746572207468616e207a65726f604082015260600190565b600060208284031215611f7857600080fd5b5051919050565b602080825260149082015273496e73756666696369656e742062616c616e636560601b604082015260600190565b634e487b7160e01b600052601160045260246000fd5b808201808211156112f1576112f1611fad565b600181811c90821680611fea57607f821691505b60208210810361200a57634e487b7160e01b600052602260045260246000fd5b50919050565b60006020828403121561202257600080fd5b815161125581611d87565b634e487b7160e01b600052601260045260246000fd5b818103818111156112f1576112f1611fad565b60008261207357634e487b7160e01b600052601260045260246000fd5b50049056fea26469706673582212209371c4113b9c379e081a71cdad73c160b18307e1297fc4115de5dd7bbc8e0b9e64736f6c63430008180033a2646970667358221220b0834623efa048fa321320d959f4d98b80df87eba8bd0b3f74fd52ad5b2328e364736f6c63430008180033",
  "linkReferences": {},
  "deployedLinkReferences": {}
}