{
  "_format": "hh-sol-artifact-1",
  "contractName": "RadishCore",
  "sourceName": "contracts/RadishCore.sol",
  "abi": [
    {
      "inputs": [
        {
          "internalType": "address",
          "name": "_priceToken",
          "type": "address"
        },
        {
          "internalType": "address",
          "name": "_yesToken",
          "type": "address"
        },
        {
          "internalType": "address",
          "name": "_noToken",
          "type": "address"
        }
      ],
      "stateMutability": "nonpayable",
      "type": "constructor"
    },
    {
      "inputs": [
        {
          "internalType": "address",
          "name": "owner",
          "type": "address"
        }
      ],
      "name": "OwnableInvalidOwner",
      "type": "error"
    },
    {
      "inputs": [
        {
          "internalType": "address",
          "name": "account",
          "type": "address"
        }
      ],
      "name": "OwnableUnauthorizedAccount",
      "type": "error"
    },
    {
      "anonymous": false,
      "inputs": [
        {
          "indexed": false,
          "internalType": "uint256",
          "name": "id",
          "type": "uint256"
        },
        {
          "indexed": false,
          "internalType": "string",
          "name": "question",
          "type": "string"
        },
        {
          "indexed": false,
          "internalType": "uint256",
          "name": "endTime",
          "type": "uint256"
        },
        {
          "indexed": false,
          "internalType": "address",
          "name": "marketContract",
          "type": "address"
        }
      ],
      "name": "MarketCreated",
      "type": "event"
    },
    {
      "anonymous": false,
      "inputs": [
        {
          "indexed": true,
          "internalType": "address",
          "name": "previousOwner",
          "type": "address"
        },
        {
          "indexed": true,
          "internalType": "address",
          "name": "newOwner",
          "type": "address"
        }
      ],
      "name": "OwnershipTransferred",
      "type": "event"
    },
    {
      "inputs": [
        {
          "internalType": "string",
          "name": "_question",
          "type": "string"
        },
        {
          "internalType": "uint256",
          "name": "_endtime",
          "type": "uint256"
        }
      ],
      "name": "createMarket",
      "outputs": [],
      "stateMutability": "nonpayable",
      "type": "function"
    },
    {
      "inputs": [],
      "name": "getNoToken",
      "outputs": [
        {
          "internalType": "address",
          "name": "",
          "type": "address"
        }
      ],
      "stateMutability": "view",
      "type": "function"
    },
    {
      "inputs": [],
      "name": "getPriceToken",
      "outputs": [
        {
          "internalType": "address",
          "name": "",
          "type": "address"
        }
      ],
      "stateMutability": "view",
      "type": "function"
    },
    {
      "inputs": [],
      "name": "getYesToken",
      "outputs": [
        {
          "internalType": "address",
          "name": "",
          "type": "address"
        }
      ],
      "stateMutability": "view",
      "type": "function"
    },
    {
      "inputs": [],
      "name": "marketCount",
      "outputs": [
        {
          "internalType": "uint256",
          "name": "",
          "type": "uint256"
        }
      ],
      "stateMutability": "view",
      "type": "function"
    },
    {
      "inputs": [],
      "name": "noToken",
      "outputs": [
        {
          "internalType": "address",
          "name": "",
          "type": "address"
        }
      ],
      "stateMutability": "view",
      "type": "function"
    },
    {
      "inputs": [],
      "name": "noTokenContract",
      "outputs": [
        {
          "internalType": "contract NoToken",
          "name": "",
          "type": "address"
        }
      ],
      "stateMutability": "view",
      "type": "function"
    },
    {
      "inputs": [],
      "name": "owner",
      "outputs": [
        {
          "internalType": "address",
          "name": "",
          "type": "address"
        }
      ],
      "stateMutability": "view",
      "type": "function"
    },
    {
      "inputs": [],
      "name": "priceToken",
      "outputs": [
        {
          "internalType": "address",
          "name": "",
          "type": "address"
        }
      ],
      "stateMutability": "view",
      "type": "function"
    },
    {
      "inputs": [],
      "name": "renounceOwnership",
      "outputs": [],
      "stateMutability": "nonpayable",
      "type": "function"
    },
    {
      "inputs": [
        {
          "internalType": "address",
          "name": "_noToken",
          "type": "address"
        }
      ],
      "name": "setNoToken",
      "outputs": [],
      "stateMutability": "nonpayable",
      "type": "function"
    },
    {
      "inputs": [
        {
          "internalType": "address",
          "name": "_priceToken",
          "type": "address"
        }
      ],
      "name": "setPriceToken",
      "outputs": [],
      "stateMutability": "nonpayable",
      "type": "function"
    },
    {
      "inputs": [
        {
          "internalType": "address",
          "name": "_yesToken",
          "type": "address"
        }
      ],
      "name": "setYesToken",
      "outputs": [],
      "stateMutability": "nonpayable",
      "type": "function"
    },
    {
      "inputs": [
        {
          "internalType": "address",
          "name": "newOwner",
          "type": "address"
        }
      ],
      "name": "transferOwnership",
      "outputs": [],
      "stateMutability": "nonpayable",
      "type": "function"
    },
    {
      "inputs": [],
      "name": "yesToken",
      "outputs": [
        {
          "internalType": "address",
          "name": "",
          "type": "address"
        }
      ],
      "stateMutability": "view",
      "type": "function"
    },
    {
      "inputs": [],
      "name": "yesTokenContract",
      "outputs": [
        {
          "internalType": "contract YesToken",
          "name": "",
          "type": "address"
        }
      ],
      "stateMutability": "view",
      "type": "function"
    }
  ],
  "bytecode": "0x608060405234801561001057600080fd5b50604051613a82380380613a8283398101604081905261002f91610128565b338061005557604051631e4fbdf760e01b81526000600482015260240160405180910390fd5b61005e816100bc565b506000600155600280546001600160a01b039485166001600160a01b0319918216179091556003805493851693821684179055600480549290941691811682179093556005805484169092179091556006805490921617905561016b565b600080546001600160a01b038381166001600160a01b0319831681178455604051919092169283917f8be0079c531659141344cd1fd0a4f28419497f9722a3daafe3b4186f6b6457e09190a35050565b80516001600160a01b038116811461012357600080fd5b919050565b60008060006060848603121561013d57600080fd5b6101468461010c565b92506101546020850161010c565b91506101626040850161010c565b90509250925092565b6139088061017a6000396000f3fe60806040523480156200001157600080fd5b5060043610620001155760003560e01c806372f0424f11620000a3578063dea3bbba116200006e578063dea3bbba1462000223578063ec9790821462000237578063f0d9bb201462000250578063f2fde38b146200026457600080fd5b806372f0424f14620001d4578063883c84c114620001e65780638da5cb5b14620001fd578063c2c22e8d146200020f57600080fd5b8063570a5a6a11620000e4578063570a5a6a146200018f5780635b65cbdb14620001a15780637117f00814620001b3578063715018a614620001ca57600080fd5b806311a9f10a146200011a5780632ff6fe76146200014b578063411092e3146200015f57806344e6a6a01462000178575b600080fd5b6004546200012e906001600160a01b031681565b6040516001600160a01b0390911681526020015b60405180910390f35b6002546200012e906001600160a01b031681565b6200017662000170366004620005db565b6200027b565b005b6200017662000189366004620005db565b620002a7565b6004546001600160a01b03166200012e565b6003546001600160a01b03166200012e565b62000176620001c4366004620005db565b620002d3565b62000176620002ff565b6002546001600160a01b03166200012e565b62000176620001f736600462000623565b62000317565b6000546001600160a01b03166200012e565b6006546200012e906001600160a01b031681565b6005546200012e906001600160a01b031681565b6200024160015481565b60405190815260200162000142565b6003546200012e906001600160a01b031681565b6200017662000275366004620005db565b62000506565b620002856200054e565b600280546001600160a01b0319166001600160a01b0392909216919091179055565b620002b16200054e565b600480546001600160a01b0319166001600160a01b0392909216919091179055565b620002dd6200054e565b600380546001600160a01b0319166001600160a01b0392909216919091179055565b620003096200054e565b6200031560006200057d565b565b6002546003546004546001546040516000946001600160a01b0390811694811693169190879087906200034a90620005cd565b6200035b969594939291906200072a565b604051809103906000f08015801562000378573d6000803e3d6000fd5b50600554600154604051632ed0b1a360e11b815260048101919091526001600160a01b038084166024830152929350911690635da1634690604401600060405180830381600087803b158015620003ce57600080fd5b505af1158015620003e3573d6000803e3d6000fd5b5050600654600154604051632ed0b1a360e11b815260048101919091526001600160a01b0385811660248301529091169250635da163469150604401600060405180830381600087803b1580156200043a57600080fd5b505af11580156200044f573d6000803e3d6000fd5b50505050806001600160a01b031663bf4bdb276040518163ffffffff1660e01b8152600401600060405180830381600087803b1580156200048f57600080fd5b505af1158015620004a4573d6000803e3d6000fd5b505060018054925090506000620004bb836200077a565b91905055507f57d0d124b72f81ed1da0dc728fc33db342705974792928796f6577b8db5c3d53600154848484604051620004f99493929190620007a2565b60405180910390a1505050565b620005106200054e565b6001600160a01b0381166200054057604051631e4fbdf760e01b8152600060048201526024015b60405180910390fd5b6200054b816200057d565b50565b6000546001600160a01b03163314620003155760405163118cdaa760e01b815233600482015260240162000537565b600080546001600160a01b038381166001600160a01b0319831681178455604051919092169283917f8be0079c531659141344cd1fd0a4f28419497f9722a3daafe3b4186f6b6457e09190a35050565b6130f480620007df83390190565b600060208284031215620005ee57600080fd5b81356001600160a01b03811681146200060657600080fd5b9392505050565b634e487b7160e01b600052604160045260246000fd5b600080604083850312156200063757600080fd5b823567ffffffffffffffff808211156200065057600080fd5b818501915085601f8301126200066557600080fd5b8135818111156200067a576200067a6200060d565b604051601f8201601f19908116603f01168101908382118183101715620006a557620006a56200060d565b81604052828152886020848701011115620006bf57600080fd5b826020860160208301376000602093820184015298969091013596505050505050565b6000815180845260005b818110156200070a57602081850181015186830182015201620006ec565b506000602082860101526020601f19601f83011685010191505092915050565b6001600160a01b0387811682528681166020830152851660408201526060810184905260c0608082018190526000906200076790830185620006e2565b90508260a0830152979650505050505050565b6000600182016200079b57634e487b7160e01b600052601160045260246000fd5b5060010190565b848152608060208201526000620007bd6080830186620006e2565b6040830194909452506001600160a01b03919091166060909101529291505056fe6080604052600480546001600160a01b03191673e5caa785fee2154e5cddc15ac37eedf0274ad5a21790556200003a670de0b6b3a764000090565b600d55678ac7230489e80000600e556000600f5560006010553480156200006057600080fd5b50604051620030f4380380620030f483398101604081905262000083916200022b565b73e5caa785fee2154e5cddc15ac37eedf0274ad5a2620000a381620001a8565b50600180546001600160a01b038089166001600160a01b0319928316179092556002805488841690831617905560038054928716929091169190911790556040805161012081018252848152602081018490529081018290526000606082018190526080820181905260a0820181905260c0820181905260e08201819052610100820152600584815560066200013a8582620003db565b5060408201516002820155606082015160038201556080820151600482015560a0820151600582015560c082015160068201805460e085015161ffff1990911692151561ff0019169290921761010092151583021790559091015160079091015550620004a7945050505050565b600080546001600160a01b038381166001600160a01b0319831681178455604051919092169283917f8be0079c531659141344cd1fd0a4f28419497f9722a3daafe3b4186f6b6457e09190a35050565b80516001600160a01b03811681146200021057600080fd5b919050565b634e487b7160e01b600052604160045260246000fd5b60008060008060008060c087890312156200024557600080fd5b6200025087620001f8565b9550602062000261818901620001f8565b95506200027160408901620001f8565b606089015160808a015191965094506001600160401b03808211156200029657600080fd5b818a0191508a601f830112620002ab57600080fd5b815181811115620002c057620002c062000215565b604051601f8201601f19908116603f01168101908382118183101715620002eb57620002eb62000215565b816040528281528d868487010111156200030457600080fd5b600093505b8284101562000328578484018601518185018701529285019262000309565b600086848301015280975050505050505060a087015190509295509295509295565b600181811c908216806200035f57607f821691505b6020821081036200038057634e487b7160e01b600052602260045260246000fd5b50919050565b601f821115620003d6576000816000526020600020601f850160051c81016020861015620003b15750805b601f850160051c820191505b81811015620003d257828155600101620003bd565b5050505b505050565b81516001600160401b03811115620003f757620003f762000215565b6200040f816200040884546200034a565b8462000386565b602080601f8311600181146200044757600084156200042e5750858301515b600019600386901b1c1916600185901b178555620003d2565b600085815260208120601f198616915b82811015620004785788860151825594840194600190910190840162000457565b5085821015620004975787850151600019600388901b60f8161c191681555b5050505050600190811b01905550565b612c3d80620004b76000396000f3fe608060405234801561001057600080fd5b506004361061018e5760003560e01c80638da5cb5b116100de578063c84aae1711610097578063f0d9bb2011610071578063f0d9bb201461037e578063f23a6e6114610391578063f2fde38b146103b0578063f571c5f3146103c357600080fd5b8063c84aae1714610328578063d816574314610356578063e24c469b1461036b57600080fd5b80638da5cb5b146102b3578063a4d75065146102c4578063b88a802f146102d7578063bc197c81146102df578063bf4bdb2714610317578063bfc596011461031f57600080fd5b80632ff6fe761161014b5780635bea2410116101255780635bea241014610260578063715018a61461027b57806380f55605146102835780638b74b9ab146102a057600080fd5b80632ff6fe761461022a57806351c6590a1461023d57806355097bf11461025057600080fd5b806301ffc9a71461019357806311a9f10a146101cc5780631c426fc8146101f75780632810e1d61461020e5780632acf1cd2146102185780632e0f262514610221575b600080fd5b6101b76101a13660046125ca565b6001600160e01b031916630271189760e51b1490565b60405190151581526020015b60405180910390f35b6003546101df906001600160a01b031681565b6040516001600160a01b0390911681526020016101c3565b610200600e5481565b6040519081526020016101c3565b6102166103d6565b005b61020060105481565b610200600d5481565b6001546101df906001600160a01b031681565b61021661024b3660046125f4565b6105b3565b610200683635c9adc5dea0000081565b600f54601054604080519283526020830191909152016101c3565b6102166106d2565b61028b6106e6565b6040516101c399989796959493929190612653565b6102006102ae3660046126b8565b6107b1565b6000546001600160a01b03166101df565b6102006102d23660046126d5565b610850565b610216610939565b6102fe6102ed366004612849565b63bc197c8160e01b95945050505050565b6040516001600160e01b031990911681526020016101c3565b610216610d0d565b610200600f5481565b61033b6103363660046128f3565b610eb1565b604080519384526020840192909252908201526060016101c3565b61035e61101a565b6040516101c3919061290e565b6102166103793660046126d5565b61116b565b6002546101df906001600160a01b031681565b6102fe61039f36600461299b565b63f23a6e6160e01b95945050505050565b6102166103be3660046128f3565b6115b3565b6102166103d13660046126d5565b6115f1565b6004546001600160a01b031633146104415760405162461bcd60e51b8152602060048201526024808201527f4f6e6c79207265736f6c7665722063616e2063616c6c20746869732066756e636044820152633a34b7b760e11b60648201526084015b60405180910390fd5b60075442101561048a5760405162461bcd60e51b815260206004820152601460248201527313585c9ad95d081a185cc81b9bdd08195b99195960621b6044820152606401610438565b600b5460ff16156104dd5760405162461bcd60e51b815260206004820152601760248201527f4d61726b657420616c7265616479207265736f6c7665640000000000000000006044820152606401610438565b600b8054600a54600954116101000261ffff19909116176001908117909155546040516370a0823160e01b81523060048201526001600160a01b03909116906370a0823190602401602060405180830381865afa158015610542573d6000803e3d6000fd5b505050506040513d601f19601f820116820180604052508101906105669190612a00565b600c55600554600b546040805192835261010090910460ff16151560208301527f4927fe38919783250023d27e65a3e56b6b5c3e49364e51674a41ef08d62460d9910160405180910390a1565b6105bb6119fe565b600b5460ff16156105de5760405162461bcd60e51b815260040161043890612a19565b60075442106105ff5760405162461bcd60e51b815260040161043890612a45565b60025460055460405163731133e960e01b81526001600160a01b039092169163731133e991610635913091908690600401612a6f565b600060405180830381600087803b15801561064f57600080fd5b505af1158015610663573d6000803e3d6000fd5b505060035460055460405163731133e960e01b81526001600160a01b03909216935063731133e9925061069d913091908690600401612a6f565b600060405180830381600087803b1580156106b757600080fd5b505af11580156106cb573d6000803e3d6000fd5b5050505050565b6106da6119fe565b6106e46000611a2b565b565b60058054600680549192916106fa90612a9f565b80601f016020809104026020016040519081016040528092919081815260200182805461072690612a9f565b80156107735780601f1061074857610100808354040283529160200191610773565b820191906000526020600020905b81548152906001019060200180831161075657829003601f168201915b50505060028401546003850154600486015460058701546006880154600790980154969793969295509093509160ff80821692610100909204169089565b60008060006107f86107d86107d3600e54601054611a7b90919063ffffffff16565b611a9d565b6107f26107d3600e54600f54611a7b90919063ffffffff16565b90611af2565b905083156108215761081a6107d3600e54600f54611a7b90919063ffffffff16565b915061083e565b61083b6107d3600e54601054611a7b90919063ffffffff16565b91505b6108488282611a7b565b949350505050565b60008082116108715760405162461bcd60e51b815260040161043890612ad9565b60006108a461089b6108966107d86107d3600e54601054611a7b90919063ffffffff16565b611b01565b600e5490611b38565b9050600084156108fc576108f561089b6108966108d16107d3600e54601054611a7b90919063ffffffff16565b6107f26107d3600e546108ef8b600f54611af290919063ffffffff16565b90611a7b565b9050610926565b61092361089b6108966107d86107d3600e546108ef8a601054611af290919063ffffffff16565b90505b6109308183611b47565b95945050505050565b600b5460ff166109815760405162461bcd60e51b815260206004820152601360248201527213585c9ad95d081b9bdd081c995cdbdb1d9959606a1b6044820152606401610438565b600b54600090610100900460ff1615610ade57600254600554604051627eeac760e11b81526000926001600160a01b03169162fdd58e916109c6913391600401612b0e565b602060405180830381865afa1580156109e3573d6000803e3d6000fd5b505050506040513d601f19601f82011682018060405250810190610a079190612a00565b905060008111610a4e5760405162461bcd60e51b8152602060048201526012602482015271139bc8165154c81d1bdad95b9cc81a195b1960721b6044820152606401610438565b600954600c54610a5e9083612b3d565b610a689190612b6a565b600254600554604051637a94c56560e11b81523360048201526024810191909152604481018490529193506001600160a01b03169063f5298aca90606401600060405180830381600087803b158015610ac057600080fd5b505af1158015610ad4573d6000803e3d6000fd5b5050505050610c23565b600354600554604051627eeac760e11b81526000926001600160a01b03169162fdd58e91610b10913391600401612b0e565b602060405180830381865afa158015610b2d573d6000803e3d6000fd5b505050506040513d601f19601f82011682018060405250810190610b519190612a00565b905060008111610b975760405162461bcd60e51b8152602060048201526011602482015270139bc81393c81d1bdad95b9cc81a195b19607a1b6044820152606401610438565b600a54600c54610ba79083612b3d565b610bb19190612b6a565b600354600554604051637a94c56560e11b81523360048201526024810191909152604481018490529193506001600160a01b03169063f5298aca90606401600060405180830381600087803b158015610c0957600080fd5b505af1158015610c1d573d6000803e3d6000fd5b50505050505b60015460405163a9059cbb60e01b81526001600160a01b039091169063a9059cbb90610c559033908590600401612b0e565b6020604051808303816000875af1158015610c74573d6000803e3d6000fd5b505050506040513d601f19601f82011682018060405250810190610c989190612b8c565b610cd55760405162461bcd60e51b815260206004820152600e60248201526d14185e5b595b9d0819985a5b195960921b6044820152606401610438565b60405181815233907f106f923f993c2149d49b4255ff723acafa1f2d94393f561d3eda32ae348f72419060200160405180910390a250565b600b5460ff1615610d305760405162461bcd60e51b815260040161043890612a19565b6007544210610d515760405162461bcd60e51b815260040161043890612a45565b600f54158015610d615750601054155b610dad5760405162461bcd60e51b815260206004820152601d60248201527f4c697175696469747920616c726561647920696e697469616c697a65640000006044820152606401610438565b60025460055460405163731133e960e01b81526001600160a01b039092169163731133e991610dec91309190683635c9adc5dea0000090600401612a6f565b600060405180830381600087803b158015610e0657600080fd5b505af1158015610e1a573d6000803e3d6000fd5b505060035460055460405163731133e960e01b81526001600160a01b03909216935063731133e99250610e5d91309190683635c9adc5dea0000090600401612a6f565b600060405180830381600087803b158015610e7757600080fd5b505af1158015610e8b573d6000803e3d6000fd5b50505050610e9f683635c9adc5dea0000090565b600f55683635c9adc5dea00000601055565b6001546040516370a0823160e01b81526001600160a01b03838116600483015260009283928392909116906370a0823190602401602060405180830381865afa158015610f02573d6000803e3d6000fd5b505050506040513d601f19601f82011682018060405250810190610f269190612a00565b600254600554604051627eeac760e11b81529295506001600160a01b039091169162fdd58e91610f5b91889190600401612b0e565b602060405180830381865afa158015610f78573d6000803e3d6000fd5b505050506040513d601f19601f82011682018060405250810190610f9c9190612a00565b600354600554604051627eeac760e11b81529294506001600160a01b039091169162fdd58e91610fd191889190600401612b0e565b602060405180830381865afa158015610fee573d6000803e3d6000fd5b505050506040513d601f19601f820116820180604052508101906110129190612a00565b929491935050565b61106d604051806101200160405280600081526020016060815260200160008152602001600081526020016000815260200160008152602001600015158152602001600015158152602001600081525090565b6040805161012081019091526005805482526006805460208401919061109290612a9f565b80601f01602080910402602001604051908101604052809291908181526020018280546110be90612a9f565b801561110b5780601f106110e05761010080835404028352916020019161110b565b820191906000526020600020905b8154815290600101906020018083116110ee57829003601f168201915b505050918352505060028201546020820152600382015460408201526004820154606082015260058201546080820152600682015460ff808216151560a084015261010090910416151560c082015260079091015460e090910152919050565b600b5460ff161561118e5760405162461bcd60e51b815260040161043890612a19565b60075442106111af5760405162461bcd60e51b815260040161043890612a45565b600081116111cf5760405162461bcd60e51b815260040161043890612ad9565b60006111db8383610850565b905082156112a157600254600554604051627eeac760e11b815284926001600160a01b03169162fdd58e91611214913091600401612b0e565b602060405180830381865afa158015611231573d6000803e3d6000fd5b505050506040513d601f19601f820116820180604052508101906112559190612a00565b101561129c5760405162461bcd60e51b8152602060048201526016602482015275496e73756666696369656e74206c697175696469747960501b6044820152606401610438565b61135a565b600354600554604051627eeac760e11b815284926001600160a01b03169162fdd58e916112d2913091600401612b0e565b602060405180830381865afa1580156112ef573d6000803e3d6000fd5b505050506040513d601f19601f820116820180604052508101906113139190612a00565b101561135a5760405162461bcd60e51b8152602060048201526016602482015275496e73756666696369656e74206c697175696469747960501b6044820152606401610438565b6001546001600160a01b03166323b872dd3330846040516001600160e01b031960e086901b1681526001600160a01b03938416600482015292909116602483015260448201526064016020604051808303816000875af11580156113c2573d6000803e3d6000fd5b505050506040513d601f19601f820116820180604052508101906113e69190612b8c565b6114235760405162461bcd60e51b815260206004820152600e60248201526d14185e5b595b9d0819985a5b195960921b6044820152606401610438565b821561144f57600f546114369083611af2565b600f55816009546114479190612ba9565b600955611471565b60105461145c9083611af2565b60105581600a5461146d9190612ba9565b600a555b8160085461147f9190612ba9565b60085582156114f657600254600554604051637921219560e11b81526001600160a01b039092169163f242432a916114bf91309133918890600401612bbc565b600060405180830381600087803b1580156114d957600080fd5b505af11580156114ed573d6000803e3d6000fd5b50505050611560565b600354600554604051637921219560e11b81526001600160a01b039092169163f242432a9161152d91309133918890600401612bbc565b600060405180830381600087803b15801561154757600080fd5b505af115801561155b573d6000803e3d6000fd5b505050505b337f8fafebcaf9d154343dad25669bfa277f4fbacd7ac6b0c4fed522580e040a0f338461158e576002611591565b60015b846040805160ff909316835260208301919091520160405180910390a2505050565b6115bb6119fe565b6001600160a01b0381166115e557604051631e4fbdf760e01b815260006004820152602401610438565b6115ee81611a2b565b50565b600b5460ff16156116145760405162461bcd60e51b815260040161043890612a19565b60075442106116355760405162461bcd60e51b815260040161043890612a45565b600081116116555760405162461bcd60e51b815260040161043890612ad9565b60006116618383610850565b9050821561172557600254600554604051627eeac760e11b815284926001600160a01b03169162fdd58e9161169a913391600401612b0e565b602060405180830381865afa1580156116b7573d6000803e3d6000fd5b505050506040513d601f19601f820116820180604052508101906116db9190612a00565b10156117205760405162461bcd60e51b8152602060048201526014602482015273496e73756666696369656e742062616c616e636560601b6044820152606401610438565b6117dc565b600354600554604051627eeac760e11b815284926001600160a01b03169162fdd58e91611756913391600401612b0e565b602060405180830381865afa158015611773573d6000803e3d6000fd5b505050506040513d601f19601f820116820180604052508101906117979190612a00565b10156117dc5760405162461bcd60e51b8152602060048201526014602482015273496e73756666696369656e742062616c616e636560601b6044820152606401610438565b821561180857600f546117ef9083611b47565b600f55816009546118009190612bf4565b60095561182a565b6010546118159083611b47565b60105581600a546118269190612bf4565b600a555b816008546118389190612bf4565b60085582156118af57600254600554604051637921219560e11b81526001600160a01b039092169163f242432a9161187891339130918890600401612bbc565b600060405180830381600087803b15801561189257600080fd5b505af11580156118a6573d6000803e3d6000fd5b50505050611919565b600354600554604051637921219560e11b81526001600160a01b039092169163f242432a916118e691339130918890600401612bbc565b600060405180830381600087803b15801561190057600080fd5b505af1158015611914573d6000803e3d6000fd5b505050505b6001546001600160a01b031663a9059cbb33836040518363ffffffff1660e01b8152600401611949929190612b0e565b6020604051808303816000875af1158015611968573d6000803e3d6000fd5b505050506040513d601f19601f8201168201806040525081019061198c9190612b8c565b6119d05760405162461bcd60e51b815260206004820152601560248201527414995d1d5c9b881c185e5b595b9d0819985a5b1959605a1b6044820152606401610438565b337f2dcf9433d75db0d8b1c172641f85e319ffe4ad22e108a95d1847ceb906e5195d8461158e576002611591565b6000546001600160a01b031633146106e45760405163118cdaa760e01b8152336004820152602401610438565b600080546001600160a01b038381166001600160a01b0319831681178455604051919092169283917f8be0079c531659141344cd1fd0a4f28419497f9722a3daafe3b4186f6b6457e09190a35050565b6000611a96611a9384670de0b6b3a764000085611b56565b90565b9392505050565b600081680736ea4425c11ac630811115611acd57604051630d7b1d6560e11b815260048101849052602401610438565b6714057b7ef767814f8102610848611aed670de0b6b3a7640000835b0490565b611c29565b6000611a96611a938385612ba9565b6000611b326714057b7ef767814f670de0b6b3a7640000611b24611a9386611c7f565b0281611ae957611ae9612b54565b92915050565b6000611a96611a938484611db4565b6000611a96611a938385612bf4565b6000808060001985870985870292508281108382030391505080600003611b9057838281611b8657611b86612b54565b0492505050611a96565b838110611bc157604051630c740aef60e31b8152600481018790526024810186905260448101859052606401610438565b600084868809600260036001881981018916988990049182028318808302840302808302840302808302840302808302840302808302840302918202909203026000889003889004909101858311909403939093029303949094049190911702949350505050565b600081680a688906bd8affffff811115611c595760405163b3b6ba1f60e01b815260048101849052602401610438565b6000611c71670de0b6b3a7640000604084901b612b6a565b9050610848611a9382611e6a565b600081670de0b6b3a7640000811015611cae5760405163036d32ef60e41b815260048101849052602401610438565b6000611d3a670de0b6b3a7640000830460016fffffffffffffffffffffffffffffffff821160071b91821c67ffffffffffffffff811160061b90811c63ffffffff811160051b90811c61ffff811160041b90811c60ff8111600390811b91821c600f811160021b90811c918211871b91821c969096119490961792909217171791909117919091171790565b9050670de0b6b3a7640000810282821c670de0b6b3a763ffff198101611d635750949350505050565b671bc16d674ec800006706f05b59d3b200005b8015611da657670de0b6b3a7640000838002049250818310611d9e579283019260019290921c915b60011c611d76565b50825b979650505050505050565b6000808060001984860984860292508281108382030391505080600003611de85750670de0b6b3a764000090049050611b32565b670de0b6b3a76400008110611e1a57604051635173648d60e01b81526004810186905260248101859052604401610438565b6000670de0b6b3a764000085870962040000818503049310909103600160ee1b02919091177faccb18165bd6fe31ae1cf318dc5b51eee0e1ba569b88cd74c1773b91fac106690291505092915050565b600160bf1b67ff00000000000000821615611f7757678000000000000000821615611e9e5768016a09e667f3bcc9090260401c5b674000000000000000821615611ebd576801306fe0a31b7152df0260401c5b672000000000000000821615611edc576801172b83c7d517adce0260401c5b671000000000000000821615611efb5768010b5586cf9890f62a0260401c5b670800000000000000821615611f1a576801059b0d31585743ae0260401c5b670400000000000000821615611f3957680102c9a3e778060ee70260401c5b670200000000000000821615611f585768010163da9fb33356d80260401c5b670100000000000000821615611f7757680100b1afa5abcbed610260401c5b66ff000000000000821615612076576680000000000000821615611fa45768010058c86da1c09ea20260401c5b6640000000000000821615611fc2576801002c605e2e8cec500260401c5b6620000000000000821615611fe057680100162f3904051fa10260401c5b6610000000000000821615611ffe576801000b175effdc76ba0260401c5b660800000000000082161561201c57680100058ba01fb9f96d0260401c5b660400000000000082161561203a5768010002c5cc37da94920260401c5b6602000000000000821615612058576801000162e525ee05470260401c5b66010000000000008216156120765768010000b17255775c040260401c5b65ff000000000082161561216c57658000000000008216156120a1576801000058b91b5bc9ae0260401c5b654000000000008216156120be57680100002c5c89d5ec6d0260401c5b652000000000008216156120db5768010000162e43f4f8310260401c5b651000000000008216156120f857680100000b1721bcfc9a0260401c5b650800000000008216156121155768010000058b90cf1e6e0260401c5b65040000000000821615612132576801000002c5c863b73f0260401c5b6502000000000082161561214f57680100000162e430e5a20260401c5b6501000000000082161561216c576801000000b1721835510260401c5b64ff000000008216156122595764800000000082161561219557680100000058b90c0b490260401c5b6440000000008216156121b15768010000002c5c8601cc0260401c5b6420000000008216156121cd576801000000162e42fff00260401c5b6410000000008216156121e95768010000000b17217fbb0260401c5b640800000000821615612205576801000000058b90bfce0260401c5b64040000000082161561222157680100000002c5c85fe30260401c5b64020000000082161561223d5768010000000162e42ff10260401c5b64010000000082161561225957680100000000b17217f80260401c5b63ff00000082161561233d5763800000008216156122805768010000000058b90bfc0260401c5b634000000082161561229b576801000000002c5c85fe0260401c5b63200000008216156122b657680100000000162e42ff0260401c5b63100000008216156122d1576801000000000b17217f0260401c5b63080000008216156122ec57680100000000058b90c00260401c5b63040000008216156123075768010000000002c5c8600260401c5b6302000000821615612322576801000000000162e4300260401c5b630100000082161561233d5768010000000000b172180260401c5b62ff00008216156124185762800000821615612362576801000000000058b90c0260401c5b6240000082161561237c57680100000000002c5c860260401c5b622000008216156123965768010000000000162e430260401c5b621000008216156123b057680100000000000b17210260401c5b620800008216156123ca5768010000000000058b910260401c5b620400008216156123e4576801000000000002c5c80260401c5b620200008216156123fe57680100000000000162e40260401c5b62010000821615612418576801000000000000b1720260401c5b61ff008216156124ea5761800082161561243b57680100000000000058b90260401c5b6140008216156124545768010000000000002c5d0260401c5b61200082161561246d576801000000000000162e0260401c5b6110008216156124865768010000000000000b170260401c5b61080082161561249f576801000000000000058c0260401c5b6104008216156124b857680100000000000002c60260401c5b6102008216156124d157680100000000000001630260401c5b6101008216156124ea57680100000000000000b10260401c5b60ff8216156125b357608082161561250b57680100000000000000590260401c5b6040821615612523576801000000000000002c0260401c5b602082161561253b57680100000000000000160260401c5b6010821615612553576801000000000000000b0260401c5b600882161561256b57680100000000000000060260401c5b600482161561258357680100000000000000030260401c5b600282161561259b57680100000000000000010260401c5b60018216156125b357680100000000000000010260401c5b670de0b6b3a76400000260409190911c60bf031c90565b6000602082840312156125dc57600080fd5b81356001600160e01b031981168114611a9657600080fd5b60006020828403121561260657600080fd5b5035919050565b6000815180845260005b8181101561263357602081850181015186830182015201612617565b506000602082860101526020601f19601f83011685010191505092915050565b60006101208b835280602084015261266d8184018c61260d565b604084019a909a5250506060810196909652608086019490945260a0850192909252151560c0840152151560e08301526101009091015292915050565b80151581146115ee57600080fd5b6000602082840312156126ca57600080fd5b8135611a96816126aa565b600080604083850312156126e857600080fd5b82356126f3816126aa565b946020939093013593505050565b80356001600160a01b038116811461271857600080fd5b919050565b634e487b7160e01b600052604160045260246000fd5b604051601f8201601f1916810167ffffffffffffffff8111828210171561275c5761275c61271d565b604052919050565b600082601f83011261277557600080fd5b8135602067ffffffffffffffff8211156127915761279161271d565b8160051b6127a0828201612733565b92835284810182019282810190878511156127ba57600080fd5b83870192505b84831015611da9578235825291830191908301906127c0565b600082601f8301126127ea57600080fd5b813567ffffffffffffffff8111156128045761280461271d565b612817601f8201601f1916602001612733565b81815284602083860101111561282c57600080fd5b816020850160208301376000918101602001919091529392505050565b600080600080600060a0868803121561286157600080fd5b61286a86612701565b945061287860208701612701565b9350604086013567ffffffffffffffff8082111561289557600080fd5b6128a189838a01612764565b945060608801359150808211156128b757600080fd5b6128c389838a01612764565b935060808801359150808211156128d957600080fd5b506128e6888289016127d9565b9150509295509295909350565b60006020828403121561290557600080fd5b611a9682612701565b60208152815160208201526000602083015161012080604085015261293761014085018361260d565b91506040850151606085015260608501516080850152608085015160a085015260a085015160c085015260c085015161297460e086018215159052565b5060e085015161010061298a8187018315159052565b959095015193019290925250919050565b600080600080600060a086880312156129b357600080fd5b6129bc86612701565b94506129ca60208701612701565b93506040860135925060608601359150608086013567ffffffffffffffff8111156129f457600080fd5b6128e6888289016127d9565b600060208284031215612a1257600080fd5b5051919050565b60208082526012908201527113585c9ad95d081a5cc81c995cdbdb1d995960721b604082015260600190565b60208082526010908201526f13585c9ad95d081a185cc8195b99195960821b604082015260600190565b6001600160a01b039390931683526020830191909152604082015260806060820181905260009082015260a00190565b600181811c90821680612ab357607f821691505b602082108103612ad357634e487b7160e01b600052602260045260246000fd5b50919050565b6020808252818101527f416d6f756e74206d7573742062652067726561746572207468616e207a65726f604082015260600190565b6001600160a01b03929092168252602082015260400190565b634e487b7160e01b600052601160045260246000fd5b8082028115828204841417611b3257611b32612b27565b634e487b7160e01b600052601260045260246000fd5b600082612b8757634e487b7160e01b600052601260045260246000fd5b500490565b600060208284031215612b9e57600080fd5b8151611a96816126aa565b80820180821115611b3257611b32612b27565b6001600160a01b0394851681529290931660208301526040820152606081019190915260a06080820181905260009082015260c00190565b81810381811115611b3257611b32612b2756fea2646970667358221220add7c26695f0efe894128d310df39dac4fae5585074f98fb87e095455e3db17e64736f6c63430008180033a26469706673582212207977f6b082095ee23df1846d7ef58644024428269ba8693db3229e342a7abd2a64736f6c63430008180033",
  "linkReferences": {},
  "deployedLinkReferences": {}
}