{
  "_format": "hh-sol-artifact-1",
  "contractName": "PredictionMarket",
  "sourceName": "contracts/PredictionMarket.sol",
  "abi": [
    {
      "inputs": [
        {
          "internalType": "address",
          "name": "_priceToken",
          "type": "address"
        },
        {
          "internalType": "address",
          "name": "_yesToken",
          "type": "address"
        },
        {
          "internalType": "address",
          "name": "_noToken",
          "type": "address"
        },
        {
          "internalType": "uint256",
          "name": "_marketId",
          "type": "uint256"
        },
        {
          "internalType": "string",
          "name": "_question",
          "type": "string"
        },
        {
          "internalType": "uint256",
          "name": "_endtime",
          "type": "uint256"
        }
      ],
      "stateMutability": "nonpayable",
      "type": "constructor"
    },
    {
      "inputs": [
        {
          "internalType": "address",
          "name": "owner",
          "type": "address"
        }
      ],
      "name": "OwnableInvalidOwner",
      "type": "error"
    },
    {
      "inputs": [
        {
          "internalType": "address",
          "name": "account",
          "type": "address"
        }
      ],
      "name": "OwnableUnauthorizedAccount",
      "type": "error"
    },
    {
      "inputs": [
        {
          "internalType": "uint256",
          "name": "x",
          "type": "uint256"
        },
        {
          "internalType": "uint256",
          "name": "y",
          "type": "uint256"
        }
      ],
      "name": "PRBMath_MulDiv18_Overflow",
      "type": "error"
    },
    {
      "inputs": [
        {
          "internalType": "uint256",
          "name": "x",
          "type": "uint256"
        },
        {
          "internalType": "uint256",
          "name": "y",
          "type": "uint256"
        },
        {
          "internalType": "uint256",
          "name": "denominator",
          "type": "uint256"
        }
      ],
      "name": "PRBMath_MulDiv_Overflow",
      "type": "error"
    },
    {
      "inputs": [
        {
          "internalType": "UD60x18",
          "name": "x",
          "type": "uint256"
        }
      ],
      "name": "PRBMath_UD60x18_Exp2_InputTooBig",
      "type": "error"
    },
    {
      "inputs": [
        {
          "internalType": "UD60x18",
          "name": "x",
          "type": "uint256"
        }
      ],
      "name": "PRBMath_UD60x18_Exp_InputTooBig",
      "type": "error"
    },
    {
      "inputs": [
        {
          "internalType": "UD60x18",
          "name": "x",
          "type": "uint256"
        }
      ],
      "name": "PRBMath_UD60x18_Log_InputTooSmall",
      "type": "error"
    },
    {
      "anonymous": false,
      "inputs": [
        {
          "indexed": true,
          "internalType": "address",
          "name": "provider",
          "type": "address"
        },
        {
          "indexed": false,
          "internalType": "uint256",
          "name": "amount",
          "type": "uint256"
        }
      ],
      "name": "LiquidityAdded",
      "type": "event"
    },
    {
      "anonymous": false,
      "inputs": [
        {
          "indexed": false,
          "internalType": "uint256",
          "name": "marketId",
          "type": "uint256"
        },
        {
          "indexed": false,
          "internalType": "bool",
          "name": "result",
          "type": "bool"
        }
      ],
      "name": "MarketResolved",
      "type": "event"
    },
    {
      "anonymous": false,
      "inputs": [
        {
          "indexed": true,
          "internalType": "address",
          "name": "previousOwner",
          "type": "address"
        },
        {
          "indexed": true,
          "internalType": "address",
          "name": "newOwner",
          "type": "address"
        }
      ],
      "name": "OwnershipTransferred",
      "type": "event"
    },
    {
      "anonymous": false,
      "inputs": [
        {
          "indexed": true,
          "internalType": "address",
          "name": "user",
          "type": "address"
        },
        {
          "indexed": false,
          "internalType": "uint256",
          "name": "amount",
          "type": "uint256"
        }
      ],
      "name": "RewardClaimed",
      "type": "event"
    },
    {
      "anonymous": false,
      "inputs": [
        {
          "indexed": true,
          "internalType": "address",
          "name": "buyer",
          "type": "address"
        },
        {
          "indexed": false,
          "internalType": "uint256",
          "name": "tokentype",
          "type": "uint256"
        },
        {
          "indexed": false,
          "internalType": "uint256",
          "name": "amount",
          "type": "uint256"
        }
      ],
      "name": "TokensPurchased",
      "type": "event"
    },
    {
      "anonymous": false,
      "inputs": [
        {
          "indexed": true,
          "internalType": "address",
          "name": "seller",
          "type": "address"
        },
        {
          "indexed": false,
          "internalType": "uint256",
          "name": "tokentype",
          "type": "uint256"
        },
        {
          "indexed": false,
          "internalType": "uint256",
          "name": "amount",
          "type": "uint256"
        }
      ],
      "name": "TokensSold",
      "type": "event"
    },
    {
      "anonymous": false,
      "inputs": [
        {
          "indexed": false,
          "internalType": "uint256",
          "name": "balance",
          "type": "uint256"
        }
      ],
      "name": "yesTokenbalance",
      "type": "event"
    },
    {
      "inputs": [],
      "name": "DECIMALS",
      "outputs": [
        {
          "internalType": "UD60x18",
          "name": "",
          "type": "uint256"
        }
      ],
      "stateMutability": "view",
      "type": "function"
    },
    {
      "inputs": [],
      "name": "INITIAL_LIQUIDITY",
      "outputs": [
        {
          "internalType": "uint256",
          "name": "",
          "type": "uint256"
        }
      ],
      "stateMutability": "view",
      "type": "function"
    },
    {
      "inputs": [],
      "name": "LIQUIDITY_PARAMETER",
      "outputs": [
        {
          "internalType": "UD60x18",
          "name": "",
          "type": "uint256"
        }
      ],
      "stateMutability": "view",
      "type": "function"
    },
    {
      "inputs": [
        {
          "internalType": "uint256",
          "name": "amount",
          "type": "uint256"
        }
      ],
      "name": "addLiquidity",
      "outputs": [],
      "stateMutability": "nonpayable",
      "type": "function"
    },
    {
      "inputs": [
        {
          "internalType": "bool",
          "name": "isYesToken",
          "type": "bool"
        },
        {
          "internalType": "UD60x18",
          "name": "amount",
          "type": "uint256"
        }
      ],
      "name": "buy",
      "outputs": [],
      "stateMutability": "nonpayable",
      "type": "function"
    },
    {
      "inputs": [],
      "name": "claimReward",
      "outputs": [],
      "stateMutability": "nonpayable",
      "type": "function"
    },
    {
      "inputs": [
        {
          "internalType": "address",
          "name": "account",
          "type": "address"
        }
      ],
      "name": "getBalances",
      "outputs": [
        {
          "internalType": "uint256",
          "name": "priceTokenBalance",
          "type": "uint256"
        },
        {
          "internalType": "uint256",
          "name": "yesTokenBalance",
          "type": "uint256"
        },
        {
          "internalType": "uint256",
          "name": "noTokenBalance",
          "type": "uint256"
        }
      ],
      "stateMutability": "view",
      "type": "function"
    },
    {
      "inputs": [
        {
          "internalType": "bool",
          "name": "isYesToken",
          "type": "bool"
        },
        {
          "internalType": "UD60x18",
          "name": "amount",
          "type": "uint256"
        }
      ],
      "name": "getCost",
      "outputs": [
        {
          "internalType": "UD60x18",
          "name": "price",
          "type": "uint256"
        }
      ],
      "stateMutability": "view",
      "type": "function"
    },
    {
      "inputs": [],
      "name": "getMarketState",
      "outputs": [
        {
          "components": [
            {
              "internalType": "uint256",
              "name": "id",
              "type": "uint256"
            },
            {
              "internalType": "string",
              "name": "question",
              "type": "string"
            },
            {
              "internalType": "uint256",
              "name": "endTime",
              "type": "uint256"
            },
            {
              "internalType": "uint256",
              "name": "totalStaked",
              "type": "uint256"
            },
            {
              "internalType": "uint256",
              "name": "totalYes",
              "type": "uint256"
            },
            {
              "internalType": "uint256",
              "name": "totalNo",
              "type": "uint256"
            },
            {
              "internalType": "bool",
              "name": "resolved",
              "type": "bool"
            },
            {
              "internalType": "bool",
              "name": "won",
              "type": "bool"
            },
            {
              "internalType": "uint256",
              "name": "totalPriceToken",
              "type": "uint256"
            }
          ],
          "internalType": "struct PredictionMarket.Market",
          "name": "marketState",
          "type": "tuple"
        }
      ],
      "stateMutability": "view",
      "type": "function"
    },
    {
      "inputs": [
        {
          "internalType": "bool",
          "name": "isYesToken",
          "type": "bool"
        }
      ],
      "name": "getTokenPrice",
      "outputs": [
        {
          "internalType": "UD60x18",
          "name": "price",
          "type": "uint256"
        }
      ],
      "stateMutability": "view",
      "type": "function"
    },
    {
      "inputs": [],
      "name": "getTokenQuantities",
      "outputs": [
        {
          "internalType": "UD60x18",
          "name": "yesQuantity",
          "type": "uint256"
        },
        {
          "internalType": "UD60x18",
          "name": "noQuantity",
          "type": "uint256"
        }
      ],
      "stateMutability": "view",
      "type": "function"
    },
    {
      "inputs": [],
      "name": "initializeLiquidity",
      "outputs": [],
      "stateMutability": "nonpayable",
      "type": "function"
    },
    {
      "inputs": [],
      "name": "market",
      "outputs": [
        {
          "internalType": "uint256",
          "name": "id",
          "type": "uint256"
        },
        {
          "internalType": "string",
          "name": "question",
          "type": "string"
        },
        {
          "internalType": "uint256",
          "name": "endTime",
          "type": "uint256"
        },
        {
          "internalType": "uint256",
          "name": "totalStaked",
          "type": "uint256"
        },
        {
          "internalType": "uint256",
          "name": "totalYes",
          "type": "uint256"
        },
        {
          "internalType": "uint256",
          "name": "totalNo",
          "type": "uint256"
        },
        {
          "internalType": "bool",
          "name": "resolved",
          "type": "bool"
        },
        {
          "internalType": "bool",
          "name": "won",
          "type": "bool"
        },
        {
          "internalType": "uint256",
          "name": "totalPriceToken",
          "type": "uint256"
        }
      ],
      "stateMutability": "view",
      "type": "function"
    },
    {
      "inputs": [],
      "name": "noToken",
      "outputs": [
        {
          "internalType": "contract NoToken",
          "name": "",
          "type": "address"
        }
      ],
      "stateMutability": "view",
      "type": "function"
    },
    {
      "inputs": [
        {
          "internalType": "address",
          "name": "",
          "type": "address"
        },
        {
          "internalType": "address",
          "name": "",
          "type": "address"
        },
        {
          "internalType": "uint256[]",
          "name": "",
          "type": "uint256[]"
        },
        {
          "internalType": "uint256[]",
          "name": "",
          "type": "uint256[]"
        },
        {
          "internalType": "bytes",
          "name": "",
          "type": "bytes"
        }
      ],
      "name": "onERC1155BatchReceived",
      "outputs": [
        {
          "internalType": "bytes4",
          "name": "",
          "type": "bytes4"
        }
      ],
      "stateMutability": "nonpayable",
      "type": "function"
    },
    {
      "inputs": [
        {
          "internalType": "address",
          "name": "",
          "type": "address"
        },
        {
          "internalType": "address",
          "name": "",
          "type": "address"
        },
        {
          "internalType": "uint256",
          "name": "",
          "type": "uint256"
        },
        {
          "internalType": "uint256",
          "name": "",
          "type": "uint256"
        },
        {
          "internalType": "bytes",
          "name": "",
          "type": "bytes"
        }
      ],
      "name": "onERC1155Received",
      "outputs": [
        {
          "internalType": "bytes4",
          "name": "",
          "type": "bytes4"
        }
      ],
      "stateMutability": "nonpayable",
      "type": "function"
    },
    {
      "inputs": [],
      "name": "owner",
      "outputs": [
        {
          "internalType": "address",
          "name": "",
          "type": "address"
        }
      ],
      "stateMutability": "view",
      "type": "function"
    },
    {
      "inputs": [],
      "name": "priceToken",
      "outputs": [
        {
          "internalType": "contract IERC20",
          "name": "",
          "type": "address"
        }
      ],
      "stateMutability": "view",
      "type": "function"
    },
    {
      "inputs": [],
      "name": "qNo",
      "outputs": [
        {
          "internalType": "UD60x18",
          "name": "",
          "type": "uint256"
        }
      ],
      "stateMutability": "view",
      "type": "function"
    },
    {
      "inputs": [],
      "name": "qYes",
      "outputs": [
        {
          "internalType": "UD60x18",
          "name": "",
          "type": "uint256"
        }
      ],
      "stateMutability": "view",
      "type": "function"
    },
    {
      "inputs": [],
      "name": "renounceOwnership",
      "outputs": [],
      "stateMutability": "nonpayable",
      "type": "function"
    },
    {
      "inputs": [],
      "name": "resolve",
      "outputs": [],
      "stateMutability": "nonpayable",
      "type": "function"
    },
    {
      "inputs": [
        {
          "internalType": "bool",
          "name": "isYesToken",
          "type": "bool"
        },
        {
          "internalType": "UD60x18",
          "name": "amount",
          "type": "uint256"
        }
      ],
      "name": "sell",
      "outputs": [],
      "stateMutability": "nonpayable",
      "type": "function"
    },
    {
      "inputs": [
        {
          "internalType": "bytes4",
          "name": "interfaceId",
          "type": "bytes4"
        }
      ],
      "name": "supportsInterface",
      "outputs": [
        {
          "internalType": "bool",
          "name": "",
          "type": "bool"
        }
      ],
      "stateMutability": "view",
      "type": "function"
    },
    {
      "inputs": [
        {
          "internalType": "address",
          "name": "newOwner",
          "type": "address"
        }
      ],
      "name": "transferOwnership",
      "outputs": [],
      "stateMutability": "nonpayable",
      "type": "function"
    },
    {
      "inputs": [],
      "name": "yesToken",
      "outputs": [
        {
          "internalType": "contract YesToken",
          "name": "",
          "type": "address"
        }
      ],
      "stateMutability": "view",
      "type": "function"
    }
  ],
  "bytecode": "0x6080604052600480546001600160a01b03191673e5caa785fee2154e5cddc15ac37eedf0274ad5a21790556200003a670de0b6b3a764000090565b600d55678ac7230489e80000600e556000600f5560006010553480156200006057600080fd5b50604051620030ec380380620030ec83398101604081905262000083916200022b565b73e5caa785fee2154e5cddc15ac37eedf0274ad5a2620000a381620001a8565b50600180546001600160a01b038089166001600160a01b0319928316179092556002805488841690831617905560038054928716929091169190911790556040805161012081018252848152602081018490529081018290526000606082018190526080820181905260a0820181905260c0820181905260e08201819052610100820152600584815560066200013a8582620003db565b5060408201516002820155606082015160038201556080820151600482015560a0820151600582015560c082015160068201805460e085015161ffff1990911692151561ff0019169290921761010092151583021790559091015160079091015550620004a7945050505050565b600080546001600160a01b038381166001600160a01b0319831681178455604051919092169283917f8be0079c531659141344cd1fd0a4f28419497f9722a3daafe3b4186f6b6457e09190a35050565b80516001600160a01b03811681146200021057600080fd5b919050565b634e487b7160e01b600052604160045260246000fd5b60008060008060008060c087890312156200024557600080fd5b6200025087620001f8565b9550602062000261818901620001f8565b95506200027160408901620001f8565b606089015160808a015191965094506001600160401b03808211156200029657600080fd5b818a0191508a601f830112620002ab57600080fd5b815181811115620002c057620002c062000215565b604051601f8201601f19908116603f01168101908382118183101715620002eb57620002eb62000215565b816040528281528d868487010111156200030457600080fd5b600093505b8284101562000328578484018601518185018701529285019262000309565b600086848301015280975050505050505060a087015190509295509295509295565b600181811c908216806200035f57607f821691505b6020821081036200038057634e487b7160e01b600052602260045260246000fd5b50919050565b601f821115620003d6576000816000526020600020601f850160051c81016020861015620003b15750805b601f850160051c820191505b81811015620003d257828155600101620003bd565b5050505b505050565b81516001600160401b03811115620003f757620003f762000215565b6200040f816200040884546200034a565b8462000386565b602080601f8311600181146200044757600084156200042e5750858301515b600019600386901b1c1916600185901b178555620003d2565b600085815260208120601f198616915b82811015620004785788860151825594840194600190910190840162000457565b5085821015620004975787850151600019600388901b60f8161c191681555b5050505050600190811b01905550565b612c3580620004b76000396000f3fe608060405234801561001057600080fd5b506004361061018e5760003560e01c80638da5cb5b116100de578063c84aae1711610097578063f0d9bb2011610071578063f0d9bb201461037e578063f23a6e6114610391578063f2fde38b146103b0578063f571c5f3146103c357600080fd5b8063c84aae1714610328578063d816574314610356578063e24c469b1461036b57600080fd5b80638da5cb5b146102b3578063a4d75065146102c4578063b88a802f146102d7578063bc197c81146102df578063bf4bdb2714610317578063bfc596011461031f57600080fd5b80632ff6fe761161014b5780635bea2410116101255780635bea241014610260578063715018a61461027b57806380f55605146102835780638b74b9ab146102a057600080fd5b80632ff6fe761461022a57806351c6590a1461023d57806355097bf11461025057600080fd5b806301ffc9a71461019357806311a9f10a146101cc5780631c426fc8146101f75780632810e1d61461020e5780632acf1cd2146102185780632e0f262514610221575b600080fd5b6101b76101a13660046125c2565b6001600160e01b031916630271189760e51b1490565b60405190151581526020015b60405180910390f35b6003546101df906001600160a01b031681565b6040516001600160a01b0390911681526020016101c3565b610200600e5481565b6040519081526020016101c3565b6102166103d6565b005b61020060105481565b610200600d5481565b6001546101df906001600160a01b031681565b61021661024b3660046125ec565b6105b3565b610200683635c9adc5dea0000081565b600f54601054604080519283526020830191909152016101c3565b6102166106ca565b61028b6106de565b6040516101c39998979695949392919061264b565b6102006102ae3660046126b0565b6107a9565b6000546001600160a01b03166101df565b6102006102d23660046126cd565b610848565b610216610931565b6102fe6102ed366004612841565b63bc197c8160e01b95945050505050565b6040516001600160e01b031990911681526020016101c3565b610216610d05565b610200600f5481565b61033b6103363660046128eb565b610ea9565b604080519384526020840192909252908201526060016101c3565b61035e611012565b6040516101c39190612906565b6102166103793660046126cd565b611163565b6002546101df906001600160a01b031681565b6102fe61039f366004612993565b63f23a6e6160e01b95945050505050565b6102166103be3660046128eb565b6115ab565b6102166103d13660046126cd565b6115e9565b6004546001600160a01b031633146104415760405162461bcd60e51b8152602060048201526024808201527f4f6e6c79207265736f6c7665722063616e2063616c6c20746869732066756e636044820152633a34b7b760e11b60648201526084015b60405180910390fd5b60075442101561048a5760405162461bcd60e51b815260206004820152601460248201527313585c9ad95d081a185cc81b9bdd08195b99195960621b6044820152606401610438565b600b5460ff16156104dd5760405162461bcd60e51b815260206004820152601760248201527f4d61726b657420616c7265616479207265736f6c7665640000000000000000006044820152606401610438565b600b8054600a54600954116101000261ffff19909116176001908117909155546040516370a0823160e01b81523060048201526001600160a01b03909116906370a0823190602401602060405180830381865afa158015610542573d6000803e3d6000fd5b505050506040513d601f19601f8201168201806040525081019061056691906129f8565b600c55600554600b546040805192835261010090910460ff16151560208301527f4927fe38919783250023d27e65a3e56b6b5c3e49364e51674a41ef08d62460d9910160405180910390a1565b600b5460ff16156105d65760405162461bcd60e51b815260040161043890612a11565b60075442106105f75760405162461bcd60e51b815260040161043890612a3d565b60025460055460405163731133e960e01b81526001600160a01b039092169163731133e99161062d913091908690600401612a67565b600060405180830381600087803b15801561064757600080fd5b505af115801561065b573d6000803e3d6000fd5b505060035460055460405163731133e960e01b81526001600160a01b03909216935063731133e99250610695913091908690600401612a67565b600060405180830381600087803b1580156106af57600080fd5b505af11580156106c3573d6000803e3d6000fd5b5050505050565b6106d26119f6565b6106dc6000611a23565b565b60058054600680549192916106f290612a97565b80601f016020809104026020016040519081016040528092919081815260200182805461071e90612a97565b801561076b5780601f106107405761010080835404028352916020019161076b565b820191906000526020600020905b81548152906001019060200180831161074e57829003601f168201915b50505060028401546003850154600486015460058701546006880154600790980154969793969295509093509160ff80821692610100909204169089565b60008060006107f06107d06107cb600e54601054611a7390919063ffffffff16565b611a95565b6107ea6107cb600e54600f54611a7390919063ffffffff16565b90611aea565b90508315610819576108126107cb600e54600f54611a7390919063ffffffff16565b9150610836565b6108336107cb600e54601054611a7390919063ffffffff16565b91505b6108408282611a73565b949350505050565b60008082116108695760405162461bcd60e51b815260040161043890612ad1565b600061089c61089361088e6107d06107cb600e54601054611a7390919063ffffffff16565b611af9565b600e5490611b30565b9050600084156108f4576108ed61089361088e6108c96107cb600e54601054611a7390919063ffffffff16565b6107ea6107cb600e546108e78b600f54611aea90919063ffffffff16565b90611a73565b905061091e565b61091b61089361088e6107d06107cb600e546108e78a601054611aea90919063ffffffff16565b90505b6109288183611b3f565b95945050505050565b600b5460ff166109795760405162461bcd60e51b815260206004820152601360248201527213585c9ad95d081b9bdd081c995cdbdb1d9959606a1b6044820152606401610438565b600b54600090610100900460ff1615610ad657600254600554604051627eeac760e11b81526000926001600160a01b03169162fdd58e916109be913391600401612b06565b602060405180830381865afa1580156109db573d6000803e3d6000fd5b505050506040513d601f19601f820116820180604052508101906109ff91906129f8565b905060008111610a465760405162461bcd60e51b8152602060048201526012602482015271139bc8165154c81d1bdad95b9cc81a195b1960721b6044820152606401610438565b600954600c54610a569083612b35565b610a609190612b62565b600254600554604051637a94c56560e11b81523360048201526024810191909152604481018490529193506001600160a01b03169063f5298aca90606401600060405180830381600087803b158015610ab857600080fd5b505af1158015610acc573d6000803e3d6000fd5b5050505050610c1b565b600354600554604051627eeac760e11b81526000926001600160a01b03169162fdd58e91610b08913391600401612b06565b602060405180830381865afa158015610b25573d6000803e3d6000fd5b505050506040513d601f19601f82011682018060405250810190610b4991906129f8565b905060008111610b8f5760405162461bcd60e51b8152602060048201526011602482015270139bc81393c81d1bdad95b9cc81a195b19607a1b6044820152606401610438565b600a54600c54610b9f9083612b35565b610ba99190612b62565b600354600554604051637a94c56560e11b81523360048201526024810191909152604481018490529193506001600160a01b03169063f5298aca90606401600060405180830381600087803b158015610c0157600080fd5b505af1158015610c15573d6000803e3d6000fd5b50505050505b60015460405163a9059cbb60e01b81526001600160a01b039091169063a9059cbb90610c4d9033908590600401612b06565b6020604051808303816000875af1158015610c6c573d6000803e3d6000fd5b505050506040513d601f19601f82011682018060405250810190610c909190612b84565b610ccd5760405162461bcd60e51b815260206004820152600e60248201526d14185e5b595b9d0819985a5b195960921b6044820152606401610438565b60405181815233907f106f923f993c2149d49b4255ff723acafa1f2d94393f561d3eda32ae348f72419060200160405180910390a250565b600b5460ff1615610d285760405162461bcd60e51b815260040161043890612a11565b6007544210610d495760405162461bcd60e51b815260040161043890612a3d565b600f54158015610d595750601054155b610da55760405162461bcd60e51b815260206004820152601d60248201527f4c697175696469747920616c726561647920696e697469616c697a65640000006044820152606401610438565b60025460055460405163731133e960e01b81526001600160a01b039092169163731133e991610de491309190683635c9adc5dea0000090600401612a67565b600060405180830381600087803b158015610dfe57600080fd5b505af1158015610e12573d6000803e3d6000fd5b505060035460055460405163731133e960e01b81526001600160a01b03909216935063731133e99250610e5591309190683635c9adc5dea0000090600401612a67565b600060405180830381600087803b158015610e6f57600080fd5b505af1158015610e83573d6000803e3d6000fd5b50505050610e97683635c9adc5dea0000090565b600f55683635c9adc5dea00000601055565b6001546040516370a0823160e01b81526001600160a01b03838116600483015260009283928392909116906370a0823190602401602060405180830381865afa158015610efa573d6000803e3d6000fd5b505050506040513d601f19601f82011682018060405250810190610f1e91906129f8565b600254600554604051627eeac760e11b81529295506001600160a01b039091169162fdd58e91610f5391889190600401612b06565b602060405180830381865afa158015610f70573d6000803e3d6000fd5b505050506040513d601f19601f82011682018060405250810190610f9491906129f8565b600354600554604051627eeac760e11b81529294506001600160a01b039091169162fdd58e91610fc991889190600401612b06565b602060405180830381865afa158015610fe6573d6000803e3d6000fd5b505050506040513d601f19601f8201168201806040525081019061100a91906129f8565b929491935050565b611065604051806101200160405280600081526020016060815260200160008152602001600081526020016000815260200160008152602001600015158152602001600015158152602001600081525090565b6040805161012081019091526005805482526006805460208401919061108a90612a97565b80601f01602080910402602001604051908101604052809291908181526020018280546110b690612a97565b80156111035780601f106110d857610100808354040283529160200191611103565b820191906000526020600020905b8154815290600101906020018083116110e657829003601f168201915b505050918352505060028201546020820152600382015460408201526004820154606082015260058201546080820152600682015460ff808216151560a084015261010090910416151560c082015260079091015460e090910152919050565b600b5460ff16156111865760405162461bcd60e51b815260040161043890612a11565b60075442106111a75760405162461bcd60e51b815260040161043890612a3d565b600081116111c75760405162461bcd60e51b815260040161043890612ad1565b60006111d38383610848565b9050821561129957600254600554604051627eeac760e11b815284926001600160a01b03169162fdd58e9161120c913091600401612b06565b602060405180830381865afa158015611229573d6000803e3d6000fd5b505050506040513d601f19601f8201168201806040525081019061124d91906129f8565b10156112945760405162461bcd60e51b8152602060048201526016602482015275496e73756666696369656e74206c697175696469747960501b6044820152606401610438565b611352565b600354600554604051627eeac760e11b815284926001600160a01b03169162fdd58e916112ca913091600401612b06565b602060405180830381865afa1580156112e7573d6000803e3d6000fd5b505050506040513d601f19601f8201168201806040525081019061130b91906129f8565b10156113525760405162461bcd60e51b8152602060048201526016602482015275496e73756666696369656e74206c697175696469747960501b6044820152606401610438565b6001546001600160a01b03166323b872dd3330846040516001600160e01b031960e086901b1681526001600160a01b03938416600482015292909116602483015260448201526064016020604051808303816000875af11580156113ba573d6000803e3d6000fd5b505050506040513d601f19601f820116820180604052508101906113de9190612b84565b61141b5760405162461bcd60e51b815260206004820152600e60248201526d14185e5b595b9d0819985a5b195960921b6044820152606401610438565b821561144757600f5461142e9083611aea565b600f558160095461143f9190612ba1565b600955611469565b6010546114549083611aea565b60105581600a546114659190612ba1565b600a555b816008546114779190612ba1565b60085582156114ee57600254600554604051637921219560e11b81526001600160a01b039092169163f242432a916114b791309133918890600401612bb4565b600060405180830381600087803b1580156114d157600080fd5b505af11580156114e5573d6000803e3d6000fd5b50505050611558565b600354600554604051637921219560e11b81526001600160a01b039092169163f242432a9161152591309133918890600401612bb4565b600060405180830381600087803b15801561153f57600080fd5b505af1158015611553573d6000803e3d6000fd5b505050505b337f8fafebcaf9d154343dad25669bfa277f4fbacd7ac6b0c4fed522580e040a0f3384611586576002611589565b60015b846040805160ff909316835260208301919091520160405180910390a2505050565b6115b36119f6565b6001600160a01b0381166115dd57604051631e4fbdf760e01b815260006004820152602401610438565b6115e681611a23565b50565b600b5460ff161561160c5760405162461bcd60e51b815260040161043890612a11565b600754421061162d5760405162461bcd60e51b815260040161043890612a3d565b6000811161164d5760405162461bcd60e51b815260040161043890612ad1565b60006116598383610848565b9050821561171d57600254600554604051627eeac760e11b815284926001600160a01b03169162fdd58e91611692913391600401612b06565b602060405180830381865afa1580156116af573d6000803e3d6000fd5b505050506040513d601f19601f820116820180604052508101906116d391906129f8565b10156117185760405162461bcd60e51b8152602060048201526014602482015273496e73756666696369656e742062616c616e636560601b6044820152606401610438565b6117d4565b600354600554604051627eeac760e11b815284926001600160a01b03169162fdd58e9161174e913391600401612b06565b602060405180830381865afa15801561176b573d6000803e3d6000fd5b505050506040513d601f19601f8201168201806040525081019061178f91906129f8565b10156117d45760405162461bcd60e51b8152602060048201526014602482015273496e73756666696369656e742062616c616e636560601b6044820152606401610438565b821561180057600f546117e79083611b3f565b600f55816009546117f89190612bec565b600955611822565b60105461180d9083611b3f565b60105581600a5461181e9190612bec565b600a555b816008546118309190612bec565b60085582156118a757600254600554604051637921219560e11b81526001600160a01b039092169163f242432a9161187091339130918890600401612bb4565b600060405180830381600087803b15801561188a57600080fd5b505af115801561189e573d6000803e3d6000fd5b50505050611911565b600354600554604051637921219560e11b81526001600160a01b039092169163f242432a916118de91339130918890600401612bb4565b600060405180830381600087803b1580156118f857600080fd5b505af115801561190c573d6000803e3d6000fd5b505050505b6001546001600160a01b031663a9059cbb33836040518363ffffffff1660e01b8152600401611941929190612b06565b6020604051808303816000875af1158015611960573d6000803e3d6000fd5b505050506040513d601f19601f820116820180604052508101906119849190612b84565b6119c85760405162461bcd60e51b815260206004820152601560248201527414995d1d5c9b881c185e5b595b9d0819985a5b1959605a1b6044820152606401610438565b337f2dcf9433d75db0d8b1c172641f85e319ffe4ad22e108a95d1847ceb906e5195d84611586576002611589565b6000546001600160a01b031633146106dc5760405163118cdaa760e01b8152336004820152602401610438565b600080546001600160a01b038381166001600160a01b0319831681178455604051919092169283917f8be0079c531659141344cd1fd0a4f28419497f9722a3daafe3b4186f6b6457e09190a35050565b6000611a8e611a8b84670de0b6b3a764000085611b4e565b90565b9392505050565b600081680736ea4425c11ac630811115611ac557604051630d7b1d6560e11b815260048101849052602401610438565b6714057b7ef767814f8102610840611ae5670de0b6b3a7640000835b0490565b611c21565b6000611a8e611a8b8385612ba1565b6000611b2a6714057b7ef767814f670de0b6b3a7640000611b1c611a8b86611c77565b0281611ae157611ae1612b4c565b92915050565b6000611a8e611a8b8484611dac565b6000611a8e611a8b8385612bec565b6000808060001985870985870292508281108382030391505080600003611b8857838281611b7e57611b7e612b4c565b0492505050611a8e565b838110611bb957604051630c740aef60e31b8152600481018790526024810186905260448101859052606401610438565b600084868809600260036001881981018916988990049182028318808302840302808302840302808302840302808302840302808302840302918202909203026000889003889004909101858311909403939093029303949094049190911702949350505050565b600081680a688906bd8affffff811115611c515760405163b3b6ba1f60e01b815260048101849052602401610438565b6000611c69670de0b6b3a7640000604084901b612b62565b9050610840611a8b82611e62565b600081670de0b6b3a7640000811015611ca65760405163036d32ef60e41b815260048101849052602401610438565b6000611d32670de0b6b3a7640000830460016fffffffffffffffffffffffffffffffff821160071b91821c67ffffffffffffffff811160061b90811c63ffffffff811160051b90811c61ffff811160041b90811c60ff8111600390811b91821c600f811160021b90811c918211871b91821c969096119490961792909217171791909117919091171790565b9050670de0b6b3a7640000810282821c670de0b6b3a763ffff198101611d5b5750949350505050565b671bc16d674ec800006706f05b59d3b200005b8015611d9e57670de0b6b3a7640000838002049250818310611d96579283019260019290921c915b60011c611d6e565b50825b979650505050505050565b6000808060001984860984860292508281108382030391505080600003611de05750670de0b6b3a764000090049050611b2a565b670de0b6b3a76400008110611e1257604051635173648d60e01b81526004810186905260248101859052604401610438565b6000670de0b6b3a764000085870962040000818503049310909103600160ee1b02919091177faccb18165bd6fe31ae1cf318dc5b51eee0e1ba569b88cd74c1773b91fac106690291505092915050565b600160bf1b67ff00000000000000821615611f6f57678000000000000000821615611e965768016a09e667f3bcc9090260401c5b674000000000000000821615611eb5576801306fe0a31b7152df0260401c5b672000000000000000821615611ed4576801172b83c7d517adce0260401c5b671000000000000000821615611ef35768010b5586cf9890f62a0260401c5b670800000000000000821615611f12576801059b0d31585743ae0260401c5b670400000000000000821615611f3157680102c9a3e778060ee70260401c5b670200000000000000821615611f505768010163da9fb33356d80260401c5b670100000000000000821615611f6f57680100b1afa5abcbed610260401c5b66ff00000000000082161561206e576680000000000000821615611f9c5768010058c86da1c09ea20260401c5b6640000000000000821615611fba576801002c605e2e8cec500260401c5b6620000000000000821615611fd857680100162f3904051fa10260401c5b6610000000000000821615611ff6576801000b175effdc76ba0260401c5b660800000000000082161561201457680100058ba01fb9f96d0260401c5b66040000000000008216156120325768010002c5cc37da94920260401c5b6602000000000000821615612050576801000162e525ee05470260401c5b660100000000000082161561206e5768010000b17255775c040260401c5b65ff00000000008216156121645765800000000000821615612099576801000058b91b5bc9ae0260401c5b654000000000008216156120b657680100002c5c89d5ec6d0260401c5b652000000000008216156120d35768010000162e43f4f8310260401c5b651000000000008216156120f057680100000b1721bcfc9a0260401c5b6508000000000082161561210d5768010000058b90cf1e6e0260401c5b6504000000000082161561212a576801000002c5c863b73f0260401c5b6502000000000082161561214757680100000162e430e5a20260401c5b65010000000000821615612164576801000000b1721835510260401c5b64ff000000008216156122515764800000000082161561218d57680100000058b90c0b490260401c5b6440000000008216156121a95768010000002c5c8601cc0260401c5b6420000000008216156121c5576801000000162e42fff00260401c5b6410000000008216156121e15768010000000b17217fbb0260401c5b6408000000008216156121fd576801000000058b90bfce0260401c5b64040000000082161561221957680100000002c5c85fe30260401c5b6402000000008216156122355768010000000162e42ff10260401c5b64010000000082161561225157680100000000b17217f80260401c5b63ff0000008216156123355763800000008216156122785768010000000058b90bfc0260401c5b6340000000821615612293576801000000002c5c85fe0260401c5b63200000008216156122ae57680100000000162e42ff0260401c5b63100000008216156122c9576801000000000b17217f0260401c5b63080000008216156122e457680100000000058b90c00260401c5b63040000008216156122ff5768010000000002c5c8600260401c5b630200000082161561231a576801000000000162e4300260401c5b63010000008216156123355768010000000000b172180260401c5b62ff0000821615612410576280000082161561235a576801000000000058b90c0260401c5b6240000082161561237457680100000000002c5c860260401c5b6220000082161561238e5768010000000000162e430260401c5b621000008216156123a857680100000000000b17210260401c5b620800008216156123c25768010000000000058b910260401c5b620400008216156123dc576801000000000002c5c80260401c5b620200008216156123f657680100000000000162e40260401c5b62010000821615612410576801000000000000b1720260401c5b61ff008216156124e25761800082161561243357680100000000000058b90260401c5b61400082161561244c5768010000000000002c5d0260401c5b612000821615612465576801000000000000162e0260401c5b61100082161561247e5768010000000000000b170260401c5b610800821615612497576801000000000000058c0260401c5b6104008216156124b057680100000000000002c60260401c5b6102008216156124c957680100000000000001630260401c5b6101008216156124e257680100000000000000b10260401c5b60ff8216156125ab57608082161561250357680100000000000000590260401c5b604082161561251b576801000000000000002c0260401c5b602082161561253357680100000000000000160260401c5b601082161561254b576801000000000000000b0260401c5b600882161561256357680100000000000000060260401c5b600482161561257b57680100000000000000030260401c5b600282161561259357680100000000000000010260401c5b60018216156125ab57680100000000000000010260401c5b670de0b6b3a76400000260409190911c60bf031c90565b6000602082840312156125d457600080fd5b81356001600160e01b031981168114611a8e57600080fd5b6000602082840312156125fe57600080fd5b5035919050565b6000815180845260005b8181101561262b5760208185018101518683018201520161260f565b506000602082860101526020601f19601f83011685010191505092915050565b60006101208b83528060208401526126658184018c612605565b604084019a909a5250506060810196909652608086019490945260a0850192909252151560c0840152151560e08301526101009091015292915050565b80151581146115e657600080fd5b6000602082840312156126c257600080fd5b8135611a8e816126a2565b600080604083850312156126e057600080fd5b82356126eb816126a2565b946020939093013593505050565b80356001600160a01b038116811461271057600080fd5b919050565b634e487b7160e01b600052604160045260246000fd5b604051601f8201601f1916810167ffffffffffffffff8111828210171561275457612754612715565b604052919050565b600082601f83011261276d57600080fd5b8135602067ffffffffffffffff82111561278957612789612715565b8160051b61279882820161272b565b92835284810182019282810190878511156127b257600080fd5b83870192505b84831015611da1578235825291830191908301906127b8565b600082601f8301126127e257600080fd5b813567ffffffffffffffff8111156127fc576127fc612715565b61280f601f8201601f191660200161272b565b81815284602083860101111561282457600080fd5b816020850160208301376000918101602001919091529392505050565b600080600080600060a0868803121561285957600080fd5b612862866126f9565b9450612870602087016126f9565b9350604086013567ffffffffffffffff8082111561288d57600080fd5b61289989838a0161275c565b945060608801359150808211156128af57600080fd5b6128bb89838a0161275c565b935060808801359150808211156128d157600080fd5b506128de888289016127d1565b9150509295509295909350565b6000602082840312156128fd57600080fd5b611a8e826126f9565b60208152815160208201526000602083015161012080604085015261292f610140850183612605565b91506040850151606085015260608501516080850152608085015160a085015260a085015160c085015260c085015161296c60e086018215159052565b5060e08501516101006129828187018315159052565b959095015193019290925250919050565b600080600080600060a086880312156129ab57600080fd5b6129b4866126f9565b94506129c2602087016126f9565b93506040860135925060608601359150608086013567ffffffffffffffff8111156129ec57600080fd5b6128de888289016127d1565b600060208284031215612a0a57600080fd5b5051919050565b60208082526012908201527113585c9ad95d081a5cc81c995cdbdb1d995960721b604082015260600190565b60208082526010908201526f13585c9ad95d081a185cc8195b99195960821b604082015260600190565b6001600160a01b039390931683526020830191909152604082015260806060820181905260009082015260a00190565b600181811c90821680612aab57607f821691505b602082108103612acb57634e487b7160e01b600052602260045260246000fd5b50919050565b6020808252818101527f416d6f756e74206d7573742062652067726561746572207468616e207a65726f604082015260600190565b6001600160a01b03929092168252602082015260400190565b634e487b7160e01b600052601160045260246000fd5b8082028115828204841417611b2a57611b2a612b1f565b634e487b7160e01b600052601260045260246000fd5b600082612b7f57634e487b7160e01b600052601260045260246000fd5b500490565b600060208284031215612b9657600080fd5b8151611a8e816126a2565b80820180821115611b2a57611b2a612b1f565b6001600160a01b0394851681529290931660208301526040820152606081019190915260a06080820181905260009082015260c00190565b81810381811115611b2a57611b2a612b1f56fea2646970667358221220ec08f14130bf38d3d94c5c5573c9145b970dbc8ec9dbfc4ff65464267877d98f64736f6c63430008180033",
  "linkReferences": {},
  "deployedLinkReferences": {}
}