{
  "_format": "hh-sol-artifact-1",
  "contractName": "PredictionMarket",
  "sourceName": "contracts/PredictionMarket.sol",
  "abi": [
    {
      "inputs": [
        {
          "internalType": "address",
          "name": "_priceToken",
          "type": "address"
        },
        {
          "internalType": "address",
          "name": "_yesToken",
          "type": "address"
        },
        {
          "internalType": "address",
          "name": "_noToken",
          "type": "address"
        },
        {
          "internalType": "uint256",
          "name": "_marketId",
          "type": "uint256"
        },
        {
          "internalType": "string",
          "name": "_question",
          "type": "string"
        },
        {
          "internalType": "uint256",
          "name": "_endtime",
          "type": "uint256"
        }
      ],
      "stateMutability": "nonpayable",
      "type": "constructor"
    },
    {
      "inputs": [
        {
          "internalType": "address",
          "name": "owner",
          "type": "address"
        }
      ],
      "name": "OwnableInvalidOwner",
      "type": "error"
    },
    {
      "inputs": [
        {
          "internalType": "address",
          "name": "account",
          "type": "address"
        }
      ],
      "name": "OwnableUnauthorizedAccount",
      "type": "error"
    },
    {
      "inputs": [
        {
          "internalType": "uint256",
          "name": "x",
          "type": "uint256"
        },
        {
          "internalType": "uint256",
          "name": "y",
          "type": "uint256"
        }
      ],
      "name": "PRBMath_MulDiv18_Overflow",
      "type": "error"
    },
    {
      "inputs": [
        {
          "internalType": "uint256",
          "name": "x",
          "type": "uint256"
        },
        {
          "internalType": "uint256",
          "name": "y",
          "type": "uint256"
        },
        {
          "internalType": "uint256",
          "name": "denominator",
          "type": "uint256"
        }
      ],
      "name": "PRBMath_MulDiv_Overflow",
      "type": "error"
    },
    {
      "inputs": [
        {
          "internalType": "UD60x18",
          "name": "x",
          "type": "uint256"
        }
      ],
      "name": "PRBMath_UD60x18_Exp2_InputTooBig",
      "type": "error"
    },
    {
      "inputs": [
        {
          "internalType": "UD60x18",
          "name": "x",
          "type": "uint256"
        }
      ],
      "name": "PRBMath_UD60x18_Exp_InputTooBig",
      "type": "error"
    },
    {
      "inputs": [
        {
          "internalType": "UD60x18",
          "name": "x",
          "type": "uint256"
        }
      ],
      "name": "PRBMath_UD60x18_Log_InputTooSmall",
      "type": "error"
    },
    {
      "anonymous": false,
      "inputs": [
        {
          "indexed": true,
          "internalType": "address",
          "name": "provider",
          "type": "address"
        },
        {
          "indexed": false,
          "internalType": "uint256",
          "name": "amount",
          "type": "uint256"
        }
      ],
      "name": "LiquidityAdded",
      "type": "event"
    },
    {
      "anonymous": false,
      "inputs": [
        {
          "indexed": true,
          "internalType": "address",
          "name": "previousOwner",
          "type": "address"
        },
        {
          "indexed": true,
          "internalType": "address",
          "name": "newOwner",
          "type": "address"
        }
      ],
      "name": "OwnershipTransferred",
      "type": "event"
    },
    {
      "anonymous": false,
      "inputs": [
        {
          "indexed": true,
          "internalType": "address",
          "name": "buyer",
          "type": "address"
        },
        {
          "indexed": false,
          "internalType": "uint256",
          "name": "tokenType",
          "type": "uint256"
        },
        {
          "indexed": false,
          "internalType": "uint256",
          "name": "amount",
          "type": "uint256"
        }
      ],
      "name": "TokensPurchased",
      "type": "event"
    },
    {
      "anonymous": false,
      "inputs": [
        {
          "indexed": false,
          "internalType": "uint256",
          "name": "balance",
          "type": "uint256"
        }
      ],
      "name": "yesTokenbalance",
      "type": "event"
    },
    {
      "inputs": [],
      "name": "DECIMALS",
      "outputs": [
        {
          "internalType": "UD60x18",
          "name": "",
          "type": "uint256"
        }
      ],
      "stateMutability": "view",
      "type": "function"
    },
    {
      "inputs": [],
      "name": "LIQUIDITY_PARAMETER",
      "outputs": [
        {
          "internalType": "UD60x18",
          "name": "",
          "type": "uint256"
        }
      ],
      "stateMutability": "view",
      "type": "function"
    },
    {
      "inputs": [],
      "name": "NO_TOKEN",
      "outputs": [
        {
          "internalType": "uint256",
          "name": "",
          "type": "uint256"
        }
      ],
      "stateMutability": "view",
      "type": "function"
    },
    {
      "inputs": [],
      "name": "YES_TOKEN",
      "outputs": [
        {
          "internalType": "uint256",
          "name": "",
          "type": "uint256"
        }
      ],
      "stateMutability": "view",
      "type": "function"
    },
    {
      "inputs": [
        {
          "internalType": "bool",
          "name": "isYesToken",
          "type": "bool"
        },
        {
          "internalType": "UD60x18",
          "name": "amount",
          "type": "uint256"
        }
      ],
      "name": "buy",
      "outputs": [],
      "stateMutability": "nonpayable",
      "type": "function"
    },
    {
      "inputs": [
        {
          "internalType": "address",
          "name": "account",
          "type": "address"
        }
      ],
      "name": "getBalances",
      "outputs": [
        {
          "internalType": "uint256",
          "name": "priceTokenBalance",
          "type": "uint256"
        },
        {
          "internalType": "uint256",
          "name": "yesTokenBalance",
          "type": "uint256"
        },
        {
          "internalType": "uint256",
          "name": "noTokenBalance",
          "type": "uint256"
        }
      ],
      "stateMutability": "view",
      "type": "function"
    },
    {
      "inputs": [
        {
          "internalType": "bool",
          "name": "isYesToken",
          "type": "bool"
        },
        {
          "internalType": "UD60x18",
          "name": "amount",
          "type": "uint256"
        }
      ],
      "name": "getCost",
      "outputs": [
        {
          "internalType": "UD60x18",
          "name": "price",
          "type": "uint256"
        }
      ],
      "stateMutability": "view",
      "type": "function"
    },
    {
      "inputs": [],
      "name": "getMarketState",
      "outputs": [
        {
          "components": [
            {
              "internalType": "uint256",
              "name": "id",
              "type": "uint256"
            },
            {
              "internalType": "string",
              "name": "question",
              "type": "string"
            },
            {
              "internalType": "uint256",
              "name": "endTime",
              "type": "uint256"
            },
            {
              "internalType": "uint256",
              "name": "totalStaked",
              "type": "uint256"
            },
            {
              "internalType": "uint256",
              "name": "totalYes",
              "type": "uint256"
            },
            {
              "internalType": "uint256",
              "name": "totalNo",
              "type": "uint256"
            },
            {
              "internalType": "bool",
              "name": "resolved",
              "type": "bool"
            },
            {
              "internalType": "bool",
              "name": "won",
              "type": "bool"
            }
          ],
          "internalType": "struct PredictionMarket.Market",
          "name": "marketState",
          "type": "tuple"
        }
      ],
      "stateMutability": "view",
      "type": "function"
    },
    {
      "inputs": [
        {
          "internalType": "bool",
          "name": "isYesToken",
          "type": "bool"
        }
      ],
      "name": "getTokenPrice",
      "outputs": [
        {
          "internalType": "UD60x18",
          "name": "price",
          "type": "uint256"
        }
      ],
      "stateMutability": "view",
      "type": "function"
    },
    {
      "inputs": [],
      "name": "getTokenQuantities",
      "outputs": [
        {
          "internalType": "UD60x18",
          "name": "yesQuantity",
          "type": "uint256"
        },
        {
          "internalType": "UD60x18",
          "name": "noQuantity",
          "type": "uint256"
        }
      ],
      "stateMutability": "view",
      "type": "function"
    },
    {
      "inputs": [],
      "name": "market",
      "outputs": [
        {
          "internalType": "uint256",
          "name": "id",
          "type": "uint256"
        },
        {
          "internalType": "string",
          "name": "question",
          "type": "string"
        },
        {
          "internalType": "uint256",
          "name": "endTime",
          "type": "uint256"
        },
        {
          "internalType": "uint256",
          "name": "totalStaked",
          "type": "uint256"
        },
        {
          "internalType": "uint256",
          "name": "totalYes",
          "type": "uint256"
        },
        {
          "internalType": "uint256",
          "name": "totalNo",
          "type": "uint256"
        },
        {
          "internalType": "bool",
          "name": "resolved",
          "type": "bool"
        },
        {
          "internalType": "bool",
          "name": "won",
          "type": "bool"
        }
      ],
      "stateMutability": "view",
      "type": "function"
    },
    {
      "inputs": [],
      "name": "noToken",
      "outputs": [
        {
          "internalType": "contract NoToken",
          "name": "",
          "type": "address"
        }
      ],
      "stateMutability": "view",
      "type": "function"
    },
    {
      "inputs": [],
      "name": "owner",
      "outputs": [
        {
          "internalType": "address",
          "name": "",
          "type": "address"
        }
      ],
      "stateMutability": "view",
      "type": "function"
    },
    {
      "inputs": [],
      "name": "priceToken",
      "outputs": [
        {
          "internalType": "contract IERC20",
          "name": "",
          "type": "address"
        }
      ],
      "stateMutability": "view",
      "type": "function"
    },
    {
      "inputs": [],
      "name": "qNo",
      "outputs": [
        {
          "internalType": "UD60x18",
          "name": "",
          "type": "uint256"
        }
      ],
      "stateMutability": "view",
      "type": "function"
    },
    {
      "inputs": [],
      "name": "qYes",
      "outputs": [
        {
          "internalType": "UD60x18",
          "name": "",
          "type": "uint256"
        }
      ],
      "stateMutability": "view",
      "type": "function"
    },
    {
      "inputs": [],
      "name": "renounceOwnership",
      "outputs": [],
      "stateMutability": "nonpayable",
      "type": "function"
    },
    {
      "inputs": [],
      "name": "resolve",
      "outputs": [],
      "stateMutability": "nonpayable",
      "type": "function"
    },
    {
      "inputs": [
        {
          "internalType": "address",
          "name": "newOwner",
          "type": "address"
        }
      ],
      "name": "transferOwnership",
      "outputs": [],
      "stateMutability": "nonpayable",
      "type": "function"
    },
    {
      "inputs": [
        {
          "internalType": "bool",
          "name": "isYesToken",
          "type": "bool"
        },
        {
          "internalType": "UD60x18",
          "name": "amount",
          "type": "uint256"
        }
      ],
      "name": "vote",
      "outputs": [],
      "stateMutability": "nonpayable",
      "type": "function"
    },
    {
      "inputs": [],
      "name": "yesToken",
      "outputs": [
        {
          "internalType": "contract YesToken",
          "name": "",
          "type": "address"
        }
      ],
      "stateMutability": "view",
      "type": "function"
    }
  ],
  "bytecode": "0x60806040526200001d670de0b6b3a7640000620002d660201b60201c565b600b5562000039678ac7230489e80000620002d660201b60201c565b600c556200004e6000620002d660201b60201c565b600d55620000636000620002d660201b60201c565b600e553480156200007357600080fd5b5060405162003c5938038062003c598339818101604052810190620000999190620005d7565b73e5caa785fee2154e5cddc15ac37eedf0274ad5a2600073ffffffffffffffffffffffffffffffffffffffff168173ffffffffffffffffffffffffffffffffffffffff1603620001235760006040517f1e4fbdf70000000000000000000000000000000000000000000000000000000081526004016200011a9190620006a3565b60405180910390fd5b6200013481620002e060201b60201c565b5085600160006101000a81548173ffffffffffffffffffffffffffffffffffffffff021916908373ffffffffffffffffffffffffffffffffffffffff16021790555084600260006101000a81548173ffffffffffffffffffffffffffffffffffffffff021916908373ffffffffffffffffffffffffffffffffffffffff16021790555083600360006101000a81548173ffffffffffffffffffffffffffffffffffffffff021916908373ffffffffffffffffffffffffffffffffffffffff1602179055506040518061010001604052808481526020018381526020018281526020016000815260200160008152602001600081526020016000151581526020016000151581525060046000820151816000015560208201518160010190816200025e919062000901565b5060408201518160020155606082015181600301556080820151816004015560a0820151816005015560c08201518160060160006101000a81548160ff02191690831515021790555060e08201518160060160016101000a81548160ff021916908315150217905550905050505050505050620009e8565b6000819050919050565b60008060009054906101000a900473ffffffffffffffffffffffffffffffffffffffff169050816000806101000a81548173ffffffffffffffffffffffffffffffffffffffff021916908373ffffffffffffffffffffffffffffffffffffffff1602179055508173ffffffffffffffffffffffffffffffffffffffff168173ffffffffffffffffffffffffffffffffffffffff167f8be0079c531659141344cd1fd0a4f28419497f9722a3daafe3b4186f6b6457e060405160405180910390a35050565b6000604051905090565b600080fd5b600080fd5b600073ffffffffffffffffffffffffffffffffffffffff82169050919050565b6000620003e582620003b8565b9050919050565b620003f781620003d8565b81146200040357600080fd5b50565b6000815190506200041781620003ec565b92915050565b6000819050919050565b62000432816200041d565b81146200043e57600080fd5b50565b600081519050620004528162000427565b92915050565b600080fd5b600080fd5b6000601f19601f8301169050919050565b7f4e487b7100000000000000000000000000000000000000000000000000000000600052604160045260246000fd5b620004ad8262000462565b810181811067ffffffffffffffff82111715620004cf57620004ce62000473565b5b80604052505050565b6000620004e4620003a4565b9050620004f28282620004a2565b919050565b600067ffffffffffffffff82111562000515576200051462000473565b5b620005208262000462565b9050602081019050919050565b60005b838110156200054d57808201518184015260208101905062000530565b60008484015250505050565b6000620005706200056a84620004f7565b620004d8565b9050828152602081018484840111156200058f576200058e6200045d565b5b6200059c8482856200052d565b509392505050565b600082601f830112620005bc57620005bb62000458565b5b8151620005ce84826020860162000559565b91505092915050565b60008060008060008060c08789031215620005f757620005f6620003ae565b5b60006200060789828a0162000406565b96505060206200061a89828a0162000406565b95505060406200062d89828a0162000406565b94505060606200064089828a0162000441565b935050608087015167ffffffffffffffff811115620006645762000663620003b3565b5b6200067289828a01620005a4565b92505060a06200068589828a0162000441565b9150509295509295509295565b6200069d81620003d8565b82525050565b6000602082019050620006ba600083018462000692565b92915050565b600081519050919050565b7f4e487b7100000000000000000000000000000000000000000000000000000000600052602260045260246000fd5b600060028204905060018216806200071357607f821691505b602082108103620007295762000728620006cb565b5b50919050565b60008190508160005260206000209050919050565b60006020601f8301049050919050565b600082821b905092915050565b600060088302620007937fffffffffffffffffffffffffffffffffffffffffffffffffffffffffffffffff8262000754565b6200079f868362000754565b95508019841693508086168417925050509392505050565b6000819050919050565b6000620007e2620007dc620007d6846200041d565b620007b7565b6200041d565b9050919050565b6000819050919050565b620007fe83620007c1565b620008166200080d82620007e9565b84845462000761565b825550505050565b600090565b6200082d6200081e565b6200083a818484620007f3565b505050565b5b8181101562000862576200085660008262000823565b60018101905062000840565b5050565b601f821115620008b1576200087b816200072f565b620008868462000744565b8101602085101562000896578190505b620008ae620008a58562000744565b8301826200083f565b50505b505050565b600082821c905092915050565b6000620008d660001984600802620008b6565b1980831691505092915050565b6000620008f18383620008c3565b9150826002028217905092915050565b6200090c82620006c0565b67ffffffffffffffff81111562000928576200092762000473565b5b620009348254620006fa565b6200094182828562000866565b600060209050601f83116001811462000979576000841562000964578287015190505b620009708582620008e3565b865550620009e0565b601f19841662000989866200072f565b60005b82811015620009b3578489015182556001820191506020850194506020810190506200098c565b86831015620009d35784890151620009cf601f891682620008c3565b8355505b6001600288020188555050505b505050505050565b61326180620009f86000396000f3fe608060405234801561001057600080fd5b50600436106101375760003560e01c8063715018a6116100b8578063bfc596011161007c578063bfc5960114610300578063c84aae171461031e578063d816574314610350578063e24c469b1461036e578063f0d9bb201461038a578063f2fde38b146103a857610137565b8063715018a61461025357806380f556051461025d5780638b74b9ab146102825780638da5cb5b146102b2578063a4d75065146102d057610137565b80632acf1cd2116100ff5780632acf1cd2146101bc5780632e0f2625146101da5780632fd2adfe146101f85780632ff6fe76146102165780635bea24101461023457610137565b806310e6e06c1461013c57806311a9f10a146101585780631b142f62146101765780631c426fc8146101945780632810e1d6146101b2575b600080fd5b6101566004803603810190610151919061276b565b6103c4565b005b6101606108a5565b60405161016d919061282a565b60405180910390f35b61017e6108cb565b60405161018b9190612854565b60405180910390f35b61019c6108d0565b6040516101a991906128a0565b60405180910390f35b6101ba6108d6565b005b6101c4610971565b6040516101d191906128a0565b60405180910390f35b6101e2610977565b6040516101ef91906128a0565b60405180910390f35b61020061097d565b60405161020d9190612854565b60405180910390f35b61021e610982565b60405161022b91906128dc565b60405180910390f35b61023c6109a8565b60405161024a9291906128f7565b60405180910390f35b61025b6109b9565b005b6102656109cd565b6040516102799897969594939291906129bf565b60405180910390f35b61029c60048036038101906102979190612a44565b610aa5565b6040516102a991906128a0565b60405180910390f35b6102ba610b65565b6040516102c79190612a92565b60405180910390f35b6102ea60048036038101906102e5919061276b565b610b8e565b6040516102f791906128a0565b60405180910390f35b610308610d72565b60405161031591906128a0565b60405180910390f35b61033860048036038101906103339190612ad9565b610d78565b60405161034793929190612b06565b60405180910390f35b610358610f6a565b6040516103659190612c55565b60405180910390f35b6103886004803603810190610383919061276b565b61107f565b005b61039261152d565b60405161039f9190612c98565b60405180910390f35b6103c260048036038101906103bd9190612ad9565b611553565b005b60006103cf826115d9565b1161040f576040517f08c379a000000000000000000000000000000000000000000000000000000000815260040161040690612cff565b60405180910390fd5b81156106b7577fe7a8e522baa2b87f9dc4d1c2ae6b149dce35c187e79e13e5b5e100cd91b555b7600260009054906101000a900473ffffffffffffffffffffffffffffffffffffffff1673ffffffffffffffffffffffffffffffffffffffff1662fdd58e336004600001546040518363ffffffff1660e01b8152600401610497929190612d1f565b602060405180830381865afa1580156104b4573d6000803e3d6000fd5b505050506040513d601f19601f820116820180604052508101906104d89190612d74565b6040516104e59190612854565b60405180910390a16104f6816115d9565b600260009054906101000a900473ffffffffffffffffffffffffffffffffffffffff1673ffffffffffffffffffffffffffffffffffffffff1662fdd58e336004600001546040518363ffffffff1660e01b8152600401610557929190612d1f565b602060405180830381865afa158015610574573d6000803e3d6000fd5b505050506040513d601f19601f820116820180604052508101906105989190612d74565b10156105d9576040517f08c379a00000000000000000000000000000000000000000000000000000000081526004016105d090612ded565b60405180910390fd5b600260009054906101000a900473ffffffffffffffffffffffffffffffffffffffff1673ffffffffffffffffffffffffffffffffffffffff1663f5298aca33600460000154610627856115d9565b6040518463ffffffff1660e01b815260040161064593929190612e0d565b600060405180830381600087803b15801561065f57600080fd5b505af1158015610673573d6000803e3d6000fd5b5050505061068c81600d546115e390919063ffffffff16565b600d8190555061069b816115d9565b60048001546106aa9190612e73565b600480018190555061087f565b6106c0816115d9565b600360009054906101000a900473ffffffffffffffffffffffffffffffffffffffff1673ffffffffffffffffffffffffffffffffffffffff1662fdd58e336004600001546040518363ffffffff1660e01b8152600401610721929190612d1f565b602060405180830381865afa15801561073e573d6000803e3d6000fd5b505050506040513d601f19601f820116820180604052508101906107629190612d74565b10156107a3576040517f08c379a000000000000000000000000000000000000000000000000000000000815260040161079a90612ded565b60405180910390fd5b600360009054906101000a900473ffffffffffffffffffffffffffffffffffffffff1673ffffffffffffffffffffffffffffffffffffffff1663f5298aca336004600001546107f1856115d9565b6040518463ffffffff1660e01b815260040161080f93929190612e0d565b600060405180830381600087803b15801561082957600080fd5b505af115801561083d573d6000803e3d6000fd5b5050505061085681600e546115e390919063ffffffff16565b600e81905550610865816115d9565b6004600501546108759190612e73565b6004600501819055505b610888816115d9565b6004600301546108989190612e73565b6004600301819055505050565b600360009054906101000a900473ffffffffffffffffffffffffffffffffffffffff1681565b600181565b600c5481565b600460060160009054906101000a900460ff1615610929576040517f08c379a000000000000000000000000000000000000000000000000000000000815260040161092090612ef3565b60405180910390fd5b6001600460060160006101000a81548160ff021916908315150217905550600460050154600480015411600460060160016101000a81548160ff021916908315150217905550565b600e5481565b600b5481565b600281565b600160009054906101000a900473ffffffffffffffffffffffffffffffffffffffff1681565b600080600d54600e54915091509091565b6109c1611611565b6109cb6000611698565b565b60048060000154908060010180546109e490612f42565b80601f0160208091040260200160405190810160405280929190818152602001828054610a1090612f42565b8015610a5d5780601f10610a3257610100808354040283529160200191610a5d565b820191906000526020600020905b815481529060010190602001808311610a4057829003601f168201915b5050505050908060020154908060030154908060040154908060050154908060060160009054906101000a900460ff16908060060160019054906101000a900460ff16905088565b6000806000610af9610acc610ac7600c54600e5461175c90919063ffffffff16565b611791565b610aeb610ae6600c54600d5461175c90919063ffffffff16565b611791565b6115e390919063ffffffff16565b90508315610b2757610b20610b1b600c54600d5461175c90919063ffffffff16565b611791565b9150610b49565b610b46610b41600c54600e5461175c90919063ffffffff16565b611791565b91505b610b5c818361175c90919063ffffffff16565b92505050919050565b60008060009054906101000a900473ffffffffffffffffffffffffffffffffffffffff16905090565b600080610b9a836115d9565b11610bda576040517f08c379a0000000000000000000000000000000000000000000000000000000008152600401610bd190612cff565b60405180910390fd5b6000610c47610c36610c31610c04610bff600c54600e5461175c90919063ffffffff16565b611791565b610c23610c1e600c54600d5461175c90919063ffffffff16565b611791565b6115e390919063ffffffff16565b61182e565b600c5461187290919063ffffffff16565b905060008415610cd557610cce610cbd610cb8610c79610c74600c54600e5461175c90919063ffffffff16565b611791565b610caa610ca5600c54610c978b600d546115e390919063ffffffff16565b61175c90919063ffffffff16565b611791565b6115e390919063ffffffff16565b61182e565b600c5461187290919063ffffffff16565b9050610d55565b610d52610d41610d3c610d0f610d0a600c54610cfc8a600e546115e390919063ffffffff16565b61175c90919063ffffffff16565b611791565b610d2e610d29600c54600d5461175c90919063ffffffff16565b611791565b6115e390919063ffffffff16565b61182e565b600c5461187290919063ffffffff16565b90505b610d68828261189e90919063ffffffff16565b9250505092915050565b600d5481565b6000806000600160009054906101000a900473ffffffffffffffffffffffffffffffffffffffff1673ffffffffffffffffffffffffffffffffffffffff166370a08231856040518263ffffffff1660e01b8152600401610dd89190612a92565b602060405180830381865afa158015610df5573d6000803e3d6000fd5b505050506040513d601f19601f82011682018060405250810190610e199190612d74565b9250600260009054906101000a900473ffffffffffffffffffffffffffffffffffffffff1673ffffffffffffffffffffffffffffffffffffffff1662fdd58e856004600001546040518363ffffffff1660e01b8152600401610e7c929190612d1f565b602060405180830381865afa158015610e99573d6000803e3d6000fd5b505050506040513d601f19601f82011682018060405250810190610ebd9190612d74565b9150600360009054906101000a900473ffffffffffffffffffffffffffffffffffffffff1673ffffffffffffffffffffffffffffffffffffffff1662fdd58e856004600001546040518363ffffffff1660e01b8152600401610f20929190612d1f565b602060405180830381865afa158015610f3d573d6000803e3d6000fd5b505050506040513d601f19601f82011682018060405250810190610f619190612d74565b90509193909250565b610f726126af565b60046040518061010001604052908160008201548152602001600182018054610f9a90612f42565b80601f0160208091040260200160405190810160405280929190818152602001828054610fc690612f42565b80156110135780601f10610fe857610100808354040283529160200191611013565b820191906000526020600020905b815481529060010190602001808311610ff657829003601f168201915b50505050508152602001600282015481526020016003820154815260200160048201548152602001600582015481526020016006820160009054906101000a900460ff161515151581526020016006820160019054906101000a900460ff161515151581525050905090565b600061108b8383610b8e565b9050611096816115d9565b600160009054906101000a900473ffffffffffffffffffffffffffffffffffffffff1673ffffffffffffffffffffffffffffffffffffffff166370a08231336040518263ffffffff1660e01b81526004016110f19190612a92565b602060405180830381865afa15801561110e573d6000803e3d6000fd5b505050506040513d601f19601f820116820180604052508101906111329190612d74565b1015611173576040517f08c379a000000000000000000000000000000000000000000000000000000000815260040161116a90612ded565b60405180910390fd5b61117c816115d9565b600160009054906101000a900473ffffffffffffffffffffffffffffffffffffffff1673ffffffffffffffffffffffffffffffffffffffff1663dd62ed3e33306040518363ffffffff1660e01b81526004016111d9929190612f73565b602060405180830381865afa1580156111f6573d6000803e3d6000fd5b505050506040513d601f19601f8201168201806040525081019061121a9190612d74565b101561125b576040517f08c379a000000000000000000000000000000000000000000000000000000000815260040161125290612fe8565b60405180910390fd5b600160009054906101000a900473ffffffffffffffffffffffffffffffffffffffff1673ffffffffffffffffffffffffffffffffffffffff166323b872dd33306112a4856115d9565b6040518463ffffffff1660e01b81526004016112c293929190613008565b6020604051808303816000875af11580156112e1573d6000803e3d6000fd5b505050506040513d601f19601f820116820180604052508101906113059190613054565b611344576040517f08c379a000000000000000000000000000000000000000000000000000000000815260040161133b906130cd565b60405180910390fd5b821561140857600260009054906101000a900473ffffffffffffffffffffffffffffffffffffffff1673ffffffffffffffffffffffffffffffffffffffff1663731133e933600460000154611398866115d9565b6040518463ffffffff1660e01b81526004016113b693929190613124565b600060405180830381600087803b1580156113d057600080fd5b505af11580156113e4573d6000803e3d6000fd5b505050506113fd82600d546115e390919063ffffffff16565b600d819055506114c2565b600360009054906101000a900473ffffffffffffffffffffffffffffffffffffffff1673ffffffffffffffffffffffffffffffffffffffff1663731133e933600460000154611456866115d9565b6040518463ffffffff1660e01b815260040161147493929190613124565b600060405180830381600087803b15801561148e57600080fd5b505af11580156114a2573d6000803e3d6000fd5b505050506114bb82600e546115e390919063ffffffff16565b600e819055505b3373ffffffffffffffffffffffffffffffffffffffff167f8fafebcaf9d154343dad25669bfa277f4fbacd7ac6b0c4fed522580e040a0f3384611506576002611509565b60015b611512856115d9565b60405161152092919061316e565b60405180910390a2505050565b600260009054906101000a900473ffffffffffffffffffffffffffffffffffffffff1681565b61155b611611565b600073ffffffffffffffffffffffffffffffffffffffff168173ffffffffffffffffffffffffffffffffffffffff16036115cd5760006040517f1e4fbdf70000000000000000000000000000000000000000000000000000000081526004016115c49190612a92565b60405180910390fd5b6115d681611698565b50565b6000819050919050565b60006116096115f1836115d9565b6115fa856115d9565b6116049190612e73565b6118cc565b905092915050565b6116196118d6565b73ffffffffffffffffffffffffffffffffffffffff16611637610b65565b73ffffffffffffffffffffffffffffffffffffffff16146116965761165a6118d6565b6040517f118cdaa700000000000000000000000000000000000000000000000000000000815260040161168d9190612a92565b60405180910390fd5b565b60008060009054906101000a900473ffffffffffffffffffffffffffffffffffffffff169050816000806101000a81548173ffffffffffffffffffffffffffffffffffffffff021916908373ffffffffffffffffffffffffffffffffffffffff1602179055508173ffffffffffffffffffffffffffffffffffffffff168173ffffffffffffffffffffffffffffffffffffffff167f8be0079c531659141344cd1fd0a4f28419497f9722a3daafe3b4186f6b6457e060405160405180910390a35050565b600061178961178461176d856115d9565b670de0b6b3a764000061177f866115d9565b6118de565b6118cc565b905092915050565b60008061179d836115d9565b9050680736ea4425c11ac6308111156117ed57826040517f1af63aca0000000000000000000000000000000000000000000000000000000081526004016117e491906128a0565b60405180910390fd5b60006714057b7ef767814f82029050611825611820670de0b6b3a7640000838161181a57611819613197565b5b046118cc565b6119f8565b92505050919050565b600061186b6714057b7ef767814f670de0b6b3a764000061185661185186611a8a565b6115d9565b028161186557611864613197565b5b046118cc565b9050919050565b6000611896611891611883856115d9565b61188c856115d9565b611bbc565b6118cc565b905092915050565b60006118c46118ac836115d9565b6118b5856115d9565b6118bf91906131c6565b6118cc565b905092915050565b6000819050919050565b600033905090565b60008060008019858709858702925082811083820303915050600081036119195783828161190f5761190e613197565b5b04925050506119f1565b838110611961578585856040517f63a0577800000000000000000000000000000000000000000000000000000000815260040161195893929190612b06565b60405180910390fd5b60008486880990508281118203915080830392506000600186190186169050600081870496508185049450600182836000030401905080840285179450600060028860030218905080880260020381029050808802600203810290508088026002038102905080880260020381029050808802600203810290508088026002038102905080860296505050505050505b9392505050565b600080611a04836115d9565b9050680a688906bd8affffff811115611a5457826040517fb3b6ba1f000000000000000000000000000000000000000000000000000000008152600401611a4b91906128a0565b60405180910390fd5b6000670de0b6b3a7640000604083901b611a6e91906131fa565b9050611a81611a7c82611ca6565b6118cc565b92505050919050565b600080611a96836115d9565b9050670de0b6b3a7640000811015611ae557826040517f36d32ef0000000000000000000000000000000000000000000000000000000008152600401611adc91906128a0565b60405180910390fd5b6000611b08670de0b6b3a76400008381611b0257611b01613197565b5b04612606565b90506000670de0b6b3a76400008202905060008284901c9050670de0b6b3a76400008103611b4457611b39826118cc565b945050505050611bb7565b6000671bc16d674ec80000905060006706f05b59d3b2000090505b6000811115611ba557670de0b6b3a764000083840281611b8257611b81613197565b5b049250818310611b99578084019350600183901c92505b600181901c9050611b5f565b50611baf836118cc565b955050505050505b919050565b6000806000801984860984860292508281108382030391505060008103611bff57670de0b6b3a76400008281611bf557611bf4613197565b5b0492505050611ca0565b670de0b6b3a76400008110611c4d5784846040517f5173648d000000000000000000000000000000000000000000000000000000008152600401611c4492919061316e565b60405180910390fd5b6000670de0b6b3a764000085870990507faccb18165bd6fe31ae1cf318dc5b51eee0e1ba569b88cd74c1773b91fac106696001620400008060000304018483118403026204000083860304170293505050505b92915050565b6000778000000000000000000000000000000000000000000000009050600067ff0000000000000083161115611e0757600067800000000000000083161115611cfc57604068016a09e667f3bcc9098202901c90505b600067400000000000000083161115611d225760406801306fe0a31b7152df8202901c90505b600067200000000000000083161115611d485760406801172b83c7d517adce8202901c90505b600067100000000000000083161115611d6e57604068010b5586cf9890f62a8202901c90505b600067080000000000000083161115611d945760406801059b0d31585743ae8202901c90505b600067040000000000000083161115611dba576040680102c9a3e778060ee78202901c90505b600067020000000000000083161115611de057604068010163da9fb33356d88202901c90505b600067010000000000000083161115611e06576040680100b1afa5abcbed618202901c90505b5b600066ff00000000000083161115611f42576000668000000000000083161115611e3e57604068010058c86da1c09ea28202901c90505b6000664000000000000083161115611e635760406801002c605e2e8cec508202901c90505b6000662000000000000083161115611e88576040680100162f3904051fa18202901c90505b6000661000000000000083161115611ead5760406801000b175effdc76ba8202901c90505b6000660800000000000083161115611ed2576040680100058ba01fb9f96d8202901c90505b6000660400000000000083161115611ef757604068010002c5cc37da94928202901c90505b6000660200000000000083161115611f1c5760406801000162e525ee05478202901c90505b6000660100000000000083161115611f4157604068010000b17255775c048202901c90505b5b600065ff0000000000831611156120745760006580000000000083161115611f775760406801000058b91b5bc9ae8202901c90505b60006540000000000083161115611f9b576040680100002c5c89d5ec6d8202901c90505b60006520000000000083161115611fbf57604068010000162e43f4f8318202901c90505b60006510000000000083161115611fe3576040680100000b1721bcfc9a8202901c90505b6000650800000000008316111561200757604068010000058b90cf1e6e8202901c90505b6000650400000000008316111561202b5760406801000002c5c863b73f8202901c90505b6000650200000000008316111561204f576040680100000162e430e5a28202901c90505b600065010000000000831611156120735760406801000000b1721835518202901c90505b5b600064ff000000008316111561219d576000648000000000831611156120a7576040680100000058b90c0b498202901c90505b6000644000000000831611156120ca57604068010000002c5c8601cc8202901c90505b6000642000000000831611156120ed5760406801000000162e42fff08202901c90505b60006410000000008316111561211057604068010000000b17217fbb8202901c90505b6000640800000000831611156121335760406801000000058b90bfce8202901c90505b600064040000000083161115612156576040680100000002c5c85fe38202901c90505b60006402000000008316111561217957604068010000000162e42ff18202901c90505b60006401000000008316111561219c576040680100000000b17217f88202901c90505b5b600063ff000000831611156122bd5760006380000000831611156121ce57604068010000000058b90bfc8202901c90505b60006340000000831611156121f05760406801000000002c5c85fe8202901c90505b6000632000000083161115612212576040680100000000162e42ff8202901c90505b60006310000000831611156122345760406801000000000b17217f8202901c90505b6000630800000083161115612256576040680100000000058b90c08202901c90505b600063040000008316111561227857604068010000000002c5c8608202901c90505b600063020000008316111561229a5760406801000000000162e4308202901c90505b60006301000000831611156122bc57604068010000000000b172188202901c90505b5b600062ff0000831611156123d457600062800000831611156122ec5760406801000000000058b90c8202901c90505b6000624000008316111561230d576040680100000000002c5c868202901c90505b6000622000008316111561232e57604068010000000000162e438202901c90505b6000621000008316111561234f576040680100000000000b17218202901c90505b6000620800008316111561237057604068010000000000058b918202901c90505b600062040000831611156123915760406801000000000002c5c88202901c90505b600062020000831611156123b2576040680100000000000162e48202901c90505b600062010000831611156123d35760406801000000000000b1728202901c90505b5b600061ff00831611156124e257600061800083161115612401576040680100000000000058b98202901c90505b60006140008316111561242157604068010000000000002c5d8202901c90505b6000612000831611156124415760406801000000000000162e8202901c90505b60006110008316111561246157604068010000000000000b178202901c90505b6000610800831611156124815760406801000000000000058c8202901c90505b6000610400831611156124a1576040680100000000000002c68202901c90505b6000610200831611156124c1576040680100000000000001638202901c90505b6000610100831611156124e1576040680100000000000000b18202901c90505b5b600060ff831611156125e757600060808316111561250d576040680100000000000000598202901c90505b600060408316111561252c5760406801000000000000002c8202901c90505b600060208316111561254b576040680100000000000000168202901c90505b600060108316111561256a5760406801000000000000000b8202901c90505b6000600883161115612589576040680100000000000000068202901c90505b60006004831611156125a8576040680100000000000000038202901c90505b60006002831611156125c7576040680100000000000000018202901c90505b60006001831611156125e6576040680100000000000000018202901c90505b5b670de0b6b3a764000081029050604082901c60bf0381901c9050919050565b60006fffffffffffffffffffffffffffffffff821160071b82811c925080821791505067ffffffffffffffff821160061b82811c925080821791505063ffffffff821160051b82811c925080821791505061ffff821160041b82811c925080821791505060ff821160031b82811c9250808217915050600f821160021b82811c92508082179150506003821160011b82811c925080821791505060018211808217915050919050565b6040518061010001604052806000815260200160608152602001600081526020016000815260200160008152602001600081526020016000151581526020016000151581525090565b600080fd5b60008115159050919050565b612712816126fd565b811461271d57600080fd5b50565b60008135905061272f81612709565b92915050565b6000819050919050565b61274881612735565b811461275357600080fd5b50565b6000813590506127658161273f565b92915050565b60008060408385031215612782576127816126f8565b5b600061279085828601612720565b92505060206127a185828601612756565b9150509250929050565b600073ffffffffffffffffffffffffffffffffffffffff82169050919050565b6000819050919050565b60006127f06127eb6127e6846127ab565b6127cb565b6127ab565b9050919050565b6000612802826127d5565b9050919050565b6000612814826127f7565b9050919050565b61282481612809565b82525050565b600060208201905061283f600083018461281b565b92915050565b61284e81612735565b82525050565b60006020820190506128696000830184612845565b92915050565b600061288a61288561288084612735565b6127cb565b612735565b9050919050565b61289a8161286f565b82525050565b60006020820190506128b56000830184612891565b92915050565b60006128c6826127f7565b9050919050565b6128d6816128bb565b82525050565b60006020820190506128f160008301846128cd565b92915050565b600060408201905061290c6000830185612891565b6129196020830184612891565b9392505050565b600081519050919050565b600082825260208201905092915050565b60005b8381101561295a57808201518184015260208101905061293f565b60008484015250505050565b6000601f19601f8301169050919050565b600061298282612920565b61298c818561292b565b935061299c81856020860161293c565b6129a581612966565b840191505092915050565b6129b9816126fd565b82525050565b6000610100820190506129d5600083018b612845565b81810360208301526129e7818a612977565b90506129f66040830189612845565b612a036060830188612845565b612a106080830187612845565b612a1d60a0830186612845565b612a2a60c08301856129b0565b612a3760e08301846129b0565b9998505050505050505050565b600060208284031215612a5a57612a596126f8565b5b6000612a6884828501612720565b91505092915050565b6000612a7c826127ab565b9050919050565b612a8c81612a71565b82525050565b6000602082019050612aa76000830184612a83565b92915050565b612ab681612a71565b8114612ac157600080fd5b50565b600081359050612ad381612aad565b92915050565b600060208284031215612aef57612aee6126f8565b5b6000612afd84828501612ac4565b91505092915050565b6000606082019050612b1b6000830186612845565b612b286020830185612845565b612b356040830184612845565b949350505050565b612b4681612735565b82525050565b600082825260208201905092915050565b6000612b6882612920565b612b728185612b4c565b9350612b8281856020860161293c565b612b8b81612966565b840191505092915050565b612b9f816126fd565b82525050565b600061010083016000830151612bbe6000860182612b3d565b5060208301518482036020860152612bd68282612b5d565b9150506040830151612beb6040860182612b3d565b506060830151612bfe6060860182612b3d565b506080830151612c116080860182612b3d565b5060a0830151612c2460a0860182612b3d565b5060c0830151612c3760c0860182612b96565b5060e0830151612c4a60e0860182612b96565b508091505092915050565b60006020820190508181036000830152612c6f8184612ba5565b905092915050565b6000612c82826127f7565b9050919050565b612c9281612c77565b82525050565b6000602082019050612cad6000830184612c89565b92915050565b7f416d6f756e74206d7573742062652067726561746572207468616e207a65726f600082015250565b6000612ce960208361292b565b9150612cf482612cb3565b602082019050919050565b60006020820190508181036000830152612d1881612cdc565b9050919050565b6000604082019050612d346000830185612a83565b612d416020830184612845565b9392505050565b612d5181612735565b8114612d5c57600080fd5b50565b600081519050612d6e81612d48565b92915050565b600060208284031215612d8a57612d896126f8565b5b6000612d9884828501612d5f565b91505092915050565b7f496e73756666696369656e742062616c616e6365000000000000000000000000600082015250565b6000612dd760148361292b565b9150612de282612da1565b602082019050919050565b60006020820190508181036000830152612e0681612dca565b9050919050565b6000606082019050612e226000830186612a83565b612e2f6020830185612845565b612e3c6040830184612845565b949350505050565b7f4e487b7100000000000000000000000000000000000000000000000000000000600052601160045260246000fd5b6000612e7e82612735565b9150612e8983612735565b9250828201905080821115612ea157612ea0612e44565b5b92915050565b7f4d61726b657420616c7265616479207265736f6c766564000000000000000000600082015250565b6000612edd60178361292b565b9150612ee882612ea7565b602082019050919050565b60006020820190508181036000830152612f0c81612ed0565b9050919050565b7f4e487b7100000000000000000000000000000000000000000000000000000000600052602260045260246000fd5b60006002820490506001821680612f5a57607f821691505b602082108103612f6d57612f6c612f13565b5b50919050565b6000604082019050612f886000830185612a83565b612f956020830184612a83565b9392505050565b7f496e73756666696369656e7420616c6c6f77616e636500000000000000000000600082015250565b6000612fd260168361292b565b9150612fdd82612f9c565b602082019050919050565b6000602082019050818103600083015261300181612fc5565b9050919050565b600060608201905061301d6000830186612a83565b61302a6020830185612a83565b6130376040830184612845565b949350505050565b60008151905061304e81612709565b92915050565b60006020828403121561306a576130696126f8565b5b60006130788482850161303f565b91505092915050565b7f5061796d656e74206661696c6564000000000000000000000000000000000000600082015250565b60006130b7600e8361292b565b91506130c282613081565b602082019050919050565b600060208201905081810360008301526130e6816130aa565b9050919050565b600082825260208201905092915050565b50565b600061310e6000836130ed565b9150613119826130fe565b600082019050919050565b60006080820190506131396000830186612a83565b6131466020830185612845565b6131536040830184612845565b818103606083015261316481613101565b9050949350505050565b60006040820190506131836000830185612845565b6131906020830184612845565b9392505050565b7f4e487b7100000000000000000000000000000000000000000000000000000000600052601260045260246000fd5b60006131d182612735565b91506131dc83612735565b92508282039050818111156131f4576131f3612e44565b5b92915050565b600061320582612735565b915061321083612735565b9250826132205761321f613197565b5b82820490509291505056fea2646970667358221220e6c9b378b8572d702cec18b9bfd8a3418b35c925fb8b0356f09d9fdfa711dd0b64736f6c63430008180033",
  "linkReferences": {},
  "deployedLinkReferences": {}
}