{
  "_format": "hh-sol-artifact-1",
  "contractName": "PredictionMarket",
  "sourceName": "contracts/PredictionMarket.sol",
  "abi": [
    {
      "inputs": [
        {
          "internalType": "address",
          "name": "_priceToken",
          "type": "address"
        },
        {
          "internalType": "address",
          "name": "_yesToken",
          "type": "address"
        },
        {
          "internalType": "address",
          "name": "_noToken",
          "type": "address"
        },
        {
          "internalType": "uint256",
          "name": "_marketId",
          "type": "uint256"
        },
        {
          "internalType": "string",
          "name": "_question",
          "type": "string"
        },
        {
          "internalType": "uint256",
          "name": "_endtime",
          "type": "uint256"
        }
      ],
      "stateMutability": "nonpayable",
      "type": "constructor"
    },
    {
      "inputs": [
        {
          "internalType": "address",
          "name": "owner",
          "type": "address"
        }
      ],
      "name": "OwnableInvalidOwner",
      "type": "error"
    },
    {
      "inputs": [
        {
          "internalType": "address",
          "name": "account",
          "type": "address"
        }
      ],
      "name": "OwnableUnauthorizedAccount",
      "type": "error"
    },
    {
      "inputs": [
        {
          "internalType": "uint256",
          "name": "x",
          "type": "uint256"
        },
        {
          "internalType": "uint256",
          "name": "y",
          "type": "uint256"
        }
      ],
      "name": "PRBMath_MulDiv18_Overflow",
      "type": "error"
    },
    {
      "inputs": [
        {
          "internalType": "uint256",
          "name": "x",
          "type": "uint256"
        },
        {
          "internalType": "uint256",
          "name": "y",
          "type": "uint256"
        },
        {
          "internalType": "uint256",
          "name": "denominator",
          "type": "uint256"
        }
      ],
      "name": "PRBMath_MulDiv_Overflow",
      "type": "error"
    },
    {
      "inputs": [
        {
          "internalType": "UD60x18",
          "name": "x",
          "type": "uint256"
        }
      ],
      "name": "PRBMath_UD60x18_Exp2_InputTooBig",
      "type": "error"
    },
    {
      "inputs": [
        {
          "internalType": "UD60x18",
          "name": "x",
          "type": "uint256"
        }
      ],
      "name": "PRBMath_UD60x18_Exp_InputTooBig",
      "type": "error"
    },
    {
      "inputs": [
        {
          "internalType": "UD60x18",
          "name": "x",
          "type": "uint256"
        }
      ],
      "name": "PRBMath_UD60x18_Log_InputTooSmall",
      "type": "error"
    },
    {
      "anonymous": false,
      "inputs": [
        {
          "indexed": true,
          "internalType": "address",
          "name": "provider",
          "type": "address"
        },
        {
          "indexed": false,
          "internalType": "uint256",
          "name": "amount",
          "type": "uint256"
        }
      ],
      "name": "LiquidityAdded",
      "type": "event"
    },
    {
      "anonymous": false,
      "inputs": [
        {
          "indexed": true,
          "internalType": "address",
          "name": "previousOwner",
          "type": "address"
        },
        {
          "indexed": true,
          "internalType": "address",
          "name": "newOwner",
          "type": "address"
        }
      ],
      "name": "OwnershipTransferred",
      "type": "event"
    },
    {
      "anonymous": false,
      "inputs": [
        {
          "indexed": true,
          "internalType": "address",
          "name": "buyer",
          "type": "address"
        },
        {
          "indexed": false,
          "internalType": "uint256",
          "name": "tokentype",
          "type": "uint256"
        },
        {
          "indexed": false,
          "internalType": "uint256",
          "name": "amount",
          "type": "uint256"
        }
      ],
      "name": "TokensPurchased",
      "type": "event"
    },
    {
      "anonymous": false,
      "inputs": [
        {
          "indexed": true,
          "internalType": "address",
          "name": "seller",
          "type": "address"
        },
        {
          "indexed": false,
          "internalType": "uint256",
          "name": "tokentype",
          "type": "uint256"
        },
        {
          "indexed": false,
          "internalType": "uint256",
          "name": "amount",
          "type": "uint256"
        }
      ],
      "name": "TokensSold",
      "type": "event"
    },
    {
      "anonymous": false,
      "inputs": [
        {
          "indexed": false,
          "internalType": "uint256",
          "name": "balance",
          "type": "uint256"
        }
      ],
      "name": "yesTokenbalance",
      "type": "event"
    },
    {
      "inputs": [],
      "name": "DECIMALS",
      "outputs": [
        {
          "internalType": "UD60x18",
          "name": "",
          "type": "uint256"
        }
      ],
      "stateMutability": "view",
      "type": "function"
    },
    {
      "inputs": [],
      "name": "LIQUIDITY_PARAMETER",
      "outputs": [
        {
          "internalType": "UD60x18",
          "name": "",
          "type": "uint256"
        }
      ],
      "stateMutability": "view",
      "type": "function"
    },
    {
      "inputs": [
        {
          "internalType": "bool",
          "name": "isYesToken",
          "type": "bool"
        },
        {
          "internalType": "UD60x18",
          "name": "amount",
          "type": "uint256"
        }
      ],
      "name": "buy",
      "outputs": [],
      "stateMutability": "nonpayable",
      "type": "function"
    },
    {
      "inputs": [],
      "name": "claimReward",
      "outputs": [],
      "stateMutability": "nonpayable",
      "type": "function"
    },
    {
      "inputs": [
        {
          "internalType": "address",
          "name": "account",
          "type": "address"
        }
      ],
      "name": "getBalances",
      "outputs": [
        {
          "internalType": "uint256",
          "name": "priceTokenBalance",
          "type": "uint256"
        },
        {
          "internalType": "uint256",
          "name": "yesTokenBalance",
          "type": "uint256"
        },
        {
          "internalType": "uint256",
          "name": "noTokenBalance",
          "type": "uint256"
        }
      ],
      "stateMutability": "view",
      "type": "function"
    },
    {
      "inputs": [
        {
          "internalType": "bool",
          "name": "isYesToken",
          "type": "bool"
        },
        {
          "internalType": "UD60x18",
          "name": "amount",
          "type": "uint256"
        }
      ],
      "name": "getCost",
      "outputs": [
        {
          "internalType": "UD60x18",
          "name": "price",
          "type": "uint256"
        }
      ],
      "stateMutability": "view",
      "type": "function"
    },
    {
      "inputs": [],
      "name": "getMarketState",
      "outputs": [
        {
          "components": [
            {
              "internalType": "uint256",
              "name": "id",
              "type": "uint256"
            },
            {
              "internalType": "string",
              "name": "question",
              "type": "string"
            },
            {
              "internalType": "uint256",
              "name": "endTime",
              "type": "uint256"
            },
            {
              "internalType": "uint256",
              "name": "totalStaked",
              "type": "uint256"
            },
            {
              "internalType": "uint256",
              "name": "totalYes",
              "type": "uint256"
            },
            {
              "internalType": "uint256",
              "name": "totalNo",
              "type": "uint256"
            },
            {
              "internalType": "bool",
              "name": "resolved",
              "type": "bool"
            },
            {
              "internalType": "bool",
              "name": "won",
              "type": "bool"
            },
            {
              "internalType": "uint256",
              "name": "totalPriceToken",
              "type": "uint256"
            }
          ],
          "internalType": "struct PredictionMarket.Market",
          "name": "marketState",
          "type": "tuple"
        }
      ],
      "stateMutability": "view",
      "type": "function"
    },
    {
      "inputs": [
        {
          "internalType": "bool",
          "name": "isYesToken",
          "type": "bool"
        }
      ],
      "name": "getTokenPrice",
      "outputs": [
        {
          "internalType": "UD60x18",
          "name": "price",
          "type": "uint256"
        }
      ],
      "stateMutability": "view",
      "type": "function"
    },
    {
      "inputs": [],
      "name": "getTokenQuantities",
      "outputs": [
        {
          "internalType": "UD60x18",
          "name": "yesQuantity",
          "type": "uint256"
        },
        {
          "internalType": "UD60x18",
          "name": "noQuantity",
          "type": "uint256"
        }
      ],
      "stateMutability": "view",
      "type": "function"
    },
    {
      "inputs": [],
      "name": "market",
      "outputs": [
        {
          "internalType": "uint256",
          "name": "id",
          "type": "uint256"
        },
        {
          "internalType": "string",
          "name": "question",
          "type": "string"
        },
        {
          "internalType": "uint256",
          "name": "endTime",
          "type": "uint256"
        },
        {
          "internalType": "uint256",
          "name": "totalStaked",
          "type": "uint256"
        },
        {
          "internalType": "uint256",
          "name": "totalYes",
          "type": "uint256"
        },
        {
          "internalType": "uint256",
          "name": "totalNo",
          "type": "uint256"
        },
        {
          "internalType": "bool",
          "name": "resolved",
          "type": "bool"
        },
        {
          "internalType": "bool",
          "name": "won",
          "type": "bool"
        },
        {
          "internalType": "uint256",
          "name": "totalPriceToken",
          "type": "uint256"
        }
      ],
      "stateMutability": "view",
      "type": "function"
    },
    {
      "inputs": [],
      "name": "noToken",
      "outputs": [
        {
          "internalType": "contract NoToken",
          "name": "",
          "type": "address"
        }
      ],
      "stateMutability": "view",
      "type": "function"
    },
    {
      "inputs": [],
      "name": "owner",
      "outputs": [
        {
          "internalType": "address",
          "name": "",
          "type": "address"
        }
      ],
      "stateMutability": "view",
      "type": "function"
    },
    {
      "inputs": [],
      "name": "priceToken",
      "outputs": [
        {
          "internalType": "contract IERC20",
          "name": "",
          "type": "address"
        }
      ],
      "stateMutability": "view",
      "type": "function"
    },
    {
      "inputs": [],
      "name": "qNo",
      "outputs": [
        {
          "internalType": "UD60x18",
          "name": "",
          "type": "uint256"
        }
      ],
      "stateMutability": "view",
      "type": "function"
    },
    {
      "inputs": [],
      "name": "qYes",
      "outputs": [
        {
          "internalType": "UD60x18",
          "name": "",
          "type": "uint256"
        }
      ],
      "stateMutability": "view",
      "type": "function"
    },
    {
      "inputs": [],
      "name": "renounceOwnership",
      "outputs": [],
      "stateMutability": "nonpayable",
      "type": "function"
    },
    {
      "inputs": [],
      "name": "resolve",
      "outputs": [],
      "stateMutability": "nonpayable",
      "type": "function"
    },
    {
      "inputs": [
        {
          "internalType": "bool",
          "name": "isYesToken",
          "type": "bool"
        },
        {
          "internalType": "UD60x18",
          "name": "amount",
          "type": "uint256"
        }
      ],
      "name": "sell",
      "outputs": [],
      "stateMutability": "nonpayable",
      "type": "function"
    },
    {
      "inputs": [
        {
          "internalType": "address",
          "name": "newOwner",
          "type": "address"
        }
      ],
      "name": "transferOwnership",
      "outputs": [],
      "stateMutability": "nonpayable",
      "type": "function"
    },
    {
      "inputs": [
        {
          "internalType": "bool",
          "name": "isYesToken",
          "type": "bool"
        },
        {
          "internalType": "UD60x18",
          "name": "amount",
          "type": "uint256"
        }
      ],
      "name": "vote",
      "outputs": [],
      "stateMutability": "nonpayable",
      "type": "function"
    },
    {
      "inputs": [],
      "name": "yesToken",
      "outputs": [
        {
          "internalType": "contract YesToken",
          "name": "",
          "type": "address"
        }
      ],
      "stateMutability": "view",
      "type": "function"
    }
  ],
  "bytecode": "0x608060405273e5caa785fee2154e5cddc15ac37eedf0274ad5a2600460006101000a81548173ffffffffffffffffffffffffffffffffffffffff021916908373ffffffffffffffffffffffffffffffffffffffff16021790555062000072670de0b6b3a76400006200033d60201b60201c565b600d556200008e678ac7230489e800006200033d60201b60201c565b600e55620000a360006200033d60201b60201c565b600f55620000b860006200033d60201b60201c565b601055348015620000c857600080fd5b5060405162004dae38038062004dae8339818101604052810190620000ee91906200063e565b73e5caa785fee2154e5cddc15ac37eedf0274ad5a2600073ffffffffffffffffffffffffffffffffffffffff168173ffffffffffffffffffffffffffffffffffffffff1603620001785760006040517f1e4fbdf70000000000000000000000000000000000000000000000000000000081526004016200016f91906200070a565b60405180910390fd5b62000189816200034760201b60201c565b5085600160006101000a81548173ffffffffffffffffffffffffffffffffffffffff021916908373ffffffffffffffffffffffffffffffffffffffff16021790555084600260006101000a81548173ffffffffffffffffffffffffffffffffffffffff021916908373ffffffffffffffffffffffffffffffffffffffff16021790555083600360006101000a81548173ffffffffffffffffffffffffffffffffffffffff021916908373ffffffffffffffffffffffffffffffffffffffff16021790555060405180610120016040528084815260200183815260200182815260200160008152602001600081526020016000815260200160001515815260200160001515815260200160008152506005600082015181600001556020820151816001019081620002ba919062000968565b5060408201518160020155606082015181600301556080820151816004015560a0820151816005015560c08201518160060160006101000a81548160ff02191690831515021790555060e08201518160060160016101000a81548160ff021916908315150217905550610100820151816007015590505050505050505062000a4f565b6000819050919050565b60008060009054906101000a900473ffffffffffffffffffffffffffffffffffffffff169050816000806101000a81548173ffffffffffffffffffffffffffffffffffffffff021916908373ffffffffffffffffffffffffffffffffffffffff1602179055508173ffffffffffffffffffffffffffffffffffffffff168173ffffffffffffffffffffffffffffffffffffffff167f8be0079c531659141344cd1fd0a4f28419497f9722a3daafe3b4186f6b6457e060405160405180910390a35050565b6000604051905090565b600080fd5b600080fd5b600073ffffffffffffffffffffffffffffffffffffffff82169050919050565b60006200044c826200041f565b9050919050565b6200045e816200043f565b81146200046a57600080fd5b50565b6000815190506200047e8162000453565b92915050565b6000819050919050565b620004998162000484565b8114620004a557600080fd5b50565b600081519050620004b9816200048e565b92915050565b600080fd5b600080fd5b6000601f19601f8301169050919050565b7f4e487b7100000000000000000000000000000000000000000000000000000000600052604160045260246000fd5b6200051482620004c9565b810181811067ffffffffffffffff82111715620005365762000535620004da565b5b80604052505050565b60006200054b6200040b565b905062000559828262000509565b919050565b600067ffffffffffffffff8211156200057c576200057b620004da565b5b6200058782620004c9565b9050602081019050919050565b60005b83811015620005b457808201518184015260208101905062000597565b60008484015250505050565b6000620005d7620005d1846200055e565b6200053f565b905082815260208101848484011115620005f657620005f5620004c4565b5b6200060384828562000594565b509392505050565b600082601f830112620006235762000622620004bf565b5b815162000635848260208601620005c0565b91505092915050565b60008060008060008060c087890312156200065e576200065d62000415565b5b60006200066e89828a016200046d565b96505060206200068189828a016200046d565b95505060406200069489828a016200046d565b9450506060620006a789828a01620004a8565b935050608087015167ffffffffffffffff811115620006cb57620006ca6200041a565b5b620006d989828a016200060b565b92505060a0620006ec89828a01620004a8565b9150509295509295509295565b62000704816200043f565b82525050565b6000602082019050620007216000830184620006f9565b92915050565b600081519050919050565b7f4e487b7100000000000000000000000000000000000000000000000000000000600052602260045260246000fd5b600060028204905060018216806200077a57607f821691505b60208210810362000790576200078f62000732565b5b50919050565b60008190508160005260206000209050919050565b60006020601f8301049050919050565b600082821b905092915050565b600060088302620007fa7fffffffffffffffffffffffffffffffffffffffffffffffffffffffffffffffff82620007bb565b620008068683620007bb565b95508019841693508086168417925050509392505050565b6000819050919050565b600062000849620008436200083d8462000484565b6200081e565b62000484565b9050919050565b6000819050919050565b620008658362000828565b6200087d620008748262000850565b848454620007c8565b825550505050565b600090565b6200089462000885565b620008a18184846200085a565b505050565b5b81811015620008c957620008bd6000826200088a565b600181019050620008a7565b5050565b601f8211156200091857620008e28162000796565b620008ed84620007ab565b81016020851015620008fd578190505b620009156200090c85620007ab565b830182620008a6565b50505b505050565b600082821c905092915050565b60006200093d600019846008026200091d565b1980831691505092915050565b60006200095883836200092a565b9150826002028217905092915050565b620009738262000727565b67ffffffffffffffff8111156200098f576200098e620004da565b5b6200099b825462000761565b620009a8828285620008cd565b600060209050601f831160018114620009e05760008415620009cb578287015190505b620009d785826200094a565b86555062000a47565b601f198416620009f08662000796565b60005b8281101562000a1a57848901518255600182019150602085019450602081019050620009f3565b8683101562000a3a578489015162000a36601f8916826200092a565b8355505b6001600288020188555050505b505050505050565b61434f8062000a5f6000396000f3fe608060405234801561001057600080fd5b50600436106101375760003560e01c80638b74b9ab116100b8578063c84aae171161007c578063c84aae17146102ed578063d81657431461031f578063e24c469b1461033d578063f0d9bb2014610359578063f2fde38b14610377578063f571c5f31461039357610137565b80638b74b9ab146102475780638da5cb5b14610277578063a4d7506514610295578063b88a802f146102c5578063bfc59601146102cf57610137565b80632e0f2625116100ff5780632e0f2625146101bc5780632ff6fe76146101da5780635bea2410146101f8578063715018a61461021757806380f556051461022157610137565b806310e6e06c1461013c57806311a9f10a146101585780631c426fc8146101765780632810e1d6146101945780632acf1cd21461019e575b600080fd5b61015660048036038101906101519190613527565b6103af565b005b610160610890565b60405161016d91906135e6565b60405180910390f35b61017e6108b6565b60405161018b9190613632565b60405180910390f35b61019c6108bc565b005b6101a6610a8c565b6040516101b39190613632565b60405180910390f35b6101c4610a92565b6040516101d19190613632565b60405180910390f35b6101e2610a98565b6040516101ef919061366e565b60405180910390f35b610200610abe565b60405161020e929190613689565b60405180910390f35b61021f610acf565b005b610229610ae3565b60405161023e99989796959493929190613760565b60405180910390f35b610261600480360381019061025c91906137f4565b610bc1565b60405161026e9190613632565b60405180910390f35b61027f610c81565b60405161028c9190613842565b60405180910390f35b6102af60048036038101906102aa9190613527565b610caa565b6040516102bc9190613632565b60405180910390f35b6102cd610e8e565b005b6102d7611681565b6040516102e49190613632565b60405180910390f35b61030760048036038101906103029190613889565b611687565b604051610316939291906138b6565b60405180910390f35b610327611879565b6040516103349190613a1a565b60405180910390f35b61035760048036038101906103529190613527565b611998565b005b610361611e20565b60405161036e9190613a5d565b60405180910390f35b610391600480360381019061038c9190613889565b611e46565b005b6103ad60048036038101906103a89190613527565b611ecc565b005b60006103ba8261238e565b116103fa576040517f08c379a00000000000000000000000000000000000000000000000000000000081526004016103f190613ac4565b60405180910390fd5b81156106a4577fe7a8e522baa2b87f9dc4d1c2ae6b149dce35c187e79e13e5b5e100cd91b555b7600260009054906101000a900473ffffffffffffffffffffffffffffffffffffffff1673ffffffffffffffffffffffffffffffffffffffff1662fdd58e336005600001546040518363ffffffff1660e01b8152600401610482929190613ae4565b602060405180830381865afa15801561049f573d6000803e3d6000fd5b505050506040513d601f19601f820116820180604052508101906104c39190613b39565b6040516104d09190613b66565b60405180910390a16104e18161238e565b600260009054906101000a900473ffffffffffffffffffffffffffffffffffffffff1673ffffffffffffffffffffffffffffffffffffffff1662fdd58e336005600001546040518363ffffffff1660e01b8152600401610542929190613ae4565b602060405180830381865afa15801561055f573d6000803e3d6000fd5b505050506040513d601f19601f820116820180604052508101906105839190613b39565b10156105c4576040517f08c379a00000000000000000000000000000000000000000000000000000000081526004016105bb90613bcd565b60405180910390fd5b600260009054906101000a900473ffffffffffffffffffffffffffffffffffffffff1673ffffffffffffffffffffffffffffffffffffffff1663f5298aca336005600001546106128561238e565b6040518463ffffffff1660e01b815260040161063093929190613bed565b600060405180830381600087803b15801561064a57600080fd5b505af115801561065e573d6000803e3d6000fd5b5050505061067781600f5461239890919063ffffffff16565b600f819055506106868161238e565b6005600401546106969190613c53565b60056004018190555061086a565b6106ad8161238e565b600360009054906101000a900473ffffffffffffffffffffffffffffffffffffffff1673ffffffffffffffffffffffffffffffffffffffff1662fdd58e336005600001546040518363ffffffff1660e01b815260040161070e929190613ae4565b602060405180830381865afa15801561072b573d6000803e3d6000fd5b505050506040513d601f19601f8201168201806040525081019061074f9190613b39565b1015610790576040517f08c379a000000000000000000000000000000000000000000000000000000000815260040161078790613bcd565b60405180910390fd5b600360009054906101000a900473ffffffffffffffffffffffffffffffffffffffff1673ffffffffffffffffffffffffffffffffffffffff1663f5298aca336005600001546107de8561238e565b6040518463ffffffff1660e01b81526004016107fc93929190613bed565b600060405180830381600087803b15801561081657600080fd5b505af115801561082a573d6000803e3d6000fd5b505050506108438160105461239890919063ffffffff16565b6010819055506108528161238e565b60058001546108619190613c53565b60058001819055505b6108738161238e565b6005600301546108839190613c53565b6005600301819055505050565b600360009054906101000a900473ffffffffffffffffffffffffffffffffffffffff1681565b600e5481565b600460009054906101000a900473ffffffffffffffffffffffffffffffffffffffff1673ffffffffffffffffffffffffffffffffffffffff163373ffffffffffffffffffffffffffffffffffffffff161461094c576040517f08c379a000000000000000000000000000000000000000000000000000000000815260040161094390613cf9565b60405180910390fd5b600560060160009054906101000a900460ff161561099f576040517f08c379a000000000000000000000000000000000000000000000000000000000815260040161099690613d65565b60405180910390fd5b6001600560060160006101000a81548160ff021916908315150217905550600580015460056004015411600560060160016101000a81548160ff021916908315150217905550600160009054906101000a900473ffffffffffffffffffffffffffffffffffffffff1673ffffffffffffffffffffffffffffffffffffffff166370a08231306040518263ffffffff1660e01b8152600401610a409190613842565b602060405180830381865afa158015610a5d573d6000803e3d6000fd5b505050506040513d601f19601f82011682018060405250810190610a819190613b39565b600560070181905550565b60105481565b600d5481565b600160009054906101000a900473ffffffffffffffffffffffffffffffffffffffff1681565b600080600f54601054915091509091565b610ad76123c6565b610ae1600061244d565b565b6005806000015490806001018054610afa90613db4565b80601f0160208091040260200160405190810160405280929190818152602001828054610b2690613db4565b8015610b735780601f10610b4857610100808354040283529160200191610b73565b820191906000526020600020905b815481529060010190602001808311610b5657829003601f168201915b5050505050908060020154908060030154908060040154908060050154908060060160009054906101000a900460ff16908060060160019054906101000a900460ff16908060070154905089565b6000806000610c15610be8610be3600e5460105461251190919063ffffffff16565b612546565b610c07610c02600e54600f5461251190919063ffffffff16565b612546565b61239890919063ffffffff16565b90508315610c4357610c3c610c37600e54600f5461251190919063ffffffff16565b612546565b9150610c65565b610c62610c5d600e5460105461251190919063ffffffff16565b612546565b91505b610c78818361251190919063ffffffff16565b92505050919050565b60008060009054906101000a900473ffffffffffffffffffffffffffffffffffffffff16905090565b600080610cb68361238e565b11610cf6576040517f08c379a0000000000000000000000000000000000000000000000000000000008152600401610ced90613ac4565b60405180910390fd5b6000610d63610d52610d4d610d20610d1b600e5460105461251190919063ffffffff16565b612546565b610d3f610d3a600e54600f5461251190919063ffffffff16565b612546565b61239890919063ffffffff16565b6125e3565b600e5461262790919063ffffffff16565b905060008415610df157610dea610dd9610dd4610d95610d90600e5460105461251190919063ffffffff16565b612546565b610dc6610dc1600e54610db38b600f5461239890919063ffffffff16565b61251190919063ffffffff16565b612546565b61239890919063ffffffff16565b6125e3565b600e5461262790919063ffffffff16565b9050610e71565b610e6e610e5d610e58610e2b610e26600e54610e188a60105461239890919063ffffffff16565b61251190919063ffffffff16565b612546565b610e4a610e45600e54600f5461251190919063ffffffff16565b612546565b61239890919063ffffffff16565b6125e3565b600e5461262790919063ffffffff16565b90505b610e84828261265390919063ffffffff16565b9250505092915050565b600560060160009054906101000a900460ff16610ee0576040517f08c379a0000000000000000000000000000000000000000000000000000000008152600401610ed790613e31565b60405180910390fd5b600560060160019054906101000a900460ff16156112be576000600260009054906101000a900473ffffffffffffffffffffffffffffffffffffffff1673ffffffffffffffffffffffffffffffffffffffff1662fdd58e336005600001546040518363ffffffff1660e01b8152600401610f5b929190613ae4565b602060405180830381865afa158015610f78573d6000803e3d6000fd5b505050506040513d601f19601f82011682018060405250810190610f9c9190613b39565b11610fdc576040517f08c379a0000000000000000000000000000000000000000000000000000000008152600401610fd390613e9d565b60405180910390fd5b6000600560040154600560070154600260009054906101000a900473ffffffffffffffffffffffffffffffffffffffff1673ffffffffffffffffffffffffffffffffffffffff1662fdd58e336005600001546040518363ffffffff1660e01b815260040161104b929190613ae4565b602060405180830381865afa158015611068573d6000803e3d6000fd5b505050506040513d601f19601f8201168201806040525081019061108c9190613b39565b6110969190613ebd565b6110a09190613f2e565b9050600160009054906101000a900473ffffffffffffffffffffffffffffffffffffffff1673ffffffffffffffffffffffffffffffffffffffff1663a9059cbb33836040518363ffffffff1660e01b81526004016110ff929190613ae4565b6020604051808303816000875af115801561111e573d6000803e3d6000fd5b505050506040513d601f19601f820116820180604052508101906111429190613f74565b611181576040517f08c379a000000000000000000000000000000000000000000000000000000000815260040161117890613fed565b60405180910390fd5b600260009054906101000a900473ffffffffffffffffffffffffffffffffffffffff1673ffffffffffffffffffffffffffffffffffffffff1663f5298aca33600560000154600260009054906101000a900473ffffffffffffffffffffffffffffffffffffffff1673ffffffffffffffffffffffffffffffffffffffff1662fdd58e336005600001546040518363ffffffff1660e01b8152600401611227929190613ae4565b602060405180830381865afa158015611244573d6000803e3d6000fd5b505050506040513d601f19601f820116820180604052508101906112689190613b39565b6040518463ffffffff1660e01b815260040161128693929190613bed565b600060405180830381600087803b1580156112a057600080fd5b505af11580156112b4573d6000803e3d6000fd5b505050505061167f565b6000600360009054906101000a900473ffffffffffffffffffffffffffffffffffffffff1673ffffffffffffffffffffffffffffffffffffffff1662fdd58e336005600001546040518363ffffffff1660e01b8152600401611321929190613ae4565b602060405180830381865afa15801561133e573d6000803e3d6000fd5b505050506040513d601f19601f820116820180604052508101906113629190613b39565b116113a2576040517f08c379a000000000000000000000000000000000000000000000000000000000815260040161139990614059565b60405180910390fd5b60006005800154600560070154600360009054906101000a900473ffffffffffffffffffffffffffffffffffffffff1673ffffffffffffffffffffffffffffffffffffffff1662fdd58e336005600001546040518363ffffffff1660e01b8152600401611410929190613ae4565b602060405180830381865afa15801561142d573d6000803e3d6000fd5b505050506040513d601f19601f820116820180604052508101906114519190613b39565b61145b9190613ebd565b6114659190613f2e565b9050600160009054906101000a900473ffffffffffffffffffffffffffffffffffffffff1673ffffffffffffffffffffffffffffffffffffffff1663a9059cbb33836040518363ffffffff1660e01b81526004016114c4929190613ae4565b6020604051808303816000875af11580156114e3573d6000803e3d6000fd5b505050506040513d601f19601f820116820180604052508101906115079190613f74565b611546576040517f08c379a000000000000000000000000000000000000000000000000000000000815260040161153d90613fed565b60405180910390fd5b600360009054906101000a900473ffffffffffffffffffffffffffffffffffffffff1673ffffffffffffffffffffffffffffffffffffffff1663f5298aca33600560000154600360009054906101000a900473ffffffffffffffffffffffffffffffffffffffff1673ffffffffffffffffffffffffffffffffffffffff1662fdd58e336005600001546040518363ffffffff1660e01b81526004016115ec929190613ae4565b602060405180830381865afa158015611609573d6000803e3d6000fd5b505050506040513d601f19601f8201168201806040525081019061162d9190613b39565b6040518463ffffffff1660e01b815260040161164b93929190613bed565b600060405180830381600087803b15801561166557600080fd5b505af1158015611679573d6000803e3d6000fd5b50505050505b565b600f5481565b6000806000600160009054906101000a900473ffffffffffffffffffffffffffffffffffffffff1673ffffffffffffffffffffffffffffffffffffffff166370a08231856040518263ffffffff1660e01b81526004016116e79190613842565b602060405180830381865afa158015611704573d6000803e3d6000fd5b505050506040513d601f19601f820116820180604052508101906117289190613b39565b9250600260009054906101000a900473ffffffffffffffffffffffffffffffffffffffff1673ffffffffffffffffffffffffffffffffffffffff1662fdd58e856005600001546040518363ffffffff1660e01b815260040161178b929190613ae4565b602060405180830381865afa1580156117a8573d6000803e3d6000fd5b505050506040513d601f19601f820116820180604052508101906117cc9190613b39565b9150600360009054906101000a900473ffffffffffffffffffffffffffffffffffffffff1673ffffffffffffffffffffffffffffffffffffffff1662fdd58e856005600001546040518363ffffffff1660e01b815260040161182f929190613ae4565b602060405180830381865afa15801561184c573d6000803e3d6000fd5b505050506040513d601f19601f820116820180604052508101906118709190613b39565b90509193909250565b611881613464565b600560405180610120016040529081600082015481526020016001820180546118a990613db4565b80601f01602080910402602001604051908101604052809291908181526020018280546118d590613db4565b80156119225780601f106118f757610100808354040283529160200191611922565b820191906000526020600020905b81548152906001019060200180831161190557829003601f168201915b50505050508152602001600282015481526020016003820154815260200160048201548152602001600582015481526020016006820160009054906101000a900460ff161515151581526020016006820160019054906101000a900460ff16151515158152602001600782015481525050905090565b60006119a38261238e565b116119e3576040517f08c379a00000000000000000000000000000000000000000000000000000000081526004016119da90613ac4565b60405180910390fd5b600560060160009054906101000a900460ff1615611a36576040517f08c379a0000000000000000000000000000000000000000000000000000000008152600401611a2d90613d65565b60405180910390fd5b670de0b6b3a7640000611a488261238e565b1115611a89576040517f08c379a0000000000000000000000000000000000000000000000000000000008152600401611a80906140eb565b60405180910390fd5b678ac7230489e80000611a9b8261238e565b1115611adc576040517f08c379a0000000000000000000000000000000000000000000000000000000008152600401611ad39061417d565b60405180910390fd5b6000611ae88383610caa565b9050600160009054906101000a900473ffffffffffffffffffffffffffffffffffffffff1673ffffffffffffffffffffffffffffffffffffffff166323b872dd3330611b338561238e565b6040518463ffffffff1660e01b8152600401611b519392919061419d565b6020604051808303816000875af1158015611b70573d6000803e3d6000fd5b505050506040513d601f19601f82011682018060405250810190611b949190613f74565b611bd3576040517f08c379a0000000000000000000000000000000000000000000000000000000008152600401611bca90613fed565b60405180910390fd5b8215611cb957600260009054906101000a900473ffffffffffffffffffffffffffffffffffffffff1673ffffffffffffffffffffffffffffffffffffffff1663731133e933600560000154611c278661238e565b6040518463ffffffff1660e01b8152600401611c459392919061420b565b600060405180830381600087803b158015611c5f57600080fd5b505af1158015611c73573d6000803e3d6000fd5b50505050611c8c82600f5461239890919063ffffffff16565b600f81905550611c9b8261238e565b600560040154611cab9190613c53565b600560040181905550611d93565b600360009054906101000a900473ffffffffffffffffffffffffffffffffffffffff1673ffffffffffffffffffffffffffffffffffffffff1663731133e933600560000154611d078661238e565b6040518463ffffffff1660e01b8152600401611d259392919061420b565b600060405180830381600087803b158015611d3f57600080fd5b505af1158015611d53573d6000803e3d6000fd5b50505050611d6c8260105461239890919063ffffffff16565b601081905550611d7b8261238e565b6005800154611d8a9190613c53565b60058001819055505b611d9c8261238e565b600560030154611dac9190613c53565b6005600301819055503373ffffffffffffffffffffffffffffffffffffffff167f8fafebcaf9d154343dad25669bfa277f4fbacd7ac6b0c4fed522580e040a0f3384611df9576002611dfc565b60015b611e058561238e565b604051611e13929190614293565b60405180910390a2505050565b600260009054906101000a900473ffffffffffffffffffffffffffffffffffffffff1681565b611e4e6123c6565b600073ffffffffffffffffffffffffffffffffffffffff168173ffffffffffffffffffffffffffffffffffffffff1603611ec05760006040517f1e4fbdf7000000000000000000000000000000000000000000000000000000008152600401611eb79190613842565b60405180910390fd5b611ec98161244d565b50565b6000611ed78261238e565b11611f17576040517f08c379a0000000000000000000000000000000000000000000000000000000008152600401611f0e90613ac4565b60405180910390fd5b600560060160009054906101000a900460ff1615611f6a576040517f08c379a0000000000000000000000000000000000000000000000000000000008152600401611f6190613d65565b60405180910390fd5b811561213c57611f798161238e565b600260009054906101000a900473ffffffffffffffffffffffffffffffffffffffff1673ffffffffffffffffffffffffffffffffffffffff1662fdd58e336005600001546040518363ffffffff1660e01b8152600401611fda929190613ae4565b602060405180830381865afa158015611ff7573d6000803e3d6000fd5b505050506040513d601f19601f8201168201806040525081019061201b9190613b39565b101561205c576040517f08c379a000000000000000000000000000000000000000000000000000000000815260040161205390613bcd565b60405180910390fd5b600260009054906101000a900473ffffffffffffffffffffffffffffffffffffffff1673ffffffffffffffffffffffffffffffffffffffff1663095bcdb6306005600001546120aa8561238e565b6040518463ffffffff1660e01b81526004016120c893929190613bed565b600060405180830381600087803b1580156120e257600080fd5b505af11580156120f6573d6000803e3d6000fd5b5050505061210f81600f5461265390919063ffffffff16565b600f8190555061211e8161238e565b60056004015461212e91906142bc565b600560040181905550612302565b6121458161238e565b600360009054906101000a900473ffffffffffffffffffffffffffffffffffffffff1673ffffffffffffffffffffffffffffffffffffffff1662fdd58e336005600001546040518363ffffffff1660e01b81526004016121a6929190613ae4565b602060405180830381865afa1580156121c3573d6000803e3d6000fd5b505050506040513d601f19601f820116820180604052508101906121e79190613b39565b1015612228576040517f08c379a000000000000000000000000000000000000000000000000000000000815260040161221f90613bcd565b60405180910390fd5b600360009054906101000a900473ffffffffffffffffffffffffffffffffffffffff1673ffffffffffffffffffffffffffffffffffffffff1663095bcdb6306005600001546122768561238e565b6040518463ffffffff1660e01b815260040161229493929190613bed565b600060405180830381600087803b1580156122ae57600080fd5b505af11580156122c2573d6000803e3d6000fd5b505050506122db8160105461265390919063ffffffff16565b6010819055506122ea8161238e565b60058001546122f991906142bc565b60058001819055505b61230b8161238e565b60056003015461231b91906142bc565b6005600301819055503373ffffffffffffffffffffffffffffffffffffffff167f2dcf9433d75db0d8b1c172641f85e319ffe4ad22e108a95d1847ceb906e5195d8361236857600261236b565b60015b6123748461238e565b604051612382929190614293565b60405180910390a25050565b6000819050919050565b60006123be6123a68361238e565b6123af8561238e565b6123b99190613c53565b612681565b905092915050565b6123ce61268b565b73ffffffffffffffffffffffffffffffffffffffff166123ec610c81565b73ffffffffffffffffffffffffffffffffffffffff161461244b5761240f61268b565b6040517f118cdaa70000000000000000000000000000000000000000000000000000000081526004016124429190613842565b60405180910390fd5b565b60008060009054906101000a900473ffffffffffffffffffffffffffffffffffffffff169050816000806101000a81548173ffffffffffffffffffffffffffffffffffffffff021916908373ffffffffffffffffffffffffffffffffffffffff1602179055508173ffffffffffffffffffffffffffffffffffffffff168173ffffffffffffffffffffffffffffffffffffffff167f8be0079c531659141344cd1fd0a4f28419497f9722a3daafe3b4186f6b6457e060405160405180910390a35050565b600061253e6125396125228561238e565b670de0b6b3a76400006125348661238e565b612693565b612681565b905092915050565b6000806125528361238e565b9050680736ea4425c11ac6308111156125a257826040517f1af63aca0000000000000000000000000000000000000000000000000000000081526004016125999190613632565b60405180910390fd5b60006714057b7ef767814f820290506125da6125d5670de0b6b3a764000083816125cf576125ce613eff565b5b04612681565b6127ad565b92505050919050565b60006126206714057b7ef767814f670de0b6b3a764000061260b6126068661283f565b61238e565b028161261a57612619613eff565b5b04612681565b9050919050565b600061264b6126466126388561238e565b6126418561238e565b612971565b612681565b905092915050565b60006126796126618361238e565b61266a8561238e565b61267491906142bc565b612681565b905092915050565b6000819050919050565b600033905090565b60008060008019858709858702925082811083820303915050600081036126ce578382816126c4576126c3613eff565b5b04925050506127a6565b838110612716578585856040517f63a0577800000000000000000000000000000000000000000000000000000000815260040161270d939291906138b6565b60405180910390fd5b60008486880990508281118203915080830392506000600186190186169050600081870496508185049450600182836000030401905080840285179450600060028860030218905080880260020381029050808802600203810290508088026002038102905080880260020381029050808802600203810290508088026002038102905080860296505050505050505b9392505050565b6000806127b98361238e565b9050680a688906bd8affffff81111561280957826040517fb3b6ba1f0000000000000000000000000000000000000000000000000000000081526004016128009190613632565b60405180910390fd5b6000670de0b6b3a7640000604083901b6128239190613f2e565b905061283661283182612a5b565b612681565b92505050919050565b60008061284b8361238e565b9050670de0b6b3a764000081101561289a57826040517f36d32ef00000000000000000000000000000000000000000000000000000000081526004016128919190613632565b60405180910390fd5b60006128bd670de0b6b3a764000083816128b7576128b6613eff565b5b046133bb565b90506000670de0b6b3a76400008202905060008284901c9050670de0b6b3a764000081036128f9576128ee82612681565b94505050505061296c565b6000671bc16d674ec80000905060006706f05b59d3b2000090505b600081111561295a57670de0b6b3a76400008384028161293757612936613eff565b5b04925081831061294e578084019350600183901c92505b600181901c9050612914565b5061296483612681565b955050505050505b919050565b60008060008019848609848602925082811083820303915050600081036129b457670de0b6b3a764000082816129aa576129a9613eff565b5b0492505050612a55565b670de0b6b3a76400008110612a025784846040517f5173648d0000000000000000000000000000000000000000000000000000000081526004016129f99291906142f0565b60405180910390fd5b6000670de0b6b3a764000085870990507faccb18165bd6fe31ae1cf318dc5b51eee0e1ba569b88cd74c1773b91fac106696001620400008060000304018483118403026204000083860304170293505050505b92915050565b6000778000000000000000000000000000000000000000000000009050600067ff0000000000000083161115612bbc57600067800000000000000083161115612ab157604068016a09e667f3bcc9098202901c90505b600067400000000000000083161115612ad75760406801306fe0a31b7152df8202901c90505b600067200000000000000083161115612afd5760406801172b83c7d517adce8202901c90505b600067100000000000000083161115612b2357604068010b5586cf9890f62a8202901c90505b600067080000000000000083161115612b495760406801059b0d31585743ae8202901c90505b600067040000000000000083161115612b6f576040680102c9a3e778060ee78202901c90505b600067020000000000000083161115612b9557604068010163da9fb33356d88202901c90505b600067010000000000000083161115612bbb576040680100b1afa5abcbed618202901c90505b5b600066ff00000000000083161115612cf7576000668000000000000083161115612bf357604068010058c86da1c09ea28202901c90505b6000664000000000000083161115612c185760406801002c605e2e8cec508202901c90505b6000662000000000000083161115612c3d576040680100162f3904051fa18202901c90505b6000661000000000000083161115612c625760406801000b175effdc76ba8202901c90505b6000660800000000000083161115612c87576040680100058ba01fb9f96d8202901c90505b6000660400000000000083161115612cac57604068010002c5cc37da94928202901c90505b6000660200000000000083161115612cd15760406801000162e525ee05478202901c90505b6000660100000000000083161115612cf657604068010000b17255775c048202901c90505b5b600065ff000000000083161115612e295760006580000000000083161115612d2c5760406801000058b91b5bc9ae8202901c90505b60006540000000000083161115612d50576040680100002c5c89d5ec6d8202901c90505b60006520000000000083161115612d7457604068010000162e43f4f8318202901c90505b60006510000000000083161115612d98576040680100000b1721bcfc9a8202901c90505b60006508000000000083161115612dbc57604068010000058b90cf1e6e8202901c90505b60006504000000000083161115612de05760406801000002c5c863b73f8202901c90505b60006502000000000083161115612e04576040680100000162e430e5a28202901c90505b60006501000000000083161115612e285760406801000000b1721835518202901c90505b5b600064ff0000000083161115612f5257600064800000000083161115612e5c576040680100000058b90c0b498202901c90505b600064400000000083161115612e7f57604068010000002c5c8601cc8202901c90505b600064200000000083161115612ea25760406801000000162e42fff08202901c90505b600064100000000083161115612ec557604068010000000b17217fbb8202901c90505b600064080000000083161115612ee85760406801000000058b90bfce8202901c90505b600064040000000083161115612f0b576040680100000002c5c85fe38202901c90505b600064020000000083161115612f2e57604068010000000162e42ff18202901c90505b600064010000000083161115612f51576040680100000000b17217f88202901c90505b5b600063ff00000083161115613072576000638000000083161115612f8357604068010000000058b90bfc8202901c90505b6000634000000083161115612fa55760406801000000002c5c85fe8202901c90505b6000632000000083161115612fc7576040680100000000162e42ff8202901c90505b6000631000000083161115612fe95760406801000000000b17217f8202901c90505b600063080000008316111561300b576040680100000000058b90c08202901c90505b600063040000008316111561302d57604068010000000002c5c8608202901c90505b600063020000008316111561304f5760406801000000000162e4308202901c90505b600063010000008316111561307157604068010000000000b172188202901c90505b5b600062ff00008316111561318957600062800000831611156130a15760406801000000000058b90c8202901c90505b600062400000831611156130c2576040680100000000002c5c868202901c90505b600062200000831611156130e357604068010000000000162e438202901c90505b60006210000083161115613104576040680100000000000b17218202901c90505b6000620800008316111561312557604068010000000000058b918202901c90505b600062040000831611156131465760406801000000000002c5c88202901c90505b60006202000083161115613167576040680100000000000162e48202901c90505b600062010000831611156131885760406801000000000000b1728202901c90505b5b600061ff0083161115613297576000618000831611156131b6576040680100000000000058b98202901c90505b6000614000831611156131d657604068010000000000002c5d8202901c90505b6000612000831611156131f65760406801000000000000162e8202901c90505b60006110008316111561321657604068010000000000000b178202901c90505b6000610800831611156132365760406801000000000000058c8202901c90505b600061040083161115613256576040680100000000000002c68202901c90505b600061020083161115613276576040680100000000000001638202901c90505b600061010083161115613296576040680100000000000000b18202901c90505b5b600060ff8316111561339c5760006080831611156132c2576040680100000000000000598202901c90505b60006040831611156132e15760406801000000000000002c8202901c90505b6000602083161115613300576040680100000000000000168202901c90505b600060108316111561331f5760406801000000000000000b8202901c90505b600060088316111561333e576040680100000000000000068202901c90505b600060048316111561335d576040680100000000000000038202901c90505b600060028316111561337c576040680100000000000000018202901c90505b600060018316111561339b576040680100000000000000018202901c90505b5b670de0b6b3a764000081029050604082901c60bf0381901c9050919050565b60006fffffffffffffffffffffffffffffffff821160071b82811c925080821791505067ffffffffffffffff821160061b82811c925080821791505063ffffffff821160051b82811c925080821791505061ffff821160041b82811c925080821791505060ff821160031b82811c9250808217915050600f821160021b82811c92508082179150506003821160011b82811c925080821791505060018211808217915050919050565b604051806101200160405280600081526020016060815260200160008152602001600081526020016000815260200160008152602001600015158152602001600015158152602001600081525090565b600080fd5b60008115159050919050565b6134ce816134b9565b81146134d957600080fd5b50565b6000813590506134eb816134c5565b92915050565b6000819050919050565b613504816134f1565b811461350f57600080fd5b50565b600081359050613521816134fb565b92915050565b6000806040838503121561353e5761353d6134b4565b5b600061354c858286016134dc565b925050602061355d85828601613512565b9150509250929050565b600073ffffffffffffffffffffffffffffffffffffffff82169050919050565b6000819050919050565b60006135ac6135a76135a284613567565b613587565b613567565b9050919050565b60006135be82613591565b9050919050565b60006135d0826135b3565b9050919050565b6135e0816135c5565b82525050565b60006020820190506135fb60008301846135d7565b92915050565b600061361c613617613612846134f1565b613587565b6134f1565b9050919050565b61362c81613601565b82525050565b60006020820190506136476000830184613623565b92915050565b6000613658826135b3565b9050919050565b6136688161364d565b82525050565b6000602082019050613683600083018461365f565b92915050565b600060408201905061369e6000830185613623565b6136ab6020830184613623565b9392505050565b6136bb816134f1565b82525050565b600081519050919050565b600082825260208201905092915050565b60005b838110156136fb5780820151818401526020810190506136e0565b60008484015250505050565b6000601f19601f8301169050919050565b6000613723826136c1565b61372d81856136cc565b935061373d8185602086016136dd565b61374681613707565b840191505092915050565b61375a816134b9565b82525050565b600061012082019050613776600083018c6136b2565b8181036020830152613788818b613718565b9050613797604083018a6136b2565b6137a460608301896136b2565b6137b160808301886136b2565b6137be60a08301876136b2565b6137cb60c0830186613751565b6137d860e0830185613751565b6137e66101008301846136b2565b9a9950505050505050505050565b60006020828403121561380a576138096134b4565b5b6000613818848285016134dc565b91505092915050565b600061382c82613567565b9050919050565b61383c81613821565b82525050565b60006020820190506138576000830184613833565b92915050565b61386681613821565b811461387157600080fd5b50565b6000813590506138838161385d565b92915050565b60006020828403121561389f5761389e6134b4565b5b60006138ad84828501613874565b91505092915050565b60006060820190506138cb60008301866136b2565b6138d860208301856136b2565b6138e560408301846136b2565b949350505050565b6138f6816134f1565b82525050565b600082825260208201905092915050565b6000613918826136c1565b61392281856138fc565b93506139328185602086016136dd565b61393b81613707565b840191505092915050565b61394f816134b9565b82525050565b60006101208301600083015161396e60008601826138ed565b5060208301518482036020860152613986828261390d565b915050604083015161399b60408601826138ed565b5060608301516139ae60608601826138ed565b5060808301516139c160808601826138ed565b5060a08301516139d460a08601826138ed565b5060c08301516139e760c0860182613946565b5060e08301516139fa60e0860182613946565b50610100830151613a0f6101008601826138ed565b508091505092915050565b60006020820190508181036000830152613a348184613955565b905092915050565b6000613a47826135b3565b9050919050565b613a5781613a3c565b82525050565b6000602082019050613a726000830184613a4e565b92915050565b7f416d6f756e74206d7573742062652067726561746572207468616e207a65726f600082015250565b6000613aae6020836136cc565b9150613ab982613a78565b602082019050919050565b60006020820190508181036000830152613add81613aa1565b9050919050565b6000604082019050613af96000830185613833565b613b0660208301846136b2565b9392505050565b613b16816134f1565b8114613b2157600080fd5b50565b600081519050613b3381613b0d565b92915050565b600060208284031215613b4f57613b4e6134b4565b5b6000613b5d84828501613b24565b91505092915050565b6000602082019050613b7b60008301846136b2565b92915050565b7f496e73756666696369656e742062616c616e6365000000000000000000000000600082015250565b6000613bb76014836136cc565b9150613bc282613b81565b602082019050919050565b60006020820190508181036000830152613be681613baa565b9050919050565b6000606082019050613c026000830186613833565b613c0f60208301856136b2565b613c1c60408301846136b2565b949350505050565b7f4e487b7100000000000000000000000000000000000000000000000000000000600052601160045260246000fd5b6000613c5e826134f1565b9150613c69836134f1565b9250828201905080821115613c8157613c80613c24565b5b92915050565b7f4f6e6c79207265736f6c7665722063616e2063616c6c20746869732066756e6360008201527f74696f6e00000000000000000000000000000000000000000000000000000000602082015250565b6000613ce36024836136cc565b9150613cee82613c87565b604082019050919050565b60006020820190508181036000830152613d1281613cd6565b9050919050565b7f4d61726b657420616c7265616479207265736f6c766564000000000000000000600082015250565b6000613d4f6017836136cc565b9150613d5a82613d19565b602082019050919050565b60006020820190508181036000830152613d7e81613d42565b9050919050565b7f4e487b7100000000000000000000000000000000000000000000000000000000600052602260045260246000fd5b60006002820490506001821680613dcc57607f821691505b602082108103613ddf57613dde613d85565b5b50919050565b7f4d61726b6574206e6f74207265736f6c76656400000000000000000000000000600082015250565b6000613e1b6013836136cc565b9150613e2682613de5565b602082019050919050565b60006020820190508181036000830152613e4a81613e0e565b9050919050565b7f4e6f2059455320746f6b656e73207374616b6564000000000000000000000000600082015250565b6000613e876014836136cc565b9150613e9282613e51565b602082019050919050565b60006020820190508181036000830152613eb681613e7a565b9050919050565b6000613ec8826134f1565b9150613ed3836134f1565b9250828202613ee1816134f1565b91508282048414831517613ef857613ef7613c24565b5b5092915050565b7f4e487b7100000000000000000000000000000000000000000000000000000000600052601260045260246000fd5b6000613f39826134f1565b9150613f44836134f1565b925082613f5457613f53613eff565b5b828204905092915050565b600081519050613f6e816134c5565b92915050565b600060208284031215613f8a57613f896134b4565b5b6000613f9884828501613f5f565b91505092915050565b7f5061796d656e74206661696c6564000000000000000000000000000000000000600082015250565b6000613fd7600e836136cc565b9150613fe282613fa1565b602082019050919050565b6000602082019050818103600083015261400681613fca565b9050919050565b7f4e6f204e4f20746f6b656e73207374616b656400000000000000000000000000600082015250565b60006140436013836136cc565b915061404e8261400d565b602082019050919050565b6000602082019050818103600083015261407281614036565b9050919050565b7f4d696e696d756d20796f752073686f756c64206275792061746c65617374203160008201527f20746f6b656e7300000000000000000000000000000000000000000000000000602082015250565b60006140d56027836136cc565b91506140e082614079565b604082019050919050565b60006020820190508181036000830152614104816140c8565b9050919050565b7f4d6178696d756d20796f752063616e20627579206f6e6c7920313020746f6b6560008201527f6e7320617420612074696d650000000000000000000000000000000000000000602082015250565b6000614167602c836136cc565b91506141728261410b565b604082019050919050565b600060208201905081810360008301526141968161415a565b9050919050565b60006060820190506141b26000830186613833565b6141bf6020830185613833565b6141cc60408301846136b2565b949350505050565b600082825260208201905092915050565b50565b60006141f56000836141d4565b9150614200826141e5565b600082019050919050565b60006080820190506142206000830186613833565b61422d60208301856136b2565b61423a60408301846136b2565b818103606083015261424b816141e8565b9050949350505050565b600060ff82169050919050565b600061427d61427861427384614255565b613587565b6134f1565b9050919050565b61428d81614262565b82525050565b60006040820190506142a86000830185614284565b6142b560208301846136b2565b9392505050565b60006142c7826134f1565b91506142d2836134f1565b92508282039050818111156142ea576142e9613c24565b5b92915050565b600060408201905061430560008301856136b2565b61431260208301846136b2565b939250505056fea26469706673582212209f560d6830def0de94d02e96307e3e7f19a512a50a5964c437ce00b0fff3a77e64736f6c63430008180033",
  "linkReferences": {},
  "deployedLinkReferences": {}
}